:1000000000800020BD01000011A00000C99F000079
:10001000C99F0000C99F0000C99F0000C99F000040
:10002000C99F0000C99F0000C99F000011A00000E7
:1000300011A00000C99F0000E5BD0000E9BD00005F
:1000400011A0000011A0000011A0000011A00000EC
:1000500011A0000011A0000011A0000011A00000DC
:1000600011A0000011A0000011A0000011A00000CC
:1000700011A0000011A0000011A0000011A00000BC
:1000800011A0000011A0000011A0000011A00000AC
:1000900011A0000011A0000011A0000011A000009C
:1000A00011A0000011A0000011A0000011A000008C
:1000B00011A0000011A0000011A0000011A000007C
:1000C00011A0000011A0000011A0000011A000006C
:1000D00011A0000011A0000011A0000011A000005C
:1000E00011A0000011A0000011A0000011A000004C
:1000F00011A00000F1AB000011A0000011A0000051
:1001000011A0000011A0000011A0000011A000002B
:1001100011A0000011A0000011A0000011A000001B
:1001200011A0000011A0000011A0000011A000000B
:1001300011A0000011A0000011A0000011A00000FB
:1001400011A0000011A0000011A0000011A00000EB
:10015000D9920000ED920000019300001593000079
:1001600011A000006DAF000011A0000011A0000060
:1001700011A0000011A0000011A0000011A00000BB
:1001800011A0000011A0000011A0000011A00000AB
:1001900011A0000011A0000011A0000011A000009B
:1001A00011A0000011A0000011A0000011A000008B
:1001B00011A0000011A0000011A00000564B4CF24D
:1001C000205210B51A804DF628121A8000BF00BFC9
:1001D00009F022FF514B4FF010621A60504A9A60AA
:1001E000504ADA60504A136813F4807304D14F49BF
:1001F0000B604FF4A85313604D4B1A78110703D5C9
:100200001A7842F008021A704A4B4B492A221A7097
:100210004A4A4B4B8B4204D252F8040F43F8040B6A
:10022000F8E7484B484900228B4202D243F8042B9E
:10023000FAE74649464A002352F8230041F82300D2
:1002400001336F2BF8D1434B434A802103F8011B44
:100250009342FBD1414B3D4A1A60414B8A221A70AE
:10026000A3F5805324225A70A0221A709A7992071B
:10027000FCD59A79D406FCD43A4A937903F00C035E
:10028000082B384BF9D105221A7143225A719A79F9
:100290009006FCD5334A9179324B4906FBD5324A58
:1002A0004FF0817111600521516020221A709A79F6
:1002B00002F00C020C2AFAD12C4B2D4A1A602D4B5D
:1002C0002D4A1A6000225A60072243F8042C2B4A58
:1002D000C3F80C2D62B60AF013F8144B1B68DA074A
:1002E00005D5274809F078FF264B274A1A60274B87
:1002F0001B785B0609D5234C234B22689A4204D114
:100300001F4809F069FF0023236009F08BFE0DF000
:1003100027F909F07DFDFEE70E20054030800440FE
:10032000823F04000100002B10D0034014D0034092
:1003300002D0074000E007402092FF1FAC6101009F
:100340002087FF1F2092FF1FECA0FF1F0082FF1FCE
:100350000000000000E400E05FE400E008ED00E0E1
:1003600000500640004006404480044004800440A1
:10037000C010050014E000E03F190100000020203B
:10038000CF20DB621CE00340A5C3945A00F0074075
:10039000FFFFFFFFFFFFFFFFFFFFFFFFFFFFFFFF6D
:1003A000FFFFFFFFFFFFFFFFFFFFFFFFFFFFFFFF5D
:1003B000FFFFFFFFFFFFFFFFFFFFFFFFFFFFFFFF4D
:1003C000FFFFFFFFFFFFFFFFFFFFFFFFFFFFFFFF3D
:1003D000FFFFFFFFFFFFFFFFFFFFFFFFFFFFFFFF2D
:1003E000FFFFFFFFFFFFFFFFFFFFFFFFFFFFFFFF1D
:1003F000FFFFFFFFFFFFFFFFFFFFFFFFFFFFFFFF0D
:10040000FFFFFFFFFFFFFFFFFFFFFFFFDEF9FFFF23
:1004100010B5054C237833B9044B13B10448AFF33E
:1004200000800123237010BD2092FF1F00000000F8
:10043000A8610100084B10B51BB108490848AFF38B
:1004400000800848036803B910BD074B002BFBD0A0
:10045000BDE81040184700BF000000002492FF1FB5
:10046000A86101002092FF1F0000000000207047DB
:100470000249034A00230B60136070474896FF1F30
:10048000D896FF1F10B52C4C216851B121682A4B1A
:1004900001291AD01A68022A07D01C68032C20D020
:1004A00010BD032009F0ACFEF0E70121032009F0A4
:1004B000A7FE642009F0D4FE0021032009F0A0FE6D
:1004C0004FF4967009F0CCFE0121032009F098FE4C
:1004D000642009F0C5FE00210320BDE8104009F0AA
:1004E0008FBE0121204609F08BFE642009F0B8FE82
:1004F0000021204609F084FE4FF4967009F0B0FE0A
:100500000121204609F07CFE642009F0A9FE0021AB
:10051000204609F075FE4FF4967009F0A1FE012106
:10052000204609F06DFE642009F09AFE2046002165
:10053000BDE8104009F064BE2887FF1F38B5054CA0
:10054000A4F580752046103C09F0A0F8AC42F9D122
:1005500038BD00BFA498FF1F10B5044608F09AFEEE
:10056000204610BD1B4A137810B5DBB11A4C236826
:10057000013323602368102B06D92268174B1340E0
:10058000002B21DB236010BD0121154801FA03F384
:10059000184080B11378002BEFD00021052009F01E
:1005A0002FFEEAE703F0FF01052009F029FE0A4BC0
:1005B00001221A6010BD42F22E2018400028DCD023
:1005C0001378002BD9D0E9E7013B63F00F03013327
:1005D000236010BD3487FF1F4492FF1F0F0000806F
:1005E000D0DD0100074B084A1B6882B042F20F7051
:1005F0000193019B12689B1A83428CBF002001204B
:1006000002B070475C9EFF1FD896FF1F2DE9F8438C
:100610008B680746441EEBB9DFF88880DFF88890C6
:1006200025011D4E1D4904EB4400331800224544AA
:100630003254802628465A709E7009F0C9F8092C59
:1006400028461DDD214609F013F9012309F804307D
:10065000BDE8F883082B11D8DFF84880DFF8489010
:100660000E46250108EB050009F0AAF8B36801223F
:1006700009F80420002BD4D0BDE8F883BDE8F88346
:10068000074909F0E7F8394609F0F2F8012309F8BB
:100690000430BDE8F88300BF8497FF1F284E010097
:1006A000584F0100B497FF1F589CFF1F70B588B0CA
:1006B00006460D4604A81149114C09F027F80A22F4
:1006C0003146684609F054F8694604A809F0E4F890
:1006D0000C4909F0E9F8294609F0DEF80146204600
:1006E00008F022FE204608F045FE684608F0CEFFDE
:1006F00004A808F0CBFF08B070BD00BF304E010069
:100700008487FF1F384E010000B5084A084B126865
:10071000084883B001210192019A1A600BF07AF91E
:10072000054B01221A7003B05DF804FB5C9EFF1FAD
:10073000D896FF1F484E01004892FF1F70B58CB03D
:100740000A4602A9044607F047FF01AA3C4902A84D
:100750000DF066FD2046002107F07CFE394B1B782A
:1007600006461BBB019B384C226837499A421BDB6B
:100770000A689A4218DB5C1E344D04EB44031D44A6
:100780000021AB7843F00403AB7030460CF0F8FC6A
:100790002F4AAB78127868B303F0FE03AB70002ADF
:1007A0004AD12C4B01221A550CB070BD15212A4894
:1007B000254C0BF02FF90199284808F045FE0B2134
:1007C00027480BF027F9002130460CF0D9FCB0FA8D
:1007D00080F14909214808F037FE2268019B9342C5
:1007E000C2DD12211F480BF015F91C4808F0C2FDAC
:1007F000019BB9E743F00103AB70002AD1D01A493D
:1008000008A808F083FF0A22019904A808F0B0FFA5
:1008100004A908A809F040F80146104808F084FD32
:100820000E4808F0A7FD04A808F030FF08A808F05B
:100830002DFF019B5C1EB4E708A80C49E1E700BF4F
:100840004C4E0100EC96FF1FD09BFF1F4C92FF1FE8
:100850008097FF1FF096FF1F504E01008487FF1FF7
:10086000684E0100744E0100884E01009C4E01004C
:1008700030B593B00A460DA9044607F0ADFE01AAB3
:1008800021490DA80DF0CCFC082302AA0021204626
:1008900007F010FE02A905A808F038FF1B4B1B78D3
:1008A000A3B9019C1A4D09A805A908F043FF2B68BC
:1008B000A34203DB204609A9FFF7A8FE09A808F018
:1008C000E5FE05A808F0E2FE13B030BD1521114881
:1008D0000F4D0BF09FF801990F4808F0B5FD092165
:1008E0000E480BF097F805A90B4808F01DFD0A48C3
:1008F00008F040FD2B68019C9C42D4DD1221084881
:100900000BF088F8019CCEE74C4E0100EC96FF1FDF
:100910003C92FF1FB44E01008487FF1FCC4E0100A4
:10092000744E010030B58DB00A4602A9044607F0A6
:1009300053FE01AB6A46374902A80DF071FC002155
:10094000204607F087FD0CF04DFC334B1B78054625
:1009500013BB009B314C22689A4213DB304931486B
:100960005A1E02EB42030B440078997841F00801CB
:100970009970997845B141F00201997050BB2A4BAA
:10098000012199540DB030BD01F0FD01997000288E
:10099000F5D008A825491FE0142125481F4C0BF06D
:1009A00039F80099234808F04FFD0B2122480BF03D
:1009B00031F829461F4808F047FD1E4808F0DAFCC8
:1009C0002268009B9342C6DD12211C480BF022F8DE
:1009D000009BC0E71A4908A808F098FE0A2200996F
:1009E00004A808F0C5FE04A908A808F055FF0146B0
:1009F000104808F099FC0F4808F0BCFC04A808F067
:100A000045FE08A808F042FE009B5A1E064B012135
:100A10009954B7E7D84E0100EC96FF1FD09BFF1FFB
:100A20004C92FF1F8097FF1FF096FF1F084F010099
:100A3000E04E01008487FF1F684E0100744E0100E4
:100A4000F84E010038B5044608460D460DF098FEF4
:100A50002368024629465B6820469847054620469B
:100A600008F088FC284438BDF0B5184C184D2368B0
:100A7000184E83B00F460193019B2B604FF47A62AE
:100A80004EF6602102F084FD23680093009B3360E2
:100A900044B29FB1ACB10E210F480AF0BBFF2B68E6
:100AA00031680E48C91A0A22002308F08DFC05217E
:100AB0000B480AF0AFFF094808F05CFC204603B081
:100AC000F0BD102107480AF0A5FFE8E75C9EFF1F74
:100AD000DC96FF1FDC9CFF1F2C4F01008487FF1F4B
:100AE0003C4F0100184F0100F0B57A4C83B02368E9
:100AF0000093009E002740F6B73503E00AF060FF40
:100B0000002837D123680193019B9B1BAB42F5D989
:100B100077B3FBB2303B232B2AD8DFE803F038450C
:100B200053616F7D8B299929292929292929292967
:100B300029292929AA2929292929292929292929A4
:100B40002912654C654E664D6648674900230122AF
:100B5000237032702A7003700B7053242121634874
:100B60000AF058FF20460AF0D9FF614808F002FC5D
:100B700003B0F0BD07215F480AF04CFF0AF0FEFF0A
:100B80000AF0E2FE0746C0B20AF0C8FFBAE7524CCC
:100B9000524D54485449524A002323702B7003701D
:100BA0000B7013703024D9E74B4C4C4D4D484E49D7
:100BB0004B4A0023012623702E7003700B701370B4
:100BC0003124CBE7444C454E464D47484449002329
:100BD0000122237032702A7003700B703224BDE73B
:100BE000414C3E4E3F4D3C483D490123002223707D
:100BF00033702B7002700A703324AFE7394C374ED4
:100C0000354D3948364901230022237033702B704B
:100C100002700A703424A1E7324C304E2E4D324817
:100C20002F4A01230021237033702B700370117041
:100C3000352493E72B4C294E274D2B482849002378
:100C40000122237032702A7003700B70362485E7FE
:100C50002249214F234E244D2148274A01230024B5
:100C60000B70052104703B7033702B7011703824A9
:100C700074E71F4808F07EFB0D2120480AF0CAFEE9
:100C800003211F480AF0C6FE194808F073FB0AF05A
:100C900075FF26211B480AF0BDFE154808F06AFBC7
:100CA0000AF06CFF0121032009F0AAFA00210E20AE
:100CB00009F0A6FA642009F0D3FA01210E2009F008
:100CC0009FFA0021032009F09BFA642009F0C8FA7A
:100CD000E8E700BF5C9EFF1FC693FF1F8097FF1FC2
:100CE0004C96FF1FEC96FF1F8197FF1F884F010056
:100CF0008487FF1F444F01002C87FF1F4C4F0100CA
:100D00005C4F0100604F0100F0B5C748C74A046856
:100D1000C74DC84F91B040F2EE2613783BB12B7807
:100D2000DB0704D5036839685B1A0E2B08D8036803
:100D300011781B1B002900F01382B3F5FA6FECD970
:100D40000121092009F062FA0021092009F058FA6E
:100D500001210A2009F05AFA01210A2009F050FA6B
:100D60000121042009F052FA0121042009F048FA77
:100D70000121092009F044FA3521AF480AF04AFE62
:100D8000AE4808F0F7FA0AF0F9FE0121052009F053
:100D90003DFA0121032009F039FA01210E2009F062
:100DA00035FA0121032009F02BFA00210C2009F06B
:100DB0002DFAFFF799FE022008F0CAFE0C2008F079
:100DC000EDFE0025FF24262008F01CFF0BF0F0FFAD
:100DD000014628460BF038FF05460A2009F040FA84
:100DE000631E13F0FF04EED112219548954E0AF0D0
:100DF00011FE284694490CF0E3F8014693480BF0A5
:100E000021FF93490CF028F892490BF01DFF0BF0DD
:100E1000A1FB02250B4602460095884808F01CFB02
:100E20000A218D480AF0F6FD844808F0A3FA122141
:100E30008A480AF0EFFD032189480AF0EBFD7F485C
:100E400008F098FA06F070FB864902467B4808F0E5
:100E5000ADFA8549854B864A08681B68126801907F
:100E6000043907A80968009182490DF0B3F91221ED
:100E700081480AF0CFFD07A80DF082FC014607A8C3
:100E80000AF0C8FD6D4808F075FA3546204608F0AE
:100E90007DFF0134042C05F8010BF7D133680133D1
:100EA0003360684E00243546204615F8011B013496
:100EB00008F086FF042CF7D1704F3D46204608F01D
:100EC00065FF0134082C05F8010BF7D112216C489D
:100ED0000AF0A0FD00230A223168584808F074FA8D
:100EE000564808F047FA0AF049FE122165480AF010
:100EF00091FD0023396851480A2208F065FA4F48ED
:100F000008F038FA0AF03AFE5F4B1B78002B40F0ED
:100F1000438103AE35215D480AF07CFD474808F067
:100F200029FA0AF02BFE1D2159480AF073FD4348A7
:100F300008F020FA06F052FB564902463F4808F0F6
:100F400035FA172154480AF065FD3C4808F012FABA
:100F5000524806F019FB0124042151480AF05AFDB9
:100F600000230A222146354808F02EFA01214D4877
:100F70000AF050FD01214948FFF776FDC5B2294628
:100F800000230A222D4808F01FFA022146480134A6
:100F90000AF040FD002DDFD0122144480AF03AFD4E
:100FA0000021032009F02CF910AC0F2140480AF071
:100FB00031FD304602F0A0FC002314F8301D1F481C
:100FC0000A2208F001FA0DF11305012139480AF04F
:100FD00021FD304602F090FC14F8011F1748002351
:100FE0000A2208F0F1F9A542EFD1144808F0C2F93D
:100FF0004FF4FA7009F034F921212F480AF00AFD64
:101000000E4808F0B7F92D492D4805F015F80028CD
:1010100000F0B68022212B480AF0FCFC074808F0BB
:10102000A9F9002103204FE05C9EFF1F60A0FF1F75
:1010300078A0FF1FE4A0FF1FAC4F01008487FF1FB3
:10104000E44F0100D496FF1F00007F430A63194557
:101050000FEE2E3E0000C841F84F01000450010081
:101060005C4F01001850010060800440588004402B
:10107000548004403050010048500100D49BFF1FB1
:101080005C500100705001004C96FF1F9850010009
:10109000D0500100F05001000C510100E096FF1FFC
:1010A00024510100D0550100005601002C510100CF
:1010B000405101007C510100505101007451010068
:1010C000B89DFF1F8051010009F09AF8404D414939
:1010D0002A88414800240094012305F0D1FB002810
:1010E00042D033213D480AF095FC3D4808F042F9D2
:1010F0002146032009F084F84FF4907009F0FAF9C2
:10110000842009F06DFA374C022009F02DFB298864
:10111000354802F08FFC354A3549204608F070F812
:1011200021685022227121B1324B33480B441B11EC
:101130001A54324C582009F093F8314A314920466C
:1011400008F05EF82168FF22227121B1294B2A485C
:101150000B441B111A542C4B00221A7011B0F0BD15
:10116000B3427FF6DAADEBE5262128480AF052FCBF
:101170001B4808F0FFF80121032009F041F8BBE704
:101180003B2123480AF046FC154808F0F3F80121FA
:10119000032009F035F899E707A806F0FFFF1021B2
:1011A00006F050FA03AE044612211A480AF032FC47
:1011B0002146304608F0AAFA3146094808F0B4F84A
:1011C000074808F0D7F8304608F060FAA2E600BFFA
:1011D0003887FF1FE0510100B89DFF1FF05101004B
:1011E0008487FF1F7897FF1FB09BFF1F8F5F010051
:1011F00065050000008FFCBF44E400E07097FF1F0E
:10120000FFA14A0485040000C793FF1F2452010078
:10121000A45101008450010070B51E4E88B0042412
:101220003546204608F0B2FD0134082C05F8010BC4
:10123000F7D1336801333360164E04243546204617
:1012400015F8011B013408F0BBFD082CF7D1642010
:1012500009F006F8104B1B78CBB11049684608F02E
:1012600055FA0A22316804A808F096FA04A96846DB
:1012700008F012FB01460A4808F056F8084808F042
:1012800079F804A808F002FA684608F0FFF908B0F7
:1012900070BD00BFD49BFF1F8097FF1F4C52010001
:1012A0008487FF1F2DE9F84FDFF88490D9F80030CC
:1012B000002B34DD00241B4DDFF87880DFF878A0A8
:1012C0002746012612E008F0C5FA3146B34608F079
:1012D000CFFA01230AF80430D9F800305B4505F154
:1012E000100506F1010604F1010418DD04EB4402C7
:1012F00008EB02034FF0080E0B4908F8027028466D
:101300005F7083F802E008F063FA092C0749284669
:10131000D9D92146284608F0ABFAB346D9E7BDE84B
:10132000F88F00BFB497FF1F284E0100584F0100EF
:101330003C92FF1F8497FF1F589CFF1FAA4B1B68FE
:10134000002B40F350812DE9F04FDFF8D082DFF819
:10135000D0B2A64EA64C87B0002501E009F0B4FB40
:1013600009F09EFB0028F9D105F201106F0009F089
:10137000C5FA09F071FB7B1908EB030118F803208B
:10138000D2B20BF803204A785B44D2B25A708A7802
:10139000D2B29A7008F040FF306009F081FB2368F8
:1013A000984217DB09F07CFB236898421DDA9149CB
:1013B00000224FF4E1534A55013BFDD14FF45263F3
:1013C000013BFDD1884B1B680135AB42C8DC07B03F
:1013D000BDE8F08F08F020FF3368C01A9528DCD9EB
:1013E00009F05EFB23689842E1DB834900224A55FD
:1013F000804A01235355814B804A1B680133136097
:1014000009F062FB824609F05FFB009009F05CFB8B
:101410007B4B5B5D03F0FF09002B62D0DFF804A279
:101420007B190AEB03091AF8030009F067FA99F827
:10143000010009F063FA99F8020009F05FFA714BB4
:101440005B5D322B00F0AA806D4A002353557B1957
:101450000AEB03001AF8032052070FD51AF80310FD
:1014600018F8032001F0030102F0FC020A4308F817
:10147000032042784344D2B259785A707B190AEB60
:1014800003029178490708D5434491789A7801F08E
:10149000010102F0FE020A439A707B190AEB030273
:1014A0009178080708D5434491789A7801F00201B1
:1014B00002F0FD020A439A702F441AF80730190708
:1014C0000AD51AF8072018F8073002F0F00203F0E6
:1014D0000F03134308F807304FF45263013BFDD16B
:1014E0006CE70190484609F009FA484609F006FA07
:1014F000484609F003FA7919019A9DF8009008EB23
:1015000001035FFA8AFA08F801A0D2B283F80190C9
:101510009A709A7852060AD5594458784A78904277
:1015200050D0354B344A5B5D43F0010353557B1972
:1015300008EB03025B4492789B7853405B0605D529
:101540002D4B2D4A5B5D43F0080353557B1908EB87
:1015500003025B4492789B78534013F0130F05D03D
:10156000254B254A5B5D43F0020353552F4418F881
:1015700007201BF807301B09B3EB121F05D01E4BC9
:101580001D4A5B5D43F0040353551B4B5B5D002B11
:101590003FF414AF1C4B01221A700FE71B4B1C4980
:1015A0001B68EB1A013301EB031102A808F0C2F823
:1015B00002A9184807F0B8FE09F04EFA02A808F090
:1015C00065F841E714485A78007891F801C0C0F1F5
:1015D000000ECCEB02027245A3DD5B784A789B1AC1
:1015E00098429EDDA3E77047D09BFF1F4092FF1FEC
:1015F0003087FF1F4C94FF1FD89BFF1FC893FF1F0E
:10160000F096FF1F5096FF1F2D87FF1FD096FF1FDC
:10161000B497FF1F4087FF1F2C87FF1F349AFF1FBF
:10162000B898FF1F4C92FF1F10B588B001A806F0B4
:10163000C9FE524802F0D0FA00280FDD441E4F4880
:1016400002F068FA013CC1B201A807F03DFB631C3F
:10165000F5D101A806F0F2FF044620B101A806F07A
:10166000EBFE08B010BD01210E2008F0C9FD234695
:10167000434A444901A806F09FFF2346424A434992
:1016800001A806F099FF2346414A424901A806F005
:1016900093FF2346404A414901A806F08DFF2346A7
:1016A0003F4A404901A806F087FF23463E4A3F498A
:1016B00001A806F081FF23463D4A3E4901A806F0F5
:1016C0007BFF23463C4A3D4901A806F075FF2346AF
:1016D0003B4A3C4901A806F06FFF23463A4A3B4982
:1016E00001A806F069FF2346394A3A4901A806F0E5
:1016F00063FF2346384A394901A806F05DFF2346B7
:10170000374A384901A806F057FF2346364A374979
:1017100001A806F051FF2346354A364901A806F0D4
:101720004BFF2346344A354901A806F045FF2346BE
:10173000334A344901A806F03FFF2346324A334971
:1017400001A806F039FF2346314A324901A806F0C4
:1017500033FF2346304A314901A806F02DFF2346C6
:101760002F4A304901A806F027FF21460E2008F035
:1017700047FD01A806F060FE08B010BDB09BFF1F3A
:101780003D07000060520100250900006C52010075
:101790007D2C00007C520100A92D00008C5201001C
:1017A000710800009C52010019220000B052010093
:1017B000291A0000BC52010071040000C45201004B
:1017C00009070000CC520100D1280000D4520100CA
:1017D00091280000E05201008D240000EC5201002D
:1017E000AD220000F8520100ED220000105301006C
:1017F0002D230000245301009D23000038530100D5
:10180000DD230000505301001D240000605301003F
:101810001129000074530100512900008453010074
:101820009129000098530100F0B51D4C237883B036
:10183000064633B118221346013BFDD12378002B15
:10184000F9D1184D01210E20217008F0D9FC6B69E7
:1018500093B9154B1B783BB900210E2008F0D0FC42
:101860000023237003B0F0BD4E2110480AF0D2F8D7
:101870000F4807F07FFDEFE70E4A0F4F12880193E4
:1018800069462846009702F02BF92946304606F0B3
:10189000EBFE284602F02CF9304606F09BFDDBE714
:1018A000569CFF1FB09BFF1F8097FF1FAC5301008A
:1018B0008487FF1F2487FF1FF05A010070B552492B
:1018C000524B534A08681B6812689AB00439019059
:1018D0000968009111A84F490CF07CFC11A806F092
:1018E0005DFC102105F0AEFE04460CF049FF042219
:1018F0004949204408F094FA4848494945794378D1
:10190000027806790395C57880788DE8610004A88F
:101910000CF060FC43490AA806F084FE182008F089
:10192000C1FB05463C4906F063FC2B78032B5BD0DA
:101930000C990B98013189000CF042FA002853D021
:101940000C9B0B905A1C40F823500C92182008F066
:10195000A9FB0546214606F04BFC2B78032B4FD004
:101960000C990B98013189000CF02AFA002847D015
:101970000C9B0B905A1C40F823500C92182008F036
:1019800091FB044604A906F033FC2378032B33D0E3
:101990000C990B98013189000CF012FA60B30C9B82
:1019A0000B905A1C40F823400C92182008F07AFB48
:1019B000044611A906F01CFC2378032B18D00C99BF
:1019C0000B98013189000CF0FBF988B10C9B0B904E
:1019D0005A1C40F823400C920AA8FFF725FF0AA8DA
:1019E00006F02AFD1AB070BD03238DF83430ADE740
:1019F00003238DF83430EFE703238DF83430D4E738
:101A000003238DF83430B9E76080044058800440E7
:101A100054800440305001005C4F0100E096FF1FED
:101A2000FC5301001C54010008B5074B1B7833B16F
:101A30000E21064809F0EEFF054807F09BFCBDE8C3
:101A40000840FFF73BBF00BF8097FF1F2C540100E9
:101A50008487FF1F30B5184D0FCD8DB06C460FC475
:101A60002B682380694605A806F0DCFD134B18207F
:101A70001D6808F017FB0446294606F0DDFB2378B5
:101A8000032B14D007990698013189000CF098F9BE
:101A900068B1079B06905A1C40F82340079205A89E
:101AA000FFF7C2FE05A806F0C7FC0DB030BD03234A
:101AB0008DF82030F3E700BF3C540100E896FF1F8B
:101AC00030B5184D0FCD8DB06C460FC42B682380F8
:101AD000694605A806F0A6FD134B18201D6808F0FE
:101AE000E1FA0446294606F0A7FB2378032B14D01D
:101AF00007990698013189000CF062F968B1079BDB
:101B000006905A1C40F82340079205A8FFF78CFE68
:101B100005A806F091FC0DB030BD03238DF82030F0
:101B2000F3E700BF505401003C92FF1F10B5164B65
:101B30000FCB8CB06C4607C46946237005A806F02D
:101B400071FD182008F0AEFA0446104906F050FB6B
:101B50002378032B14D007990698013189000CF0E3
:101B60002FF968B1079B06905A1C40F82340079252
:101B700005A8FFF759FE05A806F05EFC0CB010BDE5
:101B800003238DF82030F3E7645401005096FF1FC3
:101B9000F0B5324A00EB400313448FB09B7807AD99
:101BA000DB07064628463BD52D4907F0AFFD2D4BF8
:101BB0001B78002B43D1284607F068FD01272A4BEC
:101BC0000FCB02AC07C40A22237001A9701C0BF0D2
:101BD00007FD01A902A80CF075FB02A9284606F032
:101BE00021FD182008F05EFA0446394606F04EFB47
:101BF0002378032B1FD009990898013189000CF034
:101C0000DFF8C0B1099B08905A1C40F823400992A4
:101C10002846FFF709FE284606F00EFC0FB0F0BD7F
:101C2000124907F073FD0F4B1B786BB9284607F07C
:101C30002DFD0027C3E703238DF82830E8E7294668
:101C40003046FEF733FDB6E729463046FEF72EFD57
:101C5000284607F01BFD0027B1E700BF349AFF1F9D
:101C6000745401008197FF1F885401007C540100C7
:101C7000F0B5334A00EB400313448FB09B7807ADB7
:101C80009B07064628463ED52E4907F03FFD2E4BC2
:101C90001B78002B46D1284607F0F8FC01272B4B78
:101CA0000FCB02AC07C424F8023B1B0C23700A22A2
:101CB00001A9701C0BF094FC01A902A80CF002FB16
:101CC00002A9284606F0AEFC182008F0EBF90446FD
:101CD000394606F0DBFA2378032B1FD009990898C0
:101CE000013189000CF06CF8C0B1099B08905A1CB6
:101CF00040F8234009922846FFF796FD284606F053
:101D00009BFB0FB0F0BD124907F000FD0E4B1B7896
:101D10006BB9284607F0BAFC0027C0E703238DF80B
:101D20002830E8E729463046FEF7C0FCB3E72946ED
:101D30003046FEF7BBFC284607F0A8FC0027AEE7BC
:101D4000349AFF1F985401008197FF1FB05401007F
:101D5000A454010070B500EB40032D4A2D49D55C19
:101D600090B006462D0904A807F0D0FC0A222946A7
:101D7000684607F0FDFC694604A807F08DFD0146A2
:101D800009A807F0D7FC244B1B781BB109A93046E2
:101D9000FEF78CFC09A807F079FC684607F076FC92
:101DA00004A807F073FC1D4B0FCB04AC07C40A2238
:101DB00023806946701C0BF013FC694604A80CF0E4
:101DC00081FA04A909A806F02DFC182008F06AF988
:101DD0000446294606F030FA2378032B14D00B99D9
:101DE0000A98013189000BF0EBFF68B10B9B0A9058
:101DF0005A1C40F823400B9209A8FFF715FD09A8CB
:101E000006F01AFB10B070BD03238DF83030F3E7F5
:101E1000349AFF1FC05401008197FF1FCC5401006A
:101E2000F0B5324A00EB400313448FB09B7807AC07
:101E3000DB06064620463CD52D4907F067FC2D4BB6
:101E40001B78002B44D1204607F020FC01272A4BA9
:101E500093E8070002AD85E807000A2201A9701C7B
:101E60000BF0BEFB01A928460CF02CFA29462046AF
:101E700006F0D8FB182008F015F90546394606F09B
:101E800005FA2B78032B1FD0099908980131890096
:101E90000BF096FFC0B1099B08905A1C40F82350E4
:101EA00009922046FFF7C0FC204606F0C5FA0FB0A5
:101EB000F0BD124907F02AFC0E4B1B786BB9204687
:101EC00007F0E4FB0027C2E703238DF82830E8E79A
:101ED00021463046FEF7EAFBB5E721463046FEF7DD
:101EE000E5FB204607F0D2FB0027B0E7349AFF1F3E
:101EF000DC5401008197FF1FEC540100E454010001
:101F000000B589B0064901A806F08CFB01A8FFF7CF
:101F10008BFC01A806F090FA09B05DF804FB00BF45
:101F2000CC520100F0B5354B05460FCB8FB002AC5B
:101F300007C40A2201A9681C23800BF051FB01A9E8
:101F400002A80CF0BFF92E4A05EB450313449B7819
:101F500003F04003002B3FD12A4F03F0FF0607ACEC
:101F60003B7893B11C21284809F054FD29462748A5
:101F700007F06AFA0B21264809F04CFD3146234848
:101F800007F062FA214807F0F5F902A9204606F0A9
:101F900049FB182008F086F80546314606F076F928
:101FA0002B78032B14D009990898013189000BF084
:101FB00007FF68B1099B08905A1C40F8235009920A
:101FC0002046FFF731FC204606F036FA0FB0F0BD90
:101FD00003238DF82830F3E707AC0A4F0D4920465C
:101FE00007F094FB3B7823B9204607F04FFB01260E
:101FF000B6E721462846FEF759FBF5E7F8540100FD
:10200000349AFF1F8197FF1F145501008487FF1F1B
:10201000684E0100085501002DE9F047DFF8EC910A
:102020004FEA400808EB000309EB030296B09478EE
:1020300019F8036004F04004E4B2F6B219B914B917
:1020400016B0BDE8F087DFF8C8A16A4905460FA8B9
:1020500007F05CFB9AF80030002B40F0C5800FA819
:1020600007F014FBDFF8ACE1BEE80F000AAF0FC7C2
:10207000DEF800303B700A2201A9681C0BF0B0FAB0
:10208000A84401A90AA80CF01DF909EB080319F8E6
:1020900008709AF800205B7807F00307003418BF37
:1020A0000124C6F3800603EB0727002A55D10AA9AD
:1020B0000FA806F0B7FA182007F0F4FF05463946D6
:1020C00006F0BAF82B78032B00F082801199109853
:1020D000013189000BF074FE002879D0119B10901B
:1020E0005A1C40F823501192182007F0DBFF0546D8
:1020F000214606F0CBF82B78032B71D0119910985C
:10210000013189000BF05CFE002869D0119B109012
:102110005A1C40F823501192182007F0C3FF0446C0
:10212000314606F0B3F82378032B55D01199109857
:10213000013189000BF044FE00284DD0119B109016
:102140005A1C40F8234011920FA8FFF76DFB0FA80F
:1021500006F072F916B0BDE8F0871C21264809F098
:1021600059FC2946254807F06FF90921244809F050
:1021700051FC3946214807F067F906A8214907F0C4
:10218000C5FA0A22214602A807F0F2FA02A906A817
:1021900007F082FB1C4907F087FB0A2205463146FF
:1021A0000FA807F0E5FA0FA9284607F075FB0146CE
:1021B000124807F0B9F8114807F0DCF80FA807F04B
:1021C00065FA02A807F062FA06A807F05FFA6EE760
:1021D00003238DF8483087E703238DF84830B3E7B1
:1021E00003238DF8483097E70FA92846FEF75EFADB
:1021F00035E700BF34550100585501008487FF1FA3
:10220000785501008455010090550100349AFF1F54
:102210008197FF1F4455010038B5144B1B78E3B973
:10222000134D2B68002B17DD002401212046FFF7FA
:10223000F3FE2046FFF7ACFC2046FFF719FD2046D1
:10224000FFF7EEFD2046FFF785FD2046FFF76AFE0B
:102250002B680134A342E8DC38BD0921054809F0A8
:10226000D9FB054807F086F8DAE700BFEC96FF1FB8
:10227000D09BFF1F9C5501008487FF1F08B540F2CB
:10228000FF1008F03BFB002008F038FB002008F0AE
:1022900035FB002008F032FB002008F02FFB012066
:1022A00008F02CFBBDE8084008F0D6BB024A1368D2
:1022B000002BFCD1FFF7E2BF4492FF1F08B540F2AC
:1022C000FF1008F01BFB012008F018FB002008F0AD
:1022D00015FB002008F012FB002008F00FFB012086
:1022E00008F00CFBBDE8084008F0B6BB024A1368D2
:1022F000002BFCD1FFF7E2BF4492FF1F08B540F26C
:10230000FF1008F0FBFA022008F0F8FA002008F0AD
:10231000F5FA002008F0F2FA002008F0EFFA0120A8
:1023200008F0ECFABDE8084008F096BB024A1368D2
:10233000002BFCD1FFF7E2BF4492FF1F08B540F22B
:10234000FF1008F0DBFA032008F0D8FA002008F0AC
:10235000D5FA002008F0D2FA002008F0CFFA0020C9
:1023600008F0CCFABDE8084008F076BB08B540F2AA
:10237000FF1008F0C3FA042008F0C0FA002008F0AB
:10238000BDFA002008F0BAFA002008F0B7FA0120E0
:1023900008F0B4FABDE8084008F05EBB024A1368D2
:1023A000002BFCD1FFF7E2BF4492FF1F08B540F2BB
:1023B000FF1008F0A3FA052008F0A0FA002008F0AA
:1023C0009DFA002008F09AFA002008F097FA002001
:1023D00008F094FABDE8084008F03EBB024A1368D2
:1023E000002BFCD1FFF7E2BF4492FF1F08B540F27B
:1023F000FF1008F083FA062008F080FA002008F0A9
:102400007DFA002008F07AFA002008F077FA002020
:1024100008F074FABDE8084008F01EBB024A1368D1
:10242000002BFCD1FFF7E2BF4492FF1F08B540F23A
:10243000FF1008F063FA072008F060FA002008F0A7
:102440005DFA002008F05AFA002008F057FA002040
:1024500008F054FABDE8084008F0FEBA08B540F2AA
:10246000FF1008F04BFA0A2008F048FA002008F0A4
:1024700045FA002008F042FA002008F03FFA002058
:1024800008F03CFABDE8084008F0E6BA024A1368D2
:10249000002BFCD1FFF7E2BF4492FF1F2DE9F04F64
:1024A000A549DFF8C092A54B00220A6089B0C9F89F
:1024B000002003F17E01302203F8012F9942FBD165
:1024C0009F4ADFF8B0A201231370DAF80030012B25
:1024D000FBD1FFF733FF4FF47A7007F0C1FE1921EB
:1024E000984809F097FA984806F044FFDAF8006037
:1024F000012EFBD14FF4C653013BFDD1934F944DB8
:10250000944CB84601E008F0DFFA08F0C9FA002858
:10251000F9D106F5807008F0F1F908F09DFA07F09E
:102520007BFE286008F0BCFA23689842C0F2248140
:1025300008F0B6FA2368984280F22C814FF4E153F8
:10254000013BFDD101367F2E08F10108DDD1DAF81B
:102550000030052BFBD101264FF4616801E008F043
:10256000B3FA08F09DFA0028F9D106F5807008F05A
:10257000C5F908F071FA07F04FFE43462860013BA9
:10258000FDD108F08DFA23689842C0F29F8008F0D0
:1025900087FA2368984280F2A6804FF4E153013B0A
:1025A000FDD14FF45263013BFDD101367F2E07F17F
:1025B0000107D6D14FF47A7007F052FEFFF736FFCD
:1025C0004FF4FA7007F04CFEFFF748FF5C4A5F4992
:1025D000614C00236846137007F098F83121684673
:1025E00007F0A0F95949054604A807F08FF83221F1
:1025F00004A807F097F98542B8BF054604A82560EE
:1026000007F044F8684607F041F823685348544DF2
:1026100001330D21236009F0FDF921684A4806F0D5
:1026200013FF494806F0A6FE2B78002B00F0E1804E
:10263000D9F800304B4CEBB14B4904A807F066F8D1
:102640000A222168684607F093F8694604A807F053
:1026500023F901463C4806F067FE3B4806F08AFE37
:10266000684607F013F804A807F010F82B78002B41
:1026700000F0DD80304B304C1B68002B00F0BF8039
:102680003A4904A807F042F80A222168684607F090
:102690006FF8694604A807F0FFF801462A4806F0DB
:1026A00043FE294806F066FE684606F0EFFF04A8E0
:1026B00006F0ECFFD9F80030002B00F0BB802B783F
:1026C000002B40F09F8009B0BDE8F08F07F0A4FD1B
:1026D0002B68C01A95287FF654AF08F0E1F92368FB
:1026E0009842FFF65AAF08F0EFF908F0EDF908F05C
:1026F000EBF98246002008F001F9002008F0FEF80E
:102700005FFA8AFA002008F0F9F8BAF1800F3FF476
:1027100048AFD9F80030164801330D21C9F8003010
:1027200009F078F93146084806F08EFE064806F0B2
:1027300021FE31233B7034E73C92FF1F4F96FF1F71
:102740003487FF1FA85501008487FF1F5096FF1F85
:102750004092FF1F3087FF1FD09BFF1FE4550100F1
:102760008097FF1FE896FF1F0456010034560100B2
:10277000D45501004492FF1F07F04EFD2B68C01A8C
:10278000B0F5967FFFF4CEAE08F08AF92368984240
:10279000FFF6D4AE08F098F908F096F908F094F92D
:1027A0008346002008F0AAF8002008F0A7F80020CF
:1027B00008F0A4F85FFA8BF3802B7FF4C3AE214BB3
:1027C0001B680BB91F4B1E601F4B1F4A1B681F481D
:1027D0004FF0320E013388F800E00D21136009F04C
:1027E00019F931461A4806F02FFE194806F0C2FDC5
:1027F000A8E6D9F80030EBB109B0BDE8F08FD9F800
:102800000030BBB10A21134809F004F9124904A8A9
:1028100006F07CFF04A90E4806F086FD0C4806F081
:10282000A9FD04A806F032FF09B0BDE8F08F2368C7
:10283000002BE1D10121094809F0ECF809B0BDE80D
:10284000F08F00BFD096FF1F3C92FF1FC4550100C0
:102850008487FF1FF85501005096FF1FF4550100B3
:1028600008B540F2FF1008F049F80B2008F046F8D0
:10287000002008F043F8002008F040F8002008F09D
:102880003DF8002008F03AF8BDE8084008F0E4B848
:10289000024A1368002BFCD1FFF7E2BF4492FF1FEE
:1028A00008B540F2FF1008F029F80C2008F026F8CF
:1028B000002008F023F8002008F020F8002008F09D
:1028C0001DF8002008F01AF8BDE8084008F0C4B868
:1028D000024A1368002BFCD1FFF7E2BF4492FF1FAE
:1028E00008B540F2FF1008F009F80D2008F006F8CE
:1028F000002008F003F8002008F000F8002007F09E
:10290000FDFF002007F0FAFFBDE8084008F0A4B87A
:10291000024A1368002BFCD1FFF7E2BF4492FF1F6D
:1029200008B540F2FF1007F0E9FF0E2007F0E6FFC0
:10293000002007F0E3FF002007F0E0FF002007F091
:10294000DDFF002007F0DAFFBDE8084008F084B89A
:10295000024A1368002BFCD1FFF7E2BF4492FF1F2D
:1029600008B540F2FF1007F0C9FF0F2007F0C6FFBF
:10297000002007F0C3FF002007F0C0FF002007F091
:10298000BDFF002007F0BAFFBDE8084008F064B8BA
:10299000024A1368002BFCD1FFF7E2BF4492FF1FED
:1029A0004C4B2DE9F04F0025DFF848911D60D9F818
:1029B0000030AB4287B040F38A80474FDFF838A140
:1029C000464E474CDFF834B112E008F069F823684E
:1029D00098422ADA00230BF8053042F29043013B7B
:1029E000FDD1D9F800300135AB4207F110076EDD9B
:1029F000DAF80000284400F5807007F07FFF08F047
:102A00002BF807F009FC306008F04AF82368984278
:102A1000DBDA07F001FC3368C01AB0F5967FF3D318
:102A200008F03EF823689842D4DB01230BF8053008
:102A3000284B284A1B680133136008F045F805EB62
:102A40004508284BC0B203F8080008F03DF8254BB4
:102A500003EB0802C0B20192507008F035F8019AF9
:102A6000C0B24FF452639070013BFDD11E4B5B5DD1
:102A700003F0FF020BB31D4B13F80800984407F056
:102A80003DFF07F0E9FF98F8010007F037FF07F076
:102A9000E3FF98F8020007F031FF07F0DDFF394649
:102AA00002A806F047FE02A9114806F03DFC07F017
:102AB000D3FF02A806F0EAFD8FE71046019207F067
:102AC0001DFF019A104607F019FF8020E3E707B0C9
:102AD000BDE8F08FB498FF1FB497FF1F4092FF1F0F
:102AE0003087FF1FCC94FF1F589CFF1F8497FF1F48
:102AF0004087FF1F3C92FF1FD096FF1FCC93FF1F04
:102B00004649474A00200860464901230B70136874
:102B1000012BFCD12DE9F04FDFF820B185B0CBF8C7
:102B200000301368052BFCD13F4D404C40F201169C
:102B30004FF000094FF461674FF4E15801E007F0EE
:102B4000C3FF07F0ADFF0028F9D1304607F0D6FEED
:102B500007F082FF07F060FB3B462860013BFDD198
:102B600007F09EFF2368984235DB07F099FF236842
:102B700098423BDA4346013BFDD14FF45263013B9F
:102B8000FDD140F27F1301369E42DAD168462849D2
:102B900006F0BCFDDBF80030002B03DD69460120A8
:102BA000FDF734FD684606F071FDFFF7F9FE1D4A9A
:102BB000204800230121137008F02CFFB9F1000F09
:102BC0001D4BD4BF4FF000094FF0010983F800906E
:102BD00005B0BDE8F08F07F01FFB2B68C01A9528E1
:102BE000BED907F05DFF23689842C3DB07F06CFF96
:102BF00007F06AFF07F068FF8246002007F07EFEBC
:102C0000002007F07BFE002007F078FE5FFA8AF3D1
:102C1000802B18BF09F10109AFE700BFE896FF1F3D
:102C20004492FF1F3487FF1F4092FF1F3087FF1F12
:102C30005C560100685601004696FF1F3C92FF1F3C
:102C4000F8B54E1EB6000F2303FA06F699B101F14E
:102C50008045013D0C460746AD0007EA0601E94004
:102C600000231022044806F0AFFB013C4FEA161681
:102C7000A5F10405F1D1F8BD8487FF1FF0B585B03B
:102C80000A4602A9044605F0A7FC01AA3849394DB5
:102C900002A80BF0C5FA2046002105F0DBFB0AF084
:102CA000A1FA2B78044653B9334B1B78002B37D04D
:102CB000019B32495A1E8A5C3AB9314D18E0019B9A
:102CC0002E4A013BD35C002B33D010212D4808F055
:102CD000A1FE01992C4806F0B7FB51212B4808F0C2
:102CE00099FE294806F046FB2B7813BB019B244D27
:102CF0002A68934212DC013B03EB430124481F4D39
:102D0000425C04F5806402F0FC0242EA2422471887
:102D1000D2B2E4B2012642547C70EE5405B0F0BD4C
:102D20001C4B1B78002BC3D11B4B1B78002BBFD136
:102D3000DCE716211948124D08F06CFE0199124883
:102D400006F082FB0821164808F064FE03212046A5
:102D5000FFF776FF2B68019A9A4204DC0A4806F0D6
:102D600009FB019BC4E712210E4808F053FEF5E76A
:102D70004C4E0100EC96FF1FC693FF1FF096FF1FFD
:102D8000D09BFF1F845601008487FF1F98560100C7
:102D90004C92FF1F8197FF1F8097FF1FEC56010089
:102DA00004570100744E010030B585B00A4602A9EF
:102DB000044605F011FC01AA204902A80BF030FAE4
:102DC0002046002105F046FB0AF00CFA1C4B1B784C
:102DD0000446ABB91B4D2A68019B93420EDC013BB4
:102DE00003EB43011848194D425C240304F50064C9
:102DF00042EA2424E4B201224454EA5405B030BD2E
:102E0000162113480F4D08F005FE0199114806F0F0
:102E10001BFB0821104808F0FDFD02212046FFF7AA
:102E20000FFF2B68019A9A4203DC0A4806F0A2FAC7
:102E3000D1E71221094808F0EDFDF6E74C4E0100FC
:102E4000EC96FF1FD09BFF1F4C92FF1FF096FF1FB9
:102E5000105701008487FF1F28570100744E01009E
:102E60002DE9F04F974ADFF8C482DFF8C4920023BF
:102E70001370954B8FB01B680093009D934804F02E
:102E8000BBFA00F0A3FCFEF7CFFB914B1E78002E9F
:102E900031D1904C2378002B40F0C6828A4B8A4A6D
:102EA0001B680193019B5B1BB3F5FA6F80F0B68240
:102EB000844B1A78002A40F07F82874E3368002BBB
:102EC00040F09082854C2368032B06D01F21844854
:102ED00008F0A0FD834806F04DFA03232360336811
:102EE000002B40F088827A4A00231370C6E7784BA3
:102EF0001B78002B3CD0794C7B487C4D1B2108F083
:102F000089FD784806F036FAFFF7C8FAFEF7A2FD09
:102F1000FEF7D6FDFEF70AFEFEF7C4F9002374485B
:102F2000236006F0B7F92B68012B05D0012007F0CC
:102F300097F92B68012BF9D14FF4C653013BFDD112
:102F4000FFF72EFD45F6C053013BFDD1FFF7B6F963
:102F50004FF4E153013BFDD11921664808F05AFDB9
:102F6000604806F007FA644A594901230B70137050
:102F7000624D002B00F08081544804F03DFA00F0CF
:102F800025FC2B68002B0CDD00235D4C1A4603EB5F
:102F90004300211822544A708A70296801339942EB
:102FA000F5DC4C4C2378002B40F087814A4B1C68A1
:102FB000002C00F08B811B68002B00F0B081FDF726
:102FC00011FB002800F0AB814E4F4F4A474C0023C5
:102FD0003B6013602368012B04D0FEF725FB2368B8
:102FE000012BFAD1DFF84CB1FEF7A8F99BF80030BD
:102FF0001BB998F80030002B57D0444B394819685A
:103000000A22002306F0E0F90321414808F002FDFE
:103010002B68002BC8BF012417DC43E0A24698F8B8
:1030200000304BB119F80630002B00F02881394BE5
:103030009B5D002B40F02C810121374808F0EAFC11
:103040002B689A4504F101042CDA9BF80030661EC7
:10305000002BE3D019F8063002212046D3B1FFF748
:10306000EFFD01212D4808F0D5FC254B06EB46026B
:1030700003EB020A985C0221FFF7E2FD9AF80100D7
:103080000221FFF7DDFD9AF802000221A246FFF7B8
:10309000D7FDC4E7FFF7D4FD01212148A24608F07F
:1030A000B9FCBCE70F4806F065F91E4B1B78002BF6
:1030B00000F0D9802B68002B40F3D2801A4E0024F8
:1030C0004DE000BF4696FF1F5C9EFF1FB89DFF1F8F
:1030D000C793FF1F4892FF1FD896FF1F2887FF1F27
:1030E000345701008487FF1FC45801004492FF1F1A
:1030F0007097FF1FC05701003487FF1FD09BFF1F31
:103100004C92FF1FC893FF1FB498FF1FD89CFF1F4E
:103110003C580100F096FF1F48580100405801003C
:10312000445801002D87FF1FD89BFF1F8197FF1F69
:103130004C94FF1FC693FF1F335D59071ED4335DA8
:103140001A0721D4335DDB0724D4335D13B198F81B
:10315000003023BB2B680134A34240F38180335DF0
:103160009807E9D52046FEF713FD2046FEF780FDBF
:103170002046FEF755FE335D5907E0D52046FEF7A1
:10318000E9FD335D1A07DDD52046FEF7CBFE335D42
:10319000DB07DAD500212046FEF73EFFD5E7BA4926
:1031A0000AA806F0B3FA0A22214606A806F0E0FAB9
:1031B00006A90AA806F070FBB44906F075FB0146A3
:1031C000B34806F0B1F806A806F060FA0AA806F0BF
:1031D0005DFAB04B04EB440A03EB0A0B13F80A0048
:1031E0000221FFF72DFD9BF801000221FFF728FDCA
:1031F0009BF802000221FFF723FD0621A64808F0F4
:1032000009FCA64B03EB0A0B13F80A000221FFF797
:1032100017FD9BF801000221FFF712FD9BF8020049
:103220000221FFF70DFD05219D4808F0F3FB9D4BA2
:1032300013F80A009A440221FFF702FD9AF80100F0
:103240000221FFF7FDFC9AF802000221FFF7F8FCCB
:103250008F4806F08FF82B680134A3423FF77FAF09
:10326000914A002313703B68002B00F082808F4B43
:103270001B78002B7FF480AE0FB0BDE8F08F2046A6
:103280000221FFF7DDFC0121894808F0C3FBD3E6EA
:103290000121884808F0BEFB06EB4606814B985D8D
:1032A0001E440221FFF7CCFC70780221FFF7C8FC16
:1032B000B0780221FFF7C4FCBEE6FEF721FE002332
:1032C00023707D4B1C68002C7FF475AE21217B4858
:1032D00008F0A0FB6E4806F04DF80AAD734B784934
:1032E0001C70284606F012FA764B1B68002B03DD93
:1032F00029460120FDF78AF9284606F0C7F9FFF7AD
:103300004FFB714A7149724805F07AFF714B1B6897
:1033100003934FF4FA60039D06F0A2FFAEE521216E
:103320006D4808F077FB5A4806F024F80AAD5F4A6A
:103330006A4900232846137006F0E8F9614B1B68C0
:10334000002B03DD29460120FDF760F9284606F031
:103350009DF9FFF725FB5C4A5C495D4805F050FF8D
:103360005C4B1B6804934FF4FA60049D06F078FFF1
:1033700084E55B4A1360FEF76DFB98F8003033B1CB
:103380001421584808F046FB414805F0F3FF474C2C
:103390004D4A4E494E480023237005F031FF4D4BF6
:1033A00051481B6805932321059B08F033FB3848DF
:1033B00005F0E0FF2378DBE51B78002B3FF497ADA9
:1033C0003D490B68002B33D1484C2368012B03D0B7
:1033D00047492F48FDF736FB01222260334A00237C
:1033E00013704BE5FDF7FEF800283FF46BAD336832
:1033F000002B3FF478ADFDF7F5F800283FF473ADEE
:103400003A4C2368022B06D01E213A4808F002FBF2
:103410001F4805F0AFFF0223236064E513680293A1
:10342000029DFFF76DFB43E5FEF76AFD267035E56B
:10343000FDF7D8F80028C7D00B68002B3FF457AD34
:10344000FDF7D0F800283FF452AD284C2A49104827
:1034500000230AAD2360FDF7F5FA2846274906F058
:1034600055F9184B1B68002B03DD29460120FDF799
:10347000CDF8284606F00AF9FFF792FAFDF7CCFEE0
:103480000A4A0123137037E54C58010064580100C3
:103490008487FF1F349AFF1F78580100B898FF1FD8
:1034A000805801004C92FF1F2D87FF1FC793FF1FFD
:1034B0004458010040580100D896FF1FDC57010016
:1034C000005801003C92FF1FFFA14A048504000040
:1034D0007097FF1F5C9EFF1F0C58010030580100C1
:1034E000E896FF1F88580100A05801002887FF1F99
:1034F000745701005457010094570100B45701005C
:10350000F8B51A4D1A4E06F0FBFB8027194B2F71A8
:10351000002419482C604FF47A7718601C712846F3
:103520001C7308255C61154A15499F601E611D7753
:10353000144C08F0CDFC04F58075204600211034B1
:1035400006F0E4F8AC42F8D10C4A0F49002008F02C
:10355000BFFC0E4B094A0A49802400251C711846FD
:103560001D60BDE8F84008F0B3BC00BF7897FF1FAE
:10357000F05A0100B09BFF1FE85801002087FF1F91
:1035800059050000B497FF1F3D0500007097FF1F0D
:103590002DE9F043DFF83092D9F8003013F0010440
:1035A00083B006460F46904608D0774D774C25608D
:1035B00001F012FFD8B903B0BDE8F083484606F029
:1035C00049FD714D0028F1D04FF47A737049714A6A
:1035D0002B65082385F84C40484685F85440EC6537
:1035E000A964AA6585F8643006F03AFDDEE76A4D05
:1035F000EB7AEBB172B6EB7AD8071A4606D5674973
:10360000EA6808680240AA610A601A46990706D566
:1036100063492B690868EA7A0340EB610B60530742
:1036200005D5604A6B6911680B402B62136062B666
:103630002B685D4AD968914206D05C4919605C48A4
:103640005C49DA601861196006223146092001F0F0
:103650003BFB504B009301A9002304220F208DF85F
:1036600004308DF805308DF806308DF8073001F004
:103670002BFBEB7A48491A4683B1D80703D54E4A4B
:10368000896911601A46990703D54C4BE969EA7AB2
:103690001960530702D54A4B2A6A1A6043463A46D4
:1036A0003146206802F0E4F9012884D1EB7A3A4AE5
:1036B000EBB172B6D37AD807194606D53748D16828
:1036C000066831409161016019469F0706D5344A6A
:1036D0002B691068E97A0340EB6113604E0705D54A
:1036E000304A6B6911680B402B62136062B62B681D
:1036F0002D4AD968914206D02C4E2D482D491E6086
:10370000DA60186119606846216801F091FE0422B0
:103710000DEB02010F2001F0D7FA6846216801F095
:10372000A3FE04220DEB0201012001F0CDFA684650
:10373000216801F08BFE01A90422052001F0C4FAE2
:10374000EB7A15491A4683B1D80703D51A4A896915
:1037500011601A46990703D5184BE969EA7A19608E
:10376000530702D5164B2A6A1A602168684601F091
:1037700089FE144B019A5A6006F04EFD80B200F0AB
:1037800033FB012017E700BFE49CFF1F549DFF1F80
:10379000E8580100F05A01004088FF1F80E100E076
:1037A00084E100E088E100E0000001B801403F0052
:1037B000000001F800003F8000E100E004E100E0CB
:1037C00008E100E04C9DFF1FE09CFF1FF0B53D4D60
:1037D000286883B0002870D002F06CF902280446F3
:1037E00004D0042802D0204603B0F0BD364EF37A50
:1037F000EBB172B6F37AD9071A4606D53349F268A7
:1038000008680240B2610A601A469B0706D5304933
:1038100033690868F27A0340F3610B60570705D5F6
:103820002C4A736911680B403362136062B63368C7
:10383000294AD968914206D0284F294829491F6052
:10384000DA60186119606846296801F0F1FD042208
:1038500001A90F2001F038FA6846296801F004FE3A
:10386000042201A9012001F02FFA6846296801F01D
:10387000EDFD01A90422052001F026FAF37A124990
:103880001A4683B1D80703D5174A896911601A46C9
:10389000990703D5154BF169F27A1960530702D5E0
:1038A000134B326A1A606846296801F0EBFD114B30
:1038B000019A5A60204603B0F0BD0446204603B08A
:1038C000F0BD00BF549DFF1F4088FF1F80E100E056
:1038D00084E100E088E100E0000001B801403F0021
:1038E000000001F800003F8000E100E004E100E09A
:1038F00008E100E04C9DFF1F70B5274B0360274C8B
:1039000000234360E37A0546EBB172B6E37AD90748
:103910001A4606D52249E26808680240A2610A6098
:103920001A469B0706D51F4923690868E27A0340B7
:10393000E3610B60560705D51B4A636911680B40AC
:103940002362136062B62368184AD968914206D090
:10395000174E184818491E60DA6018611960042271
:10396000A9180F2001F07EFAE37A0C491A4683B1B8
:10397000D80703D5114A896911601A46990703D5FA
:103980000F4BE169E27A1960530702D50D4B226AA9
:103990001A60284670BD00BFF05A01004088FF1F22
:1039A00080E100E084E100E088E100E0000001B88F
:1039B00001403F00000001F800003F8000E100E00E
:1039C00004E100E008E100E0024B034A1A60002233
:1039D0005A6070474C9DFF1FF05A010003689B6BB3
:1039E000184700BF4969024A41600260704700BF42
:1039F000F05A0100008B7047C0897047C08B704738
:103A000010B582B002AB026803F8011D5468194674
:103A10000122A04702B010BD704700BF037F072BF3
:103A200000D9704710B50446184600F0DFFC0823A3
:103A3000237710BD38B50446007F07280D460DD901
:103A40002946022000F0DAF90728207704D800235D
:103A5000E581E383012038BD002038BD00F0C6FCBD
:103A6000EEE700BFF0B51B4B1B4C5B6891B04FF409
:103A70007A7E049300230D46069303A98DF8243023
:103A80008DF82C300D9302930646082305A817469F
:103A9000124ACDF828E008928DF83C3005940C9439
:103AA0000194039402F068F8294605A841F288338E
:103AB00001AA02F017FA012801D011B0F0BD336855
:103AC000029D9B6A03943A4603A9304604959847A1
:103AD00011B0F0BD4C9DFF1FF05A0100E8580100E5
:103AE00008B5002343830431007F00F041FF08BD87
:103AF00008B5007F00F0C4FF08BD00BF10B5044644
:103B000093B2007F0A46618B00F0C4FE638B0344CE
:103B1000638310BDC38B13B94FF0FF30704710B5EE
:103B200082B0044601220DF10701007F00F0BCFCC9
:103B3000002806DDE38B9DF80700013BE38302B01C
:103B400010BD4FF0FF30FAE7C38B73B110B593424D
:103B500094BF1AB212B20446007F00F0A5FC002800
:103B600006DDE38B1B1AE38310BD4FF0FF30704777
:103B70004FF0FF3010BD00BF08B5037F072B05D8FD
:103B8000C28B1AB1184600F009FE08BD4FF0FF3095
:103B900008BD00BF70B50446007F072882B00E46FE
:103BA000154614D972680B4B019269462A46822049
:103BB000009300F07DFA0728207705D80023012024
:103BC000E581E38302B070BD002002B070BD00F05B
:103BD0000DFCE7E7F05A010070B5C28B82B00446D5
:103BE0003AB1236800219B6B20469847E28B002A5C
:103BF000F7D1207F00F064FD08B902B070BD082243
:103C00006946207F00F050FC0028F6DD9DF8073063
:103C10009DF804109DF805209DF806009DF80060B1
:103C20009DF80150267503EB002002EB01239DF85F
:103C300002109DF80320238380B2E0836575A1758F
:103C4000E27502B070BD00BF2DE9F04FDFF8D480FF
:103C5000DFF8D49098F800500402074604EB0520E2
:103C600083B024308B4680B2924601A902221E46C0
:103C700001F0F8F89DF804509DF8052099F80030FF
:103C800042EA05255D44ADB2332BC5F30A0B3DD0A6
:103C900007F110000BEBC020372B80B231D00BEBBB
:103CA0000603B3F5006F2CDDCBF5006B1FFA8BFB21
:103CB0005A46514601F008F899F80030332B0CBFF2
:103CC00007F1080007F11000C002CBEB060280B23A
:103CD0000AEB0B0192B200F0F7FF98F800003544B0
:103CE00004EB0020ADB224302B1201A9022280B2D5
:103CF0008DF805508DF8043000F0E6FF03B0BDE804
:103D0000F08F5146324600F0DFFFE6E707F108008A
:103D10000BEB06030BEBC020B3F5006F80B2C3DCE6
:103D2000EFE700BF999DFF1F989DFF1F70B5144DD1
:103D30002B78040204EB032082B0263080B201A964
:103D4000022201F08FF89DF804609DF8053043EAE7
:103D5000062600E01E46287804EB002026300222CA
:103D600080B201A901F07EF89DF804209DF805308D
:103D700043EA02239E42EDD1304602B070BD00BF3F
:103D8000999DFF1FF0B5164D06462878340204EBC6
:103D9000002083B0203080B201A9022201F062F835
:103DA0009DF804709DF8053043EA072700E01F46A0
:103DB000287804EB00202030022280B201A901F013
:103DC00051F89DF804209DF8053043EA02239F42F4
:103DD000EDD1044B03EBC6063846B78003B0F0BD07
:103DE000999DFF1F589DFF1F034A1388C0F30D00C4
:103DF00043401380704700BF3C87FF1F9C4B1B78DC
:103E00000BB9082070472DE9F04FDFF894B29BF80A
:103E10000B20332B89B00CBF4FF004084FF008087B
:103E20002AB372B69BF80B30DD071A4608D5914CC1
:103E3000DBF80C2025682A40CBF8182022601A46AF
:103E40009C0709D58C4CDBF8103025689BF80B20BB
:103E50002B40CBF81C302360530707D5874ADBF88B
:103E6000143014682340CBF82030136062B6DBF8BE
:103E70000030834ADC68944206D0824C1C60824D3C
:103E8000824CDA601D611C600DF1170A0024DFF816
:103E90000492019102905746A646250299F8000027
:103EA000ADB205EB00200330012280B205A97646B1
:103EB00000F0D8FF9DF8142007F8012F23460134A5
:103EC0005FFA84FEF2B1F045E7D8002211464FF0C8
:103ED000345502E0884540F2B0801AF8010F1346CD
:103EE0001D2802F101020E4625FA00F4D1B2F1D8E4
:103EF000E707EFD5102130460393350201F076FA3B
:103F0000039BADB262490393002041F2707221F825
:103F10001300013AFDD199F800009DF808305D4C7E
:103F200008A905EB002001F80D3D012200F47F40B7
:103F300000F0CAFE99F8000008A905EB0020FF2256
:103F4000023001F80E2D80B2012200F0BDFE019A70
:103F5000039B002A56D150490A88013292B2B2F529
:103F6000404F64D30A80D4B2110A99F800008DF84A
:103F7000141005EB0020043080B2022205A9019341
:103F80008DF8154000F0A0FE019B01930121304601
:103F900001F02CFA99F80000019B404C404F05EBD2
:103FA00000202830002505A9022224F8335080B2D1
:103FB00000F058FF019B9DF814009DF815109BF828
:103FC0000B2004EBC30341EA00219D719D805980C1
:103FD000134642B3D10703D5324BB9691960134672
:103FE000920705D5304ADBF81C109BF80B301160A6
:103FF0005B0718D52D4BDBF820201A60304609B03E
:10400000BDE8F08F20788DF8152005EB00200430F6
:10401000141280B2022205A902938DF8144000F018
:1040200053FE029BB1E7304609B0BDE8F08F4FF474
:1040300040420A80019CC02197E79BF80B30184949
:104040001A469BB1DD0703D5164A896911601A46E5
:104050009C0705D5144BDBF81C109BF80B2019604E
:10406000500703D5114BDBF820201A600820C6E763
:10407000989DFF1F80E100E084E100E088E100E01E
:10408000000001B801403F00000001F800003F803F
:10409000A89DFF1F999DFF1F3C87FF1F589DFF1F75
:1040A0004088FF1F00E100E004E100E008E100E0DB
:1040B000AC4B1B780BB9082070472DE9F04FDFF8A7
:1040C000D8B29BF80B40332B8BB00CBF4FF00409D8
:1040D0004FF008092CB372B69BF80B30DE071C4674
:1040E00008D5A14DDBF80C402E683440CBF81840C1
:1040F0002C601C469D0709D59C4DDBF810302E68BE
:104100009BF80B403340CBF81C302B60630707D57E
:10411000974CDBF8143025682B40CBF82030236017
:1041200062B6DBF80030934CDD68A54206D0924DB4
:104130001D60924E924DDC601E611D600DF11F0AE4
:104140000024DFF844820092029101905746A6466F
:10415000250298F80000ADB205EB002003300122E3
:1041600080B206A9764600F07DFE9DF8182007F87B
:10417000012F234601345FFA84FEF2B1F145E7D8FE
:10418000002211464FF0345502E0894540F20C817F
:104190001AF8010F13461D2802F101020E4625FAF6
:1041A00000F4D1B2F1D8E707EFD5102130460393E0
:1041B000350201F01BF9039BADB272490393002055
:1041C00041F2707221F81300013AFDD198F8000015
:1041D0009DF804306C4C0AA905EB002001F8153D50
:1041E000012200F47F4000F06FFD98F800000AA95A
:1041F00005EB0020FF22023001F8162D80B20122CB
:1042000000F062FD009A039B002A40F08E805F4917
:104210000A88013292B2B2F5404FC0F09D800A8008
:10422000D4B2110A98F800008DF8181005EB0020A0
:10423000043080B2022206A900938DF819404FF095
:10424000000900F041FD009B4C46062250490093B6
:1042500006A805F0E5FD029998F800004A794D4F4F
:104260000B4605EB0020897993F807E08DF81C10C8
:1042700002F07F020C30191D8DF81B2080B2042241
:104280008DF81DE000F020FD98F800008DF8144036
:1042900005EB0020103005A9022280B28DF81590A0
:1042A00000F012FD98F8000005EB00200630062211
:1042B00006A980B200F008FD0121304601F096F811
:1042C00098F80000009B05EB00200024283005A989
:1042D000022227F8334080B200F0C4FD009B9DF815
:1042E00014009DF815109BF80B202B4D07EBC30312
:1042F00041EA00219C719C8059804AB3D00702D5C5
:10430000264BA9691960910705D5254BDBF81C10D0
:104310009BF80B20196053071AD5224BDBF820209D
:104320001A6030460BB0BDE8F08F2078019305EBA2
:1043300000200430140A5FFA82F980B2022206A932
:104340008DF818408DF8199000F0BEFC019B7CE7B9
:1043500030460BB0BDE8F08F4FF440420A80009C1D
:10436000C0215FE7989DFF1F80E100E084E100E04D
:1043700088E100E0000001B801403F00000001F8C2
:1043800000003F80A89DFF1F999DFF1F3C87FF1FD6
:1043900034590100589DFF1F4088FF1F00E100E0D5
:1043A00004E100E008E100E09BF80B300B4A93B118
:1043B000DE0702D50A4992690A609D0705D5094AB8
:1043C000DBF81C109BF80B3011605C0703D5064B23
:1043D000DBF820201A600820A4E700BF4088FF1FF8
:1043E00000E100E004E100E008E100E070B5234CEA
:1043F000E37AEBB172B6E37AD9071A4606D52049BB
:10440000E2680D682A40A2610A601A469E0706D536
:104410001C4923690D68E27A2B40E3610B60550764
:1044200005D5194A636911680B402362136062B6AF
:104430002368164AD968914206D0154E154D164983
:104440001E60DA601D611960102100F0CFFFE37A71
:104450000A491A4683B1D80703D5104A8969116001
:104460001A46990703D50E4BE169E27A19605307A2
:1044700002D50C4B226A1A6070BD00BF4088FF1F36
:1044800080E100E084E100E088E100E0000001B8A4
:1044900001403F00000001F800003F8000E100E023
:1044A00004E100E008E100E02DE9F04F764D774FA0
:1044B000EB7A37F8304085B0064689469046EBB136
:1044C00072B6EB7AD8071A4606D57149EA680868C9
:1044D0000240AA610A601A46990706D56D492B6900
:1044E0000868EA7A0340EB610B60530705D56A4A16
:1044F0006B6911680B402B62136062B62B68674AC8
:10450000D968914206D06649196066486649DA6002
:1045100018611960444555DB002C5ED04FEAC60A8D
:1045200007EB0A034445A8BF4446B3F80280B9F13B
:10453000000F69D05D4B1978A3B233299B46C8F3AD
:104540000A0200F09A8006F1180002EBC020372919
:1045500080B203D09918B1F5006F71DC1A46494654
:1045600000F080FC07EB0A0137F836308A795A44AC
:10457000D84492B2CBEB030B1FFA88F81FFA8BF3E7
:10458000F92AA1F8028027F8363040D8002B3ED017
:104590008A71EB7A3C491A4683B1D80703D5444A5D
:1045A000896911601A46990703D5424BE969EA7A8D
:1045B0001960530702D5404B2A6A1A60204605B09D
:1045C000BDE8F08F3046FFF7B1FB07EBC6039C79DF
:1045D000041B27F83640002CA0D1384B1878000275
:1045E000033000EB062080B2012203A900F03AFC60
:1045F0009DF80C30142BCCD0002BCAD0B3F11C0486
:1046000018BF4FF0FF34C4E71FFA84FBAAE72B4B17
:104610008DF80D801878000257442830002300EBF5
:10462000062003A94FEA28280222BB7180B28DF828
:104630000C8000F049FB3046402100F0D7FEA8E78F
:10464000C2F50062019393B21A464946009300F006
:1046500009FC164A009B127809EB0301332A019BDF
:10466000009A0CBF06F10C0006F118009A1AC0025D
:1046700092B280B200F0F6FB74E706F10C0002EB98
:10468000C02080B266E700BF4088FF1F589DFF1F13
:1046900080E100E084E100E088E100E0000001B892
:1046A00001403F00000001F800003F80989DFF1F7F
:1046B00000E100E004E100E008E100E0999DFF1F57
:1046C000F8B52A4D35F830300BB11846F8BD284EF4
:1046D000F37AEBB172B6F37ADC071A4606D52549B0
:1046E000F2680C682240B2610A601A46990706D542
:1046F000214933690C68F27A2340F3610B60530758
:1047000005D51E4A736911680B403362136062B6A7
:1047100033681B4AD968914206D01A4F1A4C1B497C
:104720001F60DA601C6119600446FFF7FFFAF37A34
:104730000F491A4683B1DF0703D5154A896911600D
:104740001A46990703D5134BF169F27A196053079A
:1047500002D5114B326A1A6005EBC4039B79C31A68
:104760009BB225F834301846F8BD00BF589DFF1F96
:104770004088FF1F80E100E084E100E088E100E084
:10478000000001B801403F00000001F800003F8038
:1047900000E100E004E100E008E100E070B5304C29
:1047A000E37A82B0EBB172B6E37AD9071A4606D53E
:1047B0002C49E2680D682A40A2610A601A469E07E9
:1047C00006D5294923690D68E27A2B40E3610B6025
:1047D000550705D5254A636911680B4023621360AC
:1047E00062B62368224AD968914206D0214E224DF2
:1047F00022491E60DA601D611960214B214A03EBDA
:10480000C00311785A883329C2F30A0222D0183023
:10481000C00280B210440DF10701012280B200F005
:1048200021FBE37A0E491A4683B1D80703D5164A0D
:10483000896911601A46990703D5144BE169E27A38
:104840001960530702D5124B226A1A609DF80700BF
:1048500002B070BD00F10C03DB0298B2DAE700BFD2
:104860004088FF1F80E100E084E100E088E100E093
:10487000000001B801403F00000001F800003F8047
:10488000589DFF1F989DFF1F00E100E004E100E03C
:1048900008E100E02DE9F8432A4CE77A064688460D
:1048A00091461D46EFB172B6E37AD9071A4606D58E
:1048B0002549E26808680240A2610A601A469B071F
:1048C00006D5224923690868E27A0340E3610B6058
:1048D000570705D51E4A636911680B4023621360B0
:1048E00062B623681B48DA68824206D01A4A1A6008
:1048F0001A491B4AD86019611A603046FFF742FA1C
:10490000A84228BF284685B24A4641462B46304633
:10491000FFF79AF9E37A0B491A4683B1D80703D512
:10492000104A896911601A46990703D50E4BE1694F
:10493000E27A1960530702D50C4B226A1A602846A6
:10494000BDE8F8834088FF1F80E100E084E100E0DB
:1049500088E100E0000001B801403F00000001F8DC
:1049600000003F8000E100E004E100E008E100E039
:104970000B780BB94B7813B14AB9104670478B7856
:10498000002BF9D1CB78002BF6D118467047F0B543
:104990002F4DEB7A83B0EBB172B6EB7ADF071C4692
:1049A00006D52C4EEC6837683C40AC6134601C4640
:1049B0009E0706D5284E2B693768EC7A3B40EB61A1
:1049C0003360640705D5254C6B69266833402B623C
:1049D000236062B62B68224CDE68A64206D0214EC8
:1049E0001E60214F214EDC601F611E60204F3B780E
:1049F000060206EB03200C30144680B2042200F0BD
:104A000063F938788DF8054006EB0020103002225B
:104A100001A980B224128DF8044000F055F9EB7A18
:104A20000B491A4683B1D80703D5124A8969116028
:104A30001A46990703D5104BE969EA7A19605307BA
:104A400002D50E4B2A6A1A60012003B0F0BD00BFE8
:104A50004088FF1F80E100E084E100E088E100E0A1
:104A6000000001B801403F00000001F800003F8055
:104A7000999DFF1F00E100E004E100E008E100E093
:104A80002DE9F04FDFF830B29BF80B2083B00446DD
:104A90002AB372B69BF80B20D507114608D57E487D
:104AA000DBF80C1005682940CBF81810016011469E
:104AB000900709D57948DBF8102005689BF80B10A2
:104AC0002A40CBF81C200260490707D57449DBF85F
:104AD000142008680240CBF820200A6062B6DBF898
:104AE00000207049D068884206D06F4E6F4D7048E4
:104AF0001660D16015611060204620216D4DDFF8F1
:104B0000A0A1DFF89891DFF8908100F06FFC2402FB
:104B10002E462878674F04EB00200230012280B235
:104B20000DF1070100F09EF99DF80730DA0662D416
:104B3000307804EB0020023080B201220DF1070131
:104B400000F090F99DF807301B077ED49BF80B30DE
:104B500059491A466BB1D80703D5584A896911607B
:104B60001A469B0736D4570703D5554ADBF8203041
:104B7000136007F053F89BF80B304F4AE3B172B65D
:104B8000D37AD807194607D5D8F80000D168014074
:104B90009161C8F8001019469B070AD5D9F8002082
:104BA000DBF810309BF80B101340CBF81C30C9F821
:104BB00000304F0715D462B6DBF80030394AD968A7
:104BC0009142A6D03849196038483949DA601861ED
:104BD00019609EE73B49DBF81C309BF80B200B600B
:104BE000C1E7DAF80020DBF814301340CBF82030AE
:104BF000CAF80030DFE7387804EB002002300DF10E
:104C00000701012280B210248DF8074000F05CF803
:104C10009BF80B20284811469AB1D40703D52749A1
:104C2000806908601146920705D5264ADBF81C000A
:104C30009BF80B1010604B0703D5214ADBF820309E
:104C40001360012003B0BDE8F08F387802A904EBAF
:104C500000201822023001F8022D80B2012200F05B
:104C600033F89BF80B20144811469AB1D60703D5A8
:104C70001249806908601146950705D5114ADBF88D
:104C80001C009BF80B1010604C0703D50C4ADBF896
:104C9000203013600020D5E780E100E084E100E0EF
:104CA00088E100E0000001B801403F00000001F889
:104CB00000003F80999DFF1F4088FF1F00E100E03A
:104CC00008E100E004E100E02DE9F043624B1B78CD
:104CD000332B83B004460E46154649D0342B00F0E2
:104CE00095805E4F3B680122FF2883F8002128D978
:104CF000030479D4C31023F01F0343F00C030022F4
:104D00008DF801008DF802308DF80020052D22D895
:104D1000002345B102AAD1185A1CF35C01F8053CE6
:104D2000D3B29D42F6D86A466946EB1C4C4807F060
:104D3000A9FA3B68012283F88020284603B0BDE829
:104D4000F08300220423052D8DF801008DF800204A
:104D50008DF80230DCD96A4669460323404807F0E3
:104D600091FA2B46314600223D4807F08BFAE0E7E6
:104D7000002AE2D0394A3A4B17681B6800EB050E4F
:104D800001391FFA8EFE01264FF000404FF0F00C63
:104D900087F80061D862C3F834C0DA6A002AFCDA06
:104DA0002212D3F83880D8625A63DA6A002AFCDA11
:104DB000E2B2D3F83880D8625A63DA6A002AFCDAA1
:104DC00011F8012FD3F83880D8620134A4B25A63A5
:104DD000DA6A002AFCDAA6459A6B87F88060D7D198
:104DE000284603B0BDE8F083831123F01F03B0F51C
:104DF000404F34BF43F0140343F01C0302128DF8FC
:104E000001008DF802308DF800207FE7DFF84C902C
:104E10001348D9F800308DF801404FF00108170A07
:104E200083F800816A4669460423241267F07F07ED
:104E30008DF800408DF803508DF8027007F022FACB
:104E40002B4631460022064807F01CFAD9F80030FC
:104E500083F8808071E700BF989DFF1F9C9DFF1F16
:104E60004088FF1F2DE9F0475D4B1B78332B82B044
:104E700004460F46164638D0342B00F08980594D31
:104E80002B680122FF2883F8002126D903046DD462
:104E9000C31023F01F0343F0080300228DF8050020
:104EA0008DF806308DF8042001AA114603234E48E0
:104EB00007F0E8F932460021384608F02FFF334664
:104EC0003A463946484807F0DDF92B68012283F855
:104ED0008020304602B0BDE8F08700238DF8050041
:104EE0008DF804308DF80630DEE7002AF1D03D4D14
:104EF000DFF8F4902A6800EB060E1FFA8EFE481EBB
:104F000001274FF000414FF00F084FF0000CD9F887
:104F1000003082F80071D962C3F83480DA6A002A5E
:104F2000FCDA2212D3F838A0D9625A63DA6A002A6E
:104F3000FCDAE2B2D3F838A0D9625A63DA6A002AFE
:104F4000FCDA01349A6BD962A4B2C3F834C0DA6ACD
:104F5000002AFCDA9B6B00F8013F2A68744582F84E
:104F60008070D4D1304602B0BDE8F087831123F0C1
:104F70001F03B0F5404F34BF43F0100343F0180354
:104F800002128DF805008DF806308DF804208BE7AD
:104F9000DFF850801448D8F800208DF8054001252E
:104FA000231282F8005101AA11468DF80430C6F38D
:104FB000062404238DF807608DF8064007F062F997
:104FC00032460021384608F0A9FE33463A463946B3
:104FD000054807F057F9D8F8003083F8805078E793
:104FE000989DFF1F9C9DFF1F4088FF1F10B582B03A
:104FF00002A9802301F8023D01220020FFF764FE90
:10500000142401220DF107010020FFF72BFF9DF86A
:105010000730012043B1013CA4B205F021F9002C76
:10502000EFD1204602B010BD012002B010BD00BF7C
:1050300010B5214B82B033221A70FFF7D7FF10B999
:10504000002002B010BD02A9102301F8043D012286
:105050000020FFF739FE0DF1070101220020FFF7C4
:1050600001FF9DF80730102BEAD102A9122301F8A5
:10507000033D01220020FFF727FE01220DF1070169
:105080000020FFF7EFFE9DF80730122BD8D102A9C0
:10509000002401F8024D01222046FFF715FE2046AC
:1050A0000DF107010122FFF7DDFE9DF80700B0FAC0
:1050B00080F04009C5E700BF989DFF1F10B5274B42
:1050C00082B034221A70FFF791FF10B9002002B0AD
:1050D00010BD02A9082301F8043D01220020FFF7BA
:1050E000F3FD0DF1070101220020FFF7BBFE9DF843
:1050F0000730082BEAD102A9102301F8033D012251
:105100000020FFF7E1FD01220DF107010020FFF76C
:10511000A9FE9DF80730102BD8D102A9002401F870
:10512000024D01222046FFF7CFFD204601220DF15E
:105130000701FFF797FE9DF80730002BC6D10DF150
:10514000070101221F20FFF78DFE9DF80700A0F147
:105150000300B0FA80F04009B9E700BF989DFF1F37
:1051600010B5274B82B037221A70FFF73FFF10B9F6
:10517000002002B010BD02A9082301F8043D01225D
:105180000020FFF7A1FD0DF1070101220020FFF72C
:1051900069FE9DF80730082BEAD102A9102301F817
:1051A000033D01220020FFF78FFD01220DF10701D1
:1051B0000020FFF757FE9DF80730102BD8D102A929
:1051C000002401F8024D01222046FFF77DFD204614
:1051D00001220DF10701FFF745FE9DF80730002B76
:1051E000C6D10DF1070101223920FFF73BFE9DF8E2
:1051F0000700A0F10400B0FA80F04009B9E700BF51
:10520000989DFF1F2DE9F041624E634C82B04FF430
:105210000C7005F025F8304606F0F6FF5F4A604B4B
:105220001078012153F83030236004F0EFFF22683A
:10523000F37A012182F88010EBB172B6F37AD807C5
:105240001A4606D55749F26808680240B2610A60FA
:105250001A46990706D5544933690868F27A03401B
:10526000F3610B60530705D5504A736911680B4011
:105270003362136062B633684D4AD968914206D0F2
:105280004C4C4D484D491C60DA6018611960FFF7BD
:1052900015FF00283DD04A4F40203870B846002402
:1052A000022501E098F800008DF8065004EB00207C
:1052B0001E3001220DF1060180B2FFF705FD38789E
:1052C0008DF8075004EB00201F3004F5807480B285
:1052D00001220DF10701A4B2FFF7F6FCB4F5006F4F
:1052E000E0D1F37A2B491A462BB9364B01201870BE
:1052F00002B0BDE8F081D80703D5334A896911604F
:105300001A46990711D45307EFD5304B326A1A6009
:10531000EBE7FFF725FF68B1294B1E4910221A70F1
:10532000F37A1A46002BE0D0E5E7294BF169F27ACF
:105330001960E8E7FFF77CFEC0B9264AF37A1070DF
:1053400014491A46002BD3D0DF0703D51E4A8969BA
:1053500011601A469D0703D51D4BF169F27A196059
:105360005407C5D5194B326A1A60C1E702A9552402
:10537000134B01F8044D042501221B201D70FFF77B
:10538000A3FC02A9012201F8034D1A20FFF79CFC9F
:10539000A7E700BF4088FF1F9C9DFF1F3E87FF1FA0
:1053A000405B010080E100E084E100E088E100E092
:1053B000000001B801403F00000001F800003F80FC
:1053C000999DFF1F9A9DFF1F00E100E008E100E0AA
:1053D00004E100E0989DFF1F034B1B780BB10120F7
:1053E0007047FFF70FBF00BF9A9DFF1F30B50F4DED
:1053F00083B002AA2B7802F8021D040204EB0320FA
:105400000130114680B20122FFF75EFC287804EBE0
:105410000020013080B201220DF10701FFF722FDCB
:105420009DF80730002BF1D103B030BD999DFF1FCF
:10543000054A02600A7C02714A7C42718A7C827150
:10544000CA7CC271704700BFF05A0100054A026071
:105450000A7D02714A7D42718A7D8271CA7DC27164
:10546000704700BFF05A0100054A02600A7E0271CF
:105470004A7E42718A7E8271CA7EC271704700BFC5
:10548000F05A0100074A026091F82020027191F859
:105490002120427191F82220827191F82320C2715B
:1054A000704700BFF05A01002DE9F0438BB005466C
:1054B0000E4617460021202202A808F02FFC05F115
:1054C0004804814B00932046FF23432269468DF810
:1054D00004308DF805308DF806308DF80730FEF772
:1054E000FFFA013000F0C3806A688DF8117010BABD
:1054F0003B0A4FF0010E4FF0800C4FF000080627DA
:105500001C2202A9039020468DF810308DF808E087
:105510008DF809E0ADF812C08DF80A708DF80B8097
:1055200005F10809FEF7EAFA4146202202A808F030
:10553000F5FB3A46494602A804F072FC102202A983
:105540002046FEF7DBFA4146202202A808F0E6FBDF
:10555000202202A92046FEF7D1FA013FF8D16323A9
:105560008227532035224FF03D0E49468DF80830F2
:105570008DF80B308DF8097001238DF80A0007278C
:105580008DF80C200DF1120006228DF80D308DF8EB
:1055900011308DF80FE08DF80E608DF8107004F06A
:1055A0003FFC0C233A4649498DF818300DF11A009A
:1055B0008DF8193004F034FC3022EB7A8DF820207D
:1055C0000DF1220103F00F02092A94BF3032373265
:1055D0001B0901F8012D002BF4D130222B7B8DF813
:1055E000222009A903F00F02092A94BF3032373272
:1055F0001B0901F8012D002BF4D130226B7B8DF8B3
:1056000024200DF1260103F00F02092A94BF303245
:1056100037321B0901F8012D002BF4D11E2202A9FB
:105620002046FEF76BFA032E24D0062337250122ED
:1056300003208DF808508DF809308DF80C308DF866
:105640000A20FF238DF80B0002A90F273A263B25DD
:10565000092220468DF80D708DF80E608DF80F50E0
:105660008DF81030FEF74AFA2046FEF741FA0BB0EB
:10567000BDE8F083287C6F7CAE7C8DF80A00322276
:105680000423287F8DF808203621EA7C8DF8093024
:105690008DF80F308DF80B708DF80C606F7FAE7F3A
:1056A000EB7F8DF80D208DF80E108DF810000C2278
:1056B00002A920468DF811708DF812608DF8133014
:1056C000FEF71CFAB1E700BFF05A01003C59010097
:1056D0002DE9F0438D4D91B02B6801938046019FD9
:1056E0000E46914600F1480407E02B680293029BA6
:1056F000DB1BB34219D804F0B3FD2046FEF76CFA69
:1057000000284FF03200F0DD242207A92046FEF7E2
:105710001BFA9DF81C30022B0BD000252046FEF70B
:105720007BF9284611B0BDE8F083FF2011B0BDE839
:10573000F083B8F86030432BEFD1089E36BAC9F831
:105740000060062208F108010EA808F051FA05468B
:1057500038B9D8F800309E4203D3D8F804309E42BE
:1057600006D92046FEF758F9002011B0BDE8F083B5
:1057700004220BA908F1100004F052FBCC222946A8
:105780002046FEF7E1F908F124062046FEF736F937
:105790000028C3DD2046FEF7BDF933283DD04CDD9F
:1057A0003A2873D061DC352800F09D80362840F01F
:1057B00091802046FEF7AEF998F81CE098F81D702D
:1057C00098F81E1098F81F308DF810E08DF81170C1
:1057D0008DF812108DF81330049A002A00F08F8093
:1057E0008DF81B308DF818E08DF819708DF81A10AF
:1057F000069AD8F85C309A4200F08180C2B200214B
:105800002046FEF7A1F92046FEF7F8F8002885DDCE
:105810002046FEF77FF93328C1D12046FEF77AF9FA
:10582000042231462046FEF78FF9D8F824301BBAFF
:10583000C8F82430C8F83030A7E701283DD046DD4D
:10584000032832D0062845D12046FEF763F904220A
:10585000074608F120012046FEF776F9FAB2043A2D
:1058600000212046FEF770F98FE73B2843D1204600
:10587000FEF750F9042208F12C012046FEF764F9E6
:10588000D8F82C301BBAC8F82C307EE72046FEF73B
:1058900041F9042208F128012046FEF755F9D8F80D
:1058A00028301BBAC8F828306FE72046FEF732F9D7
:1058B0000422074608F11801CDE72046FEF72AF931
:1058C000042208F114012046FEF73EF95DE70028A6
:1058D0003FF45BAF2046FEF71DF90021C2B220461F
:1058E000FEF732F951E72046FEF714F92046FEF79D
:1058F00011F9C5B249E7FF283FF447AFEAE70422B0
:1059000008F11C012046FEF71FF93EE75C9EFF1FD1
:105910002DE9F04F4FF4FA6187B00446012003F0FF
:10592000ABFE2746606047F8480B3846FEF776F82E
:1059300038464421FEF77EF840B34B4EDFF82C8109
:10594000336800930025DDF800A0A94694F84430A0
:10595000032B10D0EBB1042B2FD0012B41D0022B05
:105960004DD0002DF2D133680493049BA26BCAEB97
:1059700003039342EAD93846FEF750F83268636869
:105980000592059A226401332846636007B0BDE89A
:10599000F08F33680193019A6368CAEB0202013306
:1059A000A8FB02126360C2F38F1201212046FFF7A9
:1059B0007BFD012384F84430D3E733680293029AD5
:1059C0006368CAEB02020133A8FB02126360C2F3F0
:1059D0008F1203212046FFF767FD022384F844302D
:1059E000BFE705AAE16B2046FFF772FE0228834657
:1059F00010D0BBF1FF0FB4D184F84490B1E705AAF1
:105A0000E16B2046FFF764FE0528834614D0062884
:105A1000EFD1F1E733680393039A059B6360CAEB08
:105A20000202A8FB0232C2F38F1203212046FFF7C5
:105A30003BFD84F844B094E7636A032284F8442071
:105A400013B94FF461736362A26A12B9626A5208B1
:105A5000A262E36A1BB9636AA3EBD303E362226326
:105A60006363012572E700BF5C9EFF1FD34D621088
:105A7000F8B500240546C36300F1080682630F46AB
:105A800044628462C4620472214644728472C472A5
:105A9000047344731422103008F040F9304639463C
:105AA000062204F0BDF985F844402846BDE8F840D8
:105AB000FFF72EBF30B52E4B83B01B6801930199C1
:105AC000036CCB1AB3F57A7F044617D2006B78B318
:105AD0000020636B83B994F84430032B00D05BB98A
