:1000000000800020BD01000031AC0000F5AB000015
:10001000F5AB0000F5AB0000F5AB0000F5AB000060
:10002000F5AB0000F5AB0000F5AB000031AC000013
:1000300031AC0000F5AB000031AC0000E5AB0000D6
:1000400031AC000031AC000031AC000031AC00003C
:1000500031AC000031AC000031AC000031AC00002C
:1000600031AC000031AC000031AC000031AC00001C
:1000700031AC000031AC000031AC000031AC00000C
:1000800031AC000031AC000031AC000031AC0000FC
:1000900031AC000031AC000031AC000031AC0000EC
:1000A00031AC000031AC000031AC000031AC0000DC
:1000B00031AC000031AC000031AC000031AC0000CC
:1000C00031AC000031AC000031AC000031AC0000BC
:1000D00031AC000031AC000031AC000031AC0000AC
:1000E00031AC000031AC000031AC000031AC00009C
:1000F00031AC000095B5000031AC0000BDCD000072
:1001000031AC000039CF000031AC000031AC000050
:1001100031AC000031AC000031AC000031AC00006B
:1001200031AC000031AC000031AC000031AC00005B
:1001300031AC000031AC000031AC000031AC00004B
:1001400031AC000031AC000031AC000031AC00003B
:1001500019C6000031C6000049C6000061C6000093
:1001600031AC0000B9B8000031AC000031AC000087
:1001700031AC000031AC000031AC000031AC00000B
:1001800031AC000031AC000031AC000031AC0000FB
:1001900031AC000031AC000031AC000031AC0000EB
:1001A00031AC000031AC000031AC000031AC0000DB
:1001B00031AC000031AC000031AC0000564B4CF2C9
:1001C000205210B51A804DF628121A8000BF00BFC9
:1001D0000AF032FD514B4FF010621A60504A9A609B
:1001E000504ADA60504A136813F4807304D14F49BF
:1001F0000B604FF4A85313604D4B1A78110703D5C9
:100200001A7842F008021A704A4B4B492A221A7097
:100210004A4A4B4B8B4204D252F8040F43F8040B6A
:10022000F8E7484B484900228B4202D243F8042B9E
:10023000FAE74649464A002352F8230041F82300D2
:1002400001336F2BF8D1434B434A802103F8011B44
:100250009342FBD1414B3D4A1A60414B8A221A70AE
:10026000A3F5805324225A70A0221A709A7992071B
:10027000FCD59A79D406FCD43A4A937903F00C035E
:10028000082B384BF9D105221A7143225A719A79F9
:100290009006FCD5334A9179324B4906FBD5324A58
:1002A0004FF0817111600521516020221A709A79F6
:1002B00002F00C020C2AFAD12C4B2D4A1A602D4B5D
:1002C0002D4A1A6000225A60072243F8042C2B4A58
:1002D000C3F80C2D62B60AF0A9FD144B1B68DA07AF
:1002E00005D527480AF0F4FC264B274A1A60274B0D
:1002F0001B785B0609D5234C234B22689A4204D114
:100300001F480AF0E5FC002323600EF063F80AF0B2
:1003100099FC0CF0B1FCFEE70E2005403080044053
:10032000823F04000100002B10D0034014D0034092
:1003300002D0074000E00740F091FF1F546E01001B
:100340002087FF1FF091FF1FA8A1FF1F0082FF1F42
:100350000000000000E400E05FE400E008ED00E0E1
:1003600000500640004006404480044004800440A1
:10037000C010050014E000E03F190100000020203B
:100380005F1DC45A1CE00340A5C3945A00F0074007
:10039000FFFFFFFFFFFFFFFFFFFFFFFFFFFFFFFF6D
:1003A000FFFFFFFFFFFFFFFFFFFFFFFFFFFFFFFF5D
:1003B000FFFFFFFFFFFFFFFFFFFFFFFFFFFFFFFF4D
:1003C000FFFFFFFFFFFFFFFFFFFFFFFFFFFFFFFF3D
:1003D000FFFFFFFFFFFFFFFFFFFFFFFFFFFFFFFF2D
:1003E000FFFFFFFFFFFFFFFFFFFFFFFFFFFFFFFF1D
:1003F000FFFFFFFFFFFFFFFFFFFFFFFFFFFFFFFF0D
:10040000FFFFFFFFFFFFFFFFFFFFFFFFDEF9FFFF23
:1004100010B5054C237833B9044B13B10448AFF33E
:1004200000800123237010BDF091FF1F0000000029
:10043000506E0100084B10B51BB108490848AFF3D6
:1004400000800848036803B910BD074B002BFBD0A0
:10045000BDE81040184700BF00000000F491FF1FE6
:10046000506E0100F091FF1F000000000020704757
:100470000023024A1360024A136070471896FF1F58
:100480002496FF1F08B51F4B1B7813F0FF0F07D1F1
:10049000002105200AF02CFC01221B4B1A6008BD2C
:1004A000194B1A6801321A601B68013B0F2B1CD8CC
:1004B000DFE803F0080808120812121208121212DC
:1004C000081212120F4B1B7813F0FF0F0DD00121F1
:1004D00005200AF00DFC08E00A4B1B7813F0FF0F13
:1004E00003D0002105200AF003FC074B1B68074AD4
:1004F000134003D5013B63F00F030133024A13603D
:1005000008BD00BF3487FF1F1492FF1F0F0000803B
:1005100008B5324B1B681BB9002103200AF0E8FB29
:100520002E4B1B68012B0BD1012103200AF0E0FBAD
:1005300064200AF065FC002103200AF0D9FB08BD05
:10054000264B1B68022B1AD1012103200AF0D0FB95
:1005500064200AF055FC002103200AF0C9FB4FF487
:1005600096700AF04DFC012103200AF0C1FB6420C3
:100570000AF046FC002103200AF0BAFB08BD174B25
:100580001B68032B28D1012103200AF0B1FB642052
:100590000AF036FC002103200AF0AAFB4FF4967003
:1005A0000AF02EFC012103200AF0A2FB64200AF0CD
:1005B00027FC002103200AF09BFB4FF496700AF001
:1005C0001FFC012103200AF093FB64200AF018FCB1
:1005D000002103200AF08CFB08BD00BF2887FF1F05
:1005E00038B5054D05F1F004103D20460CF00CFA2D
:1005F000103CAC42F9D138BD2097FF1F10B504461E
:100600000BF0F4FF204610BD00B583B0084B1B680B
:100610000193019A074B1A60074803685B6801223F
:10062000064998470122064B1A7003B05DF804FB97
:10063000749DFF1F2496FF1F9487FF1F885B010096
:100640001892FF1F30B595B004460A4602A908F07B
:100650001DFD01AA504902A80EF01CFD00212046F4
:1006600008F054FD05464D4B1B7843B34C4C2368B2
:100670005B6815224B4920469847019920460CF0AB
:1006800083F823685B680B2247492046984700217E
:1006900028460DF0A9FCB0FA80F1490920460CF07B
:1006A00073F8424B1B68019A9A4208DD23685B6825
:1006B00012223F492046984720460CF003F8019B40
:1006C0003A4A1268934264DC384A1268934260DC0A
:1006D0005C1E04EB4403374A13449A7842F0040248
:1006E0009A70002128460DF07FFC38BB04EB4403D0
:1006F000304C23449A7842F001029A702E4B1B78BA
:10070000002B41D02D4904A80CF0CAF90A22019906
:1007100008A80CF001FA08A904A80CF07DFA204CF6
:10072000014620460BF0A8FF20460BF0CBFF08A89F
:100730000CF06AF904A80CF067F925E004EB440317
:100740001C4C23449A7802F0FE029A701A4B1B78D4
:10075000D3B11B490CA80CF0A3F90A22019910A8E7
:100760000CF0DAF910A90CA80CF056FA0C4C014662
:1007700020460BF081FF20460BF0A4FF10A80CF0E0
:1007800043F90CA80CF040F9019B013B01210D4AF3
:10079000D15415B030BD00BF8C5B01005896FF1FCF
:1007A0009487FF1F905B0100A85B01005496FF1F18
:1007B000B45B01001C92FF1FEC96FF1FC85B010099
:1007C000DC5B01005C96FF1F30B595B004460A461D
:1007D00002A908F05BFC6B4601AA4A4902A80EF088
:1007E00059FC0021204608F091FC0DF02FFC054635
:1007F000454B1B7813B3454C23685B68142244496E
:1008000020469847019920460BF0BEFF23685B689D
:100810000B22404920469847294620460BF0B4FF5A
:1008200020460BF04FFF3C4B1B68019A9A4205DDB6
:10083000204623685B68122238499847019B364A54
:10084000126893425CDC013B03EB430234490A44E7
:10085000917841F0080191703DB303EB4303304AB6
:1008600013449A7842F002029A702E4B1B78002BA8
:1008700041D02D4904A80CF013F90A22019908A8C7
:100880000CF04AF908A904A80CF0C6F91F4C01465F
:1008900020460BF0F1FE20460BF014FF08A80CF0E8
:1008A000B3F804A80CF0B0F825E003EB43031C4AAE
:1008B00013449A7802F0FD029A701A4B1B78D3B158
:1008C0001A490CA80CF0ECF80A22019910A80CF0B7
:1008D00023F910A90CA80CF09FF90C4C01462046F6
:1008E0000BF0CAFE20460BF0EDFE10A80CF08CF8C1
:1008F0000CA80CF089F8019B013B01210C4AD15452
:1009000015B030BDF45B01005896FF1F9487FF1FA0
:10091000FC5B0100A85B01005496FF1FB45B010063
:100920001C92FF1FEC96FF1F145C0100245C010069
:100930005C96FF1F38B504460D4608460EF0E0FDF4
:1009400023685B68024629462046984705462046AC
:100950000BF0B8FE284438BD70B582B00E461C4C72
:1009600023680193019A1B4B1A604FF47A624EF68A
:10097000602103F0DBFD45B223680093009A164B1B
:100980001A600EB335B9154803685B681022144924
:10099000984705E0114803685B680E2211499847A3
:1009A0000D4B18680B4B19680C4C00230A22411A96
:1009B00020460BF0ADFE23685B6805220A492046FD
:1009C000984720460BF07EFE284602B070BD00BF5F
:1009D000749DFF1F2896FF1F2C9CFF1F9487FF1FED
:1009E000345C0100485C0100585C01002DE9F041D5
:1009F00082B0904B1B680093009E00278D4DDFF85E
:100A0000648240F6B7342B680193019B9B1BA34281
:100A100015D80BF0B5FB0028F5D0874C23685B6830
:100A200007224146204698470BF086FC0BF05CFB02
:100A3000074623681B68C1B220469847E1E7002FAC
:100A400000F0F480FBB2303B232B00F2EF80DFE8B4
:100A500013F0240031003F004D005B006900770077
:100A6000ED008500ED00ED00ED00ED00ED00ED0086
:100A7000ED00ED00ED00ED00ED00ED00ED00A40057
:100A8000ED00ED00ED00ED00ED00ED00ED00ED00FE
:100A9000ED00ED00ED00ED0096000023674A1370B5
:100AA000674A1370674A1370674A1370674A137076
:100AB0003024ACE00122614B1A700023604A1370AD
:100AC000604A1370604A1370604A137031249EE0CC
:100AD00001225A4B1A70002359490B7059490A7068
:100AE000594A1370594A1370322490E00123534A33
:100AF0001370002252490A7052490B7052490B7010
:100B0000524B1A70332482E001234C4A13704C4A32
:100B100013704C4A137000234B4A13704B4A1370E6
:100B2000342474E00123454A1370454A1370454A42
:100B30001370454A13700022444B1A70352466E046
:100B400001233E4A13703E4A137000233D4A13703E
:100B50003D4A13703D4A1370362458E00123374A4A
:100B60001370374A1370374A1370374A13700022D4
:100B7000364B1A700522364B1A70382447E0012292
:100B80002E4B1A7000232E490B702E490B702E49E4
:100B90000B702E4B1A70532439E0274C20460BF073
:100BA00091FD23685B680D222A49204698472368F7
:100BB0005B68032228492046984720460BF082FDB7
:100BC0000BF0BAFB23685B6826222449204698472D
:100BD00020460BF077FD0BF0AFFB01260325002428
:100BE000314628460AF084F821460E200AF080F8A3
:100BF00064200AF005F931460E200AF079F8214602
:100C000028460AF075F864200AF0FAF8E8E70A4D79
:100C10002B685B6821221249284698472B681B687D
:100C200021462846984728460BF04CFD02B0BDE807
:100C3000F08100BF749DFF1F9487FF1FEC96FF1F7C
:100C40009693FF1F5896FF1FED96FF1F1C96FF1FE0
:100C50002C87FF1F685C0100785C01007C5C010050
:100C6000A45C0100605C01000A4B1B6873B182B098
:100C7000094B1B680193019B064A10681B1A42F23C
:100C80000F7083428CBF0020012001E000207047DC
:100C900002B070472496FF1F749DFF1F184B1B68FE
:100CA000002B2CDD2DE9F041164D0024164E174F78
:100CB000DFF8608004EB44017318002272545A700C
:100CC00008229A70394628460BF014FF092C07DCDD
:100CD000414628460BF07EFF611C0BF089FF03E0C4
:100CE000214628460BF084FF0122094B1A55144473
:100CF000034B1B681035A342DCDCBDE8F081704774
:100D00000C92FF1F2097FF1FF096FF1FC85C010089
:100D1000A89BFF1F745C010030B589B001A808F0E2
:100D20006FFB524803F032FF002840F39980441EC5
:100D30004E4D284603F0F8FEC1B201A808F070FE3F
:100D4000013CB4F1FF3FF4D101A808F0C5F9002837
:100D500040F0868001210E2009F0CAFF0023444A9A
:100D6000444901A808F082F90023434A434901A8F5
:100D700008F07CF90023424A424901A808F076F9BC
:100D80000023414A414901A808F070F90023404A74
:100D9000404901A808F06AF900233F4A3F4901A8E9
:100DA00008F064F900233E4A3E4901A808F05EF9C4
:100DB00000233D4A3D4901A808F058F900233C4A68
:100DC0003C4901A808F052F900233B4A3B4901A8DD
:100DD00008F04CF900233A4A3A4901A808F046F9CC
:100DE0000023394A394901A808F040F90023384A5C
:100DF000384901A808F03AF90023374A374901A8D1
:100E000008F034F90023364A364901A808F02EF9D3
:100E10000023354A354901A808F028F90023344A4F
:100E2000344901A808F022F90023334A334901A8C4
:100E300008F01CF90023324A324901A808F016F9DB
:100E40000023314A314901A808F010F90023304A43
:100E5000304901A808F00AF900210E2009F048FFE6
:100E600001A808F0F7FA09B030BD00BF2C96FF1FAB
:100E700045060000D05C0100C9070000DC5C0100F1
:100E8000E1280000EC5C01002D2A0000FC5C010060
:100E9000F51700000C5D0100391F0000205D010006
:100EA0004D1100002C5D010071040000345D010053
:100EB000090600003C5D010041160000445D010090
:100EC000E5150000505D0100891500005C5D010022
:100ED000D1120000685D01002D130000805D01004B
:100EE00089130000945D01002D140000A85D01002D
:100EF00089140000C05D0100E5140000D05D010010
:100F00009D160000E45D0100F9160000F45D01008B
:100F100055170000085E010030B583B00446214B30
:100F20001B7813F0FF0F08D018211E4A0B46013B17
:100F3000FDD1137813F0FF0FF8D10121194B19706F
:100F40000E2009F0D5FE184B5B69ABB1174B00932F
:100F5000154D6B690193164B1A886946284603F0B4
:100F6000C9FD2946204608F005F9284603F0CAFDC8
:100F7000204608F04DFA0CE00E4B1B784BB10E4C9E
:100F800023685B684E220D492046984720460BF0A7
:100F900099FB00210E2009F0ABFE0022014B1A70D4
:100FA00003B030BDA29BFF1F2C96FF1F606901009C
:100FB0002487FF1FEC96FF1F9487FF1F1C5E010014
:100FC00070B59AB0584B1B68584A1268584909685E
:100FD0000191584909680091574911A80EF034F859
:100FE00011A809F06BFA102108F020FD04460EF05C
:100FF00087FA0346514D2868E05051494B780A78EA
:101000004879039008790290C87801908978009116
:101010004C490BA80EF018F84B4904A808F0E4F965
:1010200018200BF031FE0646294607F033FF3378CF
:10103000032B02D18DF81C3011E006990131890093
:1010400005980DF0F7FD18B903238DF81C3006E064
:101050000590069A40F82260069B013306931820FB
:101060000BF012FE0546214607F014FF2B78032BE8
:1010700002D18DF81C3011E00699013189000598E4
:101080000DF0D8FD18B903238DF81C3006E005904B
:10109000069A40F82250069B0133069318200BF065
:1010A000F3FD04460BA907F0F5FE2378032B02D1CC
:1010B0008DF81C3011E006990131890005980DF07A
:1010C000B9FD18B903238DF81C3006E00590069A87
:1010D00040F82240069B0133069318200BF0D4FD04
:1010E000044611A907F0D6FE2378032B02D18DF810
:1010F0001C3011E006990131890005980DF09AFD28
:1011000018B903238DF81C3006E00590069A40F8C4
:101110002240069B0133069304A8FFF7FDFE04A8B6
:1011200008F098F91AB070BD58800440548004400B
:10113000608004405C8004406C5E0100785C0100CB
:101140004C96FF1F845E0100A45E010010B5084BA1
:101150001B784BB1074C23685B680E22064920467A
:10116000984720460BF0AEFAFFF72AFF10BD00BFEC
:10117000EC96FF1F9487FF1FB45E010030B58DB061
:1011800007AC194D0FCD0FC42B68238007A9684603
:1011900008F02AF9154B1D6818200BF075FD044660
:1011A000294607F099FE2378032B02D18DF80C30E5
:1011B00011E002990131890001980DF03BFD18B949
:1011C00003238DF80C3006E00190029A40F822408B
:1011D000029B013302936846FFF79EFE684608F0C3
:1011E00039F90DB030BD00BFC45E01005496FF1F39
:1011F00030B58DB007AC194D0FCD0FC42B682380CF
:1012000007A9684608F0F0F8154B1D6818200BF088
:101210003BFD0446294607F05FFE2378032B02D1ED
:101220008DF80C3011E002990131890001980DF020
:1012300001FD18B903238DF80C3006E00190029AE5
:1012400040F82240029B013302936846FFF764FE98
:10125000684608F0FFF80DB030BD00BFD85E010051
:101260000C92FF1F00B589B0064901A808F0BCF830
:1012700001A8FFF751FE01A808F0ECF809B05DF8ED
:1012800004FB00BF3C5D010010B540F2FF100AF006
:1012900005F80E4C23681B680021204698472368F8
:1012A0001B6800212046984723681B6800212046C0
:1012B000984723681B6800212046984723681B68CD
:1012C0000121204698470AF0B7F810BD7487FF1F28
:1012D00008B5034A1368002BFCD1FFF7D5FF08BD02
:1012E0001492FF1F10B540F2FF1009F0D7FF0E4C0B
:1012F00023681B6801212046984723681B6800214A
:101300002046984723681B68002120469847236899
:101310001B6800212046984723681B68012120464E
:1013200098470AF089F810BD7487FF1F08B5034A73
:101330001368002BFCD1FFF7D5FF08BD1492FF1FE7
:1013400010B540F2FF1009F0A9FF0E4C23681B688E
:1013500002212046984723681B68002120469847B1
:1013600023681B6800212046984723681B680021DA
:101370002046984723681B680121204698470AF0B9
:101380005BF810BD7487FF1F08B5034A1368002B74
:10139000FCD1FFF7D5FF08BD1492FF1F10B540F236
:1013A000FF1009F07BFF0E4C23681B6803212046C9
:1013B000984723681B6800212046984723681B68CC
:1013C00000212046984723681B6800212046984743
:1013D00023681B680021204698470AF02DF810BDAD
:1013E0007487FF1F10B540F2FF1009F057FF0E4C35
:1013F00023681B6804212046984723681B68002146
:101400002046984723681B68002120469847236898
:101410001B6800212046984723681B68012120464D
:1014200098470AF009F810BD7487FF1F08B5034AF2
:101430001368002BFCD1FFF7D5FF08BD1492FF1FE6
:1014400010B540F2FF1009F029FF0E4C23681B680D
:1014500005212046984723681B68002120469847AD
:1014600023681B6800212046984723681B680021D9
:101470002046984723681B6800212046984709F0BA
:10148000DBFF10BD7487FF1F08B5034A1368002BEC
:10149000FCD1FFF7D5FF08BD1492FF1F10B540F235
:1014A000FF1009F0FBFE0E4C23681B680621204646
:1014B000984723681B6800212046984723681B68CB
:1014C00000212046984723681B6800212046984742
:1014D00023681B6800212046984709F0ADFF10BD26
:1014E0007487FF1F08B5034A1368002BFCD1FFF770
:1014F000D5FF08BD1492FF1F10B540F2FF1009F090
:10150000CDFE0E4C23681B680721204698472368B0
:101510001B6800212046984723681B68002120464D
:10152000984723681B6800212046984723681B685A
:1015300000212046984709F07FFF10BD7487FF1FE8
:1015400010B540F2FF1009F0A9FE0E4C23681B688D
:101550000A212046984723681B68002120469847A7
:1015600023681B6800212046984723681B680021D8
:101570002046984723681B6800212046984709F0B9
:101580005BFF10BD7487FF1F08B5034A1368002B6B
:10159000FCD1FFF7D5FF08BD1492FF1F10B540F234
:1015A000FF1009F07BFE0E4C23681B680B212046C0
:1015B000984723681B6800212046984723681B68CA
:1015C00000212046984723681B6800212046984741
:1015D00023681B6800212046984709F02DFF10BDA5
:1015E0007487FF1F08B5034A1368002BFCD1FFF76F
:1015F000D5FF08BD1492FF1F10B540F2FF1009F08F
:101600004DFE0E4C23681B680C212046984723682A
:101610001B6800212046984723681B68002120464C
:10162000984723681B6800212046984723681B6859
:1016300000212046984709F0FFFE10BD7487FF1F68
:1016400008B5034A1368002BFCD1FFF7D5FF08BD8E
:101650001492FF1F10B540F2FF1009F01FFE0E4C50
:1016600023681B680D212046984723681B680021CA
:101670002046984723681B68002120469847236826
:101680001B6800212046984723681B6800212046DC
:10169000984709F0D1FE10BD7487FF1F08B5034AB3
:1016A0001368002BFCD1FFF7D5FF08BD1492FF1F74
:1016B00010B540F2FF1009F0F1FD0E4C23681B68D5
:1016C0000E212046984723681B6800212046984732
:1016D00023681B6800212046984723681B68002167
:1016E0002046984723681B6800212046984709F048
:1016F000A3FE10BD7487FF1F08B5034A1368002BB3
:10170000FCD1FFF7D5FF08BD1492FF1F10B540F2C2
:10171000FF1009F0C3FD0E4C23681B680F21204603
:10172000984723681B6800212046984723681B6858
:1017300000212046984723681B68002120469847CF
:1017400023681B6800212046984709F075FE10BDEC
:101750007487FF1F08B5034A1368002BFCD1FFF7FD
:10176000D5FF08BD1492FF1F1C4B1B68834233DB5F
:1017700070B50C460546461E8B685BB1082B2AD80F
:10178000174800EB06100BF09FF90122154B9A55F4
:10179000A36803BB144806EB4601431800224254D9
:1017A0005A7008229A700E4C04EB06140F4920461A
:1017B0000BF0A0F9092E07DC0D4920460BF00AFAC0
:1017C00029460BF015FA03E0314620460BF010FADB
:1017D0000122044B9A5570BD704700BF0C92FF1F49
:1017E0002097FF1FA89BFF1FF096FF1FC85C0100FA
:1017F000745C010010B592B004460A4609A907F0CE
:1018000045FC08AA224909A80DF044FC082305AAB2
:101810000021204607F08AFC05A901A80BF040F939
:101820001C4B1B7813B31C4C23685B6815221B49A7
:1018300020469847089920460AF0A6FF23685B686F
:10184000092217492046984701A920460AF014FFAB
:1018500020460AF037FF134B1B68089A9A4205DDB1
:10186000204623685B6812220F499847089C01A90B
:101870000EA80BF033F90EA92046FFF775FF0EA84E
:101880000BF0C2F801A80BF0BFF812B010BD00BFFA
:101890008C5B01005896FF1F9487FF1F105F0100AB
:1018A000285F01000C92FF1FB45B0100154B1B78F1
:1018B00033B330B589B00C460546134968460BF082
:1018C000EFF80A22294604A80BF026F904A9684675
:1018D0000BF0A2F90D490BF0A7F921460BF09CF98A
:1018E0000B4C014620460AF0C7FE20460AF0EAFEED
:1018F00004A80BF089F868460BF086F809B030BDF3
:10190000704700BFED96FF1F345F01003C5F010090
:101910009487FF1F70B59AB0064600EB40032D4A2E
:10192000D55C2D092C4912A80BF0BAF80A222946D9
:1019300016A80BF0F1F816A912A80BF06DF90146E4
:101940000EA80BF0CBF80EA93046FFF7AFFF0EA89C
:101950000BF05AF816A80BF057F812A80BF054F831
:101960001E4B09AC0FCB07C423800A2208A9701CA8
:101970000CF070FD08A909A80DF0BAFB09A901A88F
:1019800007F032FD18200BF07FF90446294607F0D6
:10199000A3FA2378032B02D18DF8103011E00399BC
:1019A0000131890002980DF045F918B903238DF82B
:1019B000103006E00290039A40F82240039B013366
:1019C000039301A8FFF7A8FA01A807F043FD1AB096
:1019D00070BD00BFA099FF1F4C5F0100585F010060
:1019E00070B596B0054600EB40032C4A13449B7833
:1019F00013F0010F0CD02A490EA80BF051F80EA9D4
:101A00002846FFF753FF0EA80AF0FEFF01260BE061
:101A1000244912A80BF044F812A92846FFF746FF04
:101A200012A80AF0F1FF00261F4B09AC0FCB07C428
:101A300023700A2208A9681C0CF00CFD08A909A84B
:101A40000DF056FB09A901A807F0CEFC18200BF0F9
:101A50001BF90446314607F065FA2378032B02D1BF
:101A60008DF8103011E003990131890002980DF0D2
:101A7000E1F818B903238DF8103006E00290039ABC
:101A800040F82240039B0133039301A8FFF744FA77
:101A900001A807F0DFFC16B070BD00BFA099FF1FC2
:101AA000685F0100705F01007C5F010070B596B057
:101AB000054600EB40032D4A13449B7813F0020FB8
:101AC0000CD02B490EA80AF0EBFF0EA92846FFF711
:101AD000EDFE0EA80AF098FF01260BE0254912A89A
:101AE0000AF0DEFF12A92846FFF7E0FE12A80AF06E
:101AF0008BFF0026204B09AC0FCB07C424F8023B18
:101B00001B0C23700A2208A9681C0CF0A3FC08A96E
:101B100009A80DF0EDFA09A901A807F065FC182045
:101B20000BF0B2F80446314607F0FCF92378032B9A
:101B300002D18DF8103011E003990131890002982B
:101B40000DF078F818B903238DF8103006E00290F4
:101B5000039A40F82240039B0133039301A8FFF747
:101B6000DBF901A807F076FC16B070BDA099FF1F45
:101B70008C5F0100985F0100A45F010070B596B012
:101B8000054600EB40032C4A13449B7813F0100FDA
:101B90000CD02A490EA80AF083FF0EA92846FFF7A9
:101BA00085FE0EA80AF030FF01260BE0244912A89A
:101BB0000AF076FF12A92846FFF778FE12A80AF06D
:101BC00023FF002609AC1F4B93E8070084E80700B9
:101BD0000A2208A9681C0CF03DFC08A920460DF05B
:101BE00087FA214601A807F0FFFB18200BF04CF8FC
:101BF0000446314607F096F92378032B02D18DF87D
:101C0000103011E003990131890002980DF012F8AB
:101C100018B903238DF8103006E00290039A40F8BB
:101C20002240039B0133039301A8FFF775F901A834
:101C300007F010FC16B070BDA099FF1FB45F010043
:101C4000BC5F0100C45F010070B592B00546354B22
:101C500009AC0FCB07C423800A2208A9681C0CF02A
:101C6000F9FB08A909A80DF043FA05EB45032E4A34
:101C700013449B7813F0400F0CD02C490EA80AF0A7
:101C80000FFF0EA92846FFF711FE0EA80AF0BCFEB2
:101C9000012600E00026264B1B78BBB1254C2368AB
:101CA0005B681C22244920469847294620460AF0B2
:101CB0006BFD23685B680B2220492046984731461C
:101CC00020460AF061FD20460AF0FCFC09A901A8A3
:101CD00007F08AFB18200AF0D7FF0446314607F0C8
:101CE00021F92378032B02D18DF8103011E00399EC
:101CF0000131890002980CF09DFF18B903238DF87B
:101D0000103006E00290039A40F82240039B013312
:101D1000039301A8FFF700F901A807F09BFB12B09D
:101D200070BD00BFD05F0100A099FF1FE05F010000
:101D3000ED96FF1F9487FF1FEC5F0100A85B010079
:101D40002DE9F0419EB0734C00EB4002A3189B7844
:101D500003F04003DBB2A25CD2B211B9002B00F059
:101D6000D58080461C1C18BF0124C2F380076A4935
:101D70000EA80AF095FE0EA94046FFF797FD0EA8A3
:101D80000AF042FE09AD654E0FCE0FC533682B70C9
:101D90000A2208A908F101000CF05CFB08A909A8B7
:101DA0000DF0A6F95B4A08EB4803D118D35C4D78D7
:101DB00003F0030305EB0325594B1B78002B3ED0A2
:101DC000584E33685B681C22574930469847414655
:101DD00030460AF0D9FC33685B6809225349304623
:101DE0009847294630460AF0CFFC514912A80AF01C
:101DF00057FE0A22214616A80AF08EFE16A912A83E
:101E00000AF00AFF4B490AF00FFF80460A223946C2
:101E10001AA80AF081FE1AA940460AF0FDFE014602
:101E200030460AF029FC30460AF04CFC1AA80AF0A9
:101E3000EBFD16A80AF0E8FD12A80AF0E5FD09A9D5
:101E400001A807F0D1FA18200AF01EFF064629461D
:101E500007F042F83378032B02D18DF8103011E0EF
:101E600003990131890002980CF0E4FE18B90323AC
:101E70008DF8103006E00290039A40F82260039B30
:101E80000133039318200AF0FFFE0546214607F0B0
:101E900049F82B78032B02D18DF8103011E003990B
:101EA0000131890002980CF0C5FE18B903238DF8A2
:101EB000103006E00290039A40F82250039B013351
:101EC000039318200AF0E0FE0446394607F02AF88A
:101ED0002378032B02D18DF8103011E003990131E2
:101EE000890002980CF0A6FE18B903238DF8103073
:101EF00006E00290039A40F82240039B01330393CB
:101F000001A8FFF709F801A807F0A4FA1EB0BDE880
:101F1000F08100BFA099FF1F0C6001001C60010050
:101F2000ED96FF1F9487FF1F30600100045F0100E2
:101F3000506001005C60010070B5164B1B784BB11E
:101F4000154C23685B6809221449204698472046AF
:101F50000AF0B8FB124B1B68002B19DD0024012688
:101F60000F4D31462046FFF7EBFE2046FFF738FDC8
:101F70002046FFF79BFD2046FFF700FE2046FFF7B7
:101F8000C9FC2046FFF760FE01342B68A342E8DC61
:101F900070BD00BF5896FF1F9487FF1F6860010047
:101FA0005496FF1F08B500F5807009F077F909F025
:101FB00043FA08BD0023A04A1360A04A136001221F
:101FC0009F4B1A709F4A1368012BFCD12DE9F041F9
:101FD00098B0FFF7E3F94FF47A7008F011FF9A4CCC
:101FE00023685B68192299492046984720460AF0E1
:101FF00069FB944A1368012BFCD14FF4C653013B93
:10200000FDD10026924D934C01E07E2E56D009F072
:1020100037FA10B109F044FAF9E701363046FFF714
:10202000C1FF08F0C9FE286009F02AFA2368984227
:1020300006DA08F0C1FE2B68C01AB0F5967FF3D31C
:1020400009F01EFA2368984204DA4FF4E153013B89
:10205000FDD1DAE709F024FA09F022FA09F020FAB2
:1020600080467D4F3B681B680021384698473B6897
:102070001B680021384698473B681B68002138469A
:1020800098475FFA88F8B8F1800FBED1734B1B6890
:102090000BB9724B1E60684A1368013313606A4FB4
:1020A0003B685B680D226E49384698473146384692
:1020B0000AF06AFB38460AF005FBA6E7614A136896
:1020C000052BFCD10025624E624C09F0D9F910B104
:1020D00009F0E6F9F9E701352846FFF763FF08F054
:1020E0006BFE30604FF46163013BFDD109F0C8F92C
:1020F0002368984205DA08F05FFE3368C01A952815
:10210000F4D909F0BDF92368984204DA4FF4E15399
:10211000013BFDD132E009F0C3F909F0C1F909F042
:10212000BFF980464C4F3B681B68002138469847F2
:102130003B681B680021384698473B681B680021B4
:10214000384698475FFA88F8B8F1800F16D03B4AB6
:10215000136801331360434B1B680BB9414B1D607F
:10216000394F3B685B680D223F49384698472946FE
:1021700038460AF009FB38460AF0A4FA4FF45263D5
:10218000013BFDD17E2DA0D14FF47A7008F038FECE
:10219000FFF7B2F94FF4FA7008F032FEFFF7D0F90A
:1021A0000022274B1A70314B1B7833B1234B1B682D
:1021B0007BB9214B1B68002B60D1204B1B68002B87
:1021C00040F08A80204803685B68012228499847CC
:1021D00082E0284968460AF063FC224B19680A220B
:1021E00004A80AF099FC04A968460AF015FD2249E2
:1021F0000AF01AFD0446114B19680A2208A80AF0D1
:102200008BFC08A920460AF007FD0F4C014620462A
:102210000AF032FA20460AF055FA08A80AF0F4FB50
:1022200004A80AF0F1FB68460AF0EEFB0F4B1B789E
:10223000002BBED1C1E700BF0C92FF1F5496FF1FB9
:102240003487FF1F1492FF1F9487FF1F74600100E3
:102250001092FF1F3087FF1F7487FF1F2096FF1FFC
:1022600090600100A49BFF1FA0600100EC96FF1F7F
:10227000B0600100B4600100E860010018490CA8DA
:102280000AF00EFC174B19680A2210A80AF044FC49
:1022900010A90CA80AF0C0FC13490AF0C5FC0446BA
:1022A000124B19680A2214A80AF036FC14A9204619
:1022B0000AF0B2FC0E4C014620460AF0DDF9204639
:1022C0000AF000FA14A80AF09FFB10A80AF09CFB81
:1022D0000CA80AF099FB70E718B0BDE8F08100BFC8
:1022E000F46001002096FF1FE86001000C92FF1FC0
:1022F0009487FF1FAD4B1B68002B40F356812DE9DF
:10230000F0470025AA4EAB4C09F0BAF810B109F01D
:10231000C7F8F9E7A84B18682844FFF743FEA74A17
:1023200005EB4503D018D25CD2B2A54FF918FA5488
:102330004378DBB24B708378DBB28B7008F03CFDE6
:10234000306009F09DF82368984205DA08F034FD02
:102350003368C01A9528F4D909F092F82368984296
:1023600007DA0022974B5A554FF4E153013BFDD158
:102370000FE10022944B5A550122924B5A55934A31
:1023800013680133136009F08BF8824609F088F86E
:10239000814609F085F880468D4B5B5D13F0FF0F99
:1023A0006CD0DFF8308205EB450708EB070918F819
:1023B000070008F073FF99F8010008F06FFF99F823
:1023C000020008F06BFF0022814B5A5518F80730C5
:1023D00013F0040F11D03B46CE4618F8070077499A
:1023E000CF19CA5C00F0030002F0FC020243CA5499
:1023F00099F80130DBB27A787B7005EB4503754ABA
:1024000013449B7813F0040F0CD005EB45031A44DA
:1024100091786A4A13449A7801F0010102F0FE02B1
:102420000A439A7005EB45036A4A13449B7813F0FC
:10243000080F0CD005EB45031A4491785F4A13440A
:102440009A7801F0020102F0FD020A439A7005EB4E
:102450004503604AD35C13F0080F0AD005EB45032F
:10246000D15C5648C25C01F0F00102F00F020A4351
:10247000C2544FF45263013BFDD18AE0564F3B6892
:102480001B680021384698473B681B680021384686
:1024900098473B681B680021384698475FFA8AFADC
:1024A000464905EB45028B1801F802A05FFA89F94D
:1024B00083F801905FFA88F883F802809B7813F024
:1024C000400F2DD013460A461A4452783C490B441B
:1024D0005978D3B28B4205D03B4A535D43F0010398
:1024E00053551DE005EB4503344A1A4452783449EC
:1024F0000B445B7839490978D31A4A4293420ADD82
:1025000005EB45032D4A1A4452782D4803445B7865
:10251000D31A994204DC2C4A535D43F0010353550E
:1025200005EB4503254A1A44927825490B449B78CC
:10253000534013F0400F04D0234A535D43F0080387
:10254000535505EB45031D4A1A4492781C490B4428
:102550009B78534013F0130F04D01B4A535D43F094
:102560000203535505EB4503144AD25C1449CB5C76
:102570001B09B3EB121F04D0134A535D43F004034D
:102580005355114B5B5D13F0FF0F02D00122144B2A
:102590001A704FF45263013BFDD10135034B1B68A8
:1025A000AB423FF7B1AEBDE8F08770475496FF1FCE
:1025B0001092FF1F3087FF1FA49BFF1FA099FF1FD2
:1025C0002498FF1F1C94FF1F249BFF1F9893FF1F3D
:1025D0005C96FF1F1C92FF1F7487FF1F2C87FF1F35
:1025E0002D87FF1F08B508F059FE08F025FF08BD2C
:1025F00008B5014602480AF03FF808F01DFF08BD83
:102600007487FF1F00224C4B1A604C4B1B6893428F
:1026100040F390802DE9F04188B0494F1546494E6E
:10262000494C4A4B18682844FFF7BCFC08F0C4FB2F
:10263000306008F025FF2368834206DD08F0BCFB0C
:102640003368C01AB0F5967FF3D308F019FF2368FA
:10265000984203DA00223E4B5A555DE001223C4B82
:102660005A55354A13680133136008F019FFC0B298
:10267000384A05EB450302EB0308D05408F010FF7D
:10268000C0B288F8010008F00BFFC0B288F8020061
:102690004FF45263013BFDD12F4B5B5D13F0FF0FF5
:1026A0001AD02E4A05EB450302EB0308D05CFFF776
:1026B00099FF98F80100FFF795FF98F80200FFF7DF
:1026C00091FF394668460AF009FA6846FFF790FF1D
:1026D00068460AF099F91FE0DFF88480D8F80030E6
:1026E0001B68002140469847D8F800301B6800213D
:1026F00040469847D8F800301B68802140469847EC
:1027000008F09AFE394604A80AF0E8F904A8FFF791
:102710006FFF04A80AF078F942F29043013BFDD123
:102720000135064B1B681037AB423FF77AAF08B054
:10273000BDE8F081704700BF2098FF1F0C92FF1F7B
:102740002097FF1F1092FF1F3087FF1F2096FF1F4B
:102750009C93FF1F9C94FF1FA89BFF1FF096FF1FD9
:102760007487FF1F0022414B1A600122404B1A70F0
:10277000404A1368012BFCD101223F4B1A603D4AAD
:102780001368052BFCD12DE9F04385B000263746B0
:102790003A4D3B4C08F074FE10B108F081FEF9E7A9
:1027A00001363046FFF7FEFB08F006FB28604FF4C9
:1027B0006163013BFDD108F063FE2368984205DAAE
:1027C00008F0FAFA2B68C01A9528F4D908F058FED8
:1027D0002368984204DA4FF4E153013BFDD120E035
:1027E00008F05EFE08F05CFE08F05AFE8146DFF855
:1027F000A480D8F800301B68002140469847D8F8DC
:1028000000301B68002140469847D8F800301B680C
:102810000021404698475FFA89F9B9F1800F18BF47
:1028200001374FF45263013BFDD17E2EB2D11549E1
:1028300068460AF035F969460120FEF795FF6846BB
:102840000AF0E2F8FFF7DEFE0022094B1A700E488C
:1028500003685B6801220D499847002FD4BF002709
:1028600001270B4B1F7005B0BDE8F0835496FF1F86
:102870003487FF1F1492FF1F0C92FF1F1092FF1F3F
:102880003087FF1F286101009487FF1F346101001A
:102890001696FF1F7487FF1F2DE9F0474D1EAB00F2
:1028A0000F259D40B9B10E46074601F18044013C19
:1028B000A400DFF828A04FF000094FF0100807EA45
:1028C00005014B464246E140504609F021FF2D09E3
:1028D000043C013EF3D1BDE8F08700BF9487FF1FA1
:1028E00030B585B004460A4602A906F0CFFB01AA1E
:1028F000404902A80CF0CEFB0021204606F006FC61
:102900000BF0A4FB04463C4B1B78002B5FD13B4BE8
:102910001B78002B63D13A4B1B78002B5FD1394BCE
:102920001B78002B5BD139E0374D2B685B68102298
:102930003649284698470199284609F025FF2B6813
:102940005B685122324928469847284609F0BAFE6A
:10295000294B1B7813B32C4D2B685B6816222D492D
:10296000284698470199284609F00EFF2B685B68B6
:10297000082229492846984703212046FFF78CFF63
:10298000264B1B68019A9A4205DD28462B685B6836
:102990001222234998471C4809F094FE019B1F4AC4
:1029A0001268934223DC04F58064013B1D4803EB6D
:1029B00043014518425C02F0FC0242EA2422D2B2F2
:1029C0004254E4B26C700121174AD1540FE0019BCC
:1029D000013B154AD35C13F0FF0FA5D1BBE7019B68
:1029E000013B114AD35C13F0FF0FD7D09CE705B031
:1029F00030BD00BF8C5B01005896FF1F9693FF1FF0
:102A0000ED96FF1FEC96FF1F9487FF1F38610100B2
:102A10004C610100A0610100B86101005496FF1FE4
:102A2000B45B01001C92FF1F5C96FF1F30B585B0A0
:102A300004460A4602A906F029FB01AA234902A876
:102A40000CF028FB0021204606F060FB0BF0FEFA9C
:102A500004461F4B1B7813B31E4D2B685B68162270
:102A60001D49284698470199284609F08DFE2B6894
:102A70005B68082219492846984702212046FFF73B
:102A80000BFF174B1B68019A9A4205DD28462B68FD
:102A90005B681222134998470E4809F013FE019B08
:102AA0000F4A126893420EDC013B0F4803EB4301CF
:102AB000425C240304F5006442EA2424E4B2445452
:102AC00001210A4AD15405B030BD00BF8C5B010022
:102AD0005896FF1F9487FF1FC4610100DC6101004D
:102AE0005496FF1FB45B01001C92FF1F5C96FF1FF2
:102AF000F8B50F1D0C46451A054E6119304607F012
:102B0000F7FC04F8010BBC42F7D10420F8BD00BF6C
:102B10006C9DFF1FF8B50F1D0C46451A054E611937
:102B200014F8012B304607F0E9FCBC42F7D1042031
:102B3000F8BD00BF6C9DFF1F2DE9F04192B0BF4B67
:102B40001C68BF49BF4D1A46BF4F40F6C4100B78F2
:102B500013F0FF0F00F06A822B7813F0030F00F0E0
:102B6000658213683E689B1B182B40F25F8201212F
:102B7000092008F0E1F80021092008F0B9F8012146
:102B80000A2008F0D9F801210A2008F0B1F8012143
:102B9000042008F0D1F80121042008F0A9F801214F
:102BA000092008F0A5F8A94C23685B683522A849DC
:102BB00020469847204609F085FD09F0BDFB01211C
:102BC000052008F0B9F80121032008F0B5F801212B
:102BD0000E2008F0B1F80121032008F089F8002147
:102BE0000C2008F0A9F8FDF701FF022007F086FE8F
:102BF0000C2007F0AFFEFF24002526270A263846C2
:102C000007F0D6FE0BF008F8014628460AF050FF00
:102C10000546304608F0F4F8631E13F0FF04EED1C9
:102C20008A4C23685B6812228A49204698478A4961
:102C300028460BF0F9F8014688480AF037FF884922
:102C40000BF03EF887490AF033FF0AF0B7FB022386
:102C5000009302460B46204609F0A2FD23685B68FC
:102C60000A22814920469847204609F02BFD236817
:102C70005B6812227D492046984723685B680322DF
:102C80007B4920469847204609F01CFD07F058FC78
:102C900002467849204609F02DFD774B1B68774A9C
:102CA0001268774909680191764909680091764967
:102CB00003A80CF0C9F923685B6812227349204607
:102CC000984703A80CF01CFC23685B68024603A924
:102CD00020469847204609F0F5FC6D4D2946002016
:102CE000FFF706FF2B6801332B6029460020FFF712
:102CF00011FF684E31460420FFF7FAFE23685B6837
:102D0000122265492046984700230A222968204656
:102D100009F0FEFC204609F0D5FC09F00DFB236804
:102D20005B6812225D492046984700230A223168D9
:102D3000204609F0EDFC204609F0C4FC09F0FCFA3D
:102D4000574B1B78D3B103A807F0B8FB102106F04E
:102D50006DFE054623685B6812225249204698475B
:102D600029460CA809F09CFE0CA9204609F084FC19
:102D7000204609F0A7FC0CA809F046FE334C236856
:102D80005B683522484920469847204609F09AFC5E
:102D900009F0D2FA23685B681D224449204698470F
:102DA000204609F08FFC07F0D7FB02460B4640494E
:102DB000204609F09FFC23685B6817223D492046A6
:102DC0009847204609F07EFC3B4807F0D1FB0125DF
:102DD000DFF8F480002723685B6804224146204620
:102DE00098473B460A222946204609F091FC236871
:102DF0005B68012231492046984701212E48FDF7A2
:102E0000ABFDC6B23B460A223146204609F080FCA3
:102E100023685B6802222A49204698470135002E24
:102E2000D9D00A4C23685B6812222649204698476D
:102E30000021032007F05CFF48E000BF749DFF1FE6
:102E4000709FFF1F809FFF1FA0A1FF1F9487FF1F80
:102E5000E86101002062010000007F430A63194518
:102E60000FEE2E3E0000C8413462010040620100B6
:102E7000785C010054620100588004405480044092
:102E8000608004405C8004406C5E01006C62010064
:102E90001C9BFF1F209BFF1F8062010094620100AA
:102EA0001C96FF1FA8620100BC620100F4620100D1
:102EB00014630100306301004C96FF1F9C60010009
:102EC000D8610100506301004863010023685B681A
:102ED0000F225B49204698470DF143060024594DC7
:102EE000594F10A801F008FD00230A2216F8011F0F
:102EF000284609F00DFCE3B2022B05D82B685B686D
:102F000001223946284698470134042CE9D14D4C1A
:102F1000204609F0D7FB4FF4FA7007F071FF2368E1
:102F20005B682122494920469847204609F0CAFBA0
:102F30004749484804F03CFB68B123685B6822229B
:102F4000454920469847204609F0BCFB0021032054
:102F500007F0CEFE0DE03B4C23685B683B223F4907
:102F600020469847204609F0ADFB0121032007F0D9
:102F7000BFFE3B4B1A880023009301233949354893
:102F800004F0C0FE70B12F4C23685B6833223649D1
:102F900020469847204609F095FB0021032007F0C2
:102FA000A7FE0DE0274C23685B6826222F492046A8
:102FB0009847204609F086FB0121032007F098FE80
:102FC0004FF4907007F090FF842007F0F5FF022087
:102FD00008F092F8224B1988254801F03BFD254C5A
:102FE000254A2649204609F0B7FA50232371226862
:102FF0002AB1234B13441B115021224A99545820C3
:1030000007F0FEFE204C214A2149204609F0A4FA8F
:10301000FF23237122682AB1194B13441B11FF218E
:10302000184A995400221B4B1A7005E013681B1BA9
:1030300083427FF68CAD9AE512B0BDE8F08100BF07
:10304000646301009487FF1F7463010078630100CB
:103050009C630100F49CFF1FA4630100C86301008E
:103060003887FF1F046401001464010048640100F4
:103070002C96FF1FE496FF1F8F5F01008504000060
:10308000008FFCBF44E400E0DC96FF1FFFA14A0470
:10309000110500009793FF1F10B588B0174C21460B
:1030A0000420FFF725FD2368013323602146042017
:1030B000FFF730FD642007F0A3FE114B1B78D3B15E
:1030C0001049684609F0ECFC0A22216804A809F0BE
:1030D00037FD04A9684609F09FFD0B4C01462046C8
:1030E00009F0CAFA204609F0EDFA04A809F08CFCB0
:1030F000684609F089FC08B010BD00BF209BFF1F87
:10310000EC96FF1F706401009487FF1F2DE9F04FBC
:103110009BB00022A24B1A70A24B1B680093009C2C
:10312000A14EA24805F0DCFB01F040FBFDF7F4FDE9
:103130009F4B1B78002B74D19E4B1B7813F0FF0F15
:1031400004D0FEF78FF800229A4B1A70954B1B683B
:103150000193019B1B1BB3F5FA6F05D3914B1B68C1
:103160000293029CFFF7FEFA8D4B1B7813F0FF0FC2
:103170001FD1FDF779FD50B98F4B1B68032B03D08E
:103180008E498F48FDF7D6FB03228B4B1A60FDF763
:103190006BFD50B1884B1B68022B03D089498848CE
:1031A000FDF7C8FB0222844B1A600022804B1A7084
:1031B000B7E77B4B1B7813F0FF0F2ED0FDF754FDC4
:1031C00070B97D4B1B68012B03D07F497C48FDF70C
:1031D000B1FB0122784B1A600022754B1A70A0E7F0
:1031E000FDF742FDC8B10022734B1A60774974485D
:1031F000FDF7A0FB764906A809F052FC06A90120BC
:10320000FEF7B2FA06A809F0FFFBFFF7FBF9FFF79C
:1032100043FF0122664B1A7003E0654B1B78002BBD
:1032200042D0674C23685B681B226A492046984756
:10323000204609F047FAFEF7BDFEFDF79FFFFDF7B8
:10324000D7FFFDF72BFD00225B4B1A60624809F0A7
:10325000CDF9624B1B68012B07D001255F4C284636
:1032600007F0CEFD2368012BF9D14FF4C653013B83
:10327000FDD1FFF7C7F945F6C053013BFDD1FEF77D
:1032800031F84FF4E153013BFDD14D4C23685B68AD
:103290001922534920469847204609F013FA012382
:1032A000434A13704F4A13704F4F414B1B78002B0A
:1032B00000F01B823D4805F013FB01F077FA3B68F4
:1032C000002B0BDD00231A4603EB43003118325468
:1032D0004A708A70013339689942F5DC354B1B78A6
:1032E00013F0FF0F04D0FDF7BDFF0022314B1A7021
:1032F0003E4B1B683BBB324C23685B6821223C4938
:1033000020469847204609F0DDF90022284B1A7024
:1033100038490AA809F0C4FB0AA90120FEF724FADB
:103320000AA809F071FBFFF76DF9334A33492A48BF
:1033300009F012F91B4B1B680393039C4FF4FA60CE
:1033400007F05EFDEDE6FDF78FFC00285CD11C4C1C
:1033500023685B6821222A4920469847204609F0C5
:10336000B1F90022124B1A7026490EA809F098FBF9
:103370000EA90120FEF7F8F90EA809F045FBFFF7AA
:1033800041F91D4A1D49144809F0E6F8054B1B6830
:103390000493049C4FF4FA6007F032FDC1E600BFCD
:1033A0001696FF1F749DFF1F1C92FF1FF49CFF1FAA
:1033B0009793FF1F1892FF1F2887FF1F8464010047
:1033C0009487FF1FA4640100C4640100E464010049
:1033D0000465010010650100DC96FF1F1492FF1FB9
:1033E0002C6501003487FF1F5496FF1F2496FF1F92
:1033F000486501006C650100FFA14A041105000049
:10340000786501009C6501000023B94A1360B94A40
:103410001360B94B1B68012B05D0B74CFDF77CFC42
:103420002368012BFAD1FEF765FFB44B1B7823B953
:10343000B34B1B78002B00F08880B24C00230A228B
:10344000B1490968204609F063F923685B680322E3
:10345000AE49204698473B68002B73DD0124DFF816
:103460009C92DFF8F882A74D04F1FF3A99F80030FA
:103470005BB318F80A3013F0FF0F1CD0022120466E
:10348000FFF70AFA2B685B680122A1492846984792
:103490000AEB4A0306EB030BF05C0221FFF7FCF991
:1034A0009BF801000221FFF7F7F99BF802000221C7
:1034B000FFF7F2F909E002212046FFF7EDF92B684A
:1034C0005B6801229349284698478D4B1B7873B35C
:1034D00018F80A3013F0FF0F1FD08F4B13F80A3083
:1034E00013F0FF0F23D02B685B6801228849284620
:1034F00098470AEB4A0A06EB0A0B16F80A00022163
:10350000FFF7CAF99BF801000221FFF7C5F99BF804
:1035100002000221FFF7C0F909E002212046FFF76F
:10352000BBF92B685B6801227A49284698472B68CB
:103530005B6801227949284698473A68A24204F11B
:10354000010491DC6F4809F0BDF8754B1B78002B26
:1035500000F09F803B68002B40F398800024714D61
:10356000DFF89CA12B5D13F0020F08D02046FEF778
:1035700037FA2046FEF79AFA2046FEF7FFFA2B5D4F
:1035800013F0040F02D02046FEF7C4F92B5D13F0B0
:10359000080F02D02046FEF757FB2B5D13F0010FFA
:1035A00003D000212046FEF7CBFB2B5D13F0FF0F6D
:1035B00067D09AF80030002B63D05B4912A809F05D
:1035C0006FFA0A22214616A809F0A6FA16A912A82F
:1035D00009F022FB554909F027FBDFF82881014655
:1035E000404609F049F816A809F00EFA12A809F0A9
:1035F0000BFA4F4B04EB440903EB090B13F80900DA
:103600000221FFF749F99BF801000221FFF744F975
:103610009BF802000221FFF73FF9D8F800305B6801
:103620000622444940469847434B03EB090B13F8E5
:1036300009000221FFF730F99BF801000221FFF792
:103640002BF99BF802000221FFF726F9D8F8003089
:103650005B68052239494046984706EB090B16F886
:1036600009000221FFF718F99BF801000221FFF77A
:1036700013F99BF802000221FFF70EF9404609F00A
:1036800021F801343B68A3423FF76CAF0022244B82
:103690001A70174B1B68002B7FF407AE3B60FDF7D9
:1036A0006DFD174B1B784BB1164C23685B681422D9
:1036B000234920469847204609F004F80023214A70
:1036C0001370214A2149224808F046FF214B1B680C
:1036D0000593059B0B4C23685B6823221E492046FB
:1036E0009847204608F0EEFFDFE51BB0BDE8F08FFD
:1036F0009893FF1F2098FF1F1492FF1F9693FF1FA0
:10370000ED96FF1F9487FF1F289CFF1FA8650100EF
:10371000AC650100B06501005C96FF1FB465010057
:103720002D87FF1F249BFF1FB8650100D065010096
:10373000A099FF1FE46501002498FF1FEC650100BC
:10374000F46501009793FF1FFFA14A0411050000D3
:10375000DC96FF1F749DFF1F0C6601001C94FF1F69
:1037600070B5184B00221A714FF47A7199601A7370
:1037700015491960154919615A61042119771448CE
:10378000026080230371134A13490AF011FE134C9F
:1037900004F5807600252946204609F081F9103489
:1037A000A642F8D10B4C22460D4900200AF000FE3B
:1037B0000C480023036080230371224606490AF067
:1037C000F7FD70BD2C96FF1FB8660100606901000F
:1037D000E496FF1F2087FF1FFD0500002097FF1FB5
:1037E000E1050000DC96FF1F704700BF10B4416880
:1037F0000A6814684B68234313600368184A1A6008
:103800000368184ADA60036802F180421A610368AB
:10381000154A1A604468427A144BA11891F8241092
:1038200003EBC10149680A3254F822200A60426859
:10383000047A1119097E03EBC101496802EB840285
:10384000D2690A604268817A501890F8300003EB20
:10385000C0035B6802EB8102526B1A6010BC7047B8
:1038600001401F000110003800001F80E8670100C0
:103870000023036143618361C3610362704700BF3A
:10388000054A02600A7C02714A7C42718A7C82711C
:10389000CA7CC271704700BF60690100054A0260BE
:1038A0000A7D02714A7D42718A7D8271CA7DC27130
:1038B000704700BF60690100054A02600A7E02711C
:1038C0004A7E42718A7E8271CA7EC271704700BF91
:1038D00060690100074A026091F82020027191F8A6
:1038E0002120427191F82220827191F82320C27127
:1038F000704700BF60690100302301F8023B1309E3
:1039000002F00F02092A94BF3032373201F8012D3C
:103910001A46002BF3D170472DE9F04F8DB00646C3
:10392000884691462022002102A80BF031F906F1C9
:1039300048057C4B0A93FF238DF82C308DF82D30F1
:103940008DF82E308DF82F3043220AA9284601F039
:10395000D1F8B0F1FF3F00F0E18001238DF808308D
:103960008DF8093006248DF80A4000278DF80B7079
:1039700073681A0E42EA03611A0202F47F020A43D4
:103980001B0A03F47F431343019303934FEA192364
:103990008DF810308DF811908023ADF80230ADF81D
:1039A00012301C2202A9284601F0B2F84FF0200B79
:1039B0005A46394602A80BF0EBF8B2465AF8080FFF
:1039C0000DF1300949F8280DBAF80430ADF80C3083
:1039D000102202A9284601F09BF85A46394602A84F
:1039E0000BF0D6F85F463A464946284601F090F873
:1039F000013CF8D163238DF8083082228DF809202C
:103A000053228DF80A208DF80B3035238DF80C30B9
:103A100001238DF80D308DF80E803D228DF80F209A
:103A200007228DF810208DF81130DAF80030CDF82B
:103A30001230BAF80430ADF816300C238DF8183077
:103A40008DF81930384B1868CDF81A009A889B7990
:103A5000ADF81E208DF82030F27A08A93046FFF725
:103A60004BFF327B0DF122013046FFF745FF727BA1
:103A700009A93046FFF740FF1E2202A9284601F09F
:103A800047F8B8F1030F27D132238DF8083004230B
:103A90008DF80930327C8DF80A20727C8DF80B206D
:103AA000B27C8DF80C20F27C8DF80D2036228DF83A
:103AB0000E208DF80F30337F8DF81030737F8DF826
:103AC0001130B37F8DF81230F37F8DF813300C2254
:103AD00002A9284601F01CF837238DF80830062388
:103AE0008DF8093001228DF80A2003228DF80B2071
:103AF0008DF80C300F238DF80D303A238DF80E30F1
:103B00003B238DF80F30FF238DF81030092202A9D6
:103B1000284600F0FDFF284600F0F4FF0DB0BDE898
:103B2000F08F00BF60690100A86601002DE9F04F29
:103B300093B0074689469346B24B1B680393DDF862
:103B40000C8000F14805AF4E4FF0320A2C46284653
:103B500001F01CF800280BDC33680493049BC8EBCD
:103B600003034B4500F24981504607F049F9EDE760
:103B7000242205A9284600F0F1FF9DF81430022BFD
:103B800040F03181B7F86030432B40F02F81069B25
:103B90001D0E45EA03651A0202F47F0215431B0A53
:103BA00003F47F431D43CBF80050062207F10801C0
:103BB0000CA80AF057FF28B93B689D4202D37B68E6
:103BC0009D4204D9204600F037FF002016E10998F5
:103BD0003861CC25204600F0A7FF013DFAD14FF017
:103BE000000907F1240A4FF0040807F128030193A4
:103BF000204600F013FF002840F3FA80204600F032
:103C000093FF332800F0C3800ADC012820D002DCB7
:103C10000028EDD0D2E0032824D006283BD0CDE008
:103C20003A2800F0878004DC352808D036284BD0AD
:103C3000C4E03B2800F09480FF28D9D0BEE02046A5
:103C400000F072FF204600F06FFF5FFA80F9CFE7C7
:103C5000204600F069FF424607F11401204600F0BB
:103C60007DFFC5E7204600F05FFF8346424607F12F
:103C70001801204600F072FF5FFA8BFBABF10403E2
:103C8000002BB5DD9B460026204600F04DFF013697
:103C90005E45F9D1ACE7204600F046FF8346424638
:103CA00007F12001204600F059FF5FFA8BFBABF1D2
:103CB0000403002B9CDD9B460026204600F034FFC9
:103CC00001365E45F9D193E7204600F02DFF97F8C5
:103CD0001CE08DF83CE07E7F8DF83D60BA7F8DF86A
:103CE0003E20FB7F8DF83F300F9991B18DF844E075
:103CF0008DF845608DF846208DF84730FB6D119AA0
:103D00009A4206D0C0B200F1FF3B5FFA8BFB38B994
:103D10006EE7424607F11C01204600F01FFF67E7EF
:103D20000BF1010B2E46204600F0FEFE0136B34596
:103D3000F9D15DE7204600F0F7FE424601992046A2
:103D400000F00CFFBB6A1A0E42EA03611A0202F489
:103D50007F020A431B0A03F47F431343BB6247E716
:103D6000204600F0E1FE424607F12C01204600F01B
:103D7000F5FEFB6A1A0E42EA03611A0202F47F02A0
:103D80000A431B0A03F47F431343FB6230E72046D8
:103D900000F0CAFE42465146204600F0DFFE7B6A34
:103DA0001A0E42EA03611A0202F47F020A431B0A56
:103DB00003F47F4313437B623B6319E7204600F023
:103DC000B3FEC0B200F1FF3B5FFA8BFB00283FF46B
:103DD0000FAF0BF1010B2E46204600F0A5FE013679
:103DE0005E45F9D104E74FF0000901E04FF000090A
:103DF000204600F021FE484600E0FF2013B0BDE859
:103E0000F08F00BF749DFF1F2DE9F04786B0044678
:103E10004FF4FA61012008F0EDFD6060A14649F819
:103E2000480B484600F00AFE4421484600F012FEC6
:103E3000002800F09B804F4B1B680093DDF800804A
:103E4000002635464B4FDFF830A194F84430032B61
:103E50007FD09BB96368013363603B680193019A2B
:103E6000C8EB0202AAFB0232C2F38F1201212046E4
:103E7000FFF752FD012384F844305AE0042B13D19C
:103E80006368013363603B680293029AC8EB0202E5
:103E9000AAFB0232C2F38F1203212046FFF73CFD3A
:103EA000022384F8443044E0012B1AD105AAE16BC7
:103EB0002046FFF73BFE054602283AD1059B63608A
:103EC0003B680393039AC8EB0202AAFB0232C2F3D7
:103ED0008F1203212046FFF71FFD022384F8443090
:103EE00027E0022B25D105AAE16B2046FFF71EFE35
:103EF0000546052818D1032384F84430636A13B9B2
:103F00004FF461736362A36A13B9636A5B08A362C7
:103F1000E36A1BB9636AA3EBD303E362A36A236377
:103F2000E36A6363012604E0062804BF002384F8E3
:103F30004430FF2D04BF002584F84450002E84D166
:103F40003B680493049BC8EB0303A26B93427FF688
:103F50007CAF484600F072FD636801336360054B37
:103F60001B680593059B2364304600E0002006B0E3
:103F7000BDE8F087749DFF1FD34D6210F8B504466D
:103F80000F46002545628562C5628263C363856012
:103F90008581FFF76DFC3B68A360BB88A38184F833
:103FA00044502046FFF730FFF8BD00BF10B582B087
:103FB00004462A4B1B6801930199036CCB1AB3F595
:103FC0007A7F1BD3264AA2FB030292094FF47A7030
:103FD00000FB1233C91A2164236B51008B4234BF9A
:103FE00000239B1A2363636B994205D90023636303
:103FF000236B5BB3002012E09A1A6263236B5BB9F8
:1040000094F84430032B1CD1042384F84430204618
:10401000FFF7FAFE013000E00020636BDBB994F893
:104020004430032B00D0B3B9002384F84430204639
:10403000FFF71EFC2046FFF7E7FE03300BE00020F1
:10404000F1E7626B002AFAD0002004E094F84430D3
:10405000032BF4D1D8E702B010BD00BF749DFF1F41
:10406000D34D62104B68436000230381704700BF4B
:1040700070B40139002528462E4611F8013FBBB126
:10408000A3F13004E4B2092C08D800EB8000303BE7
:1040900003EB400398B2FF28EFD90EE02E2B0ED190
:1040A000032D0ED06B1C15442871DDB23046E4E7B9
:1040B000032D08D1D071012006E0002004E000208B
:1040C00002E0002000E0002070BC7047024B034A71
:1040D0001A6000225A607047309CFF1F606901001F
:1040E0002DE9F04182B00C463E4B1B680093009BCB
:1040F000038100F10C07022200F10801384600F0AC
:1041000007FD02AD012325F8023D0222294638466B
:1041100000F0FEFC4FF48073ADF806300222294611
:10412000384600F0F5FC0023ADF80630022229469F
:10413000384600F0EDFC02222946384600F0E8FC43
:1041400002222946384600F0E3FC23786BB326466A
:104150004FF0010801E0144626462378DBB12E2BF0
:1041600002D11CE02E2B1AD014F8013F002BF9D1FC
:1041700011E08DF8055042460DF10501384600F07A
:10418000C7FC2A463146384600F0C2FC621C237840
:10419000002BE0D109E0A51B002DEADC05E0A51B02
:1041A000002DD8BF0134D7DDE3E702A9002301F8D1
:1041B000033D0122384600F0ABFC4FF4807502ACA1
:1041C00024F8025D02222146384600F0A1FCADF839
:1041D000065002222146384600F09AFC012002B027
:1041E000BDE8F081749DFF1F2DE9F04F89B0814635
:1041F0000F469246994B1B680293029E00F10C04F5
:10420000964D4FF03208A346204600F0BFFC002830
:104210000ADC2B680393039B9B1BBB4200F20C81BF
:10422000404606F0EDFDEEE7D9F80420D9F820303D
:104230009A4240F00481B9F82430352B40F00281D5
:10424000204600F0EBFB0B2840F3FF800C2205A971
:10425000204600F083FCBDF81620130A43EA02232F
:104260001BB29AB2ADF81220B9F80800BDF81410CC
:10427000884201D1002B05DB584600F0DDFB4FF6EC
:10428000FC70E8E040F20F231A4205D0204600F00F
:10429000D3FB4FF6FB70DEE0BDF81A40230A43EA79
:1042A0000424A4B254B1BDF8182013029BB253EAFF
:1042B000122300F0CD800025012605E0584600F0CD
:1042C000BBFB4FF6FA70C6E032460DF106015846C8
:1042D00000F044FC9DF806307BB1013B8DF80630C0
:1042E000584600F021FC9DF80620531EDBB28DF8E5
:1042F0000630002AF4D1002BE6D1584600F014FC19
:10430000584600F011FC584600F00EFC584600F0EC
:104310000BFC0135ADB2BDF8182013029BB243EA85
:1043200012239D42D0DB93E032460DF10301584643
:1043300000F014FC9DF8033013F0C00F0FD1BBB197
:10434000013B8DF80330584600F0EEFB9DF803204A
:10435000531EDBB28DF80330002AF4D106E0584634
:1043600000F0E2FB00238DF8033001E0002BDBD1ED
:10437000022201A9584600F0F1FB02220DF10601CC
:10438000584600F0EBFB584600F0CEFB584600F0D4
:10439000CBFB584600F0C8FB584600F0C5FB022294
:1043A0000DF11201584600F0D9FBBDF804201302AC
:1043B0009BB243EA1223012B08D0BDF8122013024E
:1043C0009BB253EA12232CD000271DE0BDF8062033
:1043D00013029BB243EA1223012BEED1BDF8122047
:1043E00013029BB243EA1223042B05D0584600F077
:1043F00023FB4FF6F7702EE004220AEB0201584629
:1044000000F0ACFB012026E0584600F08DFB0137A0
:10441000BFB2BDF8122013029BB243EA12239F429F
:10442000F2DB0135ADB2AC427FF47EAF584600F00E
:1044300003FB4FF6F6700EE04FF6FF700BE04FF601
:10444000FE7008E04FF6FE7005E04FF6FD7002E0EA
:104450000025012668E709B0BDE8F08F749DFF1FB5
:104460002DE9F04184B005460F469046FFF700FE67
:10447000002837D104466A68294B5B689A4233D0DA
:1044800005F10C06274B1B680193019901F00F0100
:1044900001F58061304600F0DDFA01283CD1224B65
:1044A00002936B680393352202A9304600F022FB89
:1044B000044698B139462846FFF712FE68B13046E7
:1044C00000F020FB044690B908E0424641F28831F2
:1044D0002846FFF789FE044600E00024304600F03D
:1044E000ADFA19E0012417E06FF0010414E0424630
:1044F00041F288312846FFF777FE0446B0F1FF3FCE
:10450000ECD1424641F288312846FFF76DFE044661
:10451000B0F1FF3FD9D0E1E7204604B0BDE8F0811B
:10452000309CFF1F749DFF1F6069010070B58AB049
:1045300004460D4616468E4B1B6813F0010F17D12B
:104540008B4806F09BFB98B18A4B002283F84C20E5
:104550004FF47A71196583F8542087499964874923
:104560009965DA65042283F86420814806F08CFBA3
:10457000804A834B1A6002F05BFD824BDB7A2BB3DF
:1045800072B6804BDB7A13F0010F06D07E4A1068BA
:104590007C49CB6803408B6113607A4BDB7A13F064
:1045A000020F06D0794A106876490B690340CB6147
:1045B0001360744BDB7A13F0040F06D0744A106852
:1045C00070494B6903400B62136062B66D4B1B6808
:1045D000DA68B2F1384F0BD06E4A1A60694B1B682B
:1045E0004FF03842DA604FF078421A616A4A1A6036
:1045F00006222146092001F09DFB604B0093002319
:104600008DF804308DF805308DF806308DF80730C0
:1046100004220DEB02010F2001F08CFB594BDB7AD9
:10462000C3B113F0010F03D0564B9A695B4B1A606C
:10463000544BDB7A13F0020F03D0524BDA69584B1C
:104640001A60504BDB7A13F0040F03D04D4B1A6AFB
:10465000544B1A6033462A46214649480068FFF702
:104660008DFC044601287FD1464BDB7A2BB372B612
:10467000444BDB7A13F0010F06D0434A10684149DE
:10468000CB6803408B6113603E4BDB7A13F0020F63
:1046900006D03E4A10683B490B690340CB6113606A
:1046A000384BDB7A13F0040F06D0394A10683549CD
:1046B0004B6903400B62136062B6324B1B68DA68C9
:1046C000B2F1384F0BD0334A1A602E4B1B684FF0B3
:1046D0003842DA604FF078421A612F4A1A60284D4A
:1046E000296802A8FFF7CCF8042203A90F2001F0E3
:1046F00021FB296804A8FFF7DFF8042205A901209F
:1047000001F018FB296806A8FFF7C8F8042207A9DA
:10471000052001F00FFB1B4BDB7AC3B113F0010F37
:1047200003D0184B9A691D4B1A60164BDB7A13F0B5
:10473000020F03D0134BDA69194B1A60114BDB7A65
:1047400013F0040F03D00F4B1A6A164B1A600C4B70
:10475000196808A8FFF7BEF8099A134B5A6006F0CB
:104760002BFB80B200F040FB20460AB070BD00BFBA
:10477000389CFF1F3C9CFF1FB86601006069010068
:10478000AC9CFF1F3C87FF1F80E100E084E100E05C
:1047900088E100E001401F0000001F8000E100E010
:1047A00004E100E008E100E0A49CFF1F30B589B0FF
:1047B000464B1868002800F08480FFF7F7FB04469A
:1047C000022801D004287DD1414BDB7A2BB372B68D
:1047D0003F4BDB7A13F0010F06D03E4A10683C498C
:1047E000CB6803408B611360394BDB7A13F0020F07
:1047F00006D0394A106836490B690340CB61136013
:10480000334BDB7A13F0040F06D0344A106830497A
:104810004B6903400B62136062B62D4B1B68DA686C
:10482000B2F1384F0BD02E4A1A60294B1B684FF05B
:104830003842DA604FF078421A612A4A1A60234DF2
:1048400029686846FFF71CF804220DEB02010F20CF
:1048500001F070FA296802A8FFF72EF8042203A9D4
:10486000012001F067FA296804A8FFF717F804226D
:1048700005A9052001F05EFA154BDB7AC3B113F0F0
:10488000010F03D0124B9A69174B1A60104BDB7A59
:1048900013F0020F03D00E4BDA69144B1A600C4B65
:1048A000DB7A13F0040F03D0094B1A6A104B1A601D
:1048B000064B196806A8FFF70DF8079A0D4B5A60CA
:1048C00000E00024204609B030BD00BFAC9CFF1FB3
:1048D0003C87FF1F80E100E084E100E088E100E028
:1048E00001401F0000001F8000E100E004E100E043
:1048F00008E100E0A49CFF1F10B50446304B0360A4
:10490000002343602F4BDB7A2BB372B62D4BDB7A3F
:1049100013F0010F06D02C4A10682A49CB680340D7
:104920008B611360274BDB7A13F0020F06D0274A06
:10493000106824490B690340CB611360214BDB7A7B
:1049400013F0040F06D0224A10681E494B69034039
:104950000B62136062B61B4B1B68DA68B2F1384F0A
:104960000BD01C4A1A60174B1B684FF03842DA60B4
:104970004FF078421A61184A1A600422A1180F20D9
:1049800001F002FD0F4BDB7AC3B113F0010F03D02E
:104990000C4B9A69114B1A600A4BDB7A13F0020F29
:1049A00003D0084BDA690E4B1A60064BDB7A13F022
:1049B000040F03D0034B1A6A0A4B1A60204610BD3D
:1049C000606901003C87FF1F80E100E084E100E0B6
:1049D00088E100E001401F0000001F8000E100E0CE
:1049E00004E100E008E100E0024B034A1A60002203
:1049F0005A607047A49CFF1F6069010008B50368F6
:104A00005B6B984708BD00BF024A02604A6942607A
:104A1000704700BF60690100008B7047C08B704712
:104A200010B582B002AB03F8011D02685468012280
:104A30001946A04702B010BD704700BF037F032B8B
:104A400007D810B50446184600F0B4FC04232377B9
:104A500010BD704738B504460D46007F032801D8C5
:104A600000F0A8FC2946022000F0C8F920770328AE
:104A700004D8E5810023E383012038BD002038BD40
:104A800070B592B005460C461646174A03920023AD
:104A900004938DF81C304FF47A7108918DF824300E
:104AA000124906910A920B9304218DF83410019259
:104AB00002930E920E4B5B680F930EA903A8FFF7AB
:104AC000D1FA01AA214603A8FFF7CAFC012809D19F
:104AD0002B685B6A044A1092029A1192324610A91E
:104AE0002846984712B070BD60690100B8660100A1
:104AF000A49CFF1F08B5002343830431007F00F00E
:104B000045FF08BD08B5007F00F0DAFF08BD00BF13
:104B100010B5044693B20A46418B007F00F0B8FE00
:104B2000638B0344638310BDC38B83B110B582B024
:104B3000044601220DF10701007F00F0A9FC0028C6
:104B400008DDE38B013BE3839DF8070004E04FF0B1
:104B5000FF3070474FF0FF3002B010BDC38B73B110
:104B600010B50446934294BF1AB212B2007F00F00F
:104B70008FFC002806DDE38B1B1AE38310BD4FF08A
:104B8000FF3070474FF0FF3010BD00BF10B582B04E
:104B90000446C38B33B123685B6920469847E38B97
:104BA000002BF8D1207F00F075FD10B30822694674
:104BB000207F00F06DFC00281CDD9DF8003023757F
:104BC0009DF8013063759DF80230A3759DF80330A0
:104BD000E3759DF804209DF8053003EB0223238341
:104BE0009DF806009DF8073003EB002080B2E083BB
:104BF00000E0002002B010BD08B5037F032B05D8EC
:104C0000C28B32B1184600F0BDFD08BD4FF0FF3039
:104C100008BD4FF0FF3008BD70B582B004460E46A7
:104C20001546007F032801D800F0C4FB094B009310
:104C3000736801932A466946822000F02FFA207794
:104C4000032804D8E5810023E383012000E000204D
:104C500002B070BD606901002DE9F04383B00746E2
:104C60000C4690461E460502274B188824302844DF
:104C7000022201A980B201F087FB9DF804109DF883
:104C8000053043EA012121448CB2204BB3F8009057
:104C900004EA09091E4B33F81700484480B21D4B43
:104CA0001B78372B05D01C4B1B8809EB06029A4258
:104CB00004DC3246414601F03DF811E0C9EB03093E
:104CC0001FFA89F94A46414601F034F8C9EB060259
:104CD00092B208EB09010E4B33F8170001F02AF8E5
:104CE0003444A4B223128DF804308DF80540064BED
:104CF000188824302844022201A980B201F01AF851
:104D000003B0BDE8F08300BFDC9CFF1FE89CFF1FE1
:104D1000E09CFF1FDA9CFF1FD89CFF1F2DE9F0418C
:104D200082B080460502154B1888203028440222A4
:104D300001A980B201F028FB9DF804409DF80530E0
:104D400043EA04240D4F022600E004463888203050
:104D50002844324601A980B201F016FB9DF80400F8
:104D60009DF8053043EA00208442EED1044B03EB6A
:104D7000C808A8F8040002B0BDE8F081DC9CFF1F61
:104D8000B89CFF1F2DE9F04182B080460502144B0C
:104D9000188826302844022201A980B201F0F4FAD2
:104DA0009DF804409DF8053043EA04240C4F022688
:104DB00000E00446388826302844324601A980B2F3
:104DC00001F0E2FA9DF804009DF8053043EA002066
:104DD0008442EED1034B23F8380002B0BDE8F081E5
:104DE000DC9CFF1FB89CFF1F034AC0F30D00138813
:104DF00058401080704700BF6087FF1F2DE9F04FBB
:104E000085B083468A46984BDB7A2BB372B6964BB5
:104E1000DB7A13F0010F06D0944A10689249CB68F0
:104E200003408B611360904BDB7A13F0020F06D0C6
:104E30008F4A10688C490B690340CB6113608A4B21
:104E4000DB7A13F0040F06D08A4A106886494B6952
:104E500003400B62136062B6834B1B68DA68B2F1E1
:104E6000384F0BD0844A1A607F4B1B684FF0384292
:104E7000DA604FF078421A61804A1A6003AF3E460A
:104E80000024DFF80C924FF0010804E09DF80C209C
:104E90001D2A1DD814E0E5B2B9F80000033000EB7C
:104EA0000420424602A980B201F06EFA9DF8083053
:104EB00006F8013B002B41D00134042CEBD1E5E78F
:104EC0004FF03453D34013F0010F32D1012500E0ED
:104ED00001254FF0345217F8013F1D2B04D822FA58
:104EE00003F313F0010F25D10135EDB2042DF2D1FA
:104EF0005D4BDB7A002B00F0AD8013F0010F03D087
:104F0000594B9A695E4B1A60574BDB7A13F0020FCC
:104F100003D0554BDA695B4B1A60534BDB7A13F0C5
:104F2000040F00F09980504B1A6A574B1A60042006
:104F300097E000251021284602F0C2FA2F460022F1
:104F4000524B23F8152041F27073013BFDD12E0224
:104F50004F4C2088304404A901F809BD012280B2D9
:104F600000F0E8FE20880230304404A9FF2301F855
:104F70000A3D012280B200F0DDFEBAF1000F0ED032
:104F80004FEA2A238DF808308DF809A020880430D4
:104F90003044022202A980B200F0CCFE1DE03D4B5D
:104FA0001B8801339BB2B3F5404F02D3394A1380BB
:104FB00003E04FF44042374B1A80364B1B881A12DD
:104FC0008DF808208DF80930314B188804303044B2
:104FD000022202A980B200F0ADFE0121284602F0B3
:104FE0006FFA2D4C4FF0000824F83780284B1888B2
:104FF00028303044022202A980B201F0C5F99DF8A0
:1050000008209DF8093043EA022204EBC7035A80C6
:1050100083F80680A3F80480134BDB7AF3B113F016
:10502000010F03D0104B9A69154B1A600E4BDB7AB7
:1050300013F0020F03D00C4BDA69124B1A600A4BC3
:10504000DB7A13F0040F0BD0074B1A6A0E4B1A6071
:10505000284606E0042004E0042002E0284600E0A0
:10506000284605B0BDE8F08F3C87FF1F80E100E0D7
:1050700084E100E088E100E001401F0000001F80A3
:1050800000E100E004E100E008E100E0B09CFF1F67
:10509000DC9CFF1F6087FF1FB89CFF1F2DE9F04FAE
:1050A00089B0019089469246B04BDB7A2BB372B639
:1050B000AE4BDB7A13F0010F06D0AD4A1068AB4956
:1050C000CB6803408B611360A84BDB7A13F0020FAF
:1050D00006D0A84A1068A5490B690340CB6113604C
:1050E000A24BDB7A13F0040F06D0A34A10689F4945
:1050F0004B6903400B62136062B69C4B1B68DA6815
:10510000B2F1384F0BD09D4A1A60984B1B684FF094
:105110003842DA604FF078421A61994A1A6007AF54
:105120003E460024DFF86C824FF0010B04E09DF84E
:105130001C201D2A1DD814E0E5B2B8F80000033089
:1051400000EB04205A4604A980B201F01DF99DF835
:10515000103006F8013B002B41D00134042CEBD178
:10516000E5E74FF03453D34013F0010F32D101255E
:1051700000E001254FF0345217F8013F1D2B04D8F1
:1051800022FA03F313F0010F25D10135EDB2042DFE
:10519000F2D1764BDB7A002B00F0E58013F0010FA3
:1051A00003D0724B9A69774B1A60704BDB7A13F01D
:1051B000020F03D06D4BDA69734B1A606B4BDB7ACD
:1051C00013F0040F00F0EE80684B1A6A6F4B1A6000
:1051D0000420ECE000251021284602F071F92F464A
:1051E00000226B4B23F8152041F27073013BFDD177
:1051F0002C02684E3088204408A99DF8043001F83C
:10520000113D012280B200F095FD3088023020442B
:1052100008A9FF2301F8123D012280B200F08AFDA7
:10522000BAF1000F0ED04FEA2A238DF810308DF816
:1052300011A0308804302044022204A980B200F07A
:1052400079FD1DE0544B1B8801339BB2B3F5404FF1
:1052500002D3514A138003E04FF440424E4B1A8070
:105260004D4B1B881A128DF810208DF81130494BC8
:10527000188804302044022204A980B200F05AFDAC
:10528000464B1868059099F8053003F07F038DF8B8
:10529000173099F806308DF8183099F807308DF8E6
:1052A0001930DFF8F0B0BBF800000C3020440422C5
:1052B00009EB020180B200F03DFD4FEA2A238DF890
:1052C00010308DF811A0BBF80000103020440222ED
:1052D00004A980B200F02EFDBBF800000630204487
:1052E000062205A980B200F025FD0121284602F022
:1052F000E7F82B4E4FF0000826F83780BBF8000087
:1053000028302044022204A980B201F03DF89DF823
:1053100010209DF8113043EA022206EBC7035A80A1
:1053200083F80680A3F80480104BDB7A002B3BD077
:1053300013F0010F03D00D4B9A69124B1A600B4BFF
:10534000DB7A13F0020F03D0084BDA690E4B1A60B8
:10535000064BDB7A13F0040F28D0044B1A6A0B4B70
:105360001A60284623E0042021E000BF3C87FF1F8D
:1053700080E100E084E100E088E100E001401F00FE
:1053800000001F8000E100E004E100E008E100E02F
:10539000B09CFF1FDC9CFF1F6087FF1F00670100A0
:1053A000B89CFF1F042002E0284600E0284609B010
:1053B000BDE8F08F10B52D4BDB7A2BB372B62B4BBB
:1053C000DB7A13F0010F06D0294A14682749CB680D
:1053D00023408B611360254BDB7A13F0020F06D05C
:1053E000244A146821490B692340CB6113601F4B89
:1053F000DB7A13F0040F06D01F4A14681B494B696F
:1054000023400B62136062B6184B1B68DA68B2F176
:10541000384F0BD0194A1A60144B1B684FF03842B2
:10542000DA604FF078421A61154A1A60102102F0D2
:1054300047F80E4BDB7AC3B113F0010F03D00B4BCF
:105440009A69104B1A60094BDB7A13F0020F03D0F4
:10545000064BDA690C4B1A60044BDB7A13F0040F2D
:1054600003D0024B1A6A094B1A6010BD3C87FF1F1C
:1054700080E100E084E100E088E100E001401F00FD
:1054800000001F8000E100E004E100E008E100E02E
:105490002DE9F04383B00446894616466E4B33F837
:1054A00030206E4BDB7A2BB372B66C4BDB7A13F089
:1054B000010F06D06A490D686848C3682B408361B4
:1054C0000B60664BDB7A13F0020F06D065490D685E
:1054D000624803692B40C3610B60604BDB7A13F0B9
:1054E000040F06D060490D685C4843692B40036295
:1054F0000B6062B6594B1B68D968B1F1384F0BD0BD
:105500005A491960554B1B684FF03841D9604FF02C
:1055100078411961564919601546B24203DA2046AE
:10552000FFF730FC0546ADB9524B1888033000EB4D
:105530000420012201A980B200F026FF9DF804306A
:10554000142B69D0002B67D0B3F11C0518BF4FF0A6
:10555000FF3561E0B542A8BF35463F4B03EBC403BE
:105560005E88AFB2444BB3F8008006EA0808434BAC
:1055700033F81400404480B2414B1B78372B05D0E0
:10558000404B1B8818FA85F29A4204DC3A46494699
:1055900000F0FAFE11E0C8EB03081FFA88F8424653
:1055A000494600F0F1FEC8EB070292B209EB080190
:1055B000324B33F8140000F0E7FEF3199BB2264992
:1055C00001EBC400438031F83420D21B92B221F8A1
:1055D00034208179394489B2F92900D8C2B91E4AE8
:1055E00002EBC402002191711A128DF804208DF88B
:1055F0000530204B1888283000EB0420022201A936
:1056000080B200F097FB4021204601F059FF03E0F3
:10561000114B03EBC404A171104BDB7AC3B113F03F
:10562000010F03D00D4B9A69174B1A600B4BDB7AB5
:1056300013F0020F03D0094BDA69144B1A60074BC1
:10564000DB7A13F0040F03D0044B1A6A104B1A6074
:10565000284603B0BDE8F083B89CFF1F3C87FF1FBE
:1056600080E100E084E100E088E100E001401F000B
:1056700000001F80DC9CFF1FE89CFF1FEC9CFF1FAD
:10568000DA9CFF1FD89CFF1F00E100E004E100E06E
:1056900008E100E00346314A32F8300000285BD1CF
:1056A00010B52F4AD27A2AB372B62D4AD27A12F0A6
:1056B000010F06D02B490C682948C268224082613C
:1056C0000A60274AD27A12F0020F06D026490C68E7
:1056D000234802692240C2610A60214AD27A12F04C
:1056E000040F06D021490C681D484269224002621D
:1056F0000A6062B61A4A1268D168B1F1384F0BD00D
:105700001B491160164A12684FF03841D1604FF0C2
:1057100078411161174911601846FFF733FB104BB0
:10572000DB7AC3B113F0010F03D00D4B9A69124B12
:105730001A600B4BDB7A13F0020F03D0084BDA69C7
:105740000E4B1A60064BDB7A13F0040F03D0044BA8
:105750001A6A0B4B1A6010BD704700BFB89CFF1F40
:105760003C87FF1F80E100E084E100E088E100E089
:1057700001401F0000001F8000E100E004E100E0A4
:1057800008E100E010B582B0354BDB7A2BB372B67E
:10579000334BDB7A13F0010F06D0324A14683049DC
:1057A000CB6823408B6113602D4BDB7A13F0020F23
:1057B00006D02D4A14682A490B692340CB61136037
:1057C000274BDB7A13F0040F06D0284A14682449CB
:1057D0004B6923400B62136062B6214B1B68DA6889
:1057E000B2F1384F0BD0224A1A601D4B1B684FF0A4
:1057F0003842DA604FF078421A611E4A1A601E4B36
:1058000003EBC0035A881D4B1B881A401C4B33F80E
:105810001030D01801220DF1070180B200F0B4FD64
:105820000F4BDB7AC3B113F0010F03D00C4B9A6915
:10583000144B1A600A4BDB7A13F0020F03D0084BAB
:10584000DA69114B1A60064BDB7A13F0040F03D0B0
:10585000034B1A6A0D4B1A609DF8070002B010BD89
:105860003C87FF1F80E100E084E100E088E100E088
:1058700001401F0000001F80B89CFF1FE89CFF1F15
:10588000EC9CFF1F00E100E004E100E008E100E023
:10589000F8B505460E4617461C46334BDB7A2BB34C
:1058A00072B6314BDB7A13F0010F06D02F4A106825
:1058B0002D49CB6803408B6113602B4BDB7A13F0CF
:1058C000020F06D02A4A106827490B690340CB61B2
:1058D0001360254BDB7A13F0040F06D0254A1068BD
:1058E00021494B6903400B62136062B61E4B1B6873
:1058F000DA68B2F1384F0BD01F4A1A601A4B1B6896
:105900004FF03842DA604FF078421A611B4A1A6051
:105910002846FFF703FAA04228BF204684B2234658
:105920003A4631462846FFF797F90F4BDB7AC3B169
:1059300013F0010F03D00C4B9A69114B1A600A4BFC
:10594000DB7A13F0020F03D0074BDA690D4B1A60B4
:10595000054BDB7A13F0040F03D0034B1A6A0A4B92
:105960001A602046F8BD00BF3C87FF1F80E100E0C1
:1059700084E100E088E100E001401F0000001F809A
:1059800000E100E004E100E008E100E00B7833B959
:105990004B7823B98B7813B9CB78002B73D0002ABE
:1059A00073D070B582B03C4BDB7A2BB372B63A4BF6
:1059B000DB7A13F0010F06D0384C2668364DEB68C1
:1059C0003340AB612360344BDB7A13F0020F06D017
:1059D000334C2668304D2B693340EB6123602E4BEE
:1059E000DB7A13F0040F06D02E4C26682A4D6B6923
:1059F00033402B62236062B6274B1B68DC68B4F12E
:105A0000384F0BD0284C1C60234B1B684FF0384498
:105A1000DC604FF078441C61244C1C601446050285
:105A2000234E30880C302844042280B200F082F9E2
:105A300023128DF804308DF805403088103028444A
:105A4000022201A980B200F075F9134BDB7AF3B1A1
:105A500013F0010F03D0104B9A69164B1A600E4BCE
:105A6000DB7A13F0020F03D00B4BDA69124B1A608A
:105A7000094BDB7A13F0040F0BD0074B1A6A0F4B5C
:105A80001A60012006E000207047002070470120C6
:105A900000E0012002B070BD3C87FF1F80E100E004
:105AA00084E100E088E100E001401F0000001F8069
:105AB000DC9CFF1F00E100E004E100E008E100E001
:105AC0002DE9F04782B00446904BDB7A2BB372B6D7
:105AD0008E4BDB7A13F0010F06D08D4A10688B498C
