:1000000000800020BD010000B9A700007DA700000E
:100010007DA700007DA700007DA700007DA7000050
:100020007DA700007DA700007DA70000B9A7000004
:10003000B9A700007DA70000B9A700006DA70000C8
:10004000B9A70000B9A70000B9A70000B9A7000030
:10005000B9A70000B9A70000B9A70000B9A7000020
:10006000B9A70000B9A70000B9A70000B9A7000010
:10007000B9A70000B9A70000B9A70000B9A7000000
:10008000B9A70000B9A70000B9A70000B9A70000F0
:10009000B9A70000B9A70000B9A70000B9A70000E0
:1000A000B9A70000B9A70000B9A70000B9A70000D0
:1000B000B9A70000B9A70000B9A70000B9A70000C0
:1000C000B9A70000B9A70000B9A70000B9A70000B0
:1000D000B9A70000B9A70000B9A70000B9A70000A0
:1000E000B9A70000B9A70000B9A70000B9A7000090
:1000F000B9A700001DB10000B9A7000045C9000064
:10010000B9A70000C1CA0000B9A70000B9A7000044
:10011000B9A70000B9A70000B9A70000B9A700005F
:10012000B9A70000B9A70000B9A70000B9A700004F
:10013000B9A70000B9A70000B9A70000B9A700003F
:10014000B9A70000B9A70000B9A70000B9A700002F
:10015000A1C10000B9C10000D1C10000E9C1000087
:10016000B9A7000041B40000B9A70000B9A700007A
:10017000B9A70000B9A70000B9A70000B9A70000FF
:10018000B9A70000B9A70000B9A70000B9A70000EF
:10019000B9A70000B9A70000B9A70000B9A70000DF
:1001A000B9A70000B9A70000B9A70000B9A70000CF
:1001B000B9A70000B9A70000B9A70000564B4CF240
:1001C000205210B51A804DF628121A8000BF00BFC9
:1001D0000AF0F6FA514B4FF010621A60504A9A60DA
:1001E000504ADA60504A136813F4807304D14F49BF
:1001F0000B604FF4A85313604D4B1A78110703D5C9
:100200001A7842F008021A704A4B4B492A221A7097
:100210004A4A4B4B8B4204D252F8040F43F8040B6A
:10022000F8E7484B484900228B4202D243F8042B9E
:10023000FAE74649464A002352F8230041F82300D2
:1002400001336F2BF8D1434B434A802103F8011B44
:100250009342FBD1414B3D4A1A60414B8A221A70AE
:10026000A3F5805324225A70A0221A709A7992071B
:10027000FCD59A79D406FCD43A4A937903F00C035E
:10028000082B384BF9D105221A7143225A719A79F9
:100290009006FCD5334A9179324B4906FBD5324A58
:1002A0004FF0817111600521516020221A709A79F6
:1002B00002F00C020C2AFAD12C4B2D4A1A602D4B5D
:1002C0002D4A1A6000225A60072243F8042C2B4A58
:1002D000C3F80C2D62B60AF06DFB144B1B68DA07ED
:1002E00005D527480AF0B8FA264B274A1A60274B4B
:1002F0001B785B0609D5234C234B22689A4204D114
:100300001F480AF0A9FA002323600DF027FE0AF027
:100310005DFA0CF075FAFEE70E20054030800440CF
:10032000823F04000100002B10D0034014D0034092
:1003300002D0074000E00740F091FF1FE468010091
:100340002087FF1FF091FF1FA8A1FF1F0082FF1F42
:100350000000000000E400E05FE400E008ED00E0E1
:1003600000500640004006404480044004800440A1
:10037000C010050014E000E03F190100000020203B
:10038000CD7B875A1CE00340A5C3945A00F0074078
:10039000FFFFFFFFFFFFFFFFFFFFFFFFFFFFFFFF6D
:1003A000FFFFFFFFFFFFFFFFFFFFFFFFFFFFFFFF5D
:1003B000FFFFFFFFFFFFFFFFFFFFFFFFFFFFFFFF4D
:1003C000FFFFFFFFFFFFFFFFFFFFFFFFFFFFFFFF3D
:1003D000FFFFFFFFFFFFFFFFFFFFFFFFFFFFFFFF2D
:1003E000FFFFFFFFFFFFFFFFFFFFFFFFFFFFFFFF1D
:1003F000FFFFFFFFFFFFFFFFFFFFFFFFFFFFFFFF0D
:10040000FFFFFFFFFFFFFFFFFFFFFFFFDEF9FFFF23
:1004100010B5054C237833B9044B13B10448AFF33E
:1004200000800123237010BDF091FF1F0000000029
:10043000E0680100084B10B51BB108490848AFF34C
:1004400000800848036803B910BD074B002BFBD0A0
:10045000BDE81040184700BF00000000F491FF1FE6
:10046000E0680100F091FF1F0000000000207047CD
:100470000023024A1360024A136070471896FF1F58
:100480002496FF1F08B51F4B1B7813F0FF0F07D1F1
:10049000002105200AF0F0F901221B4B1A6008BD6B
:1004A000194B1A6801321A601B68013B0F2B1CD8CC
:1004B000DFE803F0080808120812121208121212DC
:1004C000081212120F4B1B7813F0FF0F0DD00121F1
:1004D00005200AF0D1F908E00A4B1B7813F0FF0F52
:1004E00003D0002105200AF0C7F9074B1B68074A13
:1004F000134003D5013B63F00F030133024A13603D
:1005000008BD00BF3487FF1F1492FF1F0F0000803B
:1005100008B5324B1B681BB9002103200AF0ACF967
:100520002E4B1B68012B0BD1012103200AF0A4F9EB
:1005300064200AF029FA002103200AF09DF908BD81
:10054000264B1B68022B1AD1012103200AF094F9D3
:1005500064200AF019FA002103200AF08DF94FF403
:1005600096700AF011FA012103200AF085F964203F
:100570000AF00AFA002103200AF07EF908BD174BA1
:100580001B68032B28D1012103200AF075F9642090
:100590000AF0FAF9002103200AF06EF94FF4967080
:1005A0000AF0F2F9012103200AF066F964200AF04A
:1005B000EBF9002103200AF05FF94FF496700AF07E
:1005C000E3F9012103200AF057F964200AF0DCF96D
:1005D000002103200AF050F908BD00BF2887FF1F43
:1005E00038B5054D05F1F004103D20460BF0D0FF65
:1005F000103CAC42F9D138BD2097FF1F10B504461E
:100600000BF0B8FD204610BD00B583B0084B1B6849
:100610000193019A074B1A60074803685B6801223F
:10062000064998470122064B1A7003B05DF804FB97
:10063000749DFF1F2496FF1F9487FF1F085701001A
:100640001892FF1F30B595B004460A4602A908F07B
:10065000E1FA01AA504902A80EF0E0FA0021204672
:1006600008F018FB05464D4B1B7843B34C4C2368F0
:100670005B6815224B4920469847019920460BF0AC
:1006800047FE23685B680B224749204698470021B4
:1006900028460DF06DFAB0FA80F1490920460BF0BA
:1006A00037FE424B1B68019A9A4208DD23685B685B
:1006B00012223F492046984720460BF0C7FD019B78
:1006C0003A4A1268934264DC384A1268934260DC0A
:1006D0005C1E04EB4403374A13449A7842F0040248
:1006E0009A70002128460DF043FA38BB04EB44030E
:1006F000304C23449A7842F001029A702E4B1B78BA
:10070000002B41D02D4904A80BF08EFF0A2201993D
:1007100008A80BF0C5FF08A904A80CF041F8204C6C
:10072000014620460BF06CFD20460BF08FFD08A81B
:100730000BF02EFF04A80BF02BFF25E004EB440385
:100740001C4C23449A7802F0FE029A701A4B1B78D4
:10075000D3B11B490CA80BF067FF0A22019910A81E
:100760000BF09EFF10A90CA80CF01AF80C4C0146D7
:1007700020460BF045FD20460BF068FD10A80BF05D
:1007800007FF0CA80BF004FF019B013B01210D4A60
:10079000D15415B030BD00BF0C5701005896FF1F53
:1007A0009487FF1F10570100285701005496FF1F20
:1007B000345701001C92FF1FEC96FF1F48570100A1
:1007C0005C5701005C96FF1F30B595B004460A46A1
:1007D00002A908F01FFA6B4601AA4A4902A80EF0C6
:1007E0001DFA0021204608F055FA0DF0F3F90546F0
:1007F000454B1B7813B3454C23685B68142244496E
:1008000020469847019920460BF082FD23685B68DB
:100810000B22404920469847294620460BF078FD98
:1008200020460BF013FD3C4B1B68019A9A4205DDF4
:10083000204623685B68122238499847019B364A54
:10084000126893425CDC013B03EB430234490A44E7
:10085000917841F0080191703DB303EB4303304AB6
:1008600013449A7842F002029A702E4B1B78002BA8
:1008700041D02D4904A80BF0D7FE0A22019908A8FF
:100880000BF00EFF08A904A80BF08AFF1F4C0146CD
:1008900020460BF0B5FC20460BF0D8FC08A80BF066
:1008A00077FE04A80BF074FE25E003EB43031C4A1B
:1008B00013449A7802F0FD029A701A4B1B78D3B158
:1008C0001A490CA80BF0B0FE0A22019910A80BF0EF
:1008D000E7FE10A90CA80BF063FF0C4C0146204664
:1008E0000BF08EFC20460BF0B1FC10A80BF050FE74
:1008F0000CA80BF04DFE019B013B01210C4AD15489
:1009000015B030BD745701005896FF1F9487FF1F24
:100910007C570100285701005496FF1F34570100EF
:100920001C92FF1FEC96FF1F94570100A457010073
:100930005C96FF1F38B504460D4608460EF0A0FB36
:1009400023685B68024629462046984705462046AC
:100950000BF07CFC284438BD70B582B00E461C4CB0
:1009600023680193019A1B4B1A604FF47A624EF68A
:10097000602103F09FFB45B223680093009A164B59
:100980001A600EB335B9154803685B681022144924
:10099000984705E0114803685B680E2211499847A3
:1009A0000D4B18680B4B19680C4C00230A22411A96
:1009B00020460BF071FC23685B6805220A4920463B
:1009C000984720460BF042FC284602B070BD00BF9D
:1009D000749DFF1F2896FF1F2C9CFF1F9487FF1FED
:1009E000B4570100C8570100D85701002DE9F04164
:1009F00082B0894B1B680093009E0027864DDFF86C
:100A0000488240F6B7342B680193019B9B1BA3429D
:100A100015D80BF079F90028F5D0804C23685B6875
:100A200007224146204698470BF04AFA0BF020F97E
:100A3000074623681B68C1B220469847E1E7002FAC
:100A400000F0E680FBB2303B232B00F2E180DFE8D0
:100A500013F0240031003F004D005B006900DF000F
:100A6000DF007700DF00DF00DF00DF00DF00DF00F6
:100A7000DF00DF00DF00DF00DF00DF00DF009600C7
:100A8000DF00DF00DF00DF00DF00DF00DF00DF006E
:100A9000DF00DF00DF00DF0088000023604A137002
:100AA000604A1370604A1370604A1370604A137092
:100AB00030249EE001225A4B1A700023594A1370C9
:100AC000594A1370594A1370594A1370312490E0EF
:100AD0000122534B1A70002352490B7052490A707D
:100AE000524A1370524A1370322482E001234C4A56
:100AF000137000224B490A704B490B704B490B7025
:100B00004B4B1A70332474E00123454A1370454A55
:100B10001370454A13700023444A1370444A1370FB
:100B2000342466E001233E4A13703E4A13703E4A65
:100B300013703E4A137000223D4B1A70352458E062
:100B40000123374A1370374A1370374A1370374AF4
:100B500013700022364B1A700522364B1A70382457
:100B600047E001222E4B1A7000232E490B702E49AC
:100B70000B702E490B702E4B1A70532439E0274C02
:100B800020460BF063FB23685B680D222A49204650
:100B9000984723685B6803222849204698472046E7
:100BA0000BF054FB0BF08CF923685B682622244978
:100BB0002046984720460BF049FB0BF081F90126AF
:100BC000032500243146284609F056FE21460E2012
:100BD00009F052FE642009F0D7FE31460E2009F0DC
:100BE0004BFE2146284609F047FE642009F0CCFE62
:100BF000E8E70A4D2B685B6821221249284698478E
:100C00002B681B6821462846984728460BF01EFB98
:100C100002B0BDE8F08100BF749DFF1F9487FF1FE5
:100C2000EC96FF1F9693FF1F5896FF1FED96FF1F30
:100C30001C96FF1F2C87FF1FE8570100F857010083
:100C4000FC57010024580100E05701000A4B1B68C3
:100C500073B182B0094B1B680193019B064A10686F
:100C60001B1A42F20F7083428CBF0020012001E06A
:100C70000020704702B070472496FF1F749DFF1F2D
:100C8000184B1B68002B2CDD2DE9F041164D00247C
:100C9000164E174FDFF8608004EB440173180022F2
:100CA00072545A7008229A70394628460BF0E6FCB6
:100CB000092C07DC414628460BF050FD611C0BF067
:100CC0005BFD03E0214628460BF056FD0122094B4F
:100CD0001A551444034B1B681035A342DCDCBDE8F5
:100CE000F08170470C92FF1F2097FF1FF096FF1FA7
:100CF00048580100A89BFF1F1060010030B589B063
:100D000001A808F041F92D4803F004FD00284FDD4B
:100D1000441E2A4D284603F0CBFCC1B201A808F0BE
:100D200043FC013CB4F1FF3FF4D101A807F098FF68
:100D300000283DD101210E2009F09EFD0023204A0C
:100D4000204901A807F056FF00231F4A1F4901A8A8
:100D500007F050FF00231E4A1E4901A807F04AFF72
:100D600000231D4A1D4901A807F044FF00231C4A27
:100D70001C4901A807F03EFF00231B4A1B4901A89C
:100D800007F038FF00231A4A1A4901A807F032FF7A
:100D90000023194A194901A807F02CFF0023184A1B
:100DA000184901A807F026FF00210E2009F064FD74
:100DB00001A808F013F909B030BD00BF2C96FF1F41
:100DC0004506000050580100C90700005C580100AA
:100DD000112400006C580100DD2400007C58010043
:100DE000251300008C580100691A0000A05801006A
:100DF0003D100000AC58010071040000B45801001F
:100E000009060000BC58010030B583B00446214BF0
:100E10001B7813F0FF0F08D018211E4A0B46013B28
:100E2000FDD1137813F0FF0FF8D10121194B197080
:100E30000E2009F021FD184B5B69ABB1174B0093F5
:100E4000154D6B690193164B1A886946284603F0C5
:100E500015FC2946204607F051FF284603F016FCF2
:100E6000204608F099F80CE00E4B1B784BB10E4C65
:100E700023685B684E220D492046984720460BF0B8
:100E8000E5F900210E2009F0F7FC0022014B1A7051
:100E900003B030BDA29BFF1F2C96FF1FEC63010027
:100EA0002487FF1FEC96FF1F9487FF1FC458010083
:100EB00070B59AB0584B1B68584A1268584909686F
:100EC0000191584909680091574911A80DF080FE19
:100ED00011A809F0B7F8102108F06CFB04460EF0D9
:100EE000CFF80346514D2868E05051494B780A78B5
:100EF0004879039008790290C87801908978009128
:100F00004C490BA80DF064FE4B4904A808F030F8DA
:100F100018200BF07DFC0646294607F07FFD33784C
:100F2000032B02D18DF81C3011E0069901318900A4
:100F300005980DF043FC18B903238DF81C3006E02A
:100F40000590069A40F82260069B0133069318200C
:100F50000BF05EFC0546214607F060FD2B78032B65
:100F600002D18DF81C3011E00699013189000598F5
:100F70000DF024FC18B903238DF81C3006E0059011
:100F8000069A40F82250069B0133069318200BF076
:100F90003FFC04460BA907F041FD2378032B02D147
:100FA0008DF81C3011E006990131890005980DF08B
:100FB00005FC18B903238DF81C3006E00590069A4D
:100FC00040F82240069B0133069318200BF020FCCA
:100FD000044611A907F022FD2378032B02D18DF8D6
:100FE0001C3011E006990131890005980DF0E6FBEF
:100FF00018B903238DF81C3006E00590069A40F8D6
:101000002240069B0133069304A8FFF7FDFE04A8C7
:1010100007F0E4FF1AB070BD5880044054800440CB
:10102000608004405C80044014590100F8570100BE
:101030004C96FF1F2C5901004C59010010B5084B6C
:101040001B784BB1074C23685B680E22064920468B
:10105000984720460BF0FAF8FFF72AFF10BD00BFB3
:10106000EC96FF1F9487FF1F5C59010030B58DB0CF
:1010700007AC194D0FCD0FC42B68238007A9684614
:1010800007F076FF154B1D6818200BF0C1FB0446D6
:10109000294607F0E5FC2378032B02D18DF80C30AC
:1010A00011E002990131890001980DF087FB18B910
:1010B00003238DF80C3006E00190029A40F822409C
:1010C000029B013302936846FFF79EFE684607F0D5
:1010D00085FF0DB030BD00BF6C5901005496FF1F55
:1010E00030B58DB007AC194D0FCD0FC42B682380E0
:1010F00007A9684607F03CFF154B1D6818200BF048
:1011000087FB0446294607F0ABFC2378032B02D16A
:101110008DF80C3011E002990131890001980DF031
:101120004DFB18B903238DF80C3006E00190029AAC
:1011300040F82240029B013302936846FFF764FEA9
:10114000684607F04BFF0DB030BD00BF805901006D
:101150000C92FF1F00B589B0064901A807F008FFEF
:1011600001A8FFF751FE01A807F038FF09B05DF8AC
:1011700004FB00BFBC58010010B540F2FF1009F09D
:1011800051FE0E4C23681B680121204698472368B6
:101190001B6800212046984723681B6800212046D1
:1011A000984723681B6800212046984723681B68DE
:1011B00001212046984709F003FF10BD7487FF1FE7
:1011C00010B540F2FF1009F02DFE0E4C23681B688D
:1011D0000A212046984723681B680021204698472B
:1011E00023681B6800212046984723681B6800215C
:1011F0002046984723681B6800212046984709F03D
:10120000DFFE10BD7487FF1F10B540F2FF1009F01C
:1012100009FE0E4C23681B6803212046984723686B
:101220001B6800212046984723681B680021204640
:10123000984723681B6800212046984723681B684D
:1012400000212046984709F0BBFE10BD7487FF1FA0
:1012500010B540F2FF1009F0E5FD0E4C23681B6845
:1012600007212046984723681B680021204698479D
:1012700023681B6800212046984723681B680021CB
:101280002046984723681B6800212046984709F0AC
:1012900097FE10BD7487FF1F1C4B1B68834233DB16
:1012A00070B50C460546461E8B685BB1082B2AD8E4
:1012B000174800EB06100BF0CBF90122154B9A559D
:1012C000A36803BB144806EB4601431800224254AE
:1012D0005A7008229A700E4C04EB06140F492046EF
:1012E0000BF0CCF9092E07DC0D4920460BF036FA3D
:1012F00029460BF041FA03E0314620460BF03CFA58
:101300000122044B9A5570BD704700BF0C92FF1F1D
:101310002097FF1FA89BFF1FF096FF1F4858010052
:101320001060010010B592B004460A4609A907F002
:1013300071FC08AA224909A80DF070FC082305AA2F
:101340000021204607F0B6FC05A901A80BF06CF9B6
:101350001C4B1B7813B31C4C23685B6815221B497C
:1013600020469847089920460AF0D2FF23685B6818
:10137000092217492046984701A920460AF040FF54
:1013800020460AF063FF134B1B68089A9A4205DD5A
:10139000204623685B6812220F499847089C01A9E0
:1013A0000EA80BF05FF90EA92046FFF775FF0EA8F7
:1013B0000BF0EEF801A80BF0EBF812B010BD00BF77
:1013C0000C5701005896FF1F9487FF1FB859010062
:1013D000D05901000C92FF1F34570100154B1B78A8
:1013E00033B330B589B00C460546134968460BF057
:1013F0001BF90A22294604A80BF052F904A96846F1
:101400000BF0CEF90D490BF0D3F921460BF0C8F9DA
:101410000B4C014620460AF0F3FE20460AF016FF68
:1014200004A80BF0B5F868460BF0B2F809B030BD6F
:10143000704700BFED96FF1FDC590100E459010021
:101440009487FF1F70B59AB0064600EB40032D4A03
:10145000D55C2D092C4912A80BF0E6F80A22294682
:1014600016A80BF01DF916A912A80BF099F9014660
:101470000EA80BF0F7F80EA93046FFF7AFFF0EA845
:101480000BF086F816A80BF083F812A80BF080F882
:101490001E4B09AC0FCB07C423800A2208A9701C7D
:1014A0000CF09CFD08A909A80DF0E6FB09A901A80C
:1014B00007F05EFD18200BF0ABF90446294607F053
:1014C000CFFA2378032B02D18DF8103011E0039965
:1014D0000131890002980DF071F918B903238DF8D4
:1014E000103006E00290039A40F82240039B01333B
:1014F000039301A8FFF788FC01A807F06FFD1AB05D
:1015000070BD00BFA099FF1FF4590100005A0100EF
:1015100070B596B0054600EB40032C4A13449B7807
:1015200013F0010F0CD02A490EA80BF07DF80EA97C
:101530002846FFF753FF0EA80BF02AF801260BE010
:10154000244912A80BF070F812A92846FFF746FFAD
:1015500012A80BF01DF800261F4B09AC0FCB07C4D7
:1015600023700A2208A9681C0CF038FD08A909A8F4
:101570000DF082FB09A901A807F0FAFC18200BF076
:1015800047F90446314607F091FA2378032B02D13C
:101590008DF8103011E003990131890002980DF0A7
:1015A0000DF918B903238DF8103006E00290039A64
:1015B00040F82240039B0133039301A8FFF724FC6A
:1015C00001A807F00BFD16B070BD00BFA099FF1F6A
:1015D000105A0100185A0100245A010070B596B043
:1015E000054600EB40032D4A13449B7813F0020F8D
:1015F0000CD02B490EA80BF017F80EA92846FFF7C0
:10160000EDFE0EA80AF0C4FF01260BE0254912A842
:101610000BF00AF812A92846FFF7E0FE12A80AF01C
:10162000B7FF0026204B09AC0FCB07C424F8023BC0
:101630001B0C23700A2208A9681C0CF0CFFC08A917
:1016400009A80DF019FB09A901A807F091FC1820C1
:101650000BF0DEF80446314607F028FA2378032B16
:1016600002D18DF8103011E0039901318900029800
:101670000DF0A4F818B903238DF8103006E002909D
:10168000039A40F82240039B0133039301A8FFF71C
:10169000BBFB01A807F0A2FC16B070BDA099FF1F0C
:1016A000345A0100405A01004C5A010070B596B0FE
:1016B000054600EB40032C4A13449B7813F0100FAF
:1016C0000CD02A490EA80AF0AFFF0EA92846FFF752
:1016D00085FE0EA80AF05CFF01260BE0244912A843
:1016E0000AF0A2FF12A92846FFF778FE12A80AF016
:1016F0004FFF002609AC1F4B93E8070084E8070062
:101700000A2208A9681C0CF069FC08A920460DF003
:10171000B3FA214601A807F02BFC18200BF078F84B
:101720000446314607F0C2F92378032B02D18DF825
:10173000103011E003990131890002980DF03EF854
:1017400018B903238DF8103006E00290039A40F890
:101750002240039B0133039301A8FFF755FB01A827
:1017600007F03CFC16B070BDA099FF1F5C5A010049
:10177000645A01006C5A010070B592B00546354BB1
:1017800009AC0FCB07C423800A2208A9681C0CF0FF
:1017900025FC08A909A80DF06FFA05EB45032E4AB0
:1017A00013449B7813F0400F0CD02C490EA80AF07C
:1017B0003BFF0EA92846FFF711FE0EA80AF0E8FE2F
:1017C000012600E00026264B1B78BBB1254C236880
:1017D0005B681C22244920469847294620460AF087
:1017E00097FD23685B680B222049204698473146C5
:1017F00020460AF08DFD20460AF028FD09A901A81F
:1018000007F0B6FB18200BF003F80446314607F04A
:101810004DF92378032B02D18DF8103011E0039994
:101820000131890002980CF0C9FF18B903238DF823
:10183000103006E00290039A40F82240039B0133E7
:10184000039301A8FFF7E0FA01A807F0C7FB12B065
:1018500070BD00BF785A0100A099FF1F885A01008F
:10186000ED96FF1F9487FF1F945A0100285701002F
:101870002DE9F0419EB0734C00EB4002A3189B7819
:1018800003F04003DBB2A25CD2B211B9002B00F02E
:10189000D58080461C1C18BF0124C2F380076A490A
:1018A0000EA80AF0C1FE0EA94046FFF797FD0EA84C
:1018B0000AF06EFE09AD654E0FCE0FC533682B7072
:1018C0000A2208A908F101000CF088FB08A909A860
:1018D0000DF0D2F95B4A08EB4803D118D35C4D7880
:1018E00003F0030305EB0325594B1B78002B3ED077
:1018F000584E33685B681C2257493046984741462A
:1019000030460AF005FD33685B68092253493046CA
:101910009847294630460AF0FBFC514912A80AF0C4
:1019200083FE0A22214616A80AF0BAFE16A912A8BA
:101930000AF036FF4B490AF03BFF80460A2239463F
:101940001AA80AF0ADFE1AA940460AF029FF01467E
:1019500030460AF055FC30460AF078FC1AA80AF026
:1019600017FE16A80AF014FE12A80AF011FE09A923
:1019700001A807F0FDFA18200AF04AFF064629469A
:1019800007F06EF83378032B02D18DF8103011E098
:1019900003990131890002980CF010FF18B9032354
:1019A0008DF8103006E00290039A40F82260039B05
:1019B0000133039318200AF02BFF0546214607F058
:1019C00075F82B78032B02D18DF8103011E00399B4
:1019D0000131890002980CF0F1FE18B903238DF84B
:1019E000103006E00290039A40F82250039B013326
:1019F000039318200AF00CFF0446394607F056F806
:101A00002378032B02D18DF8103011E003990131B6
:101A1000890002980CF0D2FE18B903238DF810301B
:101A200006E00290039A40F82240039B013303939F
:101A300001A8FFF7E9F901A807F0D0FA1EB0BDE848
:101A4000F08100BFA099FF1FB45A0100C45A0100E1
:101A5000ED96FF1F9487FF1FD85A0100AC59010073
:101A6000F85A0100045B010070B5164B1B784BB1AE
:101A7000154C23685B680922144920469847204684
:101A80000AF0E4FB124B1B68002B19DD0024012631
:101A90000F4D31462046FFF7EBFE2046FFF738FD9D
:101AA0002046FFF79BFD2046FFF700FE2046FFF78C
:101AB000C9FC2046FFF760FE01342B68A342E8DC36
:101AC00070BD00BF5896FF1F9487FF1F105B010079
:101AD0005496FF1F08B500F5807009F0A3F909F0CE
:101AE0006FFA08BD0023A04A1360A04A13600122C8
:101AF0009F4B1A709F4A1368012BFCD12DE9F041CE
:101B000098B0FFF781FB4FF47A7008F03DFF9A4CD4
:101B100023685B68192299492046984720460AF0B5
:101B200095FB944A1368012BFCD14FF4C653013B3B
:101B3000FDD10026924D934C01E07E2E56D009F047
:101B400063FA10B109F070FAF9E701363046FFF791
:101B5000C1FF08F0F5FE286009F056FA23689842A4
:101B600006DA08F0EDFE2B68C01AB0F5967FF3D3C5
:101B700009F04AFA2368984204DA4FF4E153013B32
:101B8000FDD1DAE709F050FA09F04EFA09F04CFA03
:101B900080467D4F3B681B680021384698473B686C
:101BA0001B680021384698473B681B68002138466F
:101BB00098475FFA88F8B8F1800FBED1734B1B6865
:101BC0000BB9724B1E60684A1368013313606A4F89
:101BD0003B685B680D226E49384698473146384667
:101BE0000AF096FB38460AF031FBA6E7614A136813
:101BF000052BFCD10025624E624C09F005FA10B1AC
:101C000009F012FAF9E701352846FFF763FF08F0FB
:101C100097FE30604FF46163013BFDD109F0F4F9A8
:101C20002368984205DA08F08BFE3368C01A9528BD
:101C3000F4D909F0E9F92368984204DA4FF4E15342
:101C4000013BFDD132E009F0EFF909F0EDF909F0BF
:101C5000EBF980464C4F3B681B680021384698479B
:101C60003B681B680021384698473B681B68002189
:101C7000384698475FFA88F8B8F1800F16D03B4A8B
:101C8000136801331360434B1B680BB9414B1D6054
:101C9000394F3B685B680D223F49384698472946D3
:101CA00038460AF035FB38460AF0D0FA4FF4526352
:101CB000013BFDD17E2DA0D14FF47A7008F064FE77
:101CC000FFF7C6FA4FF4FA7008F05EFEFFF778FAF5
:101CD0000022274B1A70314B1B7833B1234B1B6802
:101CE0007BB9214B1B68002B60D1204B1B68002B5C
:101CF00040F08A80204803685B68012228499847A1
:101D000082E0284968460AF08FFC224B19680A22B3
:101D100004A80AF0C5FC04A968460AF041FD22495E
:101D20000AF046FD0446114B19680A2208A80AF079
:101D3000B7FC08A920460AF033FD0F4C01462046A7
:101D40000AF05EFA20460AF081FA08A80AF020FCA0
:101D500004A80AF01DFC68460AF01AFC0F4B1B7819
:101D6000002BBED1C1E700BF0C92FF1F5496FF1F8E
:101D70003487FF1F1492FF1F9487FF1F1C5B010015
:101D80001092FF1F3087FF1F7487FF1F2096FF1FD1
:101D9000385B0100A49BFF1F485B0100EC96FF1F0E
:101DA000585B01005C5B0100905B010018490CA8C6
:101DB0000AF03AFC174B19680A2210A80AF070FCC6
:101DC00010A90CA80AF0ECFC13490AF0F1FC044637
:101DD000124B19680A2214A80AF062FC14A92046C2
:101DE0000AF0DEFC0E4C014620460AF009FA2046B5
:101DF0000AF02CFA14A80AF0CBFB10A80AF0C8FBD2
:101E00000CA80AF0C5FB70E718B0BDE8F08100BF70
:101E10009C5B01002096FF1F905B01000C92FF1F4E
:101E20009487FF1FAD4B1B68002B40F356812DE9B3
:101E3000F0470025AA4EAB4C09F0E6F810B109F0C6
:101E4000F3F8F9E7A84B18682844FFF743FEA74AC0
:101E500005EB4503D018D25CD2B2A54FF918FA545D
:101E60004378DBB24B708378DBB28B7008F068FD8F
:101E7000306009F0C9F82368984205DA08F060FD7F
:101E80003368C01A9528F4D909F0BEF8236898423F
:101E900007DA0022974B5A554FF4E153013BFDD12D
:101EA0000FE10022944B5A550122924B5A55934A06
:101EB00013680133136009F0B7F8824609F0B4F8EB
:101EC000814609F0B1F880468D4B5B5D13F0FF0F42
:101ED0006CD0DFF8308205EB450708EB070918F8EE
:101EE000070008F09FFF99F8010008F09BFF99F8A0
:101EF000020008F097FF0022814B5A5518F807306E
:101F000013F0040F11D03B46CE4618F8070077496E
:101F1000CF19CA5C00F0030002F0FC020243CA546D
:101F200099F80120D2B2CB5C7A7005EB4503754A73
:101F300013449B7813F0040F0CD005EB45031A44AF
:101F400091786A4A13449A7801F0010102F0FE0286
:101F50000A439A7005EB45036A4A13449B7813F0D1
:101F6000080F0CD005EB45031A4491785F4A1344DF
:101F70009A7801F0020102F0FD020A439A7005EB23
:101F80004503604AD35C13F0080F0AD005EB450304
:101F9000D15C5648C25C01F0F00102F00F020A4326
:101FA000C2544FF45263013BFDD18AE0564F3B6867
:101FB0001B680021384698473B681B68002138465B
:101FC00098473B681B680021384698475FFA8AFAB1
:101FD000464905EB45028B1801F802A05FFA89F922
:101FE00083F801905FFA88F883F802809B7813F0F9
:101FF000400F2DD013460A461A4452783C490B44F0
:102000005978D3B28B4205D03B4A535D43F001036C
:1020100053551DE005EB4503344A1A4452783449C0
:102020000B445B7839490978D31A4A4293420ADD56
:1020300005EB45032D4A1A4452782D4803445B783A
:10204000D31A994204DC2C4A535D43F001035355E3
:1020500005EB4503254A1A44927825490B449B78A1
:10206000534013F0400F04D0234A535D43F008035C
:10207000535505EB45031D4A1A4492781C490B44FD
:102080009B78534013F0130F04D01B4A535D43F069
:102090000203535505EB4503144AD25C1449CB5C4B
:1020A0001B09B3EB121F04D0134A535D43F0040322
:1020B0005355114B5B5D13F0FF0F02D00122144BFF
:1020C0001A704FF45263013BFDD10135034B1B687D
:1020D000AB423FF7B1AEBDE8F08770475496FF1FA3
:1020E0001092FF1F3087FF1FA49BFF1FA099FF1FA7
:1020F0002498FF1F1C94FF1F249BFF1F9893FF1F12
:102100005C96FF1F1C92FF1F7487FF1F2C87FF1F09
:102110002D87FF1F08B508F085FE08F051FF08BDA8
:1021200008B5014602480AF06BF808F049FF08BDFF
:102130007487FF1F00224C4B1A604C4B1B68934264
:1021400040F390802DE9F04188B0494F1546494E43
:10215000494C4A4B18682844FFF7BCFC08F0F0FBD8
:10216000306008F051FF2368834206DD08F0E8FB89
:102170003368C01AB0F5967FF3D308F045FF2368A3
:10218000984203DA00223E4B5A555DE001223C4B57
:102190005A55354A13680133136008F045FFC0B241
:1021A000384A05EB450302EB0308D05408F03CFF26
:1021B000C0B288F8010008F037FFC0B288F802000A
:1021C0004FF45263013BFDD12F4B5B5D13F0FF0FCA
:1021D0001AD02E4A05EB450302EB0308D05CFFF74B
:1021E00099FF98F80100FFF795FF98F80200FFF7B4
:1021F00091FF394668460AF035FA6846FFF790FFC6
:1022000068460AF0C5F91FE0DFF88480D8F800308E
:102210001B68002140469847D8F800301B68002111
:1022200040469847D8F800301B68802140469847C0
:1022300008F0C6FE394604A80AF014FA04A8FFF70D
:102240006FFF04A80AF0A4F942F29043013BFDD1CC
:102250000135064B1B681037AB423FF77AAF08B029
:10226000BDE8F081704700BF2098FF1F0C92FF1F50
:102270002097FF1F1092FF1F3087FF1F2096FF1F20
:102280009C93FF1F9C94FF1FA89BFF1FF096FF1FAE
:102290007487FF1F0022414B1A600122404B1A70C5
:1022A000404A1368012BFCD101223F4B1A603D4A82
:1022B0001368052BFCD12DE9F04385B00026374685
:1022C0003A4D3B4C08F0A0FE10B108F0ADFEF9E726
:1022D00001363046FFF7FEFB08F032FB28604FF472
:1022E0006163013BFDD108F08FFE2368984205DA57
:1022F00008F026FB2B68C01A9528F4D908F084FE54
:102300002368984204DA4FF4E153013BFDD120E009
:1023100008F08AFE08F088FE08F086FE8146DFF8A5
:10232000A480D8F800301B68002140469847D8F8B0
:1023300000301B68002140469847D8F800301B68E1
:102340000021404698475FFA89F9B9F1800F18BF1C
:1023500001374FF45263013BFDD17E2EB2D11549B6
:1023600068460AF061F969460120FEF795FF684664
:102370000AF00EF9FFF7DEFE0022094B1A700E4834
:1023800003685B6801220D499847002FD4BF0027DE
:1023900001270B4B1F7005B0BDE8F0835496FF1F5B
:1023A0003487FF1F1492FF1F0C92FF1F1092FF1F14
:1023B0003087FF1FD05B01009487FF1FDC5B0100AB
:1023C0001696FF1F7487FF1F2DE9F0474D1EAB00C7
:1023D0000F259D40B9B10E46074601F18044013CEE
:1023E000A400DFF828A04FF000094FF0100807EA1A
:1023F00005014B464246E140504609F04DFF2D098C
:10240000043C013EF3D1BDE8F08700BF9487FF1F75
:1024100030B585B004460A4602A906F0FBFB01AAC6
:10242000254902A80CF0FAFB0021204606F032FCF8
:102430000BF0D0FB0446214B1B7813B3204D2B68C7
:102440005B6816221F49284698470199284609F0DB
:102450005FFF2B685B6808221B49284698470321C9
:102460002046FFF7B1FF194B1B68019A9A4205DD20
:1024700028462B685B68122215499847104809F0D6
:10248000E5FE019B114A1268934212DC04F5806458
:10249000013B104803EB43014518425C42EA242209
:1024A000D2B242546A781443E4B26C7001210A4AF1
:1024B000D15405B030BD00BF0C5701005896FF1F26
:1024C0009487FF1FE05B0100F85B01005496FF1F3B
:1024D000345701001C92FF1F5C96FF1F30B585B07A
:1024E00004460A4602A906F095FB01AA234902A860
:1024F0000CF094FB0021204606F0CCFB0BF06AFBAD
:1025000004461F4B1B7813B31E4D2B685B681622C5
:102510001D49284698470199284609F0F9FE2B687D
:102520005B68082219492846984702212046FFF790
:102530004BFF174B1B68019A9A4205DD28462B6812
:102540005B681222134998470E4809F07FFE019BF1
:102550000F4A126893420EDC013B0F4803EB430124
:10256000425C240304F5006442EA2424E4B24454A7
:1025700001210A4AD15405B030BD00BF0C570100FB
:102580005896FF1F9487FF1F045C01001C5C01002C
:102590005496FF1F345701001C92FF1F5C96FF1FCB
:1025A000F8B50F1D0C46451A054E6119304607F067
:1025B00063FD04F8010BBC42F7D10420F8BD00BF55
:1025C0006C9DFF1FF8B50F1D0C46451A054E61198D
:1025D00014F8012B304607F055FDBC42F7D104201A
:1025E000F8BD00BF6C9DFF1F2DE9F04192B0BF4BBD
:1025F0001C68BF49BF4D1A46BF4F40F6C4100B7848
:1026000013F0FF0F00F06A822B7813F0030F00F035
:10261000658213683E689B1B182B40F25F82012184
:10262000092008F04DF90021092008F025F90121C1
:102630000A2008F045F901210A2008F01DF90121BE
:10264000042008F03DF90121042008F015F90121CA
:10265000092008F011F9A94C23685B683522A849C4
:1026600020469847204609F0F1FD09F029FC012198
:10267000052008F025F90121032008F021F90121A6
:102680000E2008F01DF90121032008F0F5F80021C3
:102690000C2008F015F9FEF7A9F9022007F0F2FE68
:1026A0000C2007F01BFFFF24002526270A263846AA
:1026B00007F042FF0BF074F8014628460AF0BCFF11
:1026C0000546304608F060F9631E13F0FF04EED1B2
:1026D0008A4C23685B6812228A49204698478A49B7
:1026E00028460BF065F9014688480AF0A3FF88499F
:1026F0000BF0AAF887490AF09FFF0AF023FC022397
:10270000009302460B46204609F00EFE23685B68E4
:102710000A22814920469847204609F097FD236800
:102720005B6812227D492046984723685B68032234
:102730007B4920469847204609F088FD07F0C4FCF5
:1027400002467849204609F099FD774B1B68774A85
:1027500012687749096801917649096800917649BC
:1027600003A80CF035FA23685B68122273492046EF
:10277000984703A80CF084FC23685B68024603A911
:1027800020469847204609F061FD6D4D29460020FE
:10279000FFF706FF2B6801332B6029460020FFF767
:1027A00011FF684E31460420FFF7FAFE23685B688C
:1027B000122265492046984700230A2229682046AC
:1027C00009F06AFD204609F041FD09F079FB236814
:1027D0005B6812225D492046984700230A2231682F
:1027E000204609F059FD204609F030FD09F068FB4C
:1027F000574B1B78D3B103A807F024FC102106F037
:10280000D9FE054623685B68122252492046984744
:1028100029460CA809F008FF0CA9204609F0F0FC95
:10282000204609F013FD0CA809F0B2FE334C2368D2
:102830005B683522484920469847204609F006FD46
:1028400009F03EFB23685B681D22444920469847F7
:10285000204609F0FBFC07F043FC02460B464049CA
:10286000204609F00BFD23685B6817223D4920468E
:102870009847204609F0EAFC3B4807F03DFC01255B
:10288000DFF8F480002723685B6804224146204675
:1028900098473B460A222946204609F0FDFC23685A
:1028A0005B68012231492046984701212E48FEF7F6
:1028B00053F8C6B23B460A223146204609F0ECFCEA
:1028C00023685B6802222A49204698470135002E7A
:1028D000D9D00A4C23685B681222264920469847C3
:1028E0000021032007F0C8FF48E000BF749DFF1FD0
:1028F000709FFF1F809FFF1FA0A1FF1F9487FF1FD6
:10290000285C0100605C010000007F430A631945F8
:102910000FEE2E3E0000C841745C0100805C010097
:10292000F8570100945C0100588004405480044032
:10293000608004405C80044014590100AC5C0100DC
:102940001C9BFF1F209BFF1FC05C0100D45C01008B
:102950001C96FF1FE85C0100FC5C0100345D010077
:10296000545D0100705D01004C96FF1F445B010047
:10297000185C0100905D0100885D010023685B68C0
:102980000F225B49204698470DF143060024594D1C
:10299000594F10A801F074FD00230A2216F8011FF8
:1029A000284609F079FCE3B2022B05D82B685B6856
:1029B00001223946284698470134042CE9D14D4C70
:1029C000204609F043FC4FF4FA7007F0DDFF23685E
:1029D0005B682122494920469847204609F036FC89
:1029E0004749484804F0A8FB68B123685B68222285
:1029F000454920469847204609F028FC002103203D
:102A000007F03AFF0DE03B4C23685B683B223F49EF
:102A100020469847204609F019FC0121032007F0C1
:102A20002BFF3B4B1A88002300930123394935487B
:102A300004F02CFF70B12F4C23685B6833223649B9
:102A400020469847204609F001FC0021032007F0AA
:102A500013FF0DE0274C23685B6826222F49204690
:102A60009847204609F0F2FB0121032007F004FFFC
:102A70004FF4907007F0FCFF842008F061F802200A
:102A800008F0FEF8224B1988254801F0A7FD254CD7
:102A9000254A2649204609F023FB5023237122684A
:102AA0002AB1234B13441B115021224A9954582018
:102AB00007F06AFF204C214A2149204609F010FB0B
:102AC000FF23237122682AB1194B13441B11FF21E4
:102AD000184A995400221B4B1A7005E013681B1BFF
:102AE00083427FF68CAD9AE512B0BDE8F08100BF5D
:102AF000A45D01009487FF1FB45D0100B85D010073
:102B0000DC5D0100F49CFF1FE45D0100085E010034
:102B10003887FF1F445E0100545E0100885E01009B
:102B20002C96FF1FE496FF1F8F5F010085040000B5
:102B3000008FFCBF44E400E0DC96FF1FFFA14A04C5
:102B4000110500009793FF1F10B588B0174C214660
:102B50000420FFF725FD236801332360214604206C
:102B6000FFF730FD642007F00FFF114B1B78D3B146
:102B70001049684609F058FD0A22216804A809F0A6
:102B8000A3FD04A9684609F00BFE0B4C0146204644
:102B900009F036FB204609F059FB04A809F0F8FCBF
:102BA000684609F0F5FC08B010BD00BF209BFF1F70
:102BB000EC96FF1FB05E01009487FF1F2DE9F04FD8
:102BC0009BB00022924B1A70924B1B680093009CA2
:102BD000914E924805F048FC01F0ACFBFEF78EF8F0
:102BE0008F4B1B78002B74D18E4B1B7813F0FF0F8B
:102BF00004D0FEF7AFFA00228A4B1A70854B1B688F
:102C00000193019B1B1BB3F5FA6F05D3814B1B6826
:102C10000293029CFFF73EFB7D4B1B7813F0FF0FE6
:102C20001FD1FEF713F850B97F4B1B68032B03D05D
:102C30007E497F48FDF77EFE03227B4B1A60FEF73C
:102C400005F850B1784B1B68022B03D079497848BE
:102C5000FDF770FE0222744B1A600022704B1A704E
:102C6000B7E76B4B1B7813F0FF0F2ED0FDF7EEFF8D
:102C700070B96D4B1B68012B03D06F496C48FDF791
:102C800059FE0122684B1A600022654B1A70A0E7BA
:102C9000FDF7DCFFC8B10022634B1A606749644846
:102CA000FDF748FE664906A809F0BEFC06A901200A
:102CB000FEF7F2FA06A809F06BFCFFF73BFAFFF704
:102CC00043FF0122564B1A7003E0554B1B78002B33
:102CD00042D0574C23685B681B225A4920469847CC
:102CE000204609F0B3FAFEF7FDFEFEF7BFF9FEF746
:102CF000F7F9FDF7C5FF00224B4B1A60524809F067
:102D000039FA524B1B68012B07D001254F4C28463E
:102D100007F03AFE2368012BF9D14FF4C653013B6B
:102D2000FDD1FFF707FA45F6C053013BFDD1FEF791
:102D300023FA4FF4E153013BFDD13D4C23685B681E
:102D40001922434920469847204609F07FFA01237B
:102D5000334A13703F4A13703F4F314B1B78002B9F
:102D600000F099822D4805F07FFB01F0E3FA3B6803
:102D7000002B04DC354B1B68072B0DD112E0002320
:102D80001A4603EB4300311832544A708A700133FB
:102D900039689942F5DCEDE72C4CFDF7AFFF23686D
:102DA000072BFAD11F4B1B7813F0FF0F04D0FEF74F
:102DB000D1F900221B4B1A70284B1B68002B57D1EE
:102DC0001B4C23685B6821222549204698472046F2
:102DD00009F03CFA0022124B1A7022490AA809F0A5
:102DE00023FC0AA90120FEF757FA0AA809F0D0FB34
:102DF000FFF7A0F91C4A1D49134809F071F9054B6A
:102E00001B680393039C4FF4FA6007F0BDFDE0E6F6
:102E10001696FF1F749DFF1F1C92FF1FF49CFF1F3F
:102E20009793FF1F1892FF1F2887FF1FC45E0100A2
:102E30009487FF1FE45E0100045F0100245F01002E
:102E4000445F0100505F0100DC96FF1F1492FF1FDA
:102E50006C5F01003487FF1F5496FF1F2496FF1FED
:102E6000885F0100AC5F0100FFA14A04110500006A
:102E7000FDF7ECFE38BB7B4C23685B6821227A4966
:102E800020469847204609F0E1F90022774B1A7056
:102E900077490EA809F0C8FB0EA90120FEF7FCF93E
:102EA0000EA809F075FBFFF745F9724A724973489D
:102EB00009F016F9724B1B680493049C4FF4FA60F6
:102EC00007F062FD85E66F4B1B78CBB1654C23683C
:102ED0005B680B226C49204698476C4D00230A2200
:102EE0002968204609F0D8F92B6801332B60236844
:102EF0005B680422664920469847204609F0A6F9F7
:102F00000023644A1360644A1360FEF78BFF5D4B35
:102F10001B781BB13B68002B05DCECE05F4B1B789A
:102F2000002BF7D1E7E00124DFF858815C4DDFF892
:102F3000889104F1FF3A98F80030002B64D015F81E
:102F40000A3013F0FF0F48D0DFF818B1DBF800307B
:102F50005B68152249465846984702212046FFF7EC
:102F600033FADBF800305B6805224E495846984733
:102F70004D4A0AEB4A0302EB030BD05C0221FFF738
:102F800023FA9BF801000221FFF71EFA9BF80200CA
:102F90000221FFF719FA454B13F80A3013F0FF0F1F
:102FA00017D0304803685B680522414998470AEB0F
:102FB0004A0306EB030BF05C0221FFF705FA9BF8CE
:102FC00001000221FFF700FA9BF802000221FFF73F
:102FD000FBF9244809F03AF916E0DFF888B0DBF88D
:102FE00000305B6815224946584698470221204622
:102FF000FFF7EAF9DBF800305B681D222D495846DF
:103000009847584609F022F9244B1B78002B6CD0C6
:1030100015F80A3013F0FF0F50D0244B13F80A3084
:1030200013F0FF0F61D0DFF83CB0DBF800305B68D5
:1030300005221F49584698470AEB4A0306EB030A44
:10304000F05C0221FFF7C0F99AF801000221FFF7B6
:10305000BBF99AF802000221FFF7B6F9584609F0C9
:10306000F5F842E09487FF1FB85F01009793FF1FB8
:10307000DC5F0100FFA14A0411050000DC96FF1F80
:10308000749DFF1F9693FF1FE85F0100289CFF1FA0
:10309000F45F01009893FF1F2098FF1FED96FF1F1C
:1030A0001C94FF1F14600100A099FF1F5C96FF1F76
:1030B0001C60010024600100FC5F0100DFF808A231
:1030C000DAF800305B6815224946504698470221DD
:1030D0002046FFF779F9DAF800305B681D226F4966
:1030E00050469847504609F0B1F83A68A24204F1B8
:1030F00001043FF71EAF6A4B1B78002B00F09F8046
:103100003B68002B40F398800024664DDFF8B4A1A3
:103110002B5D13F0020F08D02046FEF7F9F9204688
:10312000FEF75CFA2046FEF7C1FA2B5D13F0040FA0
:1031300002D02046FEF786F92B5D13F0080F02D06F
:103140002046FEF719FB2B5D13F0010F03D0002181
:103150002046FEF78DFB2B5D13F0FF0F67D09AF82A
:103160000030002B63D0504912A809F05DFA0A2202
:10317000214616A809F094FA16A912A809F010FB26
:103180004A4909F015FBDFF840810146404609F045
:1031900037F816A809F0FCF912A809F0F9F9444B20
:1031A00004EB440903EB090B13F809000221FFF7B4
:1031B0000BF99BF801000221FFF706F99BF80200CA
:1031C0000221FFF701F9D8F800305B68062239497F
:1031D00040469847384B03EB090B13F809000221CE
:1031E000FFF7F2F89BF801000221FFF7EDF89BF8DA
:1031F00002000221FFF7E8F8D8F800305B680522EA
:103200002E494046984706EB090B16F809000221A3
:10321000FFF7DAF89BF801000221FFF7D5F89BF8D9
:1032200002000221FFF7D0F8404609F00FF8013400
:103230003B68A3423FF76CAF0022194B1A70204B3A
:103240001B68002B7FF489AD3B60FDF70FFF1D4B22
:103250001B784BB11C4C23685B6814221B49204629
:103260009847204608F0F2FF0023194A1370194AC4
:1032700019491A4808F034FF194B1B680593059B40
:10328000114C23685B682322164920469847204644
:1032900008F0DCFF61E51BB0BDE8F08F24600100A1
:1032A0002D87FF1F249BFF1F446001005C6001000D
:1032B000A099FF1F706001002498FF1F7860010033
:1032C0009893FF1FED96FF1F9487FF1F80600100FA
:1032D0009793FF1FFFA14A0411050000DC96FF1F12
:1032E000749DFF1F9860010070B5184B00221A7181
:1032F0004FF47A7199601A7315491960154919616B
:103300005A61042119771448026080230371134A1B
:1033100013490AF011FE134C04F580760025294666
:10332000204609F081F91034A642F8D10B4C224610
:103330000D4900200AF000FE0C48002303608023A2
:103340000371224606490AF0F7FD70BD2C96FF1F57
:1033500044610100EC630100E496FF1F2087FF1F1A
:10336000FD0500002097FF1FE1050000DC96FF1F10
:10337000704700BF10B441680A6814684B68234363
:1033800013600368184A1A600368184ADA60036811
:1033900002F180421A610368154A1A604468427A51
:1033A000144BA11891F8241003EBC10149680A32AB
:1033B00054F822200A604268047A1119097E03EB4E
:1033C000C101496802EB8402D2690A604268817ACD
:1033D000501890F8300003EBC0035B6802EB8102E9
:1033E000526B1A6010BC704701401F00011000387A
:1033F00000001F8074620100002303614361836148
:10340000C3610362704700BF054A02600A7C027113
:103410004A7C42718A7C8271CA7CC271704700BF4B
:10342000EC630100054A02600A7D02714A7D427127
:103430008A7D8271CA7DC271704700BFEC63010052
:10344000054A02600A7E02714A7E42718A7E82715A
:10345000CA7EC271704700BFEC630100074A026078
:1034600091F82020027191F82120427191F82220D8
:10347000827191F82320C271704700BFEC63010094
:10348000302301F8023B130902F00F02092A94BF0E
:103490003032373201F8012D1A46002BF3D1704734
:1034A0002DE9F04F8DB00646884691462022002136
:1034B00002A80BF031F906F148057C4B0A93FF2373
:1034C0008DF82C308DF82D308DF82E308DF82F3072
:1034D00043220AA9284601F0D1F8B0F1FF3F00F0DD
:1034E000E18001238DF808308DF8093006248DF82D
:1034F0000A4000278DF80B7073681A0E42EA0361C8
:103500001A0202F47F020A431B0A03F47F431343A7
:10351000019303934FEA19238DF810308DF8119021
:103520008023ADF80230ADF812301C2202A92846E3
:1035300001F0B2F84FF0200B5A46394602A80BF0C2
:10354000EBF8B2465AF8080F0DF1300949F8280D8A
:10355000BAF80430ADF80C30102202A9284601F068
:103560009BF85A46394602A80BF0D6F85F463A4611
:103570004946284601F090F8013CF8D163238DF8C4
:10358000083082228DF8092053228DF80A208DF808
:103590000B3035238DF80C3001238DF80D308DF86C
:1035A0000E803D228DF80F2007228DF810208DF817
:1035B0001130DAF80030CDF81230BAF80430ADF836
:1035C00016300C238DF818308DF81930384B1868E8
:1035D000CDF81A009A889B79ADF81E208DF820301E
:1035E000F27A08A93046FFF74BFF327B0DF122013A
:1035F0003046FFF745FF727B09A93046FFF740FFD1
:103600001E2202A9284601F047F8B8F1030F27D17E
:1036100032238DF8083004238DF80930327C8DF880
:103620000A20727C8DF80B20B27C8DF80C20F27C85
:103630008DF80D2036228DF80E208DF80F30337F57
:103640008DF81030737F8DF81130B37F8DF8123004
:10365000F37F8DF813300C2202A9284601F01CF8E4
:1036600037238DF8083006238DF8093001228DF8B4
:103670000A2003228DF80B208DF80C300F238DF8D3
:103680000D303A238DF80E303B238DF80F30FF2399
:103690008DF81030092202A9284600F0FDFF2846C7
:1036A00000F0F4FF0DB0BDE8F08F00BFEC63010047
:1036B000346101002DE9F04F93B0074689469346E7
:1036C000B24B1B680393DDF80C8000F14805AF4E48
:1036D0004FF0320A2C46284601F01CF800280BDC7B
:1036E00033680493049BC8EB03034B4500F2498104
:1036F000504607F049F9EDE7242205A9284600F0D5
:10370000F1FF9DF81430022B40F03181B7F86030A2
:10371000432B40F02F81069B1D0E45EA03651A02DC
:1037200002F47F0215431B0A03F47F431D43CBF8C9
:103730000050062207F108010CA80AF057FF28B92B
:103740003B689D4202D37B689D4204D9204600F02D
:1037500037FF002016E109983861CC25204600F09B
:10376000A7FF013DFAD14FF0000907F1240A4FF0FD
:10377000040807F128030193204600F013FF0028F6
:1037800040F3FA80204600F093FF332800F0C38016
:103790000ADC012820D002DC0028EDD0D2E003288A
:1037A00024D006283BD0CDE03A2800F0878004DC06
:1037B000352808D036284BD0C4E03B2800F0948050
:1037C000FF28D9D0BEE0204600F072FF204600F06E
:1037D0006FFF5FFA80F9CFE7204600F069FF4246AD
:1037E00007F11401204600F07DFFC5E7204600F0F8
:1037F0005FFF8346424607F11801204600F072FF42
:103800005FFA8BFBABF10403002BB5DD9B46002672
:10381000204600F04DFF01365E45F9D1ACE7204669
:1038200000F046FF8346424607F12001204600F0A3
:1038300059FF5FFA8BFBABF10403002B9CDD9B4629
:103840000026204600F034FF01365E45F9D193E7AB
:10385000204600F02DFF97F81CE08DF83CE07E7FBD
:103860008DF83D60BA7F8DF83E20FB7F8DF83F30AC
:103870000F9991B18DF844E08DF845608DF84620A0
:103880008DF84730FB6D119A9A4206D0C0B200F114
:10389000FF3B5FFA8BFB38B96EE7424607F11C012C
:1038A000204600F01FFF67E70BF1010B2E46204674
:1038B00000F0FEFE0136B345F9D15DE7204600F089
:1038C000F7FE42460199204600F00CFFBB6A1A0E33
:1038D00042EA03611A0202F47F020A431B0A03F45C
:1038E0007F431343BB6247E7204600F0E1FE4246B8
:1038F00007F12C01204600F0F5FEFB6A1A0E42EAA1
:1039000003611A0202F47F020A431B0A03F47F4395
:103910001343FB6230E7204600F0CAFE42465146A0
:10392000204600F0DFFE7B6A1A0E42EA03611A02AB
:1039300002F47F020A431B0A03F47F4313437B62B2
:103940003B6319E7204600F0B3FEC0B200F1FF3B35
:103950005FFA8BFB00283FF40FAF0BF1010B2E46F3
:10396000204600F0A5FE01365E45F9D104E74FF090
:10397000000901E04FF00009204600F021FE484612
:1039800000E0FF2013B0BDE8F08F00BF749DFF1F63
:103990002DE9F04786B004464FF4FA61012008F0A3
:1039A000EDFD6060A14649F8480B484600F00AFE6C
:1039B0004421484600F012FE002800F09B804F4B47
:1039C0001B680093DDF80080002635464B4FDFF87A
:1039D00030A194F84430032B7FD09BB96368013346
:1039E00063603B680193019AC8EB0202AAFB0232B2
:1039F000C2F38F1201212046FFF752FD012384F804
:103A000044305AE0042B13D16368013363603B6890
:103A10000293029AC8EB0202AAFB0232C2F38F128F
:103A200003212046FFF73CFD022384F8443044E0A4
:103A3000012B1AD105AAE16B2046FFF73BFE054694
:103A400002283AD1059B63603B680393039AC8EB55
:103A50000202AAFB0232C2F38F1203212046FFF7B3
:103A60001FFD022384F8443027E0022B25D105AA4C
:103A7000E16B2046FFF71EFE0546052818D10323FB
:103A800084F84430636A13B94FF461736362A36AC4
:103A900013B9636A5B08A362E36A1BB9636AA3EBA9
:103AA000D303E362A36A2363E36A6363012604E04A
:103AB000062804BF002384F84430FF2D04BF0025EE
:103AC00084F84450002E84D13B680493049BC8EBD7
:103AD0000303A26B93427FF67CAF484600F072FD71
:103AE000636801336360054B1B680593059B236482
:103AF000304600E0002006B0BDE8F087749DFF1F4F
:103B0000D34D6210F8B504460F4600254562856224
:103B1000C5628263C36385608581FFF76DFC3B6886
:103B2000A360BB88A38184F844502046FFF730FF90
:103B3000F8BD00BF10B582B004462A4B1B68019344
:103B40000199036CCB1AB3F57A7F1BD3264AA2FBEB
:103B5000030292094FF47A7000FB1233C91A2164F0
:103B6000236B51008B4234BF00239B1A2363636B8A
:103B7000994205D900236363236B5BB3002012E0F5
:103B80009A1A6263236B5BB994F84430032B1CD1FF
:103B9000042384F844302046FFF7FAFE013000E0A9
:103BA0000020636BDBB994F84430032B00D0B3B929
:103BB000002384F844302046FFF71EFC2046FFF720
:103BC000E7FE03300BE00020F1E7626B002AFAD039
:103BD000002004E094F84430032BF4D1D8E702B07D
:103BE00010BD00BF749DFF1FD34D62104B68436032
:103BF00000230381704700BF70B4013900252846B7
:103C00002E4611F8013FBBB1A3F13004E4B2092CF8
:103C100008D800EB8000303B03EB400398B2FF284C
:103C2000EFD90EE02E2B0ED1032D0ED06B1C1544B8
:103C30002871DDB23046E4E7032D08D1D0710120B0
:103C400006E0002004E0002002E0002000E0002068
:103C500070BC7047024B034A1A6000225A607047DA
:103C6000309CFF1FEC6301002DE9F04182B00C464F
:103C70003E4B1B680093009B038100F10C0702225E
:103C800000F10801384600F007FD02AD012325F8D8
:103C9000023D02222946384600F0FEFC4FF48073B4
:103CA000ADF8063002222946384600F0F5FC002324
:103CB000ADF8063002222946384600F0EDFC02221B
:103CC0002946384600F0E8FC02222946384600F032
:103CD000E3FC23786BB326464FF0010801E014465D
:103CE00026462378DBB12E2B02D11CE02E2B1AD0D6
:103CF00014F8013F002BF9D111E08DF80550424630
:103D00000DF10501384600F0C7FC2A463146384619
:103D100000F0C2FC621C2378002BE0D109E0A51B57
:103D2000002DEADC05E0A51B002DD8BF0134D7DD4E
:103D3000E3E702A9002301F8033D0122384600F021
:103D4000ABFC4FF4807502AC24F8025D02222146E0
:103D5000384600F0A1FCADF8065002222146384654
:103D600000F09AFC012002B0BDE8F081749DFF1FB5
:103D70002DE9F04F89B081460F469246994B1B685A
:103D80000293029E00F10C04964D4FF03208A346B8
:103D9000204600F0BFFC00280ADC2B680393039B3D
:103DA0009B1BBB4200F20C81404606F0EDFDEEE7A6
:103DB000D9F80420D9F820309A4240F00481B9F8AB
:103DC0002430352B40F00281204600F0EBFB0B281D
:103DD00040F3FF800C2205A9204600F083FCBDF8CB
:103DE0001620130A43EA02231BB29AB2ADF812203E
:103DF000B9F80800BDF81410884201D1002B05DB8A
:103E0000584600F0DDFB4FF6FC70E8E040F20F236F
:103E10001A4205D0204600F0D3FB4FF6FB70DEE0DF
:103E2000BDF81A40230A43EA0424A4B254B1BDF8F1
:103E3000182013029BB253EA122300F0CD80002514
:103E4000012605E0584600F0BBFB4FF6FA70C6E0CD
:103E500032460DF10601584600F044FC9DF806304C
:103E60007BB1013B8DF80630584600F021FC9DF8EF
:103E70000620531EDBB28DF80630002AF4D1002B49
:103E8000E6D1584600F014FC584600F011FC5846A4
:103E900000F00EFC584600F00BFC0135ADB2BDF849
:103EA000182013029BB243EA12239D42D0DB93E019
:103EB00032460DF10301584600F014FC9DF8033022
:103EC00013F0C00F0FD1BBB1013B8DF80330584642
:103ED00000F0EEFB9DF80320531EDBB28DF803309B
:103EE000002AF4D106E0584600F0E2FB00238DF8EA
:103EF000033001E0002BDBD1022201A9584600F07B
:103F0000F1FB02220DF10601584600F0EBFB58468A
:103F100000F0CEFB584600F0CBFB584600F0C8FB43
:103F2000584600F0C5FB02220DF11201584600F080
:103F3000D9FBBDF8042013029BB243EA1223012BE4
:103F400008D0BDF8122013029BB253EA12232CD0E2
:103F500000271DE0BDF8062013029BB243EA12239E
:103F6000012BEED1BDF8122013029BB243EA1223BB
:103F7000042B05D0584600F023FB4FF6F7702EE0D7
:103F800004220AEB0201584600F0ACFB012026E0B7
:103F9000584600F08DFB0137BFB2BDF81220130266
:103FA0009BB243EA12239F42F2DB0135ADB2AC4231
:103FB0007FF47EAF584600F003FB4FF6F6700EE03C
:103FC0004FF6FF700BE04FF6FE7008E04FF6FE7004
:103FD00005E04FF6FD7002E00025012668E709B014
:103FE000BDE8F08F749DFF1F2DE9F04184B00546B8
:103FF0000F469046FFF700FE002837D104466A6856
:10400000294B5B689A4233D005F10C06274B1B689D
:104010000193019901F00F0101F58061304600F034
:10402000DDFA01283CD1224B02936B6803933522C1
:1040300002A9304600F022FB044698B139462846D2
:10404000FFF712FE68B1304600F020FB044690B93D
:1040500008E0424641F288312846FFF789FE0446CF
:1040600000E00024304600F0ADFA19E0012417E02A
:104070006FF0010414E0424641F288312846FFF710
:1040800077FE0446B0F1FF3FECD1424641F2883161
:104090002846FFF76DFE0446B0F1FF3FD9D0E1E7B7
:1040A000204604B0BDE8F081309CFF1F749DFF1FC7
:1040B000EC63010070B58AB004460D4616468E4B7F
:1040C0001B6813F0010F17D18B4806F09BFB98B1CA
:1040D0008A4B002283F84C204FF47A71196583F8DB
:1040E00054208749996487499965DA65042283F8E1
:1040F0006420814806F08CFB804A834B1A6002F0F2
:104100005BFD824BDB7A2BB372B6804BDB7A13F00C
:10411000010F06D07E4A10687C49CB6803408B6152
:1041200013607A4BDB7A13F0020F06D0794A1068DD
:1041300076490B690340CB611360744BDB7A13F053
:10414000040F06D0744A106870494B6903400B6233
:10415000136062B66D4B1B68DA68B2F1384F0BD052
:104160006E4A1A60694B1B684FF03842DA604FF0B4
:1041700078421A616A4A1A6006222146092001F033
:104180009DFB604B009300238DF804308DF80530C3
:104190008DF806308DF8073004220DEB02010F2058
:1041A00001F08CFB594BDB7AC3B113F0010F03D044
:1041B000564B9A695B4B1A60544BDB7A13F0020F33
:1041C00003D0524BDA69584B1A60504BDB7A13F02C
:1041D000040F03D04D4B1A6A544B1A6033462A46DB
:1041E000214649480068FFF78DFC044601287FD12D
:1041F000464BDB7A2BB372B6444BDB7A13F0010FDC
:1042000006D0434A10684149CB6803408B61136074
:104210003E4BDB7A13F0020F06D03E4A10683B4952
:104220000B690340CB611360384BDB7A13F0040F4A
:1042300006D0394A106835494B6903400B62136058
:1042400062B6324B1B68DA68B2F1384F0BD0334A92
:104250001A602E4B1B684FF03842DA604FF07842FC
:104260001A612F4A1A60284D296802A8FFF7CCF876
:10427000042203A90F2001F021FB296804A8FFF7FD
:10428000DFF8042205A9012001F018FB296806A81F
:10429000FFF7C8F8042207A9052001F00FFB1B4B0C
:1042A000DB7AC3B113F0010F03D0184B9A691D4B91
:1042B0001A60164BDB7A13F0020F03D0134BDA6946
:1042C000194B1A60114BDB7A13F0040F03D00F4B1C
:1042D0001A6A164B1A600C4B196808A8FFF7BEF84B
:1042E000099A134B5A6006F02BFB80B200F040FB9A
:1042F00020460AB070BD00BF389CFF1F3C9CFF1FCA
:1043000044610100EC630100AC9CFF1F3C87FF1F70
:1043100080E100E084E100E088E100E001401F006E
:1043200000001F8000E100E004E100E008E100E09F
:10433000A49CFF1F30B589B0464B1868002800F0D8
:104340008480FFF7F7FB0446022801D004287DD1C2
:10435000414BDB7A2BB372B63F4BDB7A13F0010F84
:1043600006D03E4A10683C49CB6803408B6113601D
:10437000394BDB7A13F0020F06D0394A1068364900
:104380000B690340CB611360334BDB7A13F0040FEE
:1043900006D0344A106830494B6903400B62136001
:1043A00062B62D4B1B68DA68B2F1384F0BD02E4A3B
:1043B0001A60294B1B684FF03842DA604FF07842A0
:1043C0001A612A4A1A60234D29686846FFF71CF8CB
:1043D00004220DEB02010F2001F070FA296802A8F7
:1043E000FFF72EF8042203A9012001F067FA2968DB
:1043F00004A8FFF717F8042205A9052001F05EFACA
:10440000154BDB7AC3B113F0010F03D0124B9A693D
:10441000174B1A60104BDB7A13F0020F03D00E4BD0
:10442000DA69144B1A600C4BDB7A13F0040F03D0DB
:10443000094B1A6A104B1A60064B196806A8FFF759
:104440000DF8079A0D4B5A6000E00024204609B091
:1044500030BD00BFAC9CFF1F3C87FF1F80E100E028
:1044600084E100E088E100E001401F0000001F80BF
:1044700000E100E004E100E008E100E0A49CFF1F8F
:1044800010B50446304B0360002343602F4BDB7AAA
:104490002BB372B62D4BDB7A13F0010F06D02C4AEA
:1044A00010682A49CB6803408B611360274BDB7A85
:1044B00013F0020F06D0274A106824490B69034005
:1044C000CB611360214BDB7A13F0040F06D0224A34
:1044D00010681E494B6903400B62136062B61B4BA8
:1044E0001B68DA68B2F1384F0BD01C4A1A60174BC0
:1044F0001B684FF03842DA604FF078421A61184A70
:104500001A600422A1180F2001F002FD0F4BDB7A84
:10451000C3B113F0010F03D00C4B9A69114B1A6011
:104520000A4BDB7A13F0020F03D0084BDA690E4B0B
:104530001A60064BDB7A13F0040F03D0034B1A6AA0
:104540000A4B1A60204610BDEC6301003C87FF1F38
:1045500080E100E084E100E088E100E001401F002C
:1045600000001F8000E100E004E100E008E100E05D
:10457000024B034A1A6000225A607047A49CFF1F36
:10458000EC63010008B503685B6B984708BD00BF8A
:10459000024A02604A694260704700BFEC63010052
:1045A000008B7047C08B704710B582B002AB03F828
:1045B000011D0268546801221946A04702B010BDCF
:1045C000704700BF037F032B07D810B50446184679
:1045D00000F0B4FC0423237710BD704738B50446BF
:1045E0000D46007F032801D800F0A8FC29460220D0
:1045F00000F0C8F92077032804D8E5810023E3837D
:10460000012038BD002038BD70B592B005460C467B
:104610001646174A0392002304938DF81C304FF47A
:104620007A7108918DF82430124906910A920B9301
:1046300004218DF83410019202930E920E4B5B68A8
:104640000F930EA903A8FFF7D1FA01AA214603A8E8
:10465000FFF7CAFC012809D12B685B6A044A109253
:10466000029A1192324610A92846984712B070BD9E
:10467000EC63010044610100A49CFF1F08B5002306
:1046800043830431007F00F045FF08BD08B5007F7B
:1046900000F0DAFF08BD00BF10B5044693B20A4629
:1046A000418B007F00F0B8FE638B0344638310BD31
:1046B000C38B83B110B582B0044601220DF107010E
:1046C000007F00F0A9FC002808DDE38B013BE383B9
:1046D0009DF8070004E04FF0FF3070474FF0FF30C7
:1046E00002B010BDC38B73B110B50446934294BFA2
:1046F0001AB212B2007F00F08FFC002806DDE38BB7
:104700001B1AE38310BD4FF0FF3070474FF0FF30AE
:1047100010BD00BF10B582B00446C38B33B123680F
:104720005B6920469847E38B002BF8D1207F00F08F
:1047300075FD10B308226946207F00F06DFC00284B
:104740001CDD9DF8003023759DF8013063759DF8E0
:104750000230A3759DF80330E3759DF804209DF8A1
:10476000053003EB022323839DF806009DF80730F4
:1047700003EB002080B2E08300E0002002B010BD17
:1047800008B5037F032B05D8C28B32B1184600F061
:10479000BDFD08BD4FF0FF3008BD4FF0FF3008BD34
:1047A00070B582B004460E461546007F032801D836
:1047B00000F0C4FB094B0093736801932A466946D5
:1047C000822000F02FFA2077032804D8E581002307
:1047D000E383012000E0002002B070BDEC63010023
:1047E0002DE9F04383B007460C4690461E4605026D
:1047F000274B188824302844022201A980B201F0F6
:1048000087FB9DF804109DF8053043EA01212144FF
:104810008CB2204BB3F8009004EA09091E4B33F820
:104820001700484480B21D4B1B78372B05D01C4B1A
:104830001B8809EB06029A4204DC3246414601F02D
:104840003DF811E0C9EB03091FFA89F94A464146D0
:1048500001F034F8C9EB060292B208EB09010E4BE5
:1048600033F8170001F02AF83444A4B223128DF86B
:1048700004308DF80540064B188824302844022265
:1048800001A980B201F01AF803B0BDE8F08300BFBF
:10489000DC9CFF1FE89CFF1FE09CFF1FDA9CFF1FB2
:1048A000D89CFF1F2DE9F04182B080460502154BD0
:1048B000188820302844022201A980B201F028FB88
:1048C0009DF804409DF8053043EA04240D4F02266C
:1048D00000E00446388820302844324601A980B2DE
:1048E00001F016FB9DF804009DF8053043EA002016
:1048F0008442EED1044B03EBC808A8F8040002B0D0
:10490000BDE8F081DC9CFF1FB89CFF1F2DE9F04142
:1049100082B080460502144B1888263028440222B3
:1049200001A980B201F0F4FA9DF804409DF8053029
:1049300043EA04240C4F022600E00446388826305F
:104940002844324601A980B201F0E2FA9DF8040041
:104950009DF8053043EA00208442EED1034B23F852
:10496000380002B0BDE8F081DC9CFF1FB89CFF1F3F
:10497000034AC0F30D00138858401080704700BFF1
:104980006087FF1F2DE9F04F85B083468A46984B1C
:10499000DB7A2BB372B6964BDB7A13F0010F06D09D
:1049A000944A10689249CB6803408B611360904B26
:1049B000DB7A13F0020F06D08F4A10688C490B691E
:1049C0000340CB6113608A4BDB7A13F0040F06D0EF
:1049D0008A4A106886494B6903400B62136062B6CD
:1049E000834B1B68DA68B2F1384F0BD0844A1A60E7
:1049F0007F4B1B684FF03842DA604FF078421A6103
:104A0000804A1A6003AF3E460024DFF80C924FF054
:104A1000010804E09DF80C201D2A1DD814E0E5B221
:104A2000B9F80000033000EB0420424602A980B22E
:104A300001F06EFA9DF8083006F8013B002B41D0DA
:104A40000134042CEBD1E5E74FF03453D34013F09D
:104A5000010F32D1012500E001254FF0345217F843
:104A6000013F1D2B04D822FA03F313F0010F25D1C7
:104A70000135EDB2042DF2D15D4BDB7A002B00F055
:104A8000AD8013F0010F03D0594B9A695E4B1A6049
:104A9000574BDB7A13F0020F03D0554BDA695B4BAF
:104AA0001A60534BDB7A13F0040F00F09980504BDF
:104AB0001A6A574B1A60042097E0002510212846F7
:104AC00002F0C2FA2F460022524B23F8152041F281
:104AD0007073013BFDD12E024F4C2088304404A955
:104AE00001F809BD012280B200F0E8FE2088023002
:104AF000304404A9FF2301F80A3D012280B200F0EE
:104B0000DDFEBAF1000F0ED04FEA2A238DF80830EF
:104B10008DF809A0208804303044022202A980B216
:104B200000F0CCFE1DE03D4B1B8801339BB2B3F57A
:104B3000404F02D3394A138003E04FF44042374BD1
:104B40001A80364B1B881A128DF808208DF8093010
:104B5000314B188804303044022202A980B200F0A0
:104B6000ADFE0121284602F06FFA2D4C4FF00008EF
:104B700024F83780284B188828303044022202A9B4
:104B800080B201F0C5F99DF808209DF8093043EA8C
:104B9000022204EBC7035A8083F80680A3F804803E
:104BA000134BDB7AF3B113F0010F03D0104B9A696A
:104BB000154B1A600E4BDB7A13F0020F03D00C4B2F
:104BC000DA69124B1A600A4BDB7A13F0040F0BD030
:104BD000074B1A6A0E4B1A60284606E0042004E0D0
:104BE000042002E0284600E0284605B0BDE8F08F2A
:104BF0003C87FF1F80E100E084E100E088E100E005
:104C000001401F0000001F8000E100E004E100E01F
:104C100008E100E0B09CFF1FDC9CFF1F6087FF1FC6
:104C2000B89CFF1F2DE9F04F89B00190894692464C
:104C3000B04BDB7A2BB372B6AE4BDB7A13F0010FBD
:104C400006D0AD4A1068AB49CB6803408B61136056
:104C5000A84BDB7A13F0020F06D0A84A1068A549CA
:104C60000B690340CB611360A24BDB7A13F0040F96
:104C700006D0A34A10689F494B6903400B6213603A
:104C800062B69C4B1B68DA68B2F1384F0BD09D4A74
:104C90001A60984B1B684FF03842DA604FF0784248
:104CA0001A61994A1A6007AF3E460024DFF86C8209
:104CB0004FF0010B04E09DF81C201D2A1DD814E0C4
:104CC000E5B2B8F80000033000EB04205A4604A90E
:104CD00080B201F01DF99DF8103006F8013B002B61
:104CE00041D00134042CEBD1E5E74FF03453D340ED
:104CF00013F0010F32D1012500E001254FF03452AD
:104D000017F8013F1D2B04D822FA03F313F0010F0B
:104D100025D10135EDB2042DF2D1764BDB7A002B93
:104D200000F0E58013F0010F03D0724B9A69774BC6
:104D30001A60704BDB7A13F0020F03D06D4BDA6907
:104D4000734B1A606B4BDB7A13F0040F00F0EE80AC
:104D5000684B1A6A6F4B1A600420ECE000251021A2
:104D6000284602F071F92F4600226B4B23F81520DC
:104D700041F27073013BFDD12C02684E3088204413
:104D800008A99DF8043001F8113D012280B200F01D
:104D900095FD30880230204408A9FF2301F8123D18
:104DA000012280B200F08AFDBAF1000F0ED04FEA66
:104DB0002A238DF810308DF811A03088043020445B
:104DC000022204A980B200F079FD1DE0544B1B883B
:104DD00001339BB2B3F5404F02D3514A138003E035
:104DE0004FF440424E4B1A804D4B1B881A128DF8DF
:104DF00010208DF81130494B1888043020440222CD
:104E000004A980B200F05AFD464B1868059099F845
:104E1000053003F07F038DF8173099F806308DF8D0
:104E2000183099F807308DF81930DFF8F0B0BBF87A
:104E300000000C302044042209EB020180B200F093
:104E40003DFD4FEA2A238DF810308DF811A0BBF8F4
:104E5000000010302044022204A980B200F02EFD90
:104E6000BBF8000006302044062205A980B200F0FD
:104E700025FD0121284602F0E7F82B4E4FF00008EF
:104E800026F83780BBF8000028302044022204A90D
:104E900080B201F03DF89DF810209DF8113043EAF2
:104EA000022206EBC7035A8083F80680A3F8048029
:104EB000104BDB7A002B3BD013F0010F03D00D4BCE
:104EC0009A69124B1A600B4BDB7A13F0020F03D076
:104ED000084BDA690E4B1A60064BDB7A13F0040FAD
:104EE00028D0044B1A6A0B4B1A60284623E0042092
:104EF00021E000BF3C87FF1F80E100E084E100E08B
:104F000088E100E001401F0000001F8000E100E098
:104F100004E100E008E100E0B09CFF1FDC9CFF1F03
:104F20006087FF1F8C610100B89CFF1F042002E016
:104F3000284600E0284609B0BDE8F08F10B52D4B9B
:104F4000DB7A2BB372B62B4BDB7A13F0010F06D052
:104F5000294A14682749CB6823408B611360254B8D
:104F6000DB7A13F0020F06D0244A146821490B693A
:104F70002340CB6113601F4BDB7A13F0040F06D084
:104F80001F4A14681B494B6923400B62136062B6C9
:104F9000184B1B68DA68B2F1384F0BD0194A1A6007
:104FA000144B1B684FF03842DA604FF078421A61B8
:104FB000154A1A60102102F047F80E4BDB7AC3B194
:104FC00013F0010F03D00B4B9A69104B1A60094B79
:104FD000DB7A13F0020F03D0064BDA690C4B1A6030
:104FE000044BDB7A13F0040F03D0024B1A6A094B0F
:104FF0001A6010BD3C87FF1F80E100E084E100E003
:1050000088E100E001401F0000001F8000E100E097
:1050100004E100E008E100E02DE9F04383B004463C
:10502000894616466E4B33F830206E4BDB7A2BB335
:1050300072B66C4BDB7A13F0010F06D06A490D682B
:105040006848C3682B4083610B60664BDB7A13F0C2
:10505000020F06D065490D68624803692B40C361A1
:105060000B60604BDB7A13F0040F06D060490D68CB
:105070005C4843692B4003620B6062B6594B1B6866
:10508000D968B1F1384F0BD05A491960554B1B689C
:105090004FF03841D9604FF0784119615649196095
:1050A0001546B24203DA2046FFF730FC0546ADB99B
:1050B000524B1888033000EB0420012201A980B272
:1050C00000F026FF9DF80430142B69D0002B67D028
:1050D000B3F11C0518BF4FF0FF3561E0B542A8BF22
:1050E00035463F4B03EBC4035E88AFB2444BB3F885
:1050F000008006EA0808434B33F81400404480B2AD
:10510000414B1B78372B05D0404B1B8818FA85F292
:105110009A4204DC3A46494600F0FAFE11E0C8EB38
:1051200003081FFA88F84246494600F0F1FEC8EB32
:10513000070292B209EB0801324B33F8140000F079
:10514000E7FEF3199BB2264901EBC400438031F816
:105150003420D21B92B221F834208179394489B2AB
:10516000F92900D8C2B91E4A02EBC402002191718C
:105170001A128DF804208DF80530204B188828303D
:1051800000EB0420022201A980B200F097FB40212D
:10519000204601F059FF03E0114B03EBC404A17159
:1051A000104BDB7AC3B113F0010F03D00D4B9A699A
:1051B000174B1A600B4BDB7A13F0020F03D0094B2D
:1051C000DA69144B1A60074BDB7A13F0040F03D033
:1051D000044B1A6A104B1A60284603B0BDE8F083EE
:1051E000B89CFF1F3C87FF1F80E100E084E100E0E6
:1051F00088E100E001401F0000001F80DC9CFF1FD1
:10520000E89CFF1FEC9CFF1FDA9CFF1FD89CFF1F30
:1052100000E100E004E100E008E100E00346314A7B
:1052200032F8300000285BD110B52F4AD27A2AB369
:1052300072B62D4AD27A12F0010F06D02B490C68B3
:105240002948C268224082610A60274AD27A12F055
:10525000020F06D026490C68234802692240C26129
:105260000A60214AD27A12F0040F06D021490C6854
:105270001D484269224002620A6062B61A4A1268F8
:10528000D168B1F1384F0BD01B491160164A126832
:105290004FF03841D1604FF07841116117491160EA
:1052A0001846FFF733FB104BDB7AC3B113F0010F45
:1052B00003D00D4B9A69124B1A600B4BDB7A13F03B
:1052C000020F03D0084BDA690E4B1A60064BDB7AEB
:1052D00013F0040F03D0044B1A6A0B4B1A6010BD75
:1052E000704700BFB89CFF1F3C87FF1F80E100E0B4
:1052F00084E100E088E100E001401F0000001F8021
:1053000000E100E004E100E008E100E010B582B057
:10531000354BDB7A2BB372B6334BDB7A13F0010FCC
:1053200006D0324A14683049CB6823408B61136041
:105330002D4BDB7A13F0020F06D02D4A14682A4950
:105340000B692340CB611360274BDB7A13F0040F0A
:1053500006D0284A146824494B6923400B62136025
:1053600062B6214B1B68DA68B2F1384F0BD0224A83
:105370001A601D4B1B684FF03842DA604FF07842DC
:105380001A611E4A1A601E4B03EBC0035A881D4B5C
:105390001B881A401C4B33F81030D01801220DF135
:1053A000070180B200F0B4FD0F4BDB7AC3B113F0FC
:1053B000010F03D00C4B9A69144B1A600A4BDB7A2D
:1053C00013F0020F03D0084BDA69114B1A60064B39
:1053D000DB7A13F0040F03D0034B1A6A0D4B1A60EB
:1053E0009DF8070002B010BD3C87FF1F80E100E080
:1053F00084E100E088E100E001401F0000001F8020
:10540000B89CFF1FE89CFF1FEC9CFF1F00E100E021
:1054100004E100E008E100E0F8B505460E46174655
:105420001C46334BDB7A2BB372B6314BDB7A13F06D
:10543000010F06D02F4A10682D49CB6803408B61BD
:1054400013602B4BDB7A13F0020F06D02A4A106848
:1054500027490B690340CB611360254BDB7A13F0BE
:10546000040F06D0254A106821494B6903400B629E
:10547000136062B61E4B1B68DA68B2F1384F0BD06E
:105480001F4A1A601A4B1B684FF03842DA604FF01F
:1054900078421A611B4A1A602846FFF703FAA042B5
:1054A00028BF204684B223463A4631462846FFF7B5
:1054B00097F90F4BDB7AC3B113F0010F03D00C4BFC
:1054C0009A69114B1A600A4BDB7A13F0020F03D072
:1054D000074BDA690D4B1A60054BDB7A13F0040FAA
:1054E00003D0034B1A6A0A4B1A602046F8BD00BF6E
:1054F0003C87FF1F80E100E084E100E088E100E0FC
:1055000001401F0000001F8000E100E004E100E016
:1055100008E100E00B7833B94B7823B98B7813B9E5
:10552000CB78002B73D0002A73D070B582B03C4B7F
:10553000DB7A2BB372B63A4BDB7A13F0010F06D04D
:10554000384C2668364DEB683340AB612360344BF2
:10555000DB7A13F0020F06D0334C2668304D2B69EE
:105560003340EB6123602E4BDB7A13F0040F06D03F
:105570002E4C26682A4D6B6933402B62236062B63D
:10558000274B1B68DC68B4F1384F0BD0284C1C60EB
:10559000234B1B684FF03844DC604FF078441C61AB
:1055A000244C1C6014460502234E30880C302844DD
:1055B000042280B200F082F923128DF804308DF8B5
:1055C0000540308810302844022201A980B200F042
:1055D00075F9134BDB7AF3B113F0010F03D0104BC5
:1055E0009A69164B1A600E4BDB7A13F0020F03D048
:1055F0000B4BDA69124B1A60094BDB7A13F0040F7C
:105600000BD0074B1A6A0F4B1A60012006E00020EE
:10561000704700207047012000E0012002B070BDFB
:105620003C87FF1F80E100E084E100E088E100E0CA
:1056300001401F0000001F80DC9CFF1F00E100E014
:1056400004E100E008E100E02DE9F04782B0044603
:10565000904BDB7A2BB372B68E4BDB7A13F0010FD3
:1056600006D08D4A10688B49CB6803408B6113606C
:10567000884BDB7A13F0020F06D0884A1068854900
:105680000B690340CB611360824BDB7A13F0040F8C
:1056900006D0834A10687F494B6903400B62136050
:1056A00062B67C4B1B68DA68B2F1384F0BD07D4A8A
:1056B0001A60784B1B684FF03842DA604FF078423E
:1056C0001A61794A1A602021204601F0BDFC2402AB
:1056D000764D774EDFF8E0A1DFF8C491DFF8BC81AA
:1056E0006D4F28880230204401220DF1070180B25D
:1056F00000F00EFC9DF8073013F0100F40F096807C
:1057000028880230204401220DF1070180B200F008
:10571000FFFB9DF8073013F0080F2CD0634B18885F
:105720000230204402A9182301F8023D012280B270
:1057300000F0C4F8574BDB7A002B00F0A18013F087
:10574000010F03D0534B9A695A4B1A60514BDB7AC5
:1057500013F0020F03D04F4BDA69574B1A604D4BD1
:10576000DB7A13F0040F00F08D804A4B1A6A504B1D
:105770001A6000208BE0474BDB7ABBB113F0010FBE
:1057800003D0444B9A694B4B1A60424BDB7A13F0BF
:10579000020F03D03F4BDB69CAF800303D4BDB7A88
:1057A00013F0040F02D03B4B1B6A336007F05EF826
:1057B000384BDB7A33B372B6364BDB7A13F0010F1A
:1057C00005D03968334AD3680B4093613B60314B55
:1057D000DB7A13F0020F07D0D8F800102D4A1369B6
:1057E0000B40D361C8F800302A4BDB7A13F0040F6A
:1057F00007D0D9F80010274A53690B401362C9F843
:10580000003062B6234B1B68DA68B2F1384F3FF4C0
:1058100068AF244A1A601F4B1B684FF03842DA60A9
:105820004FF078421A61204A1A605AE71F4B1888D5
:105830000230204402A9102301F8013D012280B268
:1058400000F03CF8134BDB7AF3B113F0010F03D0F7
:10585000104B9A69174B1A600E4BDB7A13F0020F4C
:1058600003D00C4BDA69144B1A600A4BDB7A13F045
:10587000040F0BD0074B1A6A0D4B1A60012006E08B
:10588000002004E0002002E0012000E0012002B03E
:10589000BDE8F0873C87FF1F80E100E084E100E085
:1058A00088E100E001401F0000001F80DC9CFF1F1A
:1058B00008E100E000E100E004E100E02DE9F04F44
:1058C000A84B1B78332B66D1002A00F018830C46B6
:1058D0008D18A54FA54BA64E4FF0000C4FF0805EE3
:1058E0004FF0010881464FEA202B4BF4704B39787A
:1058F0004FEA014A59B14AF010414BEA010159639C
:10590000D96A01F47041B1F5405FF9D8CFE231684E
:1059100081F800C0C3F82CE04BF080515963D96A7C
:1059200001F47041B1F5405FF9D8217841EA0929C5
:1059300039784FEA014A69B11FFA89F949EA0A0A36
:105940004AF080515963D96A01F47041B1F5405F62
:10595000F9D810E0316881F800C0C3F82CE01FFAD4
:1059600089F949F0C0515963D96A11F0805FFBD0C1
:10597000316881F80080013080B2D96A11F0F00FEF
:10598000FBD0996BD96A11F0F00FFBD0996B013401
:10599000AC42A7D1B3E2342B40F0A280754C734BDC
:1059A0001C60714B1B781C0463B144F01043184316
:1059B0006E4B58631846C36A03F47043B3F5405FF7
:1059C000F9D878E26A4B1B6800241C70674B4FF0D3
:1059D0008054DC62204358631846C36A03F4704362
:1059E000B3F5405FF9D86FEA42436FEA53439BB285
:1059F0005D480078040458B1234343F010435B48EA
:105A00004363C36A03F47043B3F5405FF9D80FE012
:105A1000574800680024047054484FF08054C46212
:105A200023434363C36A03F47043B3F5405FF9D87B
:105A30001646002A45D04C1E00204B4D4C4F844644
:105A40004A4B4FF0805E4FF0010814F801AF01306F
:105A500029784FEA014981B14AEA0909B04234BFC5
:105A60004FF00041002149EA01015963D96A01F46C
:105A70007041B1F5405FF9D81CE0396881F800C089
:105A8000C3F82CE0B0422CBF4FF0006100214AEA7D
:105A900001015963B04206D2D96A01F47041B1F5EF
:105AA000405FF9D806E0D96A11F0805FFBD0396811
:105AB00081F80080D96A11F0F00FFBD0996BB042E9
:105AC000C3D12A49CB6A13F0F00FFBD0274B9B6B55
:105AD0002649CB6A13F0F00FFBD0244B9B6B0EE2F0
