:1000000000800020BD010000EDA50000A5A50000B6
:10001000A5A50000A5A50000A5A50000A5A50000B8
:10002000A5A50000A5A50000A5A50000EDA5000060
:10003000EDA50000A5A50000EDA5000095A5000018
:10004000EDA50000EDA50000EDA50000EDA5000068
:10005000EDA50000EDA50000EDA50000EDA5000058
:10006000EDA50000EDA50000EDA50000EDA5000048
:10007000EDA50000EDA50000EDA50000EDA5000038
:10008000EDA50000EDA50000EDA50000EDA5000028
:10009000EDA50000EDA50000EDA50000EDA5000018
:1000A000EDA50000EDA50000EDA50000EDA5000008
:1000B000EDA50000EDA50000EDA50000EDA50000F8
:1000C000EDA50000EDA50000EDA50000EDA50000E8
:1000D000EDA50000EDA50000EDA50000EDA50000D8
:1000E000EDA50000EDA50000EDA50000EDA50000C8
:1000F000EDA50000F1AF0000EDA500006DC8000007
:10010000EDA50000D9C90000EDA50000EDA5000097
:10011000EDA50000EDA50000EDA50000EDA5000097
:10012000EDA50000EDA50000EDA50000EDA5000087
:10013000EDA50000EDA50000EDA50000EDA5000077
:10014000EDA50000EDA50000EDA50000EDA5000067
:1001500005C1000019C100002DC1000041C100000F
:10016000EDA50000ADB20000EDA50000EDA500007A
:10017000EDA50000EDA50000EDA50000EDA5000037
:10018000EDA50000EDA50000EDA50000EDA5000027
:10019000EDA50000EDA50000EDA50000EDA5000017
:1001A000EDA50000EDA50000EDA50000EDA5000007
:1001B000EDA50000EDA50000EDA50000564B4CF2AA
:1001C000205210B51A804DF628121A8000BF00BFC9
:1001D0000AF010FA514B4FF010621A60504A9A60C0
:1001E000504ADA60504A136813F4807304D14F49BF
:1001F0000B604FF4A85313604D4B1A78110703D5C9
:100200001A7842F008021A704A4B4B492A221A7097
:100210004A4A4B4B8B4204D252F8040F43F8040B6A
:10022000F8E7484B484900228B4202D243F8042B9E
:10023000FAE74649464A002352F8230041F82300D2
:1002400001336F2BF8D1434B434A802103F8011B44
:100250009342FBD1414B3D4A1A60414B8A221A70AE
:10026000A3F5805324225A70A0221A709A7992071B
:10027000FCD59A79D406FCD43A4A937903F00C035E
:10028000082B384BF9D105221A7143225A719A79F9
:100290009006FCD5334A9179324B4906FBD5324A58
:1002A0004FF0817111600521516020221A709A79F6
:1002B00002F00C020C2AFAD12C4B2D4A1A602D4B5D
:1002C0002D4A1A6000225A60072243F8042C2B4A58
:1002D000C3F80C2D62B60AF0C3FA144B1B68DA0798
:1002E00005D527480AF02AFA264B274A1A60274BD9
:1002F0001B785B0609D5234C234B22689A4204D114
:100300001F480AF01BFA002323600DF0A5FD0AF038
:1003100077F90CF01FFAFEE70E200540308004400C
:10032000823F04000100002B10D0034014D0034092
:1003300002D0074000E00740F091FF1F046A01006F
:100340002087FF1FF091FF1F30A2FF1F0082FF1FB9
:100350000000000000E400E05FE400E008ED00E0E1
:1003600000500640004006404480044004800440A1
:10037000C010050014E000E03F190100000020203B
:100380008039F25E1CE00340A5C3945A00F0074098
:10039000FFFFFFFFFFFFFFFFFFFFFFFFFFFFFFFF6D
:1003A000FFFFFFFFFFFFFFFFFFFFFFFFFFFFFFFF5D
:1003B000FFFFFFFFFFFFFFFFFFFFFFFFFFFFFFFF4D
:1003C000FFFFFFFFFFFFFFFFFFFFFFFFFFFFFFFF3D
:1003D000FFFFFFFFFFFFFFFFFFFFFFFFFFFFFFFF2D
:1003E000FFFFFFFFFFFFFFFFFFFFFFFFFFFFFFFF1D
:1003F000FFFFFFFFFFFFFFFFFFFFFFFFFFFFFFFF0D
:10040000FFFFFFFFFFFFFFFFFFFFFFFFDEF9FFFF23
:1004100010B5054C237833B9044B13B10448AFF33E
:1004200000800123237010BDF091FF1F0000000029
:10043000006A0100084B10B51BB108490848AFF32A
:1004400000800848036803B910BD074B002BFBD0A0
:10045000BDE81040184700BF00000000F491FF1FE6
:10046000006A0100F091FF1F0000000000207047AB
:100470000249034A00230B60136070471896FF1F60
:10048000A896FF1F10B52C4C216851B121682A4B4A
:1004900001291AD01A68022A07D01C68032C20D020
:1004A00010BD03200AF05CF9F0E7012103200AF0F7
:1004B00057F964200AF084F9002103200AF050F96A
:1004C0004FF496700AF07CF9012103200AF048F9F4
:1004D00064200AF075F900210320BDE810400AF0FD
:1004E0003FB9012120460AF03BF964200AF068F97F
:1004F000002120460AF034F94FF496700AF060F9B2
:10050000012120460AF02CF964200AF059F9002153
:1005100020460AF025F94FF496700AF051F90121AE
:1005200020460AF01DF964200AF04AF9204600210D
:10053000BDE810400AF014B92887FF1F38B5054CF4
:10054000A4F580752046103C0BF0B4FFAC42F9D105
:1005500038BD00BF7498FF1F10B504460BF0BCFDFA
:10056000204610BD1B4A137810B5DBB11A4C236826
:10057000013323602368102B06D92268174B1340E0
:10058000002B21DB236010BD0121154801FA03F384
:10059000184080B11378002BEFD0002105200AF01D
:1005A000DFF8EAE703F0FF0105200AF0D9F80A4B6B
:1005B00001221A6010BD42F22E2018400028DCD023
:1005C0001378002BD9D0E9E7013B63F00F03013327
:1005D000236010BD3487FF1F1492FF1F0F0000809F
:1005E000D0DD0100074B084A1B6882B042F20F7051
:1005F0000193019B12689B1A83428CBF002001204B
:1006000002B07047F49DFF1FA896FF1F2DE9F84325
:100610008B680746441EEBB9DFF88880DFF88890C6
:1006200025011D4E1D4904EB4400331800224544AA
:100630003254802628465A709E700BF0DDFF092C3C
:1006400028461DDD21460CF027F8012309F8043067
:10065000BDE8F883082B11D8DFF84880DFF8489010
:100660000E46250108EB05000BF0BEFFB368012222
:1006700009F80420002BD4D0BDE8F883BDE8F88346
:1006800007490BF0FBFF39460CF006F8012309F887
:100690000430BDE8F88300BF5497FF1F28570100BE
:1006A000585801008497FF1F289CFF1F70B588B021
:1006B00006460D4604A81149114C0BF03BFF0A22D7
:1006C000314668460BF068FF694604A80BF0F8FF56
:1006D0000C490BF0FDFF29460BF0F2FF01462046C6
:1006E0000BF038FD20460BF05BFD68460BF0E2FE98
:1006F00004A80BF0DFFE08B070BD00BF305701004A
:100700009487FF1F3857010000B5084A084B12684C
:10071000084883B001210192019A1A600BF0FAFA9D
:10072000054B01221A7003B05DF804FBF49DFF1F16
:10073000A896FF1F485701001892FF1F70B58CB094
:100740000A4602A9044608F02DFB01AA3C4902A86A
:100750000EF0E2F92046002108F062FA394B1B78CE
:1007600006461BBB019B384C226837499A421BDB6B
:100770000A689A4218DB5C1E344D04EB44031D44A6
:100780000021AB7843F00403AB7030460DF06EF9F6
:100790002F4AAB78127868B303F0FE03AB70002ADF
:1007A0004AD12C4B01221A550CB070BD15212A4894
:1007B000254C0BF0AFFA019928480BF057FD0B219F
:1007C00027480BF0A7FA002130460DF04FF9B0FA98
:1007D00080F1490921480BF049FD2268019B9342B1
:1007E000C2DD12211F480BF095FA1C480BF0D8FC13
:1007F000019BB9E743F00103AB70002AD1D01A493D
:1008000008A80BF097FE0A22019904A80BF0C4FE79
:1008100004A908A80BF054FF014610480BF09AFCFD
:100820000E480BF0BDFC04A80BF044FE08A80BF02A
:1008300041FE019B5C1EB4E708A80C49E1E700BF3C
:100840004C570100BC96FF1FA09BFF1F1C92FF1F6F
:100850005097FF1FC096FF1F505701009487FF1F3E
:100860006857010074570100885701009C57010028
:1008700030B593B00A460DA9044608F093FA01AAD0
:1008800021490DA80EF048F9082302AA00212046AC
:1008900008F0F6F902A905A80BF04CFE1B4B1B78DB
:1008A000A3B9019C1A4D09A805A90BF057FE2B68A6
:1008B000A34203DB204609A9FFF7A8FE09A80BF015
:1008C000F9FD05A80BF0F6FD13B030BD1521114858
:1008D0000F4D0BF01FFA01990F480BF0C7FC0921CF
:1008E0000E480BF017FA05A90B480BF033FC0A4829
:1008F0000BF056FC2B68019C9C42D4DD1221084869
:100900000BF008FA019CCEE74C570100BC96FF1F84
:100910000C92FF1FB45701009487FF1FCC570100B2
:100920007457010030B58DB00A4602A9044608F09C
:1009300039FA01AB6A46374902A80EF0EDF80021FA
:10094000204608F06DF90DF0C3F8334B1B780546CF
:1009500013BB009B314C22689A4213DB304931486B
:100960005A1E02EB42030B440078997841F00801CB
:100970009970997845B141F00201997050BB2A4BAA
:10098000012199540DB030BD01F0FD01997000288E
:10099000F5D008A825491FE0142125481F4C0BF06D
:1009A000B9F9009923480BF061FC0B2122480BF0A8
:1009B000B1F929461F480BF059FC1E480BF0F0FB1B
:1009C0002268009B9342C6DD12211C480BF0A2F95D
:1009D000009BC0E71A4908A80BF0ACFD0A22009959
:1009E00004A80BF0D9FD04A908A80BF069FE014684
:1009F00010480BF0AFFB0F480BF0D2FB04A80BF034
:100A000059FD08A80BF056FD009B5A1E064B01210C
:100A10009954B7E7D8570100BC96FF1FA09BFF1F52
:100A20001C92FF1F5097FF1FC096FF1F0858010020
:100A3000E05701009487FF1F6857010074570100B9
:100A4000F857010038B5044608460D460EF018FB6D
:100A50002368024629465B6820469847054620469B
:100A60000BF09EFB284438BDF0B5184C184D236898
:100A7000184E83B00F460193019B2B604FF47A62AE
:100A80004EF6602103F0A4FB23680093009B3360C3
:100A900044B29FB1ACB10E210F480BF03BF92B686B
:100AA00031680E48C91A0A2200230BF09FFB05216A
:100AB0000B480BF02FF909480BF072FB204603B0EE
:100AC000F0BD102107480BF025F9E8E7F49DFF1F62
:100AD000AC96FF1FAC9CFF1F2C5801009487FF1F92
:100AE0003C58010018580100F0B57A4C83B02368D7
:100AF0000093009E002740F6B73503E00BF0E0F8C6
:100B0000002837D123680193019B9B1BAB42F5D989
:100B100077B3FBB2303B232B2AD8DFE803F038450C
:100B200053616F7D8B299929292929292929292967
:100B300029292929AA2929292929292929292929A4
:100B40002912654C654E664D6648674900230122AF
:100B5000237032702A7003700B7053242121634874
:100B60000BF0D8F820460BF059F961480BF018FB50
:100B700003B0F0BD07215F480BF0CCF80BF07EF915
:100B80000BF062F80746C0B20BF048F9BAE7524CD6
:100B9000524D54485449524A002323702B7003701D
:100BA0000B7013703024D9E74B4C4C4D4D484E49D7
:100BB0004B4A0023012623702E7003700B701370B4
:100BC0003124CBE7444C454E464D47484449002329
:100BD0000122237032702A7003700B703224BDE73B
:100BE000414C3E4E3F4D3C483D490123002223707D
:100BF00033702B7002700A703324AFE7394C374ED4
:100C0000354D3948364901230022237033702B704B
:100C100002700A703424A1E7324C304E2E4D324817
:100C20002F4A01230021237033702B700370117041
:100C3000352493E72B4C294E274D2B482849002378
:100C40000122237032702A7003700B70362485E7FE
:100C50002249214F234E244D2148274A01230024B5
:100C60000B70052104703B7033702B7011703824A9
:100C700074E71F480BF094FA0D2120480BF04AF856
:100C800003211F480BF046F819480BF089FA0BF0C6
:100C9000F5F826211B480BF03DF815480BF080FABB
:100CA0000BF0ECF80121032009F05AFD00210E2081
:100CB00009F056FD642009F083FD01210E2009F0A2
:100CC0004FFD0021032009F04BFD642009F078FD61
:100CD000E8E700BFF49DFF1F9693FF1F5097FF1F8B
:100CE0001C96FF1FBC96FF1F5197FF1F88580100DD
:100CF0009487FF1F445801002C87FF1F4C580100A8
:100D00005C58010060580100F0B5C74AC749146833
:100D1000C74DC84F91B040F6C4100B783BB12B784B
:100D20009B0704D013683E689B1B182B03D81368DD
:100D30001B1B8342F1D90121092009F017FD002175
:100D4000092009F00DFD01210A2009F00FFD012104
:100D50000A2009F005FD0121042009F007FD012109
:100D6000042009F0FDFC0121092009F0F9FC3521DE
:100D7000B1480AF0CFFFB1480BF012FA0BF07EF841
:100D80000121052009F0F2FC0121032009F0EEFC0D
:100D900001210E2009F0EAFC0121032009F0E0FC0A
:100DA00000210C2009F0E2FCFFF79EFE022009F072
:100DB0008FFA0C2009F0B2FA0025FF24262009F052
:100DC000E1FA0CF06BFC014628460CF0B3FB05463B
:100DD0000A2009F0F5FC631E13F0FF04EED1122186
:100DE0009748984E0AF096FF284697490CF05EFD0A
:100DF000014696480CF09CFB95490CF0A3FC9549E4
:100E00000CF098FB0CF01CF802250B4602460095EE
:100E10008A480BF035FA0A218F480AF07BFF874891
:100E20000BF0BEF912218D480AF074FF03218C48A3
:100E30000AF070FF81480BF0B3F909F025F88949F1
:100E400002467E480BF0C4F98749884B884A0868F7
:100E50001B6812680190043907A809680091854948
:100E60000DF034FE122184480AF054FF07A80EF05A
:100E700007F9014607A80AF04DFF70480BF090F9FA
:100E80003546204609F044FB0134042C05F8010BDB
:100E9000F7D13368013333606A4E0024354620466B
:100EA00015F8011B013409F04DFB042CF7D1734FE9
:100EB0003D46204609F02CFB0134082C05F8010BB7
:100EC000F7D112216E480AF025FF00230A2231686B
:100ED0005A480BF08BF959480BF062F90AF0CEFF33
:100EE000122168480AF016FF0023396853480A2285
:100EF0000BF07CF951480BF053F90AF0BFFF624B3D
:100F00001B78002B40F0438103AE35215F480AF087
:100F100001FF4A480BF044F90AF0B0FF1D215C487C
:100F20000AF0F8FE45480BF03BF908F0D3FF024603
:100F30000B46424857490BF04BF9172156480AF027
:100F4000E9FE3E480BF02CF9544808F0E9FF012473
:100F5000042153480AF0DEFE00230A2221463748C6
:100F60000BF044F901214F480AF0D4FE01214B480F
:100F7000FFF77AFDC5B2294600230A222F480BF05D
:100F800035F90221484801340AF0C4FE002DDFD0B3
:100F9000122146480AF0BEFE0021032009F0E0FBC2
:100FA00010AC0F2142480AF0B5FE304603F0D8FAE3
:100FB000002314F8301D21480A220BF017F90DF117
:100FC000130501213B480AF0A5FE304603F0C8FA9C
:100FD00014F8011F194800230A220BF007F9A54253
:100FE000EFD116480BF0DCF84FF4FA7009F0E8FB8B
:100FF000212131480AF08EFE10480BF0D1F82F491C
:101000002F4806F063F8002800F0B58022212D4813
:101010000AF080FE09480BF0C3F80021032009F014
:101020009FFB294D52E000BFF49DFF1FF09FFF1F63
:1010300008A0FF1F28A2FF1FAC5801009487FF1FC4
:10104000E4580100A496FF1F00007F430A6319457E
:101050000FEE2E3E0000C841F8580100045901006F
:101060005C58010018590100608004405880044019
:10107000548004403059010048590100A49BFF1FCF
:101080005C590100705901001C96FF1F985901001E
:10109000D0590100F05901000C5A0100B096FF1F11
:1010A000245A0100D05E0100005F01002C5A0100AB
:1010B000405A01007C5A0100505A0100745A010044
:1010C000749DFF1F805A01003887FF1F3D492A8801
:1010D0003D4800240094012306F01CFC00283ED06B
:1010E00033213A480AF016FE39480BF059F82146E8
:1010F000032009F035FB4FF4907009F085FC842043
:1011000009F0F0FC334C022009F088FD29883248B0
:1011100003F0C0FA314A324920460AF093FF2168B1
:101120005022227121B12F4B2F480B441B111A540E
:101130002E4C582009F044FB2D4A2E4920460AF037
:1011400081FF2168FF22227121B1264B26480B44E2
:101150001B111A54284B00221A7011B0F0BD262121
:1011600026480AF0D7FD1A480BF01AF8012103208F
:1011700009F0F6FABFE73B2121480AF0CBFD1448FD
:101180000BF00EF80121032009F0EAFA49E707A85D
:1011900008F050FE102108F08BF903AE044612212E
:1011A00018480AF0B7FD214630460BF0C3F9314626
:1011B00007480AF0CFFF06480AF0F2FF30460BF06E
:1011C00079F9A2E6E05A0100749DFF1FF05A010070
:1011D0009487FF1F4897FF1F809BFF1F8F5F0100B1
:1011E00065050000008FFCBF44E400E04097FF1F4E
:1011F000FFA14A04850400009793FF1F245B0100B0
:10120000A45A01008459010070B51E4E88B0042410
:101210003546204609F07CF90134082C05F8010B0D
:10122000F7D1336801333360164E04243546204627
:1012300015F8011B013409F085F9082CF7D1642059
:1012400009F0BEFA104B1B78CBB1104968460BF081
:1012500071F90A22316804A80BF0B2F904A96846B2
:101260000BF02EFA01460A480AF074FF08480AF00B
:1012700097FF04A80BF01EF968460BF01BF908B0A5
:1012800070BD00BFA49BFF1F5097FF1F4C5B010068
:101290009487FF1F2DE9F84FDFF88490D9F80030CC
:1012A000002B34DD00241B4DDFF87880DFF878A0B8
:1012B0002746012612E00BF0E1F93146B3460BF068
:1012C000EBF901230AF80430D9F800305B4505F149
:1012D000100506F1010604F1010418DD04EB4402D7
:1012E00008EB02034FF0080E0B4908F8027028467D
:1012F0005F7083F802E00BF07FF9092C074928465C
:10130000D9D9214628460BF0C7F9B346D9E7BDE83D
:10131000F88F00BF8497FF1F28570100585801001D
:101320000C92FF1F5497FF1F289CFF1FAA4B1B689E
:10133000002B40F350812DE9F04FDFF8D082DFF829
:10134000D0B2A64EA64C87B0002501E009F0DCFD26
:1013500009F0CAFD0028F9D105F201106F0009F06B
:1013600027FD09F0A3FD7B1908EB030118F8032002
:10137000D2B20BF803204A785B44D2B25A708A7812
:10138000D2B29A7009F0F8F9306009F0ADFD236827
:10139000984217DB09F0A8FD236898421DDA9149AD
:1013A00000224FF4E1534A55013BFDD14FF4526303
:1013B000013BFDD1884B1B680135AB42C8DC07B04F
:1013C000BDE8F08F09F0D8F93368C01A9528DCD948
:1013D00009F08AFD23689842E1DB834900224A55DF
:1013E000804A01235355814B804A1B6801331360A7
:1013F00009F08AFD824609F087FD009009F084FD1E
:101400007B4B5B5D03F0FF09002B62D0DFF804A289
:101410007B190AEB03091AF8030009F0C9FC99F8D3
:10142000010009F0C5FC99F8020009F0C1FC714BFC
:101430005B5D322B00F0AA806D4A002353557B1967
:101440000AEB03001AF8032052070FD51AF803100D
:1014500018F8032001F0030102F0FC020A4308F827
:10146000032042784344D2B259785A707B190AEB70
:1014700003029178490708D5434491789A7801F09E
:10148000010102F0FE020A439A707B190AEB030283
:101490009178080708D5434491789A7801F00201C1
:1014A00002F0FD020A439A702F441AF80730190718
:1014B0000AD51AF8072018F8073002F0F00203F0F6
:1014C0000F03134308F807304FF45263013BFDD17B
:1014D0006CE70190484609F06BFC484609F068FC4F
:1014E000484609F065FC7919019A9DF8009008EBCF
:1014F00001035FFA8AFA08F801A0D2B283F80190DA
:101500009A709A7852060AD5594458784A78904287
:1015100050D0354B344A5B5D43F0010353557B1982
:1015200008EB03025B4492789B7853405B0605D539
:101530002D4B2D4A5B5D43F0080353557B1908EB97
:1015400003025B4492789B78534013F0130F05D04D
:10155000254B254A5B5D43F0020353552F4418F891
:1015600007201BF807301B09B3EB121F05D01E4BD9
:101570001D4A5B5D43F0040353551B4B5B5D002B21
:101580003FF414AF1C4B01221A700FE71B4B1C4990
:101590001B68EB1A013301EB031102A80AF0DEFF0E
:1015A00002A918480AF0D6FD09F080FC02A80AF04A
:1015B00081FF41E714485A78007891F801C0C0F1E2
:1015C000000ECCEB02027245A3DD5B784A789B1AD1
:1015D00098429EDDA3E77047A09BFF1F1092FF1F5C
:1015E0003087FF1F1C94FF1FA89BFF1F9893FF1FAE
:1015F000C096FF1F2096FF1F2D87FF1FA096FF1F7D
:101600008497FF1F7487FF1F2C87FF1F049AFF1FFB
:101610008898FF1F1C92FF1F10B588B001A807F023
:10162000BBFA524803F002F900280FDD441E4F4870
:1016300003F09AF8013CC1B201A807F027FF631C30
:10164000F5D101A807F0E0FB044620B101A807F09E
:10165000D9FA08B010BD01210E2009F081F8234607
:10166000434A444901A807F08DFB2346424A4349B7
:1016700001A807F087FB2346414A424901A807F029
:1016800081FB2346404A414901A807F07BFB2346E2
:101690003F4A404901A807F075FB23463E4A3F49AF
:1016A00001A807F06FFB23463D4A3E4901A807F019
:1016B00069FB23463C4A3D4901A807F063FB2346EA
:1016C0003B4A3C4901A807F05DFB23463A4A3B49A7
:1016D00001A807F057FB2346394A3A4901A807F009
:1016E00051FB2346384A394901A807F04BFB2346F2
:1016F000374A384901A807F045FB2346364A37499F
:1017000001A807F03FFB2346354A364901A807F0F8
:1017100039FB2346344A354901A807F033FB2346F9
:10172000334A344901A807F02DFB2346324A334996
:1017300001A807F027FB2346314A324901A807F0E8
:1017400021FB2346304A314901A807F01BFB234601
:101750002F4A304901A807F015FB21460E2008F05A
:10176000FFFF01A807F04EFA08B010BD809BFF1FD5
:101770003D070000605B0100250900006C5B010073
:101780006D2C00007C5B0100992D00008C5B01003A
:10179000710800009C5B010009220000B05B0100A1
:1017A000191A0000BC5B010071040000C45B010059
:1017B00009070000CC5B0100C1280000D45B0100D8
:1017C00081280000E05B01007D240000EC5B01004B
:1017D0009D220000F85B0100DD220000105C01008A
:1017E0001D230000245C01008D230000385C0100F3
:1017F000CD230000505C01000D240000605C01005E
:1018000001290000745C010041290000845C010092
:1018100081290000985C0100F0B51D4C237883B04D
:10182000064633B118221346013BFDD12378002B25
:10183000F9D1184D01210E20217008F091FF6B693C
:1018400093B9154B1B783BB900210E2008F088FF97
:101850000023237003B0F0BD4E2110480AF05AFA5D
:101860000F480AF09DFCEFE70E4A0F4F12880193D4
:1018700069462846009702F061FF2946304607F086
:10188000D9FA284602F060FF304607F08DF9DBE711
:10189000269CFF1F809BFF1F5097FF1FAC5C010021
:1018A0009487FF1F2487FF1F10650100F0B5524980
:1018B000524B534A08681B681268524D9BB004395A
:1018C00001900968009111A84F490DF0FFF811A887
:1018D00008F0B0FA102107F0EBFD04460DF0D0FB44
:1018E00003462868E05049484949467943780278D8
:1018F00007790396C67880788DE8C10004A80DF0BA
:10190000E5F844490AA807F073FA18200AF02AFFFC
:101910000646294607F056F83378032B5BD00C991E
:101920000B98013189000CF0C7FE002853D00C9BA6
:101930000B905A1C40F823600C9218200AF012FFFA
:101940000546214607F03EF82B78032B4FD00C9923
:101950000B98013189000CF0AFFE002847D00C9B9A
:101960000B905A1C40F823500C9218200AF0FAFEF3
:10197000044604A907F026F82378032B33D00C99EA
:101980000B98013189000CF097FE60B30C9B0B9013
:101990005A1C40F823400C9218200AF0E3FE04463B
:1019A00011A907F00FF82378032B18D00C990B9886
:1019B000013189000CF080FE88B10C9B0B905A1C01
:1019C00040F823400C920AA8FFF726FF0AA807F068
:1019D00019F91BB0F0BD03238DF83430ADE70323B4
:1019E0008DF83430EFE703238DF83430D4E7032348
:1019F0008DF83430B9E700BF60800440588004405F
:101A0000548004405C58010030590100B096FF1F1B
:101A1000FC5C01001C5D010008B5074B1B7833B16D
:101A20000E2106480AF076F905480AF0B9FBBDE830
:101A30000840FFF73BBF00BF5097FF1F2C5D010020
:101A40009487FF1F30B5184D0FCD8DB06C460FC475
:101A50002B682380694605A807F0CAF9134B1820A4
:101A60001D680AF07FFE0446294606F0CFFF237862
:101A7000032B14D007990698013189000CF01CFE45
:101A800068B1079B06905A1C40F82340079205A8AE
:101A9000FFF7C2FE05A807F0B5F80DB030BD03236F
:101AA0008DF82030F3E700BF3C5D0100B896FF1FC2
:101AB00030B5184D0FCD8DB06C460FC42B68238008
:101AC000694605A807F094F9134B18201D680AF021
:101AD00049FE0446294606F099FF2378032B14D0CB
:101AE00007990698013189000CF0E6FD68B1079B63
:101AF00006905A1C40F82340079205A8FFF78CFE79
:101B000005A807F07FF80DB030BD03238DF8203015
:101B1000F3E700BF505D01000C92FF1F10B5164B9C
:101B20000FCB8CB06C4607C46946237005A807F03C
:101B30005FF918200AF016FE0446104906F042FF2D
:101B40002378032B14D007990698013189000CF0F3
:101B5000B3FD68B1079B06905A1C40F823400792DA
:101B600005A8FFF759FE05A807F04CF80CB010BD0A
:101B700003238DF82030F3E7645D01002096FF1FFA
:101B8000F0B5324A00EB400313448FB09B7807ADA9
:101B9000DB07064628463BD52D490AF0CBFC2D4BEA
:101BA0001B78002B43D128460AF084FC01272A4BDE
:101BB0000FCB02AC07C40A22237001A9701C0CF0E1
:101BC0008BF901A902A80CF0F9FF02A9284607F039
:101BD0000FF918200AF0C6FD0446394606F040FF0A
:101BE0002378032B1FD009990898013189000CF044
:101BF00063FDC0B1099B08905A1C40F8234009922C
:101C00002846FFF709FE284606F0FCFF0FB0F0BD9E
:101C100012490AF08FFC0F4B1B786BB928460AF06B
:101C200049FC0027C3E703238DF82830E8E729465D
:101C30003046FEF73BFDB6E729463046FEF736FD57
:101C400028460AF037FC0027B1E700BF049AFF1FBF
:101C5000745D01005197FF1F885D01007C5D0100EC
:101C6000F0B5334A00EB400313448FB09B7807ADC7
:101C70009B07064628463ED52E490AF05BFC2E4BB4
:101C80001B78002B46D128460AF014FC01272B4B69
:101C90000FCB02AC07C424F8023B1B0C23700A22B2
:101CA00001A9701C0CF018F901A902A80CF086FF1C
:101CB00002A9284607F09CF818200AF053FD0446B4
:101CC000394606F0CDFE2378032B1FD009990898DA
:101CD000013189000CF0F0FCC0B1099B08905A1C3E
:101CE00040F8234009922846FFF796FD284606F063
:101CF00089FF0FB0F0BD12490AF01CFC0E4B1B7897
:101D00006BB928460AF0D6FB0027C0E703238DF8FD
:101D10002830E8E729463046FEF7C8FCB3E72946F5
:101D20003046FEF7C3FC28460AF0C4FB0027AEE7A6
:101D3000049AFF1F985D01005197FF1FB05D0100DD
:101D4000A45D010070B500EB40032D4A2D49D55C20
:101D500090B006462D0904A80AF0ECFB0A22294699
:101D600068460AF019FC694604A80AF0A9FC014675
:101D700009A80AF0F3FB244B1B781BB109A93046D4
:101D8000FEF794FC09A80AF095FB68460AF092FB5E
:101D900004A80AF08FFB1D4B0FCB04AC07C40A222A
:101DA00023806946701C0CF097F8694604A80CF073
:101DB00005FF04A909A807F01BF818200AF0D2FCB7
:101DC0000446294606F022FE2378032B14D00B99F3
:101DD0000A98013189000CF06FFC68B10B9B0A90E6
:101DE0005A1C40F823400B9209A8FFF715FD09A8DB
:101DF00006F008FF10B070BD03238DF83030F3E714
:101E0000049AFF1FC05D01005197FF1FCC5D0100C8
:101E1000F0B5324A00EB400313448FB09B7807AC17
:101E2000DB06064620463CD52D490AF083FB2D4BA8
:101E30001B78002B44D120460AF03CFB01272A4B9B
:101E400093E8070002AD85E807000A2201A9701C8B
:101E50000CF042F801A928460CF0B0FE29462046B5
:101E600006F0C6FF18200AF07DFC0546394606F04C
:101E7000F7FD2B78032B1FD00999089801318900B1
:101E80000CF01AFCC0B1099B08905A1C40F8235072
:101E900009922046FFF7C0FC204606F0B3FE0FB0C3
:101EA000F0BD12490AF046FB0E4B1B786BB9204679
:101EB0000AF000FB0027C2E703238DF82830E8E78B
:101EC00021463046FEF7F2FBB5E721463046FEF7E5
:101ED000EDFB20460AF0EEFA0027B0E7049AFF1F58
:101EE000DC5D01005197FF1FEC5D0100E45D010026
:101EF00000B589B0064901A806F07AFF01A8FFF7EE
:101F00008BFC01A806F07EFE09B05DF804FB00BF63
:101F1000CC5B0100F0B5354B05460FCB8FB002AC62
:101F200007C40A2201A9681C23800BF0D5FF01A970
:101F300002A80CF043FE2E4A05EB450313449B78A0
:101F400003F04003002B3FD12A4F03F0FF0607ACFC
:101F50003B7893B11C21284809F0DCFE294627482C
:101F60000AF084F90B21264809F0D4FE31462348B3
:101F70000AF07CF921480AF013F902A9204606F07C
:101F800037FF18200AF0EEFB0546314606F068FDE3
:101F90002B78032B14D009990898013189000CF093
:101FA0008BFB68B1099B08905A1C40F8235009929A
:101FB0002046FFF731FC204606F024FE0FB0F0BDAE
:101FC00003238DF82830F3E707AC0A4F0D4920466C
:101FD0000AF0B0FA3B7823B920460AF06BFA0126E2
:101FE000B6E721462846FEF761FBF5E7F85D0100FC
:101FF000049AFF1F5197FF1F145E01009487FF1F73
:1020000068570100085E01002DE9F047DFF8EC9108
:102010004FEA400808EB000309EB030296B09478FE
:1020200019F8036004F04004E4B2F6B219B914B927
:1020300016B0BDE8F087DFF8C8A16A4905460FA8C9
:102040000AF078FA9AF80030002B40F0C5800FA80B
:102050000AF030FADFF8ACE1BEE80F000AAF0FC7B4
:10206000DEF800303B700A2201A9681C0BF034FF37
:10207000A84401A90AA80CF0A1FD09EB080319F86E
:1020800008709AF800205B7807F00307003418BF47
:102090000124C6F3800603EB0727002A55D10AA9BD
:1020A0000FA806F0A5FE18200AF05CFB054639468D
:1020B00006F0ACFC2B78032B00F08280119910986D
:1020C000013189000CF0F8FA002879D0119B1090AA
:1020D0005A1C40F82350119218200AF043FB054681
:1020E000214606F0BDFC2B78032B71D01199109876
:1020F000013189000CF0E0FA002869D0119B1090A2
:102100005A1C40F82350119218200AF02BFB044669
:10211000314606F0A5FC2378032B55D01199109871
:10212000013189000CF0C8FA00284DD0119B1090A5
:102130005A1C40F8234011920FA8FFF76DFB0FA81F
:1021400006F060FD16B0BDE8F0871C21264809F0B6
:10215000E1FD294625480AF089F80921244809F0BB
:10216000D9FD394621480AF081F806A821490AF02C
:10217000E1F90A22214602A80AF00EFA02A906A8ED
:102180000AF09EFA1C490AF0A3FA0A2205463146D3
:102190000FA80AF001FA0FA928460AF091FA0146A1
:1021A000124809F0D7FF114809F0FAFF0FA80AF00A
:1021B00081F902A80AF07EF906A80AF07BF96EE719
:1021C00003238DF8483087E703238DF84830B3E7C1
:1021D00003238DF8483097E70FA92846FEF766FAE3
:1021E00035E700BF345E0100585E01009487FF1F91
:1021F000785E0100845E0100905E0100049AFF1F7A
:102200005197FF1F445E010038B5144B1B78E3B9AA
:10221000134D2B68002B17DD002401212046FFF70A
:10222000F3FE2046FFF7ACFC2046FFF719FD2046E1
:10223000FFF7EEFD2046FFF785FD2046FFF76AFE1B
:102240002B680134A342E8DC38BD0921054809F0B8
:1022500061FD054809F0A4FFDAE700BFBC96FF1F47
:10226000A09BFF1F9C5E01009487FF1F08B540F2F2
:10227000FF1008F09DFD002008F09AFD002008F0F6
:1022800097FD002008F094FD002008F091FD01204A
:1022900008F08EFDBDE8084008F008BE024A136849
:1022A000002BFCD1FFF7E2BF1492FF1F08B540F2EC
:1022B000FF1008F07DFD012008F07AFD002008F0F5
:1022C00077FD002008F074FD002008F071FD01206A
:1022D00008F06EFDBDE8084008F0E8BD024A13684A
:1022E000002BFCD1FFF7E2BF1492FF1F08B540F2AC
:1022F000FF1008F05DFD022008F05AFD002008F0F4
:1023000057FD002008F054FD002008F051FD012089
:1023100008F04EFDBDE8084008F0C8BD024A136849
:10232000002BFCD1FFF7E2BF1492FF1F08B540F26B
:10233000FF1008F03DFD032008F03AFD002008F0F2
:1023400037FD002008F034FD002008F031FD0020AA
:1023500008F02EFDBDE8084008F0A8BD08B540F221
:10236000FF1008F025FD042008F022FD002008F0F1
:102370001FFD002008F01CFD002008F019FD0120C1
:1023800008F016FDBDE8084008F090BD024A136849
:10239000002BFCD1FFF7E2BF1492FF1F08B540F2FB
:1023A000FF1008F005FD052008F002FD002008F0F0
:1023B000FFFC002008F0FCFC002008F0F9FC0020E5
:1023C00008F0F6FCBDE8084008F070BD024A13684A
:1023D000002BFCD1FFF7E2BF1492FF1F08B540F2BB
:1023E000FF1008F0E5FC062008F0E2FC002008F0F1
:1023F000DFFC002008F0DCFC002008F0D9FC002005
:1024000008F0D6FCBDE8084008F050BD024A136849
:10241000002BFCD1FFF7E2BF1492FF1F08B540F27A
:10242000FF1008F0C5FC072008F0C2FC002008F0EF
:10243000BFFC002008F0BCFC002008F0B9FC002024
:1024400008F0B6FCBDE8084008F030BD08B540F221
:10245000FF1008F0ADFC0A2008F0AAFC002008F0EC
:10246000A7FC002008F0A4FC002008F0A1FC00203C
:1024700008F09EFCBDE8084008F018BD024A136849
:10248000002BFCD1FFF7E2BF1492FF1F2DE9F04FA4
:10249000A549DFF8C092A54B00220A6089B0C9F8AF
:1024A000002003F17E01302203F8012F9942FBD175
:1024B0009F4ADFF8B0A201231370DAF80030012B35
:1024C000FBD1FFF733FF4FF47A7008F079F9192147
:1024D000984809F01FFC984809F062FEDAF800609D
:1024E000012EFBD14FF4C653013BFDD1934F944DC8
:1024F000944CB84601E008F007FD08F0F5FC002810
:10250000F9D106F5807008F053FC08F0CFFC08F014
:1025100033F9286008F0E8FC23689842C0F224816F
:1025200008F0E2FC2368984280F22C814FF4E153DA
:10253000013BFDD101367F2E08F10108DDD1DAF82B
:102540000030052BFBD101264FF4616801E008F053
:10255000DBFC08F0C9FC0028F9D106F5807008F012
:1025600027FC08F0A3FC08F007F943462860013B6C
:10257000FDD108F0B9FC23689842C0F29F8008F0B2
:10258000B3FC2368984280F2A6804FF4E153013BEC
:10259000FDD14FF45263013BFDD101367F2E07F18F
:1025A0000107D6D14FF47A7008F00AF9FFF736FF29
:1025B0004FF4FA7008F004F9FFF748FF5C4A5F49EE
:1025C000614C00236846137009F0B4FF312168465E
:1025D0000AF0BCF85949054604A809F0ABFF3221BE
:1025E00004A80AF0B3F88542B8BF054604A82560E0
:1025F00009F060FF684609F05DFF23685348544DB9
:1026000001330D21236009F085FB21684A4809F058
:102610002DFE494809F0C4FD2B78002B00F0E18025
:10262000D9F800304B4CEBB14B4904A809F082FFBC
:102630000A222168684609F0AFFF694604A80AF03B
:102640003FF801463C4809F085FD3B4809F0A8FDEC
:10265000684609F02FFF04A809F02CFF2B78002B07
:1026600000F0DD80304B304C1B68002B00F0BF8049
:102670003A4904A809F05EFF0A222168684609F079
:102680008BFF694604A80AF01BF801462A4809F0A6
:1026900061FD294809F084FD684609F00BFF04A894
:1026A00009F008FFD9F80030002B00F0BB802B7830
:1026B000002B40F09F8009B0BDE8F08F08F05CF877
:1026C0002B68C01A95287FF654AF08F00DFC2368DC
:1026D0009842FFF65AAF08F017FC08F015FC08F016
:1026E00013FC8246002008F063FB002008F060FB2A
:1026F0005FFA8AFA002008F05BFBBAF1800F3FF422
:1027000048AFD9F80030164801330D21C9F8003020
:1027100009F000FB3146084809F0A8FD064809F019
:102720003FFD31233B7034E70C92FF1F1F96FF1FC4
:102730003487FF1FA85E01009487FF1F2096FF1FAC
:102740001092FF1F3087FF1FA09BFF1FE45E010058
:102750005097FF1FB896FF1F045F0100345F010010
:10276000D45E01001492FF1F08F006F82B68C01A0F
:10277000B0F5967FFFF4CEAE08F0B6FB2368984222
:10278000FFF6D4AE08F0C0FB08F0BEFB08F0BCFBBF
:102790008346002008F00CFB002008F009FB002015
:1027A00008F006FB5FFA8BF3802B7FF4C3AE214B5E
:1027B0001B680BB91F4B1E601F4B1F4A1B681F482D
:1027C0004FF0320E013388F800E00D21136009F05C
:1027D000A1FA31461A4809F049FD194809F0E0FC10
:1027E000A8E6D9F80030EBB109B0BDE8F08FD9F810
:1027F0000030BBB10A21134809F08CFA124904A831
:1028000009F098FE04A90E4809F0A4FC0C4809F050
:10281000C7FC04A809F04EFE09B0BDE8F08F23689C
:10282000002BE1D10121094809F074FA09B0BDE893
:10283000F08F00BFA096FF1F0C92FF1FC45E010027
:102840009487FF1FF85E01002096FF1FF45E0100D1
:1028500008B540F2FF1008F0ABFA0B2008F0A8FA18
:10286000002008F0A5FA002008F0A2FA002008F0E5
:102870009FFA002008F09CFABDE8084008F016BB5B
:10288000024A1368002BFCD1FFF7E2BF1492FF1F2E
:1028900008B540F2FF1008F08BFA0C2008F088FA17
:1028A000002008F085FA002008F082FA002008F0E5
:1028B0007FFA002008F07CFABDE8084008F0F6BA7C
:1028C000024A1368002BFCD1FFF7E2BF1492FF1FEE
:1028D00008B540F2FF1008F06BFA0D2008F068FA16
:1028E000002008F065FA002008F062FA002008F0E5
:1028F0005FFA002008F05CFABDE8084008F0D6BA9C
:10290000024A1368002BFCD1FFF7E2BF1492FF1FAD
:1029100008B540F2FF1008F04BFA0E2008F048FA14
:10292000002008F045FA002008F042FA002008F0E4
:102930003FFA002008F03CFABDE8084008F0B6BABB
:10294000024A1368002BFCD1FFF7E2BF1492FF1F6D
:1029500008B540F2FF1008F02BFA0F2008F028FA13
:10296000002008F025FA002008F022FA002008F0E4
:102970001FFA002008F01CFABDE8084008F096BADB
:10298000024A1368002BFCD1FFF7E2BF1492FF1F2D
:102990004C4B2DE9F04F0025DFF848911D60D9F828
:1029A0000030AB4287B040F38A80474FDFF838A150
:1029B000464E474CDFF834B112E008F095FA236830
:1029C00098422ADA00230BF8053042F29043013B8B
:1029D000FDD1D9F800300135AB4207F110076EDDAB
:1029E000DAF80000284400F5807008F0E1F908F0FA
:1029F0005DFA07F0C1FE306008F076FA236898426D
:102A0000DBDA07F0B9FE3368C01AB0F5967FF3D36E
:102A100008F06AFA23689842D4DB01230BF80530EA
:102A2000284B284A1B680133136008F06DFA05EB48
:102A30004508284BC0B203F8080008F065FA254B9A
:102A400003EB0802C0B20192507008F05DFA019ADF
:102A5000C0B24FF452639070013BFDD11E4B5B5DE1
:102A600003F0FF020BB31D4B13F80800984408F065
:102A70009FF908F01BFA98F8010008F099F908F09E
:102A800015FA98F8020008F093F908F00FFA3946A1
:102A900002A809F063FD02A9114809F05BFB08F0E8
:102AA00005FA02A809F006FD8FE71046019208F02A
:102AB0007FF9019A104608F07BF98020E3E707B020
:102AC000BDE8F08F8498FF1F8497FF1F1092FF1FAF
:102AD0003087FF1F9C94FF1F289CFF1F5497FF1FE8
:102AE0007487FF1F0C92FF1FA096FF1F9C93FF1F70
:102AF0004649474A00200860464901230B70136885
:102B0000012BFCD12DE9F04FDFF820B185B0CBF8D7
:102B100000301368052BFCD13F4D404C40F20116AC
:102B20004FF000094FF461674FF4E15801E008F0FD
:102B3000EBF908F0D9F90028F9D1304608F038F956
:102B400008F0B4F907F018FE3B462860013BFDD1C0
:102B500008F0CAF92368984235DB08F0C5F9236804
:102B600098423BDA4346013BFDD14FF45263013BAF
:102B7000FDD140F27F1301369E42DAD168462849E2
:102B800009F0D8FCDBF80030002B03DD694601209A
:102B9000FDF73CFD684609F08DFCFFF7F9FE1D4A84
:102BA000204800230121137009F0B4F8B9F1000F97
:102BB0001D4BD4BF4FF000094FF0010983F800907E
:102BC00005B0BDE8F08F07F0D7FD2B68C01A952837
:102BD000BED908F089F923689842C3DB08F094F95C
:102BE00008F092F908F090F98246002008F0E0F829
:102BF000002008F0DDF8002008F0DAF85FFA8AF328
:102C0000802B18BF09F10109AFE700BFB896FF1F7D
:102C10001492FF1F3487FF1F1092FF1F3087FF1F82
:102C20005C5F0100685F01001696FF1F0C92FF1F9A
:102C3000F8B54E1EB6000F2303FA06F699B101F15E
:102C40008045013D0C460746AD0007EA0601E94014
:102C500000231022044809F0C9FA013C4FEA161675
:102C6000A5F10405F1D1F8BD9487FF1FF0B585B03B
:102C70000A4602A9044606F095F801AA3849394DDA
:102C800002A80BF049FF2046002105F0C9FF0AF019
:102C90001FFF2B78044653B9334B1B78002B37D0DA
:102CA000019B32495A1E8A5C3AB9314D18E0019BAA
:102CB0002E4A013BD35C002B33D010212D4809F064
:102CC00029F801992C4809F0D1FA51212B4809F033
:102CD00021F8294809F064FA2B7813BB019B244D95
:102CE0002A68934212DC013B03EB430124481F4D49
:102CF000425C04F5806402F0FC0242EA2422471898
:102D0000D2B2E4B2012642547C70EE5405B0F0BD5C
:102D10001C4B1B78002BC3D11B4B1B78002BBFD146
:102D2000DCE716211948124D08F0F4FF019912480A
:102D300009F09CFA0821164808F0ECFF0321204610
:102D4000FFF776FF2B68019A9A4204DC0A4809F0E3
:102D500027FA019BC4E712210E4808F0DBFFF5E7D4
:102D60004C570100BC96FF1F9693FF1FC096FF1F94
:102D7000A09BFF1F845F01009487FF1F985F0100E5
:102D80001C92FF1F5197FF1F5097FF1FEC5F010020
:102D9000046001007457010030B585B00A4602A9ED
:102DA000044605F0FFFF01AA204902A80BF0B4FE7B
:102DB0002046002105F034FF0AF08AFE1C4B1B78E8
:102DC0000446ABB91B4D2A68019B93420EDC013BC4
:102DD00003EB43011848194D425C240304F50064D9
:102DE00042EA2424E4B201224454EA5405B030BD3E
:102DF000162113480F4D08F08DFF0199114809F075
:102E000035FA0821104808F085FF02212046FFF717
:102E10000FFF2B68019A9A4203DC0A4809F0C0F9B7
:102E2000D1E71221094808F075FFF6E74C57010079
:102E3000BC96FF1FA09BFF1F1C92FF1FC096FF1F89
:102E4000106001009487FF1F286001007457010083
:102E50002DE9F04F974ADFF8C482DFF8C4920023CF
:102E60001370954B8FB01B680093009D934805F03D
:102E700021FB01F0E1FAFEF7CFFB914B1E78002E0B
:102E800031D1904C2378002B40F0C6828A4B8A4A7D
:102E90001B680193019B5B1BB3F5FA6F80F0B68250
:102EA000844B1A78002A40F07F82874E3368002BCB
:102EB00040F09082854C2368032B06D01F21844864
:102EC00008F028FF834809F06BF903232360336877
:102ED000002B40F088827A4A00231370C6E7784BB3
:102EE0001B78002B3CD0794C7B487C4D1B2108F093
:102EF00011FF784809F054F9FFF7C8FAFEF7A2FD70
:102F0000FEF7D6FDFEF70AFEFEF7C4F9002374486B
:102F1000236009F0E1F82B68012B05D0012007F0B0
:102F20004FFC2B68012BF9D14FF4C653013BFDD167
:102F3000FFF72EFD45F6C053013BFDD1FFF7B6F973
:102F40004FF4E153013BFDD11921664808F0E2FE40
:102F5000604809F025F9644A594901230B70137040
:102F6000624D002B00F08081544805F0A3FA01F077
:102F700063FA2B68002B0CDD00235D4C1A4603EB33
:102F80004300211822544A708A70296801339942FB
:102F9000F5DC4C4C2378002B40F087814A4B1C68B1
:102FA000002C00F08B811B68002B00F0B081FDF736
:102FB00019FB002800F0AB814E4F4F4A474C0023CD
:102FC0003B6013602368012B04D0FEF725FB2368C8
:102FD000012BFAD1DFF84CB1FEF7A8F99BF80030CD
:102FE0001BB998F80030002B57D0444B394819686A
:102FF0000A22002309F0FAF80321414808F08AFE6A
:103000002B68002BC8BF012417DC43E0A24698F8C8
:1030100000304BB119F80630002B00F02881394BF5
:103020009B5D002B40F02C810121374808F072FE97
:103030002B689A4504F101042CDA9BF80030661ED7
:10304000002BE3D019F8063002212046D3B1FFF758
:10305000EFFD01212D4808F05DFE254B06EB4602F1
:1030600003EB020A985C0221FFF7E2FD9AF80100E7
:103070000221FFF7DDFD9AF802000221A246FFF7C8
:10308000D7FDC4E7FFF7D4FD01212148A24608F08F
:1030900041FEBCE70F4809F083F81E4B1B78002B5C
:1030A00000F0D9802B68002B40F3D2801A4E002408
:1030B0004DE000BF1696FF1FF49DFF1F749DFF1F7C
:1030C0009793FF1F1892FF1FA896FF1F2887FF1FC7
:1030D000346001009487FF1FC46101001492FF1F38
:1030E0004097FF1FC06001003487FF1FA09BFF1F98
:1030F0001C92FF1F9893FF1F8498FF1FA89CFF1F1F
:103100003C610100C096FF1F486101004061010061
:10311000446101002D87FF1FA89BFF1F5197FF1FD0
:103120001C94FF1F9693FF1F335D59071ED4335D18
:103130001A0721D4335DDB0724D4335D13B198F82B
:10314000003023BB2B680134A34240F38180335D00
:103150009807E9D52046FEF713FD2046FEF780FDCF
:103160002046FEF755FE335D5907E0D52046FEF7B1
:10317000E9FD335D1A07DDD52046FEF7CBFE335D52
:10318000DB07DAD500212046FEF73EFFD5E7BA4936
:103190000AA809F0CFF90A22214606A809F0FCF98D
:1031A00006A90AA809F08CFAB44909F091FA014677
:1031B000B34808F0CFFF06A809F07CF90AA809F087
:1031C00079F9B04B04EB440A03EB0A0B13F80A003D
:1031D0000221FFF72DFD9BF801000221FFF728FDDA
:1031E0009BF802000221FFF723FD0621A64808F004
:1031F00091FDA64B03EB0A0B13F80A000221FFF71F
:1032000017FD9BF801000221FFF712FD9BF8020059
:103210000221FFF70DFD05219D4808F07BFD9D4B28
:1032200013F80A009A440221FFF702FD9AF8010000
:103230000221FFF7FDFC9AF802000221FFF7F8FCDB
:103240008F4808F0ADFF2B680134A3423FF77FAFF2
:10325000914A002313703B68002B00F082808F4B53
:103260001B78002B7FF480AE0FB0BDE8F08F2046B6
:103270000221FFF7DDFC0121894808F04BFDD3E670
:103280000121884808F046FD06EB4606814B985D13
:103290001E440221FFF7CCFC70780221FFF7C8FC26
:1032A000B0780221FFF7C4FCBEE6FEF721FE002342
:1032B00023707D4B1C68002C7FF475AE21217B4868
:1032C00008F028FD6E4808F06BFF0AAD734B784993
:1032D0001C70284609F02EF9764B1B68002B03DD85
:1032E00029460120FDF792F9284609F0E3F8FFF797
:1032F0004FFB714A7149724808F0A4FE714B1B687C
:1033000003934FF4FA60039D07F05AFAAEE52121CA
:103310006D4808F0FFFC5A4808F042FF0AAD5F4ACA
:103320006A4900232846137009F004F9614B1B68B1
:10333000002B03DD29460120FDF768F9284609F036
:10334000B9F8FFF725FB5C4A5C495D4808F07AFE56
:103350005C4B1B6804934FF4FA60049D07F030FA4D
:1033600084E55B4A1360FEF76DFB98F8003033B1DB
:103370001421584808F0CEFC414808F011FF474C92
:103380004D4A4E494E480023237008F05BFE4D4BDA
:1033900051481B6805932321059B08F0BBFC384866
:1033A00008F0FEFE2378DBE51B78002B3FF497AD99
:1033B0003D490B68002B33D1484C2368012B03D0C7
:1033C00047492F48FDF73EFB01222260334A002384
:1033D00013704BE5FDF706F900283FF46BAD336839
:1033E000002B3FF478ADFDF7FDF800283FF473ADF6
:1033F0003A4C2368022B06D01E213A4808F08AFC7A
:103400001F4808F0CDFE0223236064E51368029391
:10341000029DFFF76DFB43E5FEF76AFD267035E57B
:10342000FDF7E0F80028C7D00B68002B3FF457AD3C
:10343000FDF7D8F800283FF452AD284C2A4910482F
:1034400000230AAD2360FDF7FDFA2846274909F05D
:1034500071F8184B1B68002B03DD29460120FDF78E
:10346000D5F8284609F026F8FFF792FAFDF7CCFECA
:103470000A4A0123137037E54C61010064610100C1
:103480009487FF1F049AFF1F786101008898FF1F2F
:10349000806101001C92FF1F2D87FF1F9793FF1F64
:1034A0004461010040610100A896FF1FDC6001003B
:1034B000006101000C92FF1FFFA14A048504000077
:1034C0004097FF1FF49DFF1F0C6101003061010058
:1034D000B896FF1F88610100A06101002887FF1FC7
:1034E000746001005460010094600100B460010048
:1034F000F8B51A4D1A4E06F0C3FF8027194B2F71ED
:10350000002419482C604FF47A7718601C71284603
:103510001C7304255C61154A15499F601E611D7767
:10352000144C0AF087FC04F5807520460021103405
:1035300009F000F8AC42F8D10C4A0F4900200AF01B
:1035400079FC0E4B094A0A49802400251C71184653
:103550001D60BDE8F8400AF06DBC00BF4897FF1F32
:1035600010650100809BFF1F686201002087FF1F1C
:10357000590500008497FF1F3D0500004097FF1F7D
:10358000704700BF90E80C00F0B41C6859682568CB
:10359000164F174E29432160164D17491760D66004
:1035A00015611160417A154A5C180A3194F824407B
:1035B00053F8215002EBC40149680D60017A5C1890
:1035C00003EB8101247ECD6902EBC40149680D60E3
:1035D000817A581803EB810390F83000596B02EBA5
:1035E000C002F0BC53681960704700BF01401F0063
:1035F000011000380110007800001F80986301005E
:10360000054A02600A7C02714A7C42718A7C82719E
:10361000CA7CC271704700BF10650100054A026094
:103620000A7D02714A7D42718A7D8271CA7DC271B2
:10363000704700BF10650100054A02600A7E0271F2
:103640004A7E42718A7E8271CA7EC271704700BF13
:1036500010650100074A026091F82020027191F87C
:103660002120427191F82220827191F82320C271A9
:10367000704700BF106501002DE9F0438BB005468F
:103680000E4617460021202202A80AF0C3FF05F1CA
:103690004804824B00932046FF23432269468DF85D
:1036A00004308DF805308DF806308DF8073001F0C4
:1036B00045F8013000F0C6806A688DF8117010BAC4
:1036C0003B0A4FF0010E4FF0800C4FF000091C2216
:1036D00002A90390A846062720468DF810308DF8E1
:1036E00008E08DF809E0ADF812C08DF80A708DF889
:1036F0000B9001F02DF84946202202A80AF08AFF1B
:1037000058F8080F0290B8F80430ADF80C301022C9
:1037100002A9204601F01CF84946202202A80AF01E
:1037200079FF202202A9204601F012F8013FF8D1CA
:103730005B4BD8F800E09A881868ADF81E20632328
:1037400082228DF808308DF80B3053238DF8092034
:103750008DF80A30352201238DF80C208DF80D30BC
:103760003D228DF8113007233021B8F804708DF810
:103770000F208DF810300C22EB7A8DF820108DF888
:103780000E60CDF81A00CDF812E0ADF816708DF885
:1037900018208DF819200DF1220103F00F02092ADB
:1037A00094BF303237321B0901F8012D002BF4D1C0
:1037B00030222B7B8DF8222009A903F00F02092A61
:1037C00094BF303237321B0901F8012D002BF4D1A0
:1037D00030226B7B8DF824200DF1260103F00F02BF
:1037E000092A94BF303237321B0901F8012D002B12
:1037F000F4D11E2202A9204600F0AAFF032E24D0F5
:1038000006233725012203208DF808508DF8093052
:103810008DF80C308DF80A20FF238DF80B0002A9DB
:103820000F273A263B25092220468DF80D708DF88A
:103830000E608DF80F508DF8103000F089FF204693
:1038400000F082FF0BB0BDE8F083287C6F7CAE7C7B
:103850008DF80A0032220423287F8DF808203621B3
:10386000EA7C8DF809308DF80F308DF80B708DF8EB
:103870000C606F7FAE7FEB7F8DF80D208DF80E1002
:103880008DF810000C2202A920468DF811708DF8D9
:1038900012608DF8133000F05BFFB1E71065010096
:1038A000586201002DE9F047A04D90B02B680193BC
:1038B0000746DDF804800E46914600F1480408E012
:1038C0002B680293029BC8EB0303B34219D806F09E
:1038D00077FF204600F0AAFF00284FF03200EFDD0E
:1038E000242207A9204600F059FF9DF81C30022B26
:1038F0000BD00025204600F0BFFE284610B0BDE8E2
:10390000F087FF2010B0BDE8F087B7F86030432B98
:10391000EFD1089D2DBAC9F80050062207F1080121
:103920000EA80AF0E1FD002840F0F8803B689D42B7
:10393000C0F0F4807B689D4200F2F0800B98386103
:10394000CC25204600F010FF013DFAD107F12409F3
:1039500007F12808204600F081FE0028CADD204635
:1039600000F002FF33282CD038DD3A2800F08380A5
:1039700054DC352877D0362861D1204600F0F4FE9B
:1039800097F81CE07E7FBA7FFB7F8DF810E08DF802
:1039900011608DF812208DF813300499002940F041
:1039A0009E80042207F11C01204600F0F7FE20460D
:1039B00000F054FE00289DDD204600F0D5FE33289F
:1039C000D2D1204600F0D0FE04224946204600F025
:1039D000E5FE7B6A1BBA7B623B63BBE7012870D0C4
:1039E0002BDD032853D0062829D1204600F0BCFE49
:1039F0008246042207F1200120465FFA8AFA00F08D
:103A0000CDFEBAF1040FA5DDAAF1040A00260136A5
:103A1000204600F0A9FEB245F9D19BE73B285AD1D8
:103A2000204600F0A1FE042207F12C01204600F000
:103A3000B5FEFB6A1BBAFB628CE700288AD02046E1
:103A400000F092FEC0B200F1FF3A5FFA8AFA002855
:103A500080D00AF1010A00260136204600F084FEDB
:103A60005645F9D176E7204600F07EFE204600F06C
:103A70007BFEC5B26EE7204600F076FE042241468A
:103A8000204600F08BFEBB6A1BBABB6262E7204691
:103A900000F06AFE8246042207F1180120465FFA10
:103AA0008AFA00F07BFEBAF1040F7FF753AFAAF158
:103AB000040A00260136204600F056FE5645F9D18C
:103AC00048E7204600F050FE042207F1140120468A
:103AD00000F064FE3EE7FF283FF43CAFAFE78DF80F
:103AE0001B308DF818E08DF819608DF81A20069AB1
:103AF000FB6D9A423FF455AFC0B200F1FF3A5FFA56
:103B00008AFA00283FF426AF0AF1010A002601369E
:103B1000204600F029FE5645F9D11BE7204600F06B
:103B2000ABFD002010B0BDE8F08700BFF49DFF1F83
:103B30002DE9F04F4FF4FA6187B00446012008F0F8
:103B4000AFFC2746606047F8480B384600F096FD0A
:103B50003846442100F09EFD40B34B4EDFF82C81E7
:103B6000336800930025DDF800A0A94694F844309E
:103B7000032B10D0EBB1042B2FD0012B41D0022B03
:103B80004DD0002DF2D133680493049BA26BCAEB95
:103B900003039342EAD9384600F070FD3268636847
:103BA0000592059A226401332846636007B0BDE898
:103BB000F08F33680193019A6368CAEB0202013304
:103BC000A8FB02126360C2F38F1201212046FFF7A7
:103BD00053FD012384F84430D3E733680293029AFB
:103BE0006368CAEB02020133A8FB02126360C2F3EE
:103BF0008F1203212046FFF73FFD022384F8443053
:103C0000BFE705AAE16B2046FFF74CFE022883467A
:103C100010D0BBF1FF0FB4D184F84490B1E705AAEE
:103C2000E16B2046FFF73EFE0528834614D00628A8
:103C3000EFD1F1E733680393039A059B6360CAEB06
:103C40000202A8FB0232C2F38F1203212046FFF7C3
:103C500013FD84F844B094E7636A032284F8442097
:103C600013B94FF461736362A26A12B9626A5208AF
:103C7000A262E36A1BB9636AA3EBD303E362226324
:103C80006363012572E700BFF49DFF1FD34D6210EF
:103C9000F0B400258560858145628562C562056155
:103CA00045618561C56105628263C3630B6883609A
:103CB0008B88838180F84450F0BCFFF739BF00BF88
:103CC00030B52E4B83B01B6801930199036CCB1A5E
:103CD000B3F57A7F044617D2006B78B30020636B8C
:103CE00083B994F84430032B00D05BB9002384F8E7
:103CF0004430236120466361A361E3612362FFF7DF
:103D000017FF033003B030BD1D4A006BA2FB035206
:103D100092094FF47A7505FB12335500C91AA8426F
:103D20002164636B13D200209D42206319D9606324
:103D300094F84430032B19D00020D6E794F844308F
:103D4000032B13D0626B002ACFD003B030BD801A92
:103D50009D42206305D9002363630028E8D01846FC
:103D6000BFE79A1A62630028E8D0B7E7042384F813
:103D700044302046FFF7DCFE0130B0E7F49DFF1F22
:103D8000D34D62104B68436000230381704700BF2E
:103D9000F0B500260139354611F8010F05EB850312
:103DA000A0F1300404EB430302EB060EE4B2771CEF
:103DB00078B1092C04D89DB2FF2DEDD90020F0BDBB
:103DC0002E28FBD1032EF9D08EF80450FEB2002528
:103DD000E2E7032EF3D1D5710120F0BD024B034A77
:103DE0001A6000225A607047B09CFF1F10650100E6
:103DF0002DE9F0433C4B83B01B68019300F10C07A5
:103E00000346019A02810DF108080D46022203F1D2
:103E10000801384600F09CFC012328F8063D0222E8
:103E20004146384600F094FC4FF48073414602222C
:103E30003846ADF8023000F08BFC002341460222E8
:103E40003846ADF8023000F083FC41460222384685
:103E500000F07EFC41463846022200F079FC2B78C7
:103E60000DF10109F3B12E2B2C4602D139E02E2B96
:103E700034D014F8013F002BF9D1661B002E11DD60
:103E80000122494638468DF8016000F061FC294660
:103E90003246384600F05CFC2378651C13B12B7861
:103EA000002BE0D100234946012238468DF801302D
:103EB0004FF4807400F04CFC414602223846ADF8C5
:103EC000024000F045FC414638460222ADF802406F
:103ED00000F03EFC012003B0BDE8F083661B002E1D
:103EE000CEDC651CDBE700BFF49DFF1F2DE9F0472A
:103EF0008B4D88B02B6803938046039F0E469146F6
:103F000000F10C0407E02B680493049BDB1BB34215
:103F100014D806F055FC204600F088FC00284FF02D
:103F20003200F0DDD8F80420D8F820309A420BD0C7
:103F30004FF6FE75284608B0BDE8F0874FF6FF75CE
:103F4000284608B0BDE8F087B8F82430352BEFD10B
:103F5000204600F083FB0B2802DC4FF6FD75E9E7F5
:103F60000C2205A9204600F019FCBDF81620B8F86F
:103F70000800BDF81410130A43EA02231BB29AB2D8
:103F80008842ADF8062005D0204600F075FB4FF6BC
:103F9000FC75CFE7002BF7DA40F20F251540002D16
:103FA00040F0B180BDF81A60330A43EA0626B6B283
:103FB000002E00F0A280BDF818305BBA9BB20DF164
:103FC0000A08E3B101224146204600F0E7FB9DF8D4
:103FD0000A30002B71D1204600F0C6FB204600F0CD
:103FE000C3FB204600F0C0FB204600F0BDFBBDF83F
:103FF000183001355BBAADB29BB29D42E2DB0027BF
:10400000BA4601220DF10501204600F0C7FB9DF8DC
:10401000053013F0C00F0ED193B1013B8DF8053080
:10402000204600F0A1FB9DF805305A1E8DF80520B2
:10403000002BF5D1E5E7204600F096FB8DF805A0B2
:10404000022202A9204600F0A9FB02224146204696
:1040500000F0A4FB204600F087FB204600F084FB24
:10406000204600F081FB204600F07EFB02220DF18D
:104070000601204600F092FBBDF808305BBA9BB207
:10408000012B28D0BDF806305BBA9BB2002553B196
:10409000204600F069FBBDF8063001355BBAADB2D1
:1040A0009BB29D42F4DB0137BFB2BE42A9D120468C
:1040B00000F0E2FA4FF6F6753CE7013B8DF80A3066
:1040C000204600F051FB9DF80A305A1E8DF80A2058
:1040D000002BF5D176E7BDF80A506DBAADB2012DCF
:1040E000D0D1BDF8062052BA92B2042A11D020468F
:1040F00000F0C2FA4FF6F7751CE7204600F0BCFA54
:104100004FF6FA7516E7204600F0B6FA4FF6FB7543
:1041100010E709F10401204600F040FB0AE700BF68
:10412000F49DFF1F2DE9F04184B005460F46FFF7CF
:104130002FFEC8B9234B90465B686A689A423DD00F
:10414000214B1B680193019905F10C0601F00F0149
:10415000044601F58061304600F09CFA012808D041
:10416000204604B0BDE8F0810124204604B0BDE83B
:10417000F081164A6B68029202A9352230460393F9
:1041800000F0DCFA38B90024304600F077FA204617
:1041900004B0BDE8F08139462846FFF729FE002823
:1041A000F1D0304600F0D0FA0028ECD04246284644
:1041B00041F28831FFF79AFE0446E5E76FF001040B
:1041C000CEE700BFB09CFF1FF49DFF1F10650100EC
:1041D0002DE9F043DFF85492D9F8003013F00104D0
:1041E00085B005460E4617466DD0844BDFF84082F9
:1041F000DFF84092824CC9F8003002F0A7FCE37A65
:10420000EBB172B6E37AD8071A4606D57D49E26863
:1042100008680240A2610A601A46990706D57A49E1
:1042200023690868E27A0340E3610B60530705D510
:10423000764A636911680B402362136062B6236893
:10424000DA68B2F1384F09D0714919604FF038413E
:10425000D960704A4FF0784119611A6006222946E8
:10426000092001F099FA002303A904220F208DF8F8
:104270000C308DF80D308DF80E308DF80F30CDF8F4
:10428000088001F089FAE37A5D491A466BB929463C
:104290003B463246D9F80000FFF7FAFC01280546F4
:1042A0001FD0284605B0BDE8F083D80703D55A4A89
:1042B000896911601A4699070ED45307E7D5574B01
:1042C000226A1A60E3E7484606F0B2F94B4B002831
:1042D00075D1DFF85C818BE7514BE169E27A1960B7
:1042E000EBE7E37A464ABBB172B6D37AD8071946F0
:1042F00006D54448D168066831409161016019468D
:104300009F0706D5404A23691068E17A0340E361BC
:1043100013604E076AD462B62368DA68B2F1384F88
:1043200009D03B4919603B4A4FF038404FF0784183
:10433000D86019611A6002A8D9F80010FFF760F977
:10434000042203A90F2001F027FA02A8D9F80010CF
:10435000FFF772F9042203A9012001F01DFA02A857
:10436000D9F80010FFF75AF903A90422052001F03B
:1043700013FAE37A22491A4683B1D80703D5264AAD
:10438000896911601A46990703D5254BE169E27ADC
:104390001960530702D5214B226A1A60D9F8001020
:1043A00002A8FFF757F91F4B039A5A6006F0E4F989
:1043B00080B200F005FB284605B0BDE8F0834FF45D
:1043C0007A721A651849DFF8688083F84C40042235
:1043D00083F85440DC65996483F86420C3F85880FE
:1043E0004846019306F02AF9019B01E7074A6369F1
:1043F00011680B40236213608DE700BFBC9CFF1F58
:104400003C87FF1F80E100E084E100E088E100E0FC
:1044100001401F0000001F8000E100E008E100E013
:1044200004E100E0249DFF1F68620100B89CFF1FAB
:10443000106501002C9DFF1F70B53E4D286882B0AD
:10444000002873D0FFF73CFC0228044604D004285F
:1044500002D0204602B070BD374EF37AEBB172B68F
:10446000F37AD8071A4606D53449F268086802403C
:10447000B2610A601A46990706D53149336908685E
:10448000F27A0340F3610B60530705D52D4A736937
:1044900011680B403362136062B63368DA68B2F1B8
:1044A000384F09D028491960284A4FF038404FF05A
:1044B0007841D86019611A6068462968FFF7A0F84A
:1044C000042201A90F2001F067F968462968FFF767
:1044D000B3F8042201A9012001F05EF968462968B9
:1044E000FFF79CF801A90422052001F055F9F37AA1
:1044F00011491A4683B1D80703D5154A8969116055
:104500001A46990703D5134BF169F27A19605307DC
:1045100002D5114B326A1A6068462968FFF79AF88B
:104520000E4B019A5A60204602B070BD04462046E8
:1045300002B070BD2C9DFF1F3C87FF1F80E100E093
:1045400084E100E088E100E001401F0000001F80DE
:1045500000E100E004E100E008E100E0249DFF1F2D
:1045600038B5284B0360284C00234360E37A0546A6
:10457000EBB172B6E37AD8071A4606D52349E2684A
:1045800008680240A2610A601A46990706D52049C8
:1045900023690868E27A0340E3610B60530705D59D
:1045A0001C4A636911680B402362136062B623687A
:1045B000DA68B2F1384F09D017491960174A4FF03D
:1045C00038404FF07841D86019611A600422A91868
:1045D0000F2001F03DFCE37A0B491A4683B1D8075E
:1045E00003D50F4A896911601A46990703D50D4B07
:1045F000E169E27A1960530702D50B4B226A1A600F
:10460000284638BD106501003C87FF1F80E100E0AF
:1046100084E100E088E100E001401F0000001F800D
:1046200000E100E004E100E008E100E0024B034AA1
:104630001A6000225A607047249DFF1F1065010018
:1046400003685B6B184700BF4969024A416002601A
:10465000704700BF10650100008B7047C08B70472A
:1046600010B582B002AB026803F8011D5468194608
:104670000122A04702B010BD704700BF037F032B8B
:1046800000D9704710B50446184600F01BFC0423FF
:10469000237710BD38B50446007F03280D460DD999
:1046A0002946022000F096F90328207704D8002339
:1046B000E581E383012038BD002038BD00F002FC15
:1046C000EEE700BFF0B51A4B1A4C5B6891B04FF49F
:1046D0007A7E049300230D46069303A98DF82430B7
:1046E0008DF82C300D9302930646042305A8174637
:1046F000114ACDF828E008928DF83C3005940C94CE
:1047000001940394FFF73EFB294605A801AAFFF791
:1047100009FD012801D011B0F0BD3368029D5B6A2C
:1047200003943A4603A930460495984711B0F0BD6A
:10473000249DFF1F10650100686201000023438370
:104740000431007F00F07EBE007F00F001BF00BF9B
:1047500010B5044693B2007F0A46618B00F0DAFD83
:10476000638B0344638310BDC38B13B94FF0FF30D9
:10477000704710B582B0044601220DF10701007F99
:1047800000F0FCFB002806DDE38B9DF80700013BF1
:10479000E38302B010BD4FF0FF30FAE7C38B73B173
:1047A00010B5934294BF1AB212B20446007F00F0D3
:1047B000E5FB002806DDE38B1B1AE38310BD4FF0F9
:1047C000FF3070474FF0FF3010BD00BF08B5037FCA
:1047D000032B05D8C28B1AB1184600F027FD08BD7F
:1047E0004FF0FF3008BD00BF70B50446007F0328BE
:1047F00082B00E46154614D972680B4B0192694679
:104800002A468220009300F007FA0328207705D873
:1048100000230120E581E38302B070BD002002B0D7
:1048200070BD00F04FFBE7E71065010070B5C38B6A
:1048300082B0044633B1236820465B699847E38B16
:10484000002BF8D1207F00F08BFC08B902B070BDBE
:1048500008226946207F00F091FB0028F6DD9DF8D4
:1048600007309DF804109DF805209DF806009DF87E
:1048700000609DF80150267503EB002002EB012338
:104880009DF802109DF80320238380B2E0836575B4
:10489000A175E27502B070BD2DE9F04FDFF8B88068
:1048A000DFF8B8A0B8F800400646370204F124004B
:1048B00083B038448B46914601A9022280B21D463E
:1048C00001F0C6FA9DF804409DF805301F49204AC2
:1048D000098812783AF8160043EA04245C44A4B22A
:1048E00004EA010B5844372A80B229D0194B1B889F
:1048F0000BEB05029A4223DDCBEB030B1FFA8BFB7C
:104900005A46494600F048FFCBEB050209EB0B0184
:1049100092B23AF8160000F03FFFB8F800002C44BD
:104920002430A4B23844231201A9022280B28DF8A7
:1049300005408DF8043000F02FFF03B0BDE8F08F84
:1049400049462A4600F028FFE7E700BF689DFF1FA1
:104950005A9DFF1F589DFF1F5C9DFF1F609DFF1FFD
:10496000F0B5154D2B880646340203F1260083B0BE
:10497000204480B201A9022201F06AFA9DF8047075
:104980009DF8053043EA072700E01F4628882630B7
:104990002044022280B201A901F05AFA9DF80420B5
:1049A0009DF8053043EA02239F42EED1034B38467F
:1049B00023F8367003B0F0BD5C9DFF1F389DFF1FCC
:1049C000034A1388C0F30D0043401380704700BFB3
:1049D0006087FF1F2DE9F04F824F87B0FB7A01906F
:1049E0000091EBB172B6FB7AD8071A4606D57E491C
:1049F000FA6808680240BA610A601A46990706D543
:104A00007A493B690868FA7A0340FB610B605207F8
:104A100005D5774A7B6911680B403B62136062B62B
:104A20003B68DA68B2F1384F09D072491960724AAE
:104A30004FF038404FF07841D86019611A600DF19D
:104A40001409DFF8C8A1C8460024BAF800002502FE
:104A50000330ADB22844012280B204A901F0F8F974
:104A60009DF8102008F8012BE6B2A3460134002A75
:104A700030D0042CE9D100224FF0345419F8011B36
:104A80001D29D6B2934624FA01F002F1010201D8A1
:104A9000C3071AD4042AF1D1FB7A52491A4683B1CA
:104AA000DD0703D5554A896911601A469C0703D56D
:104AB000534BF969FA7A1960500702D5514B3A6A9B
:104AC0001A60042007B0BDE8F08F1021304602F0D4
:104AD00085FA35024C49002041F2707221F81B0022
:104AE000013AFDD1BAF800009DF80430474C06A900
:104AF000284401F8093D012280B200F04DFEBAF8C9
:104B0000000006A90230FF22284401F80A2D80B2D5
:104B1000012200F041FE009B002B4BD13C490A884A
:104B2000013292B2B2F5404F56D30A80D3B2110A85
:104B3000BAF800008DF810100430284480B2022228
:104B400004A98DF8113000F027FE0121304602F053
:104B500045FABAF800002F4C28302844002504A953
:104B6000022280B224F83B5001F072F99DF8100047
:104B70009DF81110FA7ADFF86CE004EBCB0341EA00
:104B800000219D719D80598013460AB3D10704D539
:104B90001A4BDEF8181019601346920703D5184A0D
:104BA000F969FB7A11605B0712D5164B3A6A1A60F5
:104BB000304687E720888DF81130043028441B12D6
:104BC000022204A980B28DF8103000F0E5FDBCE7A8
:104BD000304607B0BDE8F08F4FF440420A80009B9A
:104BE000C021A5E73C87FF1F80E100E084E100E0F1
:104BF00088E100E001401F0000001F8000E100E0AC
:104C000004E100E008E100E0309DFF1F5C9DFF1F14
:104C10006087FF1F389DFF1F2DE9F04F9B4F8BB022
:104C2000FB7A039001910292EBB172B6FB7AD8073E
:104C30001A4606D59649FA6808680240BA610A60C1
:104C40001A46990706D593493B690868FA7A0340E2
:104C5000FB610B60520705D58F4A7B6911680B40D9
:104C60003B62136062B63B68DA68B2F1384F09D034
:104C70008A4919608A4A4FF038404FF07841D8602D
:104C800019611A600DF11C09DFF828A2C84600243A
:104C9000BAF8000025020330ADB22844012280B2E8
:104CA00008A901F0D5F89DF8202008F8012BE6B2FC
:104CB000A3460134002A2ED0042CE9D100224FF063
:104CC000345419F8011B1D29D6B2934624FA01F079
:104CD00002F1010201D8C30718D4042AF1D1FB7AEA
:104CE0006A4A7BB1DE0702D56E4992690A609D0768
:104CF00003D56D4AF969FB7A11605C0702D56B4BED
:104D00003A6A1A6004200BB0BDE8F08F10213046DB
:104D100002F064F935026649002041F2707221F810
:104D20001B00013AFDD1BAF800009DF80C30614C2F
:104D30000AA9284401F8113D012280B200F02CFD9F
:104D4000BAF800000AA90230FF22284401F8122D07
:104D500080B2012200F020FD029B002B7CD156493D
:104D60000A88013292B2B2F5404FC0F089800A80C1
:104D7000D4B2110ABAF800008DF82010043028448B
:104D800080B2022208A98DF8214000F005FD4FF005
:104D900000084446019BBAF8002048485979006849
:104DA00008900C32A81801F07F02997993F807E077
:104DB0008DF823208DF824100422191D80B28DF85F
:104DC00025E000F0E9FCBAF800008DF8184010303A
:104DD000284406A9022280B28DF8198000F0DCFC7C
:104DE000BAF80000364C06302844062208A980B2E2
:104DF00000F0D2FC0121304602F0F0F8BAF80000D1
:104E000028302844002506A9022280B224F83B500D
:104E100001F01EF89DF818009DF81910FA7ADFF8D5
:104E20006CE004EBCB0341EA00219D719D80598029
:104E300012B3D00703D51B4BDEF818101960910789
:104E400003D5194BF969FA7A1960530714D5174B32
:104E50003A6A1A60304656E72088043028441C0A13
:104E60005FFA83F8022208A980B28DF820408DF8FD
:104E7000218000F091FC8DE730460BB0BDE8F08F4B
:104E80004FF440420A80029CC02173E73C87FF1F19
:104E900080E100E084E100E088E100E001401F00E3
:104EA00000001F8000E100E004E100E008E100E014
:104EB000309DFF1F5C9DFF1F6087FF1FB0620100D8
:104EC000389DFF1F38B5244CE37AEBB172B6E37A14
:104ED000D9071A4606D52149E2680D682A40A26121
:104EE0000A601A469B0706D51D4923690D68E27AB8
:104EF0002B40E3610B60550705D51A4A63691168B9
:104F00000B402362136062B62368DA68B2F1384F4F
:104F100009D015491960154A4FF038454FF07841CE
:104F2000DD6019611A60102102F058F8E37A0A492D
:104F30001A4683B1D80703D50D4A896911601A460C
:104F4000990703D50B4BE169E27A1960530702D543
:104F5000094B226A1A6038BD3C87FF1F80E100E0E0
:104F600084E100E088E100E001401F0000001F80B4
:104F700000E100E004E100E008E100E02DE9F04F8D
:104F8000684DDFF8D881EB7A38F8304085B00646B6
:104F90008B469146EBB172B6EB7AD9071A4606D525
:104FA0006149EA6808680240AA610A601A469B07DC
:104FB00006D55E492B690868EA7A0340EB610B600D
:104FC000570705D55A4A6B6911680B402B6213606D
:104FD00062B62B68DA68B2F1384F09D055491960CA
:104FE0004FF03841D960544A4FF0784119611A6046
:104FF0004C4574DB002C78D04FEAC60A08EB0A0156
:105000004E4A4F884E4B11884E4A33F8160012789C
:105010004C4501EA0701A8BF4C460844372A80B234
:105020001FFA84F977D0484A128809EB010E964599
:1050300071DD511A01938BB21A465946009300F064
:1050400007FF0099019BC1EB090292B2594433F862
:10505000160000F0FDFE08EB0A0138F836308A79B8
:105060004A444F4492B2C9EB0309BFB21FFA89F315
:10507000F92A4F8028F8363001D8002B50D1334B15
:105080008DF80D701888D0442830002300EB0620DE
:1050900003A93F1280B2022288F806308DF80C7006
:1050A00000F07AFB3046402101F098FFEB7A1D4971
:1050B0001A4683B1D80703D5254A896911601A4673
:1050C000990703D5234BE969EA7A1960530702D59A
:1050D000214B2A6A1A60204605B0BDE8F08F3046A1
:1050E000FFF73EFC0446002C86D1184B188803308D
:1050F00000EB062080B2012203A900F0A9FE9DF872
:105100000C30142BD2D0002BD0D0B3F11C0418BF1C
:105110004FF0FF34CAE759464A4600F099FE9AE735
:105120008A71C3E73C87FF1F80E100E084E100E073
:1051300088E100E001401F0000001F80689DFF1F04
:105140006C9DFF1F5A9DFF1F589DFF1F5C9DFF1FF9
:1051500000E100E004E100E008E100E0389DFF1F0D
:10516000284A38B5034632F8300000B138BD264C25
:10517000E27AEAB172B6E27AD507114606D523483B
:10518000E16805682940A16101601146900706D5D4
:105190001F4822690568E17A2A40E26102604A07F5
:1051A00005D51C4962690868024022620A6062B63D
:1051B0002268D168B1F1384F09D0174810601749FB
:1051C0004FF038454FF07840D560106111601846B7
:1051D000FFF7C6FBE37A0C491A46002BC6D0DD0761
:1051E00003D50F4A896911601A46990703D50D4BFB
:1051F000E169E27A19605307B8D50B4B226A1A604D
:1052000038BD00BF389DFF1F3C87FF1F80E100E0D5
:1052100084E100E088E100E001401F0000001F8001
:1052200000E100E004E100E008E100E030B52D4CD1
:10523000E37A83B0EBB172B6E37AD9071A4606D5A2
:105240002949E2680D682A40A2610A601A469B0754
:1052500006D5264923690D68E27A2B40E3610B608D
:10526000550705D5224A636911680B402362136014
:1052700062B62368DA68B2F1384F09D01D49196067
:105280001D4A4FF038454FF07841DD6019611A60D2
:105290001A4A1B4B1B4933F81030098802EBC00037
:1052A00001224088084018440DF1070180B200F047
:1052B000CFFDE37A0B491A4683B1D80703D5124ACA
:1052C000896911601A46990703D5104BE169E27AA2
:1052D0001960530702D50E4B226A1A609DF8070029
:1052E00003B030BD3C87FF1F80E100E084E100E0B7
:1052F00088E100E001401F0000001F80389DFF1F73
:105300006C9DFF1F689DFF1F00E100E004E100E0CD
:1053100008E100E02DE9F04F3F4FFC7A83B0814671
:105320008A4693469846ECB172B6FB7ADE071A4677
:1053300006D53A49FA6808680240BA610A601A4616
:105340009D0706D536493B690868FA7A0340FB6138
:105350000B60540705D5334A7B6911680B403B62EB
:10536000136062B63B68DA68B2F1384F09D02E4953
:1053700019604FF03841D9602C4A4FF078411961DB
:105380001A602B4E30884FEA09252030284480B21D
:1053900001A9022200F05CFD9DF804409DF8053053
:1053A00043EA042400E01C463088203028440222CE
:1053B00080B201A900F04CFD9DF804209DF8053055
:1053C00043EA02239C42EED11A4DA04528BFA046D5
:1053D00005EBC9051FFA88F85A4651464346484628
:1053E000AC80FFF759FAFB7A0B491A4683B1D8070C
:1053F00003D5114A896911601A46990703D50F4BE5
:10540000F969FA7A1960530702D50D4B3A6A1A60A6
:10541000404603B0BDE8F08F3C87FF1F80E100E00D
:1054200084E100E088E100E001401F0000001F80EF
:105430005C9DFF1F389DFF1F00E100E004E100E0DC
:1054400008E100E00B780BB94B7813B14AB910466C
:1054500070478B78002BF9D1CB78002BF6D118460A
:105460007047F0B5304EF37A83B0EBB172B6F37A91
:10547000DF071C4606D52D4DF4682F683C40B4610B
:105480002C601C469D0706D5294D33692F68F47A98
:105490003B40F3612B60640705D5264C7369256892
:1054A0002B403362236062B63368DC68B4F1384F56
:1054B00009D0214D1D60214C4FF038474FF0784501
:1054C000DF601D611C601E4F3B88050203F10C006C
:1054D0002844144680B2042200F05EF938888DF822
:1054E000054010302844022201A980B224128DF810
:1054F000044000F051F9F37A0B491A4683B1D807FA
:1055000003D5104A896911601A46990703D50E4BD5
:10551000F169F27A1960530702D50C4B326A1A60AE
:10552000012003B0F0BD00BF3C87FF1F80E100E019
:1055300084E100E088E100E001401F0000001F80DE
:105540005C9DFF1F00E100E004E100E008E100E0F5
:105550002DE9F04FDFF830B29BF80B2083B0044602
:105560002AB372B69BF80B20D507114608D58048A0
:10557000DBF80C1005682940CBF8181001601146C3
:10558000900709D57B48DBF8102005689BF80B10C5
:105590002A40CBF81C200260490707D57649DBF882
:1055A000142008680240CBF820200A6062B6DBF8BD
:1055B0000020D168B1F1384F09D0704810607049AF
:1055C0004FF038454FF07840D560106111602046AB
:1055D00020216C4DDFF8A0A1DFF89891DFF89081D1
:1055E00001F0FCFC24022E462888664F023020443D
:1055F000012280B20DF1070100F02AFC9DF807306E
:10560000DA0665D430880230204480B201220DF1E0
:10561000070100F01DFC9DF807301B0700F1818099
:105620009BF80B3058491A466BB1D80703D5574A37
:10563000896911601A469B0739D4570703D5544A24
:10564000DBF82030136007F09BF89BF80B304E4AD4
:10565000E3B172B6D37AD807194607D5D8F8000057
:10566000D16801409161C8F8001019469B070AD51E
:10567000D9F80020DBF810309BF80B101340CBF862
:105680001C30C9F800304F0718D462B6DBF8003080
:10569000DA68B2F1384FA7D0384919604FF0384175
:1056A000D960374A4FF0784119611A609CE739494F
:1056B000DBF81C309BF80B200B60BEE7DAF800200B
:1056C000DBF814301340CBF82030CAF80030DCE7A8
:1056D0003888023020440DF10701012280B21024E5
:1056E0008DF8074000F058F89BF80B20264811462B
:1056F0009AB1D40703D525498069086011469207FD
:1057000005D5244ADBF81C009BF80B1010604B07F2
:1057100003D51F4ADBF820301360012003B0BDE839
:10572000F08F388802A902301822204401F8022D97
:1057300080B2012200F030F89BF80B20124811468D
:105740009AB1D60703D511498069086011469507BB
:1057500005D5104ADBF81C009BF80B1010604C07B5
:1057600003D50B4ADBF8203013600020D6E700BFDA
:1057700080E100E084E100E088E100E001401F00FA
:1057800000001F805C9DFF1F3C87FF1F00E100E0C1
:1057900008E100E004E100E02DE9F04FAB4B1B789D
:1057A000332B00F0E980342B00F05881A84F3B7870
:1057B0001C04002B00F0A48044F01043A54D0343CB
:1057C0006B63EB6A03F47043B3F5405FF9D8FF28CD
:1057D00040F2AD80050400F1D9810B78400100F45E
:1057E000604043F44063012A43EA000301F10101F0
:1057F00040F28682002C40F09582DFF85C82954D65
:10580000D8F800004FF0805604702046EE62012464
:1058100043F080558F4B28435863002C00F0828161
:105820001846C36A03F47043B3F5405FF9D8551EB8
:10583000ADB2012D40F27482864BDFF81CE21846AF
:105840008E1C4FF0805C4FF0010816F802AC16F881
:10585000019C3C78023D49EA0A29ADB24FEA044A6C
:10586000002C00F0D281002D4AF0805A49EA0A0942
:105870000CBF00244FF0004449EA04045C63DC6A76
:1058800004F47044B4F5405FF9D8DC6A14F0F00F0A
:10589000FBD0012D846B06F10206D6D8D31E9BB235
:1058A0005808C0EBC03203EB420301309AB201EB5F
:1058B0004001AAB138780B780404002800F0078270
:1058C000644923434B63CB6A03F47043B3F5405FF1
:1058D000F9D86048C36A5F4913F0F00FFAD08B6BB8
:1058E0005C48C16A5B4B11F0F00FFAD0996BD96A32
:1058F000584811F0F00FFAD0836B1046BDE8F08FD6
:10590000554D544B2D684FF080562C7040EA0605DB
:10591000DE621C465D63E36A03F47043B3F5405FE7
:10592000F9D83C78FF284FEA04443FF653AF0B7890
:10593000012A01F1010143F4806340F25581002CFA
:1059400040F0DA81DFF810814248D8F800504FF07B
:1059500080562C70C662012543F080503D4B204399
:105960005863002D00F0D6801846C36A03F47043D4
:10597000B3F5405FF9D85AE7002ABED0354B344F13
:10598000354E01EB020C1D464FF0805E4FF00108D2
:105990003C784FEA202A4FEA04494AF4704A4CB353
:1059A00049F0104444EA0A045C63DC6A04F470447D
:1059B000B4F5405FF9D80C7844EA0024A4B249F069
:1059C000805944EA09045C63DC6A04F47044B4F569
:1059D000405FF9D8013080B2DC6A14F0F00FFBD0E0
:1059E000AC6BDC6A14F0F00FFBD001318C45AC6B72
:1059F000CED182E734684AF0805A84F80090C3F828
:105A00002CE0C3F834A0DC6A04F47044B4F5405FC1
:105A1000F9D80C7897F800A044EA00244FEA0A4924
:105A2000BAF1000FCAD11FFA84FA34684AF0C05A9A
:105A300084F80090C5F82CE0C5F834A0DC6AE400D6
:105A4000FCD5346884F80080C4E700BF5A9DFF1F6E
:105A500018A0FF1F00C0024014A0FF1FB34BB44C9E
:105A6000B44F1C603D782C04002D62D044F01045EA
:105A7000284358631846C36A03F47043B3F5405F84
:105A8000F9D86FEA42436FEA53439BB244F01044A3
:105A9000A64823434363C36A03F47043B3F5405FEE
:105AA000F9D84AB3A14BDFF890E24C1E1D46002006
:105AB0004FF080564FF0010C0130904214F801AFC6
:105AC00080F0C98039784FEA0149002900F0CC8084
:105AD00049EA0A014FF0004949EA01015963D96ACC
