:1000000000800020BD010000A9AD00006DAD000022
:100010006DAD00006DAD00006DAD00006DAD000078
:100020006DAD00006DAD00006DAD0000A9AD00002C
:10003000A9AD00006DAD0000A9AD00005DAD0000F0
:10004000A9AD0000A9AD0000A9AD0000A9AD000058
:10005000A9AD0000A9AD0000A9AD0000A9AD000048
:10006000A9AD0000A9AD0000A9AD0000A9AD000038
:10007000A9AD0000A9AD0000A9AD0000A9AD000028
:10008000A9AD0000A9AD0000A9AD0000A9AD000018
:10009000A9AD0000A9AD0000A9AD0000A9AD000008
:1000A000A9AD0000A9AD0000A9AD0000A9AD0000F8
:1000B000A9AD0000A9AD0000A9AD0000A9AD0000E8
:1000C000A9AD0000A9AD0000A9AD0000A9AD0000D8
:1000D000A9AD0000A9AD0000A9AD0000A9AD0000C8
:1000E000A9AD0000A9AD0000A9AD0000A9AD0000B8
:1000F000A9AD00000DB70000A9AD000075CF00004C
:10010000A9AD0000F1D00000A9AD0000A9AD00002C
:10011000A9AD0000A9AD0000A9AD0000A9AD000087
:10012000A9AD0000A9AD0000A9AD0000A9AD000077
:10013000A9AD0000A9AD0000A9AD0000A9AD000067
:10014000A9AD0000A9AD0000A9AD0000A9AD000057
:1001500091C70000A9C70000C1C70000D9C70000AF
:10016000A9AD000031BA0000A9AD0000A9AD0000A2
:10017000A9AD0000A9AD0000A9AD0000A9AD000027
:10018000A9AD0000A9AD0000A9AD0000A9AD000017
:10019000A9AD0000A9AD0000A9AD0000A9AD000007
:1001A000A9AD0000A9AD0000A9AD0000A9AD0000F7
:1001B000A9AD0000A9AD0000A9AD0000564B4CF25E
:1001C000205210B51A804DF628121A8000BF00BFC9
:1001D0000AF0EEFD514B4FF010621A60504A9A60DF
:1001E000504ADA60504A136813F4807304D14F49BF
:1001F0000B604FF4A85313604D4B1A78110703D5C9
:100200001A7842F008021A704A4B4B492A221A7097
:100210004A4A4B4B8B4204D252F8040F43F8040B6A
:10022000F8E7484B484900228B4202D243F8042B9E
:10023000FAE74649464A002352F8230041F82300D2
:1002400001336F2BF8D1434B434A802103F8011B44
:100250009342FBD1414B3D4A1A60414B8A221A70AE
:10026000A3F5805324225A70A0221A709A7992071B
:10027000FCD59A79D406FCD43A4A937903F00C035E
:10028000082B384BF9D105221A7143225A719A79F9
:100290009006FCD5334A9179324B4906FBD5324A58
:1002A0004FF0817111600521516020221A709A79F6
:1002B00002F00C020C2AFAD12C4B2D4A1A602D4B5D
:1002C0002D4A1A6000225A60072243F8042C2B4A58
:1002D000C3F80C2D62B60AF065FE144B1B68DA07F2
:1002E00005D527480AF0B0FD264B274A1A60274B50
:1002F0001B785B0609D5234C234B22689A4204D114
:100300001F480AF0A1FD002323600EF03FF90AF018
:1003100055FD0CF08DFDFEE70E20054030800440B9
:10032000823F04000100002B10D0034014D0034092
:1003300002D0074000E00740F091FF1F0471010068
:100340002087FF1FF091FF1F28A2FF1F0082FF1FC1
:100350000000000000E400E05FE400E008ED00E0E1
:1003600000500640004006404480044004800440A1
:10037000C010050014E000E03F190100000020203B
:1003800008B3A55D1CE00340A5C3945A00F00740E4
:10039000FFFFFFFFFFFFFFFFFFFFFFFFFFFFFFFF6D
:1003A000FFFFFFFFFFFFFFFFFFFFFFFFFFFFFFFF5D
:1003B000FFFFFFFFFFFFFFFFFFFFFFFFFFFFFFFF4D
:1003C000FFFFFFFFFFFFFFFFFFFFFFFFFFFFFFFF3D
:1003D000FFFFFFFFFFFFFFFFFFFFFFFFFFFFFFFF2D
:1003E000FFFFFFFFFFFFFFFFFFFFFFFFFFFFFFFF1D
:1003F000FFFFFFFFFFFFFFFFFFFFFFFFFFFFFFFF0D
:10040000FFFFFFFFFFFFFFFFFFFFFFFFDEF9FFFF23
:1004100010B5054C237833B9044B13B10448AFF33E
:1004200000800123237010BDF091FF1F0000000029
:1004300000710100084B10B51BB108490848AFF323
:1004400000800848036803B910BD074B002BFBD0A0
:10045000BDE81040184700BF00000000F491FF1FE6
:1004600000710100F091FF1F0000000000207047A4
:100470000023024A1360024A136070471896FF1F58
:10048000A896FF1F08B51F4B1B7813F0FF0F07D16D
:10049000002105200AF0E8FC01221B4B1A6008BD70
:1004A000194B1A6801321A601B68013B0F2B1CD8CC
:1004B000DFE803F0080808120812121208121212DC
:1004C000081212120F4B1B7813F0FF0F0DD00121F1
:1004D00005200AF0C9FC08E00A4B1B7813F0FF0F57
:1004E00003D0002105200AF0BFFC074B1B68074A18
:1004F000134003D5013B63F00F030133024A13603D
:1005000008BD00BF3487FF1F1492FF1F0F0000803B
:1005100008B5324B1B681BB9002103200AF0A4FC6C
:100520002E4B1B68012B0BD1012103200AF09CFCF0
:1005300064200AF021FD002103200AF095FC08BD8B
:10054000264B1B68022B1AD1012103200AF08CFCD8
:1005500064200AF011FD002103200AF085FC4FF40D
:1005600096700AF009FD012103200AF07DFC642049
:100570000AF002FD002103200AF076FC08BD174BAB
:100580001B68032B28D1012103200AF06DFC642095
:100590000AF0F2FC002103200AF066FC4FF496708A
:1005A0000AF0EAFC012103200AF05EFC64200AF054
:1005B000E3FC002103200AF057FC4FF496700AF088
:1005C000DBFC012103200AF04FFC64200AF0D4FC7C
:1005D000002103200AF048FC08BD00BF2887FF1F48
:1005E00038B5054D05F1F004103D20460CF0C8FA71
:1005F000103CAC42F9D138BD8497FF1F10B50446BA
:100600000CF0B0F8204610BD00B583B0084B1B6855
:100610000193019A074B1A60074803685B6801223F
:10062000064998470122064B1A7003B05DF804FB97
:10063000F49DFF1FA896FF1F9487FF1F285E0100EF
:100640001892FF1F30B595B004460A4602A908F07B
:10065000D9FD01AA504902A80EF0F8FD002120465C
:1006600008F010FE05464D4B1B7843B34C4C2368F5
:100670005B6815224B4920469847019920460CF0AB
:100680003FF923685B680B224749204698470021C1
:1006900028460DF085FDB0FA80F1490920460CF09E
:1006A0002FF9424B1B68019A9A4208DD23685B6868
:1006B00012223F492046984720460CF0BFF8019B84
:1006C0003A4A1268934264DC384A1268934260DC0A
:1006D0005C1E04EB4403374A13449A7842F0040248
:1006E0009A70002128460DF05BFD38BB04EB4403F3
:1006F000304C23449A7842F001029A702E4B1B78BA
:10070000002B41D02D4904A80CF086FA0A22019949
:1007100008A80CF0BDFA08A904A80CF039FB204C7D
:10072000014620460CF064F820460CF087F808A833
:100730000CF026FA04A80CF023FA25E004EB44039D
:100740001C4C23449A7802F0FE029A701A4B1B78D4
:10075000D3B11B490CA80CF05FFA0A22019910A82A
:100760000CF096FA10A90CA80CF012FB0C4C0146E8
:1007700020460CF03DF820460CF060F810A80CF074
:10078000FFF90CA80CF0FCF9019B013B01210D4A7B
:10079000D15415B030BD00BF2C5E0100BC96FF1FC8
:1007A0009487FF1F305E0100485E0100A09BFF1F81
:1007B000545E01001C92FF1F5097FF1F685E0100EE
:1007C0007C5E0100C096FF1F30B595B004460A4616
:1007D00002A908F017FD6B4601AA4A4902A80EF0CB
:1007E00035FD0021204608F04DFD0DF00BFD0546BE
:1007F000454B1B7813B3454C23685B68142244496E
:1008000020469847019920460CF07AF823685B68E7
:100810000B22404920469847294620460CF070F8A4
:1008200020460CF00BF83C4B1B68019A9A4205DD00
:10083000204623685B68122238499847019B364A54
:10084000126893425CDC013B03EB430234490A44E7
:10085000917841F0080191703DB303EB4303304AB6
:1008600013449A7842F002029A702E4B1B78002BA8
:1008700041D02D4904A80CF0CFF90A22019908A80B
:100880000CF006FA08A904A80CF082FA1F4C0146E5
:1008900020460BF0ADFF20460BF0D0FF08A80CF06F
:1008A0006FF904A80CF06CF925E003EB43031C4A34
:1008B00013449A7802F0FD029A701A4B1B78D3B158
:1008C0001A490CA80CF0A8F90A22019910A80CF0FA
:1008D000DFF910A90CA80CF05BFA0C4C014620467D
:1008E0000BF086FF20460BF0A9FF10A80CF048F98A
:1008F0000CA80CF045F9019B013B01210C4AD15495
:1009000015B030BD945E0100BC96FF1F9487FF1F99
:100910009C5E0100485E0100A09BFF1F545E010029
:100920001C92FF1F5097FF1FB45E0100C45E0100C0
:10093000C096FF1F38B504460D4608460EF020FF4E
:1009400023685B68024629462046984705462046AC
:100950000BF074FF284438BD70B582B00E461C4CB5
:1009600023680193019A1B4B1A604FF47A624EF68A
:10097000602103F097FE45B223680093009A164B5E
:100980001A600EB335B9154803685B681022144924
:10099000984705E0114803685B680E2211499847A3
:1009A0000D4B18680B4B19680C4C00230A22411A96
:1009B00020460BF069FF23685B6805220A49204640
:1009C000984720460BF03AFF284602B070BD00BFA2
:1009D000F49DFF1FAC96FF1FAC9CFF1F9487FF1F69
:1009E000D45E0100E85E0100F85E01002DE9F041EF
:1009F00082B0904B1B680093009E00278D4DDFF85E
:100A0000648240F6B7342B680193019B9B1BA34281
:100A100015D80BF071FC0028F5D0874C23685B6873
:100A200007224146204698470BF042FD0BF018FC88
:100A3000074623681B68C1B220469847E1E7002FAC
:100A400000F0F480FBB2303B232B00F2EF80DFE8B4
:100A500013F0240031003F004D005B006900770077
:100A6000ED008500ED00ED00ED00ED00ED00ED0086
:100A7000ED00ED00ED00ED00ED00ED00ED00A40057
:100A8000ED00ED00ED00ED00ED00ED00ED00ED00FE
:100A9000ED00ED00ED00ED0096000023674A1370B5
:100AA000674A1370674A1370674A1370674A137076
:100AB0003024ACE00122614B1A700023604A1370AD
:100AC000604A1370604A1370604A137031249EE0CC
:100AD00001225A4B1A70002359490B7059490A7068
:100AE000594A1370594A1370322490E00123534A33
:100AF0001370002252490A7052490B7052490B7010
:100B0000524B1A70332482E001234C4A13704C4A32
:100B100013704C4A137000234B4A13704B4A1370E6
:100B2000342474E00123454A1370454A1370454A42
:100B30001370454A13700022444B1A70352466E046
:100B400001233E4A13703E4A137000233D4A13703E
:100B50003D4A13703D4A1370362458E00123374A4A
:100B60001370374A1370374A1370374A13700022D4
:100B7000364B1A700522364B1A70382447E0012292
:100B80002E4B1A7000232E490B702E490B702E49E4
:100B90000B702E4B1A70532439E0274C20460BF073
:100BA0004DFE23685B680D222A492046984723683A
:100BB0005B68032228492046984720460BF03EFEFA
:100BC0000BF076FC23685B68262224492046984770
:100BD00020460BF033FE0BF06BFC012603250024AE
:100BE000314628460AF040F921460E200AF03CF929
:100BF00064200AF0C1F931460E200AF035F9214689
:100C000028460AF031F964200AF0B6F9E8E70A4DFF
:100C10002B685B6821221249284698472B681B687D
:100C200021462846984728460BF008FE02B0BDE84A
:100C3000F08100BFF49DFF1F9487FF1F5097FF1F97
:100C40009693FF1FBC96FF1F5197FF1F1C96FF1F17
:100C50002C87FF1F085F0100185F01001C5F010067
:100C6000445F0100005F01000A4B1B6873B182B052
:100C7000094B1B680193019B064A10681B1A42F23C
:100C80000F7083428CBF0020012001E000207047DC
:100C900002B07047A896FF1FF49DFF1F184B1B68FA
:100CA000002B2CDD2DE9F041164D0024164E174F78
:100CB000DFF8608004EB44017318002272545A700C
:100CC00008229A70394628460BF0D0FF092C07DC21
:100CD000414628460CF03AF8611C0CF045F803E058
:100CE000214628460CF040F80122094B1A551444BD
:100CF000034B1B681035A342DCDCBDE8F081704774
:100D00000C92FF1F8497FF1F5497FF1F685F01001D
:100D1000289CFF1F145F010030B589B001A808F0BE
:100D20002BFC524803F0EEFF002840F39980441E4C
:100D30004E4D284603F0B4FFC1B201A808F02CFFC5
:100D4000013CB4F1FF3FF4D101A808F081FA00287A
:100D500040F0868001210E200AF086F80023444AE4
:100D6000444901A808F03EFA0023434A434901A838
:100D700008F038FA0023424A424901A808F032FA42
:100D80000023414A414901A808F02CFA0023404AB7
:100D9000404901A808F026FA00233F4A3F4901A82C
:100DA00008F020FA00233E4A3E4901A808F01AFA4A
:100DB00000233D4A3D4901A808F014FA00233C4AAB
:100DC0003C4901A808F00EFA00233B4A3B4901A820
:100DD00008F008FA00233A4A3A4901A808F002FA52
:100DE0000023394A394901A808F0FCF90023384AA0
:100DF000384901A808F0F6F90023374A374901A815
:100E000008F0F0F90023364A364901A808F0EAF95B
:100E10000023354A354901A808F0E4F90023344A93
:100E2000344901A808F0DEF90023334A334901A808
:100E300008F0D8F90023324A324901A808F0D2F963
:100E40000023314A314901A808F0CCF90023304A87
:100E5000304901A808F0C6F900210E200AF004F874
:100E600001A808F0B3FB09B030BD00BF809BFF1F95
:100E700045060000705F0100C90700007C5F0100AB
:100E80004D2A00008C5F0100992B00009C5F01003F
:100E900061180000AC5F0100A51F0000C05F0100E9
:100EA0004D110000CC5F010071040000D45F01000F
:100EB00009060000DC5F0100AD160000E45F0100E0
:100EC00051160000F05F0100F5150000FC5F010005
:100ED0003D1300000860010099130000206001002C
:100EE000F51300003460010099140000486001000F
:100EF000F5140000606001005115000070600100F1
:100F0000091700008460010065170000946001006B
:100F1000C1170000A860010030B583B00446214B22
:100F20001B7813F0FF0F08D018211E4A0B46013B17
:100F3000FDD1137813F0FF0FF8D10121194B19706F
:100F40000E2009F091FF184B5B69ABB1174B009372
:100F5000154D6B690193164B1A886946284603F0B4
:100F600085FE2946204608F0C1F9284603F086FE92
:100F7000204608F009FB0CE00E4B1B784BB10E4CE1
:100F800023685B684E220D492046984720460BF0A7
:100F900055FC00210E2009F067FF0022014B1A705A
:100FA00003B030BD269CFF1F809BFF1F106C01000B
:100FB0002487FF1F5097FF1F9487FF1FBC6001000D
:100FC00070B59AB0584B1B68584A1268584909685E
:100FD0000191584909680091574911A80EF010F97C
:100FE00011A809F027FB102108F0DCFD04460EF0E3
:100FF000C7FB0346514D2868E05051494B780A78A9
:101000004879039008790290C87801908978009116
:101010004C490BA80EF0F4F84B4904A808F0A0FACC
:1010200018200BF00DFF0646294607F0EFFF337836
:10103000032B02D18DF81C3011E006990131890093
:1010400005980DF0D3FE18B903238DF81C3006E087
:101050000590069A40F82260069B013306931820FB
:101060000BF0EEFE0546214607F0D0FF2B78032B50
:1010700002D18DF81C3011E00699013189000598E4
:101080000DF0B4FE18B903238DF81C3006E005906E
:10109000069A40F82250069B0133069318200BF065
:1010A000CFFE04460BA907F0B1FF2378032B02D132
:1010B0008DF81C3011E006990131890005980DF07A
:1010C00095FE18B903238DF81C3006E00590069AAA
:1010D00040F82240069B0133069318200BF0B0FE27
:1010E000044611A907F092FF2378032B02D18DF853
:1010F0001C3011E006990131890005980DF076FE4B
:1011000018B903238DF81C3006E00590069A40F8C4
:101110002240069B0133069304A8FFF7FDFE04A8B6
:1011200008F054FA1AB070BD58800440548004404E
:10113000608004405C8004400C610100185F010085
:10114000B096FF1F246101004461010010B5084BF7
:101150001B784BB1074C23685B680E22064920467A
:10116000984720460BF06AFBFFF72AFF10BD00BF2F
:101170005097FF1F9487FF1F5461010030B58DB059
:1011800007AC194D0FCD0FC42B68238007A9684603
:1011900008F0E6F9154B1D6818200BF051FE0446C7
:1011A000294607F055FF2378032B02D18DF80C3028
:1011B00011E002990131890001980DF017FE18B96C
:1011C00003238DF80C3006E00190029A40F822408B
:1011D000029B013302936846FFF79EFE684608F0C3
:1011E000F5F90DB030BD00BF64610100B896FF1F76
:1011F00030B58DB007AC194D0FCD0FC42B682380CF
:1012000007A9684608F0ACF9154B1D6818200BF0CB
:1012100017FE0446294607F01BFF2378032B02D153
:101220008DF80C3011E002990131890001980DF020
:10123000DDFD18B903238DF80C3006E00190029A09
:1012400040F82240029B013302936846FFF764FE98
:10125000684608F0BBF90DB030BD00BF78610100F1
:101260000C92FF1F10B58CB0174B07AC0FCB07C407
:10127000237007A9684608F073F918200BF0E0FD09
:101280000446124907F0C2FE2378032B02D18DF8E1
:101290000C3011E002990131890001980DF0A6FD92
:1012A00018B903238DF80C3006E00190029A40F83B
:1012B0002240029B013302936846FFF72DFE6846E9
:1012C00008F084F90CB010BD8C6101002096FF1F5E
:1012D00000B589B0064901A808F042F901A8FFF756
:1012E0001BFE01A808F072F909B05DF804FB00BF0D
:1012F000DC5F010010B540F2FF100AF08BF80E4CD5
:1013000023681B6800212046984723681B6800213A
:101310002046984723681B68002120469847236889
:101320001B6800212046984723681B68012120463E
:1013300098470AF03DF910BD7487FF1F08B5034AAE
:101340001368002BFCD1FFF7D5FF08BD1492FF1FD7
:1013500010B540F2FF100AF05DF80E4C23681B68D0
:1013600001212046984723681B68002120469847A2
:1013700023681B6800212046984723681B680021CA
:101380002046984723681B680121204698470AF0A9
:101390000FF910BD7487FF1F08B5034A1368002BAF
:1013A000FCD1FFF7D5FF08BD1492FF1F10B540F226
:1013B000FF100AF02FF80E4C23681B68022120460C
:1013C000984723681B6800212046984723681B68BC
:1013D00000212046984723681B6800212046984733
:1013E00023681B680121204698470AF0E1F810BDE8
:1013F0007487FF1F08B5034A1368002BFCD1FFF761
:10140000D5FF08BD1492FF1F10B540F2FF100AF07F
:1014100001F80E4C23681B68032120469847236877
:101420001B6800212046984723681B68002120463E
:10143000984723681B6800212046984723681B684B
:101440000021204698470AF0B3F810BD7487FF1FAB
:1014500010B540F2FF1009F0DDFF0E4C23681B6849
:1014600004212046984723681B680021204698479E
:1014700023681B6800212046984723681B680021C9
:101480002046984723681B680121204698470AF0A8
:101490008FF810BD7487FF1F08B5034A1368002B2F
:1014A000FCD1FFF7D5FF08BD1492FF1F10B540F225
:1014B000FF1009F0AFFF0E4C23681B680521204682
:1014C000984723681B6800212046984723681B68BB
:1014D00000212046984723681B6800212046984732
:1014E00023681B680021204698470AF061F810BD68
:1014F0007487FF1F08B5034A1368002BFCD1FFF760
:10150000D5FF08BD1492FF1F10B540F2FF1009F07F
:1015100081FF0E4C23681B680621204698472368EC
:101520001B6800212046984723681B68002120463D
:10153000984723681B6800212046984723681B684A
:101540000021204698470AF033F810BD7487FF1F2A
:1015500008B5034A1368002BFCD1FFF7D5FF08BD7F
:101560001492FF1F10B540F2FF1009F053FF0E4C0C
:1015700023681B6807212046984723681B680021C1
:101580002046984723681B68002120469847236817
:101590001B6800212046984723681B6800212046CD
:1015A00098470AF005F810BD7487FF1F10B540F288
:1015B000FF1009F02FFF0E4C23681B680A212046FC
:1015C000984723681B6800212046984723681B68BA
:1015D00000212046984723681B6800212046984731
:1015E00023681B6800212046984709F0E1FF10BDE1
:1015F0007487FF1F08B5034A1368002BFCD1FFF75F
:10160000D5FF08BD1492FF1F10B540F2FF1009F07E
:1016100001FF0E4C23681B680B2120469847236866
:101620001B6800212046984723681B68002120463C
:10163000984723681B6800212046984723681B6849
:1016400000212046984709F0B3FF10BD7487FF1FA3
:1016500008B5034A1368002BFCD1FFF7D5FF08BD7E
:101660001492FF1F10B540F2FF1009F0D3FE0E4C8C
:1016700023681B680C212046984723681B680021BB
:101680002046984723681B68002120469847236816
:101690001B6800212046984723681B6800212046CC
:1016A000984709F085FF10BD7487FF1F08B5034AEE
:1016B0001368002BFCD1FFF7D5FF08BD1492FF1F64
:1016C00010B540F2FF1009F0A5FE0E4C23681B6810
:1016D0000D212046984723681B6800212046984723
:1016E00023681B6800212046984723681B68002157
:1016F0002046984723681B6800212046984709F038
:1017000057FF10BD7487FF1F08B5034A1368002BED
:10171000FCD1FFF7D5FF08BD1492FF1F10B540F2B2
:10172000FF1009F077FE0E4C23681B680E2120463F
:10173000984723681B6800212046984723681B6848
:1017400000212046984723681B68002120469847BF
:1017500023681B6800212046984709F029FF10BD27
:101760007487FF1F08B5034A1368002BFCD1FFF7ED
:10177000D5FF08BD1492FF1F10B540F2FF1009F00D
:1017800049FE0E4C23681B680F21204698472368AA
:101790001B6800212046984723681B6800212046CB
:1017A000984723681B6800212046984723681B68D8
:1017B00000212046984709F0FBFE10BD7487FF1FEB
:1017C00008B5034A1368002BFCD1FFF7D5FF08BD0D
:1017D0001492FF1F1C4B1B68834233DB70B50C4611
:1017E0000546461E8B685BB1082B2AD8174800EBCC
:1017F00006100BF025FA0122154B9A55A36803BB7E
:10180000144806EB46014318002242545A708022C5
:101810009A700E4C04EB06140F4920460BF026FA82
:10182000092E07DC0D4920460BF090FA29460BF0F3
:101830009BFA03E0314620460BF096FA0122044B56
:101840009A5570BD704700BF0C92FF1F8497FF1F11
:10185000289CFF1F5497FF1F685F0100145F010061
:1018600010B592B004460A4609A907F0CBFC08AAB5
:10187000224909A80DF0EAFC082305AA0021204608
:1018800007F010FD05A901A80BF0C6F91C4B1B7849
:1018900013B31C4C23685B6815221B4920469847EC
:1018A000089920460BF02CF823685B680922174939
:1018B0002046984701A920460AF09AFF20460AF0E0
:1018C000BDFF134B1B68089A9A4205DD204623682A
:1018D0005B6812220F499847089C01A90EA80BF0DB
:1018E000B9F90EA92046FFF775FF0EA80BF048F9CD
:1018F00001A80BF045F912B010BD00BF2C5E01002D
:10190000BC96FF1F9487FF1FC0610100D8610100D2
:101910000C92FF1F545E0100154B1B7833B330B59A
:1019200089B00C460546134968460BF075F90A2242
:10193000294604A80BF0ACF904A968460BF028FA74
:101940000D490BF02DFA21460BF022FA0B4C014603
:1019500020460AF04DFF20460AF070FF04A80BF065
:101960000FF968460BF00CF909B030BD704700BFA5
:101970005197FF1FE4610100EC6101009487FF1F94
:1019800070B59AB0064600EB40032D4AD55C2D0990
:101990002C4912A80BF040F90A22294616A80BF090
:1019A00077F916A912A80BF0F3F901460EA80BF06F
:1019B00051F90EA93046FFF7AFFF0EA80BF0E0F883
:1019C00016A80BF0DDF812A80BF0DAF81E4B09ACE4
:1019D0000FCB07C423800A2208A9701C0CF016FE46
:1019E00008A909A80DF060FC09A901A807F0B8FD35
:1019F00018200BF025FA0446294607F029FB237826
:101A0000032B02D18DF8103011E0039901318900C8
:101A100002980DF0EBF918B903238DF8103006E0A9
:101A20000290039A40F82240039B0133039301A8DC
:101A3000FFF772FA01A807F0C9FD1AB070BD00BF28
:101A4000049AFF1FFC6101000862010070B596B0A6
:101A5000054600EB40032C4A13449B7813F0010F1A
:101A60000CD02A490EA80BF0D7F80EA92846FFF78C
:101A700053FF0EA80BF084F801260BE0244912A8AE
:101A80000BF0CAF812A92846FFF746FF12A80BF080
:101A900077F800261F4B09AC0FCB07C423700A222E
:101AA00008A9681C0CF0B2FD08A909A80DF0FCFB00
:101AB00009A901A807F054FD18200BF0C1F904464C
:101AC000314607F0EBFA2378032B02D18DF8103062
:101AD00011E003990131890002980DF087F918B9D6
:101AE00003238DF8103006E00290039A40F822405C
:101AF000039B0133039301A8FFF70EFA01A807F037
:101B000065FD16B070BD00BF049AFF1F186201008A
:101B1000206201002C62010070B596B0054600EB12
:101B200040032D4A13449B7813F0020F0CD02B492D
:101B30000EA80BF071F80EA92846FFF7EDFE0EA8CF
:101B40000BF01EF801260BE0254912A80BF064F8F3
:101B500012A92846FFF7E0FE12A80BF011F80026A4
:101B6000204B09AC0FCB07C424F8023B1B0C23709D
:101B70000A2208A9681C0CF049FD08A909A80DF063
:101B800093FB09A901A807F0EBFC18200BF058F90A
:101B90000446314607F082FA2378032B02D18DF8F0
:101BA000103011E003990131890002980DF01EF9FF
:101BB00018B903238DF8103006E00290039A40F81C
:101BC0002240039B0133039301A8FFF7A5F901A865
:101BD00007F0FCFC16B070BD049AFF1F3C620100C8
:101BE000486201005462010070B596B0054600EBF2
:101BF00040032C4A13449B7813F0100F0CD02A4951
:101C00000EA80BF009F80EA92846FFF785FE0EA8CE
:101C10000AF0B6FF01260BE0244912A80AF0FCFFE7
:101C200012A92846FFF778FE12A80AF0A9FF00269D
:101C300009AC1F4B93E8070084E807000A2208A9B3
:101C4000681C0CF0E3FC08A920460DF02DFB214692
:101C500001A807F085FC18200BF0F2F80446314685
:101C600007F01CFA2378032B02D18DF8103011E015
:101C700003990131890002980DF0B8F818B90323CF
:101C80008DF8103006E00290039A40F82240039B42
:101C90000133039301A8FFF73FF901A807F096FC71
:101CA00016B070BD049AFF1F646201006C620100EF
:101CB0007462010070B592B00546354B09AC0FCB8C
:101CC00007C423800A2208A9681C0CF09FFC08A9FD
:101CD00009A80DF0E9FA05EB45032E4A13449B7859
:101CE00013F0400F0CD02C490EA80AF095FF0EA956
:101CF0002846FFF711FE0EA80AF042FF012600E079
:101D00000026264B1B78BBB1254C23685B681C2240
:101D1000244920469847294620460AF0F1FD2368C9
:101D20005B680B22204920469847314620460AF03E
:101D3000E7FD20460AF082FD09A901A807F010FC82
:101D400018200BF07DF80446314607F0A7F92378F8
:101D5000032B02D18DF8103011E003990131890075
:101D600002980DF043F818B903238DF8103006E0FF
:101D70000290039A40F82240039B0133039301A889
:101D8000FFF7CAF801A807F021FC12B070BD00BF30
:101D900080620100049AFF1F906201005197FF1FAB
:101DA0009487FF1F9C620100485E01002DE9F0410D
:101DB0009EB0734C00EB4002A3189B7803F04003E5
:101DC000DBB2A25CD2B211B9002B00F0D580804604
:101DD0001C1C18BF0124C2F380076A490EA80AF030
:101DE0001BFF0EA94046FFF797FD0EA80AF0C8FE9C
:101DF00009AD654E0FCE0FC533682B700A2208A9B6
:101E000008F101000CF002FC08A909A80DF04CFA39
:101E10005B4A08EB4803D118D35C4D7803F0030309
:101E200005EB0325594B1B78002B3ED0584E3368E9
:101E30005B681C22574930469847414630460AF0B5
:101E40005FFD33685B68092253493046984729464D
:101E500030460AF055FD514912A80AF0DDFE0A226B
:101E6000214616A80AF014FF16A912A80AF090FF3E
:101E70004B490AF095FF80460A2239461AA80AF013
:101E800007FF1AA940460AF083FF014630460AF0D0
:101E9000AFFC30460AF0D2FC1AA80AF071FE16A870
:101EA0000AF06EFE12A80AF06BFE09A901A807F05D
:101EB00057FB18200AF0C4FF0646294607F0C8F869
:101EC0003378032B02D18DF8103011E003990131E2
:101ED000890002980CF08AFF18B903238DF810309E
:101EE00006E00290039A40F82260039B01330393BB
:101EF00018200AF0A5FF0546214607F0CFF82B78F9
:101F0000032B02D18DF8103011E0039901318900C3
:101F100002980CF06BFF18B903238DF8103006E01F
:101F20000290039A40F82250039B01330393182038
:101F30000AF086FF0446394607F0B0F82378032BF1
:101F400002D18DF8103011E0039901318900029817
:101F50000CF04CFF18B903238DF8103006E0029006
:101F6000039A40F82240039B0133039301A8FEF734
:101F7000D3FF01A807F02AFB1EB0BDE8F08100BF27
:101F8000049AFF1FBC620100CC6201005197FF1F41
:101F90009487FF1FE0620100B4610100006301004B
:101FA0000C63010070B5164B1B784BB1154C2368C0
:101FB0005B68092214492046984720460AF03EFCF7
:101FC000124B1B68002B19DD002401260F4D3146F2
:101FD0002046FFF7EBFE2046FFF738FD2046FFF7CF
:101FE0009BFD2046FFF700FE2046FFF7C9FC204678
:101FF000FFF760FE01342B68A342E8DC70BD00BF30
:10200000BC96FF1F9487FF1F18630100A09BFF1F52
:1020100008B500F5807009F0FDF909F0C9FA08BDAE
:102020000023AA4A1360AA4A1360AA4A531E7D32AB
:10203000302103F8011F9342FBD10122A64B1A70F5
:10204000A64A1368012BFCD12DE9F0479CB0FFF79D
:10205000DBF94FF47A7008F08FFFA14C23685B68BE
:102060001922A0492046984720460AF0E7FB9B4AE0
:102070001368012BFCD14FF4C653013BFDD1954DA4
:10208000A8460027984E994C03E008F101087E2FDE
:102090005FD009F0B1FA10B109F0BEFAF9E70137E3
:1020A0003846FFF7B5FF08F043FF306009F0A4FAA7
:1020B0002368984206DA08F03BFF3368C01AB0F58F
:1020C000967FF3D309F098FA2368984204DA4FF424
:1020D000E153013BFDD1D8E709F09EFA09F09CFAE3
:1020E00009F09AFA8246DFF82492D9F800301B688A
:1020F000002148469847D9F800301B68002148461F
:102100009847D9F800301B680021484698475FFA85
:102110008AFABAF1800FB8D1754B1B680BB9744BB2
:102120001F606A4A136801331360322388F8003055
:10213000DFF8AC91D9F800305B680D226D49484654
:102140009847394648460AF0DBFB48460AF076FBDA
:102150009BE7624A1368052BFCD10027624E634C53
:1021600009F04AFA10B109F057FAF9E70137384691
:10217000FFF74EFF08F0DCFE30604FF46163013B77
:10218000FDD109F039FA2368984205DA08F0D0FE4B
:102190003368C01A9528F4D909F02EFA23689842BA
:1021A00004DA4FF4E153013BFDD135E009F034FA94
:1021B00009F032FA09F030FA8146DFF85081D8F898
:1021C00000301B68002140469847D8F800301B6853
:1021D000002140469847D8F800301B68002140464F
:1021E00098475FFA89F9B9F1800F15D0384A13681A
:1021F00001331360DFF8E880D8F800305B680D2207
:102200003D4940469847394640460AF079FB4046EA
:102210000AF014FB31232B704FF45263013BFDD1C4
:1022200001357E2F9CD14FF47A7008F0A5FEFFF7A0
:1022300099F94FF4FA7008F09FFEFFF7B7F9002202
:10224000254B1A70234D294668460AF0E5FC3121DA
:1022500068460AF0E7FD0446294604A80AF0DCFCBB
:10226000322104A80AF0DEFDA042B8BF2046234D6B
:10227000286004A80AF084FC68460AF081FC2B68F8
:1022800001332B60164C23685B680D221C492046E5
:102290009847296820460AF033FB20460AF0CEFA18
:1022A000184B1B7843B10A4B1B68002B4AD1074BD4
:1022B0001B68002B67D183E0054B1B6843BB0848B4
:1022C00003685B6801221049984783E00C92FF1F66
:1022D000B896FF1F2096FF1F3487FF1F1492FF1F21
:1022E0009487FF1F246301001092FF1F3087FF1F98
:1022F000A096FF1F4063010050630100A09BFF1FD9
:10230000606301005097FF1F706301007487FF1F17
:10231000324B1B78002B5DD0314C23685B680A225E
:10232000304920469847304918A80AF075FC18A98A
:1023300020460AF05DFA20460AF080FA18A80AF052
:102340001FFC47E0294908A80AF066FC284B1968D9
:102350000A220CA80AF09CFC0CA908A80AF018FD97
:102360001F4C014620460AF043FA20460AF066FA5E
:102370000CA80AF005FC08A80AF002FC174B1B7811
:10238000002B94D121E01B4910A80AF045FC1A4B00
:1023900019680A2214A80AF07BFC14A910A80AF0F4
:1023A000F7FC0F4C014620460AF022FA20460AF0BC
:1023B00045FA14A80AF0E4FB10A80AF0E1FB7BE759
:1023C0000B4B1B68002BA7D179E7094B1B68002B2F
:1023D0003FF475AF1CB0BDE8F08700BF5097FF1FFA
:1023E0009487FF1F746301002096FF1F8063010024
:1023F000B896FF1FB06301000C92FF1F08B509F0EB
:1024000009F809F0D5F808BD08B5014602480AF0F8
:10241000EFF909F0CDF808BD7487FF1F8D4B1B68DD
:10242000002B40F398812DE9F04F87B0DFF85482FC
:102430000025894E894C00E03D4609F0DDF810B1D9
:1024400009F0EAF8F9E76F1C3846FFF7E1FD844A26
:1024500005EB4503D018D25CD2B2DFF824E20EEBD4
:1024600003010EF803204378DBB24B708378DBB2B4
:102470008B7008F05DFD306009F0BEF8236898426B
:1024800005DA08F055FD3368C01A9528F4D909F02B
:10249000B3F82368984207DA0022724B5A554FF47A
:1024A000E153013BFDD148E100226F4B5A55012217
:1024B0006C4B5A556D4A13680133136009F0ACF840
:1024C000834609F0A9F8824609F0A6F80190684B06
:1024D0005B5D13F0FF0F00F08580664A05EB450356
:1024E00002EB0309D05C08F095FF99F8010008F0B1
:1024F00091FF99F8020008F08DFF98F80030322B18
:102500000FD15D4B1B68EB1A01335C4901EB0311E2
:1025100002A80AF09FFB02A8FFF776FF02A80AF0C4
:102520002FFB0022524B5A5505EB4503514AD35C11
:1025300013F0040F15D005EB450302EB030CD05C40
:10254000474901EB030ECA5C00F0030002F0FC02F5
:102550000243CA549CF80130DBB29EF801208EF889
:10256000013005EB4503434A13449B7813F0040FF5
:102570000CD005EB45031A449178394A13449A78F4
:1025800001F0010102F0FE020A439A7005EB4503D7
:10259000384A13449B7813F0080F0CD005EB450321
:1025A0001A4491782E4A13449A7801F0020102F0FD
:1025B000FD020A439A7005EB45032E4AD35C13F0E3
:1025C000080F0AD005EB4505525D25494B5D02F029
:1025D000F00203F00F0313434B554FF45263013BDA
:1025E000FDD1AAE0DFF8A090D9F800301B680021E7
:1025F00048469847D9F800301B680021484698475C
:10260000D9F800301B680021484698475FFA8BFBD9
:10261000134905EB4503CA1801F803B05FFA8AFABB
:1026200082F801A09DF804309370937813F0400F66
:102630004AD005EB45030A461A44527810490B4428
:102640005978D3B28B4221D0074A535D43F001033E
:10265000535539E0A09BFF1F1092FF1F3087FF1FCB
:10266000049AFF1F1C94FF1FA89BFF1F9893FF1F36
:10267000C096FF1F1C92FF1FA096FF1F8497FF1F8D
:102680008898FF1F2096FF1F7487FF1F05EB4503E7
:10269000314A1A44527831490B445B783049097801
:1026A000D31A4A4293420ADD05EB45032A4A1A44EB
:1026B00052782A4803445B78D31A994204DC294AA9
:1026C000535D43F00103535505EB4503224A1A4479
:1026D000927822490B449B78534013F0400F04D06A
:1026E000204A535D43F00803535505EB45031A4A4E
:1026F0001A44927819490B449B78534013F0130FF6
:1027000004D0184A535D43F00203535505EB4503CB
:10271000114AD25C1149CB5C1B09B3EB121F04D0E8
:10272000104A535D43F0040353550E4B5B5D13F0A9
:10273000FF0F02D001220C4B1A704FF45263013B81
:10274000FDD10A4B1B6808F10108BB423FF774AE8C
:1027500007B0BDE8F08F7047049AFF1F8898FF1FED
:102760002C87FF1FA89BFF1F2D87FF1FA09BFF1F0C
:1027700000224C4B1A604C4B1B68934240F39080F4
:102780002DE9F04188B0494F1546494E494C4A4B16
:1027900018682844FFF73CFC08F0CAFB306008F0DA
:1027A0002BFF2368834206DD08F0C2FB3368C01AA2
:1027B000B0F5967FF3D308F01FFF2368984203DA41
:1027C00000223E4B5A555DE001223C4B5A55354A9A
:1027D00013680133136008F01FFFC0B2384A05EBDD
:1027E000450302EB0308D05408F016FFC0B288F886
:1027F000010008F011FFC0B288F802004FF45263E4
:10280000013BFDD12F4B5B5D13F0FF0F1AD02E4A19
:1028100005EB450302EB0308D05CFFF7EFFD98F8EA
:102820000100FFF7EBFD98F80200FFF7E7FD3946DE
:1028300068460AF00FFA6846FFF7E6FD68460AF0B8
:102840009FF91FE0DFF88480D8F800301B68002172
:1028500040469847D8F800301B680021404698470A
:10286000D8F800301B6880214046984708F0A0FE49
:10287000394604A80AF0EEF904A8FFF7C5FD04A83C
:102880000AF07EF942F29043013BFDD10135064B3F
:102890001B681037AB423FF77AAF08B0BDE8F08154
:1028A000704700BF8498FF1F0C92FF1F8497FF1F83
:1028B0001092FF1F3087FF1FA096FF1F9C93FF1FE2
:1028C0009C94FF1F289CFF1F5497FF1F7487FF1FB6
:1028D0000022414B1A600122404B1A70404A136893
:1028E000012BFCD101223F4B1A603D4A1368052B96
:1028F000FCD12DE9F04385B0002637463A4D3B4CDC
:1029000008F07AFE10B108F087FEF9E7013630468C
:10291000FFF77EFB08F00CFB28604FF46163013B7E
:10292000FDD108F069FE2368984205DA08F000FB43
:102930002B68C01A9528F4D908F05EFE23689842E7
:1029400004DA4FF4E153013BFDD120E008F064FECE
:1029500008F062FE08F060FE8146DFF8A480D8F837
:1029600000301B68002140469847D8F800301B68AB
:10297000002140469847D8F800301B6800214046A7
:1029800098475FFA89F9B9F1800F18BF01374FF402
:102990005263013BFDD17E2EB2D1154968460AF043
:1029A0003BF969460120FEF715FF68460AF0E8F892
:1029B000FFF7DEFE0022094B1A700E4803685B68C1
:1029C00001220D499847002FD4BF002701270B4B48
:1029D0001F7005B0BDE8F083B896FF1F3487FF1F56
:1029E0001492FF1F0C92FF1F1092FF1F3087FF1FD2
:1029F000D86301009487FF1FE46301001696FF1F50
:102A00007487FF1F2DE9F0474D1EAB000F259D4039
:102A1000B9B10E46074601F18044013CA400DFF83D
:102A200028A04FF000094FF0100807EA05014B46B7
:102A30004246E140504609F027FF2D09043C013E83
:102A4000F3D1BDE8F08700BF9487FF1F30B585B094
:102A500004460A4602A906F0D5FB01AA404902A88D
:102A60000CF0F4FB0021204606F00CFC0BF0CAFB36
:102A700004463C4B1B78002B5FD13B4B1B78002B53
:102A800063D13A4B1B78002B5FD1394B1B78002B5D
:102A90005BD139E0374D2B685B68102236492846F8
:102AA00098470199284609F02BFF2B685B68512253
:102AB000324928469847284609F0C0FE294B1B7822
:102AC00013B32C4D2B685B6816222D492846984776
:102AD0000199284609F014FF2B685B6808222949F0
:102AE0002846984703212046FFF78CFF264B1B689A
:102AF000019A9A4205DD28462B685B681222234919
:102B000098471C4809F09AFE019B1F4A126893429D
:102B100023DC04F58064013B1D4803EB43014518A9
:102B2000425C02F0FC0242EA2422D2B24254E4B2F5
:102B30006C700121174AD1540FE0019B013B154AEB
:102B4000D35C13F0FF0FA5D1BBE7019B013B114AFA
:102B5000D35C13F0FF0FD7D09CE705B030BD00BFAA
:102B60002C5E0100BC96FF1F9693FF1F5197FF1F1D
:102B70005097FF1F9487FF1FE8630100FC6301006B
:102B80005064010068640100A09BFF1F545E0100B7
:102B90001C92FF1FC096FF1F30B585B004460A4641
:102BA00002A906F02FFB01AA234902A80CF04EFB54
:102BB0000021204606F066FB0BF024FB04461F4B69
:102BC0001B7813B31E4D2B685B6816221D492846DF
:102BD00098470199284609F093FE2B685B68082204
:102BE00019492846984702212046FFF70BFF174B4B
:102BF0001B68019A9A4205DD28462B685B68122201
:102C0000134998470E4809F019FE019B0F4A1268B4
:102C100093420EDC013B0F4803EB4301425C24036B
:102C200004F5006442EA2424E4B2445401210A4A2F
:102C3000D15405B030BD00BF2C5E0100BC96FF1F13
:102C40009487FF1F746401008C640100A09BFF1F28
:102C5000545E01001C92FF1FC096FF1FF8B50F1DA8
:102C60000C46451A054E6119304607F0FDFC04F884
:102C7000010BBC42F7D10420F8BD00BFEC9DFF1F43
:102C8000F8B50F1D0C46451A054E611914F8012BB5
:102C9000304607F0EFFCBC42F7D10420F8BD00BF7E
:102CA000EC9DFF1F2DE9F04192B0BF4B1C68BF495E
:102CB000BF4D1A46BF4F40F6C4100B7813F0FF0FFC
:102CC00000F06A822B7813F0030F00F0658213681E
:102CD0003E689B1B182B40F25F820121092008F0FF
:102CE000E7F80021092008F0BFF801210A2008F0C8
:102CF000DFF801210A2008F0B7F80121042008F0CC
:102D0000D7F80121042008F0AFF80121092008F0CC
:102D1000ABF8A94C23685B683522A8492046984740
:102D2000204609F08BFD09F0C3FB0121052008F0C6
:102D3000BFF80121032008F0BBF801210E2008F0A4
:102D4000B7F80121032008F08FF800210C2008F0CB
:102D5000AFF8FDF74BFE022007F08CFE0C2007F0C9
:102D6000B5FEFF24002526270A26384607F0DCFE9C
:102D70000BF02EF8014628460AF076FF054630464D
:102D800008F0FAF8631E13F0FF04EED18A4C2368B2
:102D90005B6812228A49204698478A4928460BF0E8
:102DA0001FF9014688480AF05DFF88490BF064F876
:102DB00087490AF059FF0AF0DDFB0223009302461F
:102DC0000B46204609F0A8FD23685B680A2281496A
:102DD00020469847204609F031FD23685B6812229F
:102DE0007D492046984723685B6803227B4920463B
:102DF0009847204609F022FD07F05EFC024678491C
:102E0000204609F033FD774B1B68774A12687749F3
:102E100009680191764909680091764903A80CF088
:102E2000EFF923685B68122273492046984703A88C
:102E30000CF0A6FC23685B68024603A9204698476D
:102E4000204609F0FBFC6D4D29460020FFF706FFE8
:102E50002B6801332B6029460020FFF711FF684ED5
:102E600031460420FFF7FAFE23685B6812226549A9
:102E70002046984700230A222968204609F004FDCD
:102E8000204609F0DBFC09F013FB23685B68122283
:102E90005D492046984700230A223168204609F000
:102EA000F3FC204609F0CAFC09F002FB574B1B78E3
:102EB000D3B103A807F0BEFB102106F073FE054650
:102EC00023685B68122252492046984729460CA87D
:102ED00009F0A2FE0CA9204609F08AFC204609F060
:102EE000ADFC0CA809F04CFE334C23685B6835221E
:102EF000484920469847204609F0A0FC09F0D8FA36
:102F000023685B681D22444920469847204609F003
:102F100095FC07F0DDFB02460B464049204609F0D0
:102F2000A5FC23685B6817223D4920469847204648
:102F300009F084FC3B4807F0D7FB0125DFF8F4805B
:102F4000002723685B6804224146204698473B4699
:102F50000A222946204609F097FC23685B68012273
:102F600031492046984701212E48FDF7F5FCC6B2AD
:102F70003B460A223146204609F086FC23685B68FE
:102F800002222A49204698470135002ED9D00A4C02
:102F900023685B68122226492046984700210320B7
:102FA00007F062FF48E000BFF49DFF1FF09FFF1F86
:102FB00000A0FF1F20A2FF1F9487FF1F986401003D
:102FC000D064010000007F430A6319450FEE2E3ED6
:102FD0000000C841E4640100F0640100185F0100D2
:102FE000046501005880044054800440608004401F
:102FF0005C8004400C6101001C650100A496FF1F69
:10300000A49BFF1F30650100446501001C96FF1F53
:10301000586501006C650100A4650100C4650100EC
:10302000E0650100B096FF1F4C6301007C63010066
:1030300000660100F865010023685B680F225B49A8
:10304000204698470DF143060024594D594F10A8CA
:1030500001F00EFD00230A2216F8011F284609F090
:1030600013FCE3B2022B05D82B685B6801223946BA
:10307000284698470134042CE9D14D4C204609F0EC
:10308000DDFB4FF4FA7007F077FF23685B682122BD
:10309000494920469847204609F0D0FB474948480F
:1030A00004F042FB68B123685B6822224549204650
:1030B0009847204609F0C2FB0021032007F0D4FE08
:1030C0000DE03B4C23685B683B223F492046984714
:1030D000204609F0B3FB0121032007F0C5FE3B4B5E
:1030E0001A880023009301233949354804F0C6FEAD
:1030F00070B12F4C23685B683322364920469847CD
:10310000204609F09BFB0021032007F0ADFE0DE0F7
:10311000274C23685B6826222F4920469847204683
:1031200009F08CFB0121032007F09EFE4FF4907004
:1031300007F096FF842007F0FBFF022008F098F8C4
:10314000224B1988254801F041FD254C254A264986
:10315000204609F0BDFA5023237122682AB1234B7F
:1031600013441B115021224A9954582007F004FFA0
:10317000204C214A2149204609F0AAFAFF23237155
:1031800022682AB1194B13441B11FF21184A995484
:1031900000221B4B1A7005E013681B1B83427FF64D
:1031A0008CAD9AE512B0BDE8F08100BF1466010055
:1031B0009487FF1F24660100286601004C66010009
:1031C000749DFF1F54660100786601003887FF1F59
:1031D000B4660100C4660100F8660100809BFF1F11
:1031E0004897FF1F8F5F010085040000008FFCBF20
:1031F00044E400E04097FF1FFFA14A0411050000CE
:103200009793FF1F10B588B0174C21460420FFF795
:1032100025FD23680133236021460420FFF730FD9C
:10322000642007F0A9FE114B1B78D3B11049684602
:1032300009F0F2FC0A22216804A809F03DFD04A966
:10324000684609F0A5FD0B4C0146204609F0D0FA6E
:10325000204609F0F3FA04A809F092FC684609F048
:103260008FFC08B010BD00BFA49BFF1F5097FF1F2D
:10327000206701009487FF1F2DE9F04F9BB00022CB
:10328000A34B1A70A34B1B680093009CA24EA3484B
:1032900005F0E2FB01F046FBFDF73EFDA04B1B787D
:1032A000002B74D19F4B1B7813F0FF0F04D0FEF757
:1032B0000FF800229B4B1A70964B1B680193019BE1
:1032C0001B1BB3F5FA6F05D3924B1B680293029C4C
:1032D000FFF7FEFA8E4B1B7813F0FF0F1FD1FDF79F
:1032E000C3FC50B9904B1B68032B03D08F49904807
:1032F000FDF720FB03228C4B1A60FDF7B5FC50B1A3
:10330000894B1B68022B03D08A498948FDF712FBC1
:103310000222854B1A600022814B1A70B7E77C4B62
:103320001B7813F0FF0F2ED0FDF79EFC70B97E4B7B
:103330001B68012B03D080497D48FDF7FBFA012271
:10334000794B1A600022764B1A70A0E7FDF78CFCCF
:10335000C8B10022744B1A6078497548FDF7EAFA43
:10336000774906A809F058FC06A90120FEF732FAB1
:1033700006A809F005FCFFF7FBF9FFF743FF012260
:10338000674B1A7003E0664B1B78002B44D0684CE7
:1033900023685B681B226B4920469847204609F04A
:1033A0004DFAFEF73DFEFDF7E9FEFDF721FFFDF7C3
:1033B00059FFFDF773FC00225B4B1A60624809F06D
:1033C000D1F9624B1B68012B07D001255F4C2846C1
:1033D00007F0D2FD2368012BF9D14FF4C653013B0E
:1033E000FDD1FFF7C5F945F6C053013BFDD1FDF70F
:1033F000AFFF4FF4E153013BFDD14D4C23685B68B7
:103400001922534920469847204609F017FA01230C
:10341000434A13704F4A13704F4F414B1B78002B98
:1034200000F01D823D4805F017FB01F07BFA3B6878
:10343000002B0BDD00231A4603EB430031183254F6
:103440004A708A70013339689942F5DC354B1B7834
:1034500013F0FF0F04D0FDF73BFF0022314B1A7031
:103460003E4B1B683BBB324C23685B6821223C49C6
:1034700020469847204609F0E1F90022284B1A70AF
:1034800038490AA809F0C8FB0AA90120FEF7A2F9E9
:103490000AA809F075FBFFF76BF9334A33492A484C
:1034A00009F016F91B4B1B680393039C4FF4FA6059
:1034B00007F062FDEBE6FDF7D7FB00285CD11C4C62
:1034C00023685B6821222A4920469847204609F054
:1034D000B5F90022124B1A7026490EA809F09CFB80
:1034E0000EA90120FEF776F90EA809F049FBFFF7B7
:1034F0003FF91D4A1D49144809F0EAF8054B1B68BD
:103500000493049C4FF4FA6007F036FDBFE600BF59
:103510001696FF1FF49DFF1F1C92FF1F749DFF1F37
:103520009793FF1F1892FF1F2887FF1F3467010022
:103530009487FF1F546701007467010094670100BE
:10354000B4670100C06701004097FF1F1492FF1F7E
:10355000DC6701003487FF1FA09BFF1FA896FF1F99
:10356000F86701001C680100FFA14A041105000072
:10357000286801004C6801000023BA4A1360BA4A67
:103580001360BA4B1B68012B05D0B84CFDF7C4FB88
:103590002368012BFAD1FEF741FFB54B1B7823B905
:1035A000B44B1B78002B00F08880B34C00230A2218
:1035B000B2490968204609F067F923685B6803226D
:1035C000AF49204698473B68002B73DD0124DFF8A4
:1035D000A092DFF80083A84D04F1FF3A99F800307B
:1035E0005BB318F80A3013F0FF0F1CD002212046FD
:1035F000FFF708FA2B685B680122A2492846984722
:103600000AEB4A0306EB030BF05C0221FFF7FAF921
:103610009BF801000221FFF7F5F99BF80200022157
:10362000FFF7F0F909E002212046FFF7EBF92B68DC
:103630005B6801229449284698478E4B1B7873B3E8
:1036400018F80A3013F0FF0F1FD0904B13F80A3010
:1036500013F0FF0F23D02B685B68012289492846AD
:1036600098470AEB4A0A06EB0A0B16F80A000221F1
:10367000FFF7C8F99BF801000221FFF7C3F99BF897
:1036800002000221FFF7BEF909E002212046FFF700
:10369000B9F92B685B6801227B49284698472B685B
:1036A0005B6801227A49284698473A68A24204F1A9
:1036B000010491DC704809F0C1F8764B1B78002BAF
:1036C00000F09F803B68002B40F398800024724DEF
:1036D000DFF8A0A12B5D13F0020F08D02046FEF703
:1036E000B5F92046FEF718FA2046FEF77DFA2B5D65
:1036F00013F0040F02D02046FEF742F92B5D13F0C1
:10370000080F02D02046FEF7D5FA2B5D13F0010F0B
:1037100003D000212046FEF749FB2B5D13F0FF0F7D
:1037200067D09AF80030002B63D05C4912A809F0EA
:1037300073FA0A22214616A809F0AAFA16A912A8B5
:1037400009F026FB564909F02BFBDFF82C810146D6
:10375000404609F04DF816A809F012FA12A809F02F
:103760000FFA504B04EB440903EB090B13F8090063
:103770000221FFF747F99BF801000221FFF742F908
:103780009BF802000221FFF73DF9D8F800305B6892
:103790000622454940469847444B03EB090B13F872
:1037A00009000221FFF72EF99BF801000221FFF723
:1037B00029F99BF802000221FFF724F9D8F800301C
:1037C0005B6805223A494046984706EB090B16F814
:1037D00009000221FFF716F99BF801000221FFF70B
:1037E00011F99BF802000221FFF70CF9404609F09D
:1037F00025F801343B68A3423FF76CAF0022254B0C
:103800001A70184B1B68002B7FF407AE0022294B5F
:103810001A60FDF7B3FC174B1B784BB1164C2368AD
:103820005B681422244920469847204609F006F890
:103830000023224A1370224A2249234808F048FFF5
:10384000224B1B680593059B0B4C23685B68232266
:103850001F4920469847204608F0F0FFDDE51BB0E1
:10386000BDE8F08F9893FF1F8498FF1F1492FF1FED
:103870009693FF1F5197FF1F9487FF1FA89CFF1F60
:10388000586801005C68010060680100C096FF1F75
:10389000646801002D87FF1FA89BFF1F6868010057
:1038A00080680100049AFF1F946801008898FF1F38
:1038B0009C680100B896FF1FA46801009793FF1F42
:1038C000FFA14A04110500004097FF1FF49DFF1F50
:1038D000BC6801001C94FF1F70B5184B00221A71C0
:1038E0004FF47A7199601A73154919601549196175
:1038F0005A61042119771448026080230371134A26
:1039000013490AF031FE134C04F580760025294650
:10391000204609F081F91034A642F8D10B4C22461A
:103920000D4900200AF020FE0C480023036080238C
:103930000371224606490AF017FE70BD809BFF1FE7
:1039400068690100106C01004897FF1F2087FF1F66
:10395000FD0500008497FF1FE10500004097FF1F51
:10396000704700BF10B441680A6814684B6823436D
:1039700013600368184A1A600368184ADA6003681B
:1039800002F180421A610368154A1A604468427A5B
:10399000144BA11891F8241003EBC10149680A32B5
:1039A00054F822200A604268047A1119097E03EB58
:1039B000C101496802EB8402D2690A604268817AD7
:1039C000501890F8300003EBC0035B6802EB8102F3
:1039D000526B1A6010BC704701401F000110003884
:1039E00000001F80986A0100002303614361836126
:1039F000C3610362704700BF054A02600A7C02711E
:103A00004A7C42718A7C8271CA7CC271704700BF55
:103A1000106C0100054A02600A7D02714A7D427104
:103A20008A7D8271CA7DC271704700BF106C01002F
:103A3000054A02600A7E02714A7E42718A7E827164
:103A4000CA7EC271704700BF106C0100074A026055
:103A500091F82020027191F82120427191F82220E2
:103A6000827191F82320C271704700BF106C010071
:103A7000302301F8023B130902F00F02092A94BF18
:103A80003032373201F8012D1A46002BF3D170473E
:103A90002DE9F04F8DB00646884691462022002140
:103AA00002A80BF051F906F148057C4B0A93FF235D
:103AB0008DF82C308DF82D308DF82E308DF82F307C
:103AC00043220AA9284601F0D1F8B0F1FF3F00F0E7
:103AD000E18001238DF808308DF8093006248DF837
:103AE0000A4000278DF80B7073681A0E42EA0361D2
:103AF0001A0202F47F020A431B0A03F47F431343B2
:103B0000019303934FEA19238DF810308DF811902B
:103B10008023ADF80230ADF812301C2202A92846ED
:103B200001F0B2F84FF0200B5A46394602A80BF0CC
:103B30000BF9B2465AF8080F0DF1300949F8280D73
:103B4000BAF80430ADF80C30102202A9284601F072
:103B50009BF85A46394602A80BF0F6F85F463A46FB
:103B60004946284601F090F8013CF8D163238DF8CE
:103B7000083082228DF8092053228DF80A208DF812
:103B80000B3035238DF80C3001238DF80D308DF876
:103B90000E803D228DF80F2007228DF810208DF821
:103BA0001130DAF80030CDF81230BAF80430ADF840
:103BB00016300C238DF818308DF81930384B1868F2
:103BC000CDF81A009A889B79ADF81E208DF8203028
:103BD000F27A08A93046FFF74BFF327B0DF1220144
:103BE0003046FFF745FF727B09A93046FFF740FFDB
:103BF0001E2202A9284601F047F8B8F1030F27D189
:103C000032238DF8083004238DF80930327C8DF88A
:103C10000A20727C8DF80B20B27C8DF80C20F27C8F
:103C20008DF80D2036228DF80E208DF80F30337F61
:103C30008DF81030737F8DF81130B37F8DF812300E
:103C4000F37F8DF813300C2202A9284601F01CF8EE
:103C500037238DF8083006238DF8093001228DF8BE
:103C60000A2003228DF80B208DF80C300F238DF8DD
:103C70000D303A238DF80E303B238DF80F30FF23A3
:103C80008DF81030092202A9284600F0FDFF2846D1
:103C900000F0F4FF0DB0BDE8F08F00BF106C010024
:103CA000586901002DE9F04F93B0074689469346C5
:103CB000B24B1B680393DDF80C8000F14805AF4E52
:103CC0004FF0320A2C46284601F01CF800280BDC85
:103CD00033680493049BC8EB03034B4500F249810E
:103CE000504607F049F9EDE7242205A9284600F0DF
:103CF000F1FF9DF81430022B40F03181B7F86030AD
:103D0000432B40F02F81069B1D0E45EA03651A02E6
:103D100002F47F0215431B0A03F47F431D43CBF8D3
:103D20000050062207F108010CA80AF077FF28B915
:103D30003B689D4202D37B689D4204D9204600F037
:103D400037FF002016E109983861CC25204600F0A5
:103D5000A7FF013DFAD14FF0000907F1240A4FF007
:103D6000040807F128030193204600F013FF002800
:103D700040F3FA80204600F093FF332800F0C38020
:103D80000ADC012820D002DC0028EDD0D2E0032894
:103D900024D006283BD0CDE03A2800F0878004DC10
:103DA000352808D036284BD0C4E03B2800F094805A
:103DB000FF28D9D0BEE0204600F072FF204600F078
:103DC0006FFF5FFA80F9CFE7204600F069FF4246B7
:103DD00007F11401204600F07DFFC5E7204600F002
:103DE0005FFF8346424607F11801204600F072FF4C
:103DF0005FFA8BFBABF10403002BB5DD9B4600267D
:103E0000204600F04DFF01365E45F9D1ACE7204673
:103E100000F046FF8346424607F12001204600F0AD
:103E200059FF5FFA8BFBABF10403002B9CDD9B4633
:103E30000026204600F034FF01365E45F9D193E7B5
:103E4000204600F02DFF97F81CE08DF83CE07E7FC7
:103E50008DF83D60BA7F8DF83E20FB7F8DF83F30B6
:103E60000F9991B18DF844E08DF845608DF84620AA
:103E70008DF84730FB6D119A9A4206D0C0B200F11E
:103E8000FF3B5FFA8BFB38B96EE7424607F11C0136
:103E9000204600F01FFF67E70BF1010B2E4620467E
:103EA00000F0FEFE0136B345F9D15DE7204600F093
:103EB000F7FE42460199204600F00CFFBB6A1A0E3D
:103EC00042EA03611A0202F47F020A431B0A03F466
:103ED0007F431343BB6247E7204600F0E1FE4246C2
:103EE00007F12C01204600F0F5FEFB6A1A0E42EAAB
:103EF00003611A0202F47F020A431B0A03F47F43A0
:103F00001343FB6230E7204600F0CAFE42465146AA
:103F1000204600F0DFFE7B6A1A0E42EA03611A02B5
:103F200002F47F020A431B0A03F47F4313437B62BC
:103F30003B6319E7204600F0B3FEC0B200F1FF3B3F
:103F40005FFA8BFB00283FF40FAF0BF1010B2E46FD
:103F5000204600F0A5FE01365E45F9D104E74FF09A
:103F6000000901E04FF00009204600F021FE48461C
:103F700000E0FF2013B0BDE8F08F00BFF49DFF1FED
:103F80002DE9F04786B004464FF4FA61012008F0AD
:103F9000EDFD6060A14649F8480B484600F00AFE76
:103FA0004421484600F012FE002800F09B804F4B51
:103FB0001B680093DDF80080002635464B4FDFF884
:103FC00030A194F84430032B7FD09BB96368013350
:103FD00063603B680193019AC8EB0202AAFB0232BC
:103FE000C2F38F1201212046FFF752FD012384F80E
:103FF00044305AE0042B13D16368013363603B689B
:104000000293029AC8EB0202AAFB0232C2F38F1299
:1040100003212046FFF73CFD022384F8443044E0AE
:10402000012B1AD105AAE16B2046FFF73BFE05469E
:1040300002283AD1059B63603B680393039AC8EB5F
:104040000202AAFB0232C2F38F1203212046FFF7BD
:104050001FFD022384F8443027E0022B25D105AA56
:10406000E16B2046FFF71EFE0546052818D1032305
:1040700084F84430636A13B94FF461736362A36ACE
:1040800013B9636A5B08A362E36A1BB9636AA3EBB3
:10409000D303E362A36A2363E36A6363012604E054
:1040A000062804BF002384F84430FF2D04BF0025F8
:1040B00084F84450002E84D13B680493049BC8EBE1
:1040C0000303A26B93427FF67CAF484600F072FD7B
:1040D000636801336360054B1B680593059B23648C
:1040E000304600E0002006B0BDE8F087F49DFF1FD9
:1040F000D34D6210F8B504460F460025456285622F
:10410000C5628263C36385608581FFF76DFC3B6890
:10411000A360BB88A38184F844502046FFF730FF9A
:10412000F8BD00BF10B582B004462A4B1B6801934E
:104130000199036CCB1AB3F57A7F1BD3264AA2FBF5
:10414000030292094FF47A7000FB1233C91A2164FA
:10415000236B51008B4234BF00239B1A2363636B94
:10416000994205D900236363236B5BB3002012E0FF
:104170009A1A6263236B5BB994F84430032B1CD109
:10418000042384F844302046FFF7FAFE013000E0B3
:104190000020636BDBB994F84430032B00D0B3B933
:1041A000002384F844302046FFF71EFC2046FFF72A
:1041B000E7FE03300BE00020F1E7626B002AFAD043
:1041C000002004E094F84430032BF4D1D8E702B087
:1041D00010BD00BFF49DFF1FD34D62104B684360BC
:1041E00000230381704700BF70B4013900252846C1
:1041F0002E4611F8013FBBB1A3F13004E4B2092C03
:1042000008D800EB8000303B03EB400398B2FF2856
:10421000EFD90EE02E2B0ED1032D0ED06B1C1544C2
:104220002871DDB23046E4E7032D08D1D0710120BA
:1042300006E0002004E0002002E0002000E0002072
:1042400070BC7047024B034A1A6000225A607047E4
:10425000B09CFF1F106C01002DE9F04182B00C46AC
:104260003E4B1B680093009B038100F10C07022268
:1042700000F10801384600F007FD02AD012325F8E2
:10428000023D02222946384600F0FEFC4FF48073BE
:10429000ADF8063002222946384600F0F5FC00232E
:1042A000ADF8063002222946384600F0EDFC022225
:1042B0002946384600F0E8FC02222946384600F03C
:1042C000E3FC23786BB326464FF0010801E0144667
:1042D00026462378DBB12E2B02D11CE02E2B1AD0E0
:1042E00014F8013F002BF9D111E08DF8055042463A
:1042F0000DF10501384600F0C7FC2A463146384624
:1043000000F0C2FC621C2378002BE0D109E0A51B61
:10431000002DEADC05E0A51B002DD8BF0134D7DD58
:10432000E3E702A9002301F8033D0122384600F02B
:10433000ABFC4FF4807502AC24F8025D02222146EA
:10434000384600F0A1FCADF806500222214638465E
:1043500000F09AFC012002B0BDE8F081F49DFF1F3F
:104360002DE9F04F89B081460F469246994B1B6864
:104370000293029E00F10C04964D4FF03208A346C2
:10438000204600F0BFFC00280ADC2B680393039B47
:104390009B1BBB4200F20C81404606F0EDFDEEE7B0
:1043A000D9F80420D9F820309A4240F00481B9F8B5
:1043B0002430352B40F00281204600F0EBFB0B2827
:1043C00040F3FF800C2205A9204600F083FCBDF8D5
:1043D0001620130A43EA02231BB29AB2ADF8122048
:1043E000B9F80800BDF81410884201D1002B05DB94
:1043F000584600F0DDFB4FF6FC70E8E040F20F237A
:104400001A4205D0204600F0D3FB4FF6FB70DEE0E9
:10441000BDF81A40230A43EA0424A4B254B1BDF8FB
:10442000182013029BB253EA122300F0CD8000251E
:10443000012605E0584600F0BBFB4FF6FA70C6E0D7
:1044400032460DF10601584600F044FC9DF8063056
:104450007BB1013B8DF80630584600F021FC9DF8F9
:104460000620531EDBB28DF80630002AF4D1002B53
:10447000E6D1584600F014FC584600F011FC5846AE
:1044800000F00EFC584600F00BFC0135ADB2BDF853
:10449000182013029BB243EA12239D42D0DB93E023
:1044A00032460DF10301584600F014FC9DF803302C
:1044B00013F0C00F0FD1BBB1013B8DF8033058464C
:1044C00000F0EEFB9DF80320531EDBB28DF80330A5
:1044D000002AF4D106E0584600F0E2FB00238DF8F4
:1044E000033001E0002BDBD1022201A9584600F085
:1044F000F1FB02220DF10601584600F0EBFB584695
:1045000000F0CEFB584600F0CBFB584600F0C8FB4D
:10451000584600F0C5FB02220DF11201584600F08A
:10452000D9FBBDF8042013029BB243EA1223012BEE
:1045300008D0BDF8122013029BB253EA12232CD0EC
:1045400000271DE0BDF8062013029BB243EA1223A8
:10455000012BEED1BDF8122013029BB243EA1223C5
:10456000042B05D0584600F023FB4FF6F7702EE0E1
:1045700004220AEB0201584600F0ACFB012026E0C1
:10458000584600F08DFB0137BFB2BDF81220130270
:104590009BB243EA12239F42F2DB0135ADB2AC423B
:1045A0007FF47EAF584600F003FB4FF6F6700EE046
:1045B0004FF6FF700BE04FF6FE7008E04FF6FE700E
:1045C00005E04FF6FD7002E00025012668E709B01E
:1045D000BDE8F08FF49DFF1F2DE9F04184B0054642
:1045E0000F469046FFF700FE002837D104466A6860
:1045F000294B5B689A4233D005F10C06274B1B68A8
:104600000193019901F00F0101F58061304600F03E
:10461000DDFA01283CD1224B02936B6803933522CB
:1046200002A9304600F022FB044698B139462846DC
:10463000FFF712FE68B1304600F020FB044690B947
:1046400008E0424641F288312846FFF789FE0446D9
:1046500000E00024304600F0ADFA19E0012417E034
:104660006FF0010414E0424641F288312846FFF71A
:1046700077FE0446B0F1FF3FECD1424641F288316B
:104680002846FFF76DFE0446B0F1FF3FD9D0E1E7C1
:10469000204604B0BDE8F081B09CFF1FF49DFF1FD1
:1046A000106C010070B58AB004460D4616468E4B5C
:1046B0001B6813F0010F17D18B4806F09BFB98B1D4
:1046C0008A4B002283F84C204FF47A71196583F8E5
:1046D00054208749996487499965DA65042283F8EB
:1046E0006420814806F08CFB804A834B1A6002F0FC
:1046F0005BFD824BDB7A2BB372B6804BDB7A13F017
:10470000010F06D07E4A10687C49CB6803408B615C
:1047100013607A4BDB7A13F0020F06D0794A1068E7
:1047200076490B690340CB611360744BDB7A13F05D
:10473000040F06D0744A106870494B6903400B623D
:10474000136062B66D4B1B68DA68B2F1384F0BD05C
:104750006E4A1A60694B1B684FF03842DA604FF0BE
:1047600078421A616A4A1A6006222146092001F03D
:104770009DFB604B009300238DF804308DF80530CD
:104780008DF806308DF8073004220DEB02010F2062
:1047900001F08CFB594BDB7AC3B113F0010F03D04E
:1047A000564B9A695B4B1A60544BDB7A13F0020F3D
:1047B00003D0524BDA69584B1A60504BDB7A13F036
:1047C000040F03D04D4B1A6A544B1A6033462A46E5
:1047D000214649480068FFF78DFC044601287FD137
:1047E000464BDB7A2BB372B6444BDB7A13F0010FE6
:1047F00006D0434A10684149CB6803408B6113607F
:104800003E4BDB7A13F0020F06D03E4A10683B495C
:104810000B690340CB611360384BDB7A13F0040F54
:1048200006D0394A106835494B6903400B62136062
:1048300062B6324B1B68DA68B2F1384F0BD0334A9C
:104840001A602E4B1B684FF03842DA604FF0784206
:104850001A612F4A1A60284D296802A8FFF7CCF880
:10486000042203A90F2001F021FB296804A8FFF707
:10487000DFF8042205A9012001F018FB296806A829
:10488000FFF7C8F8042207A9052001F00FFB1B4B16
:10489000DB7AC3B113F0010F03D0184B9A691D4B9B
:1048A0001A60164BDB7A13F0020F03D0134BDA6950
:1048B000194B1A60114BDB7A13F0040F03D00F4B26
:1048C0001A6A164B1A600C4B196808A8FFF7BEF855
:1048D000099A134B5A6006F02BFB80B200F040FBA4
:1048E00020460AB070BD00BFB89CFF1FBC9CFF1FD4
:1048F00068690100106C01002C9DFF1F3C87FF1FA1
:1049000080E100E084E100E088E100E001401F0078
:1049100000001F8000E100E004E100E008E100E0A9
:10492000249DFF1F30B589B0464B1868002800F061
:104930008480FFF7F7FB0446022801D004287DD1CC
:10494000414BDB7A2BB372B63F4BDB7A13F0010F8E
:1049500006D03E4A10683C49CB6803408B61136027
:10496000394BDB7A13F0020F06D0394A106836490A
:104970000B690340CB611360334BDB7A13F0040FF8
:1049800006D0344A106830494B6903400B6213600B
:1049900062B62D4B1B68DA68B2F1384F0BD02E4A45
:1049A0001A60294B1B684FF03842DA604FF07842AA
:1049B0001A612A4A1A60234D29686846FFF71CF8D5
:1049C00004220DEB02010F2001F070FA296802A801
:1049D000FFF72EF8042203A9012001F067FA2968E5
:1049E00004A8FFF717F8042205A9052001F05EFAD4
:1049F000154BDB7AC3B113F0010F03D0124B9A6948
:104A0000174B1A60104BDB7A13F0020F03D00E4BDA
:104A1000DA69144B1A600C4BDB7A13F0040F03D0E5
:104A2000094B1A6A104B1A60064B196806A8FFF763
:104A30000DF8079A0D4B5A6000E00024204609B09B
:104A400030BD00BF2C9DFF1F3C87FF1F80E100E0B1
:104A500084E100E088E100E001401F0000001F80C9
:104A600000E100E004E100E008E100E0249DFF1F18
:104A700010B50446304B0360002343602F4BDB7AB4
:104A80002BB372B62D4BDB7A13F0010F06D02C4AF4
:104A900010682A49CB6803408B611360274BDB7A8F
:104AA00013F0020F06D0274A106824490B6903400F
:104AB000CB611360214BDB7A13F0040F06D0224A3E
:104AC00010681E494B6903400B62136062B61B4BB2
:104AD0001B68DA68B2F1384F0BD01C4A1A60174BCA
:104AE0001B684FF03842DA604FF078421A61184A7A
:104AF0001A600422A1180F2001F002FD0F4BDB7A8F
:104B0000C3B113F0010F03D00C4B9A69114B1A601B
:104B10000A4BDB7A13F0020F03D0084BDA690E4B15
:104B20001A60064BDB7A13F0040F03D0034B1A6AAA
:104B30000A4B1A60204610BD106C01003C87FF1F15
:104B400080E100E084E100E088E100E001401F0036
:104B500000001F8000E100E004E100E008E100E067
:104B6000024B034A1A6000225A607047249DFF1FBF
:104B7000106C010008B503685B6B984708BD00BF67
:104B8000024A02604A694260704700BF106C01002F
:104B9000008B7047C08B704710B582B002AB03F832
:104BA000011D0268546801221946A04702B010BDD9
:104BB000704700BF037F032B07D810B50446184683
:104BC00000F0B4FC0423237710BD704738B50446C9
:104BD0000D46007F032801D800F0A8FC29460220DA
:104BE00000F0C8F92077032804D8E5810023E38387
:104BF000012038BD002038BD70B592B005460C4686
:104C00001646174A0392002304938DF81C304FF484
:104C10007A7108918DF82430124906910A920B930B
:104C200004218DF83410019202930E920E4B5B68B2
:104C30000F930EA903A8FFF7D1FA01AA214603A8F2
:104C4000FFF7CAFC012809D12B685B6A044A10925D
:104C5000029A1192324610A92846984712B070BDA8
:104C6000106C010068690100249DFF1F08B5002336
:104C700043830431007F00F045FF08BD08B5007F85
:104C800000F0DAFF08BD00BF10B5044693B20A4633
:104C9000418B007F00F0B8FE638B0344638310BD3B
:104CA000C38B83B110B582B0044601220DF1070118
:104CB000007F00F0A9FC002808DDE38B013BE383C3
:104CC0009DF8070004E04FF0FF3070474FF0FF30D1
:104CD00002B010BDC38B73B110B50446934294BFAC
:104CE0001AB212B2007F00F08FFC002806DDE38BC1
:104CF0001B1AE38310BD4FF0FF3070474FF0FF30B9
:104D000010BD00BF10B582B00446C38B33B1236819
:104D10005B6920469847E38B002BF8D1207F00F099
:104D200075FD10B308226946207F00F06DFC002855
:104D30001CDD9DF8003023759DF8013063759DF8EA
:104D40000230A3759DF80330E3759DF804209DF8AB
:104D5000053003EB022323839DF806009DF80730FE
:104D600003EB002080B2E08300E0002002B010BD21
:104D700008B5037F032B05D8C28B32B1184600F06B
:104D8000BDFD08BD4FF0FF3008BD4FF0FF3008BD3E
:104D900070B582B004460E461546007F032801D840
:104DA00000F0C4FB094B0093736801932A466946DF
:104DB000822000F02FFA2077032804D8E581002311
:104DC000E383012000E0002002B070BD106C010000
:104DD0002DE9F04383B007460C4690461E46050277
:104DE000274B188824302844022201A980B201F000
:104DF00087FB9DF804109DF8053043EA012121440A
:104E00008CB2204BB3F8009004EA09091E4B33F82A
:104E10001700484480B21D4B1B78372B05D01C4B24
:104E20001B8809EB06029A4204DC3246414601F037
:104E30003DF811E0C9EB03091FFA89F94A464146DA
:104E400001F034F8C9EB060292B208EB09010E4BEF
:104E500033F8170001F02AF83444A4B223128DF875
:104E600004308DF80540064B18882430284402226F
:104E700001A980B201F01AF803B0BDE8F08300BFC9
:104E80005C9DFF1F689DFF1F609DFF1F5A9DFF1FB8
:104E9000589DFF1F2DE9F04182B080460502154B59
:104EA000188820302844022201A980B201F028FB92
:104EB0009DF804409DF8053043EA04240D4F022676
:104EC00000E00446388820302844324601A980B2E8
:104ED00001F016FB9DF804009DF8053043EA002020
:104EE0008442EED1044B03EBC808A8F8040002B0DA
:104EF000BDE8F0815C9DFF1F389DFF1F2DE9F0414B
:104F000082B080460502144B1888263028440222BD
:104F100001A980B201F0F4FA9DF804409DF8053033
:104F200043EA04240C4F022600E004463888263069
:104F30002844324601A980B201F0E2FA9DF804004B
:104F40009DF8053043EA00208442EED1034B23F85C
:104F5000380002B0BDE8F0815C9DFF1F389DFF1F47
:104F6000034AC0F30D00138858401080704700BFFB
:104F70006087FF1F2DE9F04F85B083468A46984B26
:104F8000DB7A2BB372B6964BDB7A13F0010F06D0A7
:104F9000944A10689249CB6803408B611360904B30
:104FA000DB7A13F0020F06D08F4A10688C490B6928
:104FB0000340CB6113608A4BDB7A13F0040F06D0F9
:104FC0008A4A106886494B6903400B62136062B6D7
:104FD000834B1B68DA68B2F1384F0BD0844A1A60F1
:104FE0007F4B1B684FF03842DA604FF078421A610D
:104FF000804A1A6003AF3E460024DFF80C924FF05F
:10500000010804E09DF80C201D2A1DD814E0E5B22B
:10501000B9F80000033000EB0420424602A980B238
:1050200001F06EFA9DF8083006F8013B002B41D0E4
:105030000134042CEBD1E5E74FF03453D34013F0A7
:10504000010F32D1012500E001254FF0345217F84D
:10505000013F1D2B04D822FA03F313F0010F25D1D1
:105060000135EDB2042DF2D15D4BDB7A002B00F05F
:10507000AD8013F0010F03D0594B9A695E4B1A6053
:10508000574BDB7A13F0020F03D0554BDA695B4BB9
:105090001A60534BDB7A13F0040F00F09980504BE9
:1050A0001A6A574B1A60042097E000251021284601
:1050B00002F0C2FA2F460022524B23F8152041F28B
:1050C0007073013BFDD12E024F4C2088304404A95F
:1050D00001F809BD012280B200F0E8FE208802300C
:1050E000304404A9FF2301F80A3D012280B200F0F8
:1050F000DDFEBAF1000F0ED04FEA2A238DF80830FA
:105100008DF809A0208804303044022202A980B220
:1051100000F0CCFE1DE03D4B1B8801339BB2B3F584
:10512000404F02D3394A138003E04FF44042374BDB
:105130001A80364B1B881A128DF808208DF809301A
:10514000314B188804303044022202A980B200F0AA
:10515000ADFE0121284602F06FFA2D4C4FF00008F9
:1051600024F83780284B188828303044022202A9BE
:1051700080B201F0C5F99DF808209DF8093043EA96
:10518000022204EBC7035A8083F80680A3F8048048
:10519000134BDB7AF3B113F0010F03D0104B9A6974
:1051A000154B1A600E4BDB7A13F0020F03D00C4B39
:1051B000DA69124B1A600A4BDB7A13F0040F0BD03A
:1051C000074B1A6A0E4B1A60284606E0042004E0DA
:1051D000042002E0284600E0284605B0BDE8F08F34
:1051E0003C87FF1F80E100E084E100E088E100E00F
:1051F00001401F0000001F8000E100E004E100E02A
:1052000008E100E0309DFF1F5C9DFF1F6087FF1FCE
:10521000389DFF1F2DE9F04F89B0019089469246D5
:10522000B04BDB7A2BB372B6AE4BDB7A13F0010FC7
:1052300006D0AD4A1068AB49CB6803408B61136060
:10524000A84BDB7A13F0020F06D0A84A1068A549D4
:105250000B690340CB611360A24BDB7A13F0040FA0
:1052600006D0A34A10689F494B6903400B62136044
:1052700062B69C4B1B68DA68B2F1384F0BD09D4A7E
:105280001A60984B1B684FF03842DA604FF0784252
:105290001A61994A1A6007AF3E460024DFF86C8213
:1052A0004FF0010B04E09DF81C201D2A1DD814E0CE
:1052B000E5B2B8F80000033000EB04205A4604A918
:1052C00080B201F01DF99DF8103006F8013B002B6B
:1052D00041D00134042CEBD1E5E74FF03453D340F7
:1052E00013F0010F32D1012500E001254FF03452B7
:1052F00017F8013F1D2B04D822FA03F313F0010F16
:1053000025D10135EDB2042DF2D1764BDB7A002B9D
:1053100000F0E58013F0010F03D0724B9A69774BD0
:105320001A60704BDB7A13F0020F03D06D4BDA6911
:10533000734B1A606B4BDB7A13F0040F00F0EE80B6
:10534000684B1A6A6F4B1A600420ECE000251021AC
:10535000284602F071F92F4600226B4B23F81520E6
:1053600041F27073013BFDD12C02684E308820441D
:1053700008A99DF8043001F8113D012280B200F027
:1053800095FD30880230204408A9FF2301F8123D22
:10539000012280B200F08AFDBAF1000F0ED04FEA70
:1053A0002A238DF810308DF811A030880430204465
:1053B000022204A980B200F079FD1DE0544B1B8845
:1053C00001339BB2B3F5404F02D3514A138003E03F
:1053D0004FF440424E4B1A804D4B1B881A128DF8E9
:1053E00010208DF81130494B1888043020440222D7
:1053F00004A980B200F05AFD464B1868059099F850
:10540000053003F07F038DF8173099F806308DF8DA
:10541000183099F807308DF81930DFF8F0B0BBF884
:1054200000000C302044042209EB020180B200F09D
:105430003DFD4FEA2A238DF810308DF811A0BBF8FE
:10544000000010302044022204A980B200F02EFD9A
:10545000BBF8000006302044062205A980B200F007
:1054600025FD0121284602F0E7F82B4E4FF00008F9
:1054700026F83780BBF8000028302044022204A917
:1054800080B201F03DF89DF810209DF8113043EAFC
:10549000022206EBC7035A8083F80680A3F8048033
:1054A000104BDB7A002B3BD013F0010F03D00D4BD8
:1054B0009A69124B1A600B4BDB7A13F0020F03D080
:1054C000084BDA690E4B1A60064BDB7A13F0040FB7
:1054D00028D0044B1A6A0B4B1A60284623E004209C
:1054E00021E000BF3C87FF1F80E100E084E100E095
:1054F00088E100E001401F0000001F8000E100E0A3
:1055000004E100E008E100E0309DFF1F5C9DFF1F0B
:105510006087FF1FB0690100389DFF1F042002E073
:10552000284600E0284609B0BDE8F08F10B52D4BA5
:10553000DB7A2BB372B62B4BDB7A13F0010F06D05C
:10554000294A14682749CB6823408B611360254B97
:10555000DB7A13F0020F06D0244A146821490B6944
:105560002340CB6113601F4BDB7A13F0040F06D08E
:105570001F4A14681B494B6923400B62136062B6D3
:10558000184B1B68DA68B2F1384F0BD0194A1A6011
:10559000144B1B684FF03842DA604FF078421A61C2
:1055A000154A1A60102102F047F80E4BDB7AC3B19E
:1055B00013F0010F03D00B4B9A69104B1A60094B83
:1055C000DB7A13F0020F03D0064BDA690C4B1A603A
:1055D000044BDB7A13F0040F03D0024B1A6A094B19
:1055E0001A6010BD3C87FF1F80E100E084E100E00D
:1055F00088E100E001401F0000001F8000E100E0A2
:1056000004E100E008E100E02DE9F04383B0044646
:10561000894616466E4B33F830206E4BDB7A2BB33F
:1056200072B66C4BDB7A13F0010F06D06A490D6835
:105630006848C3682B4083610B60664BDB7A13F0CC
:10564000020F06D065490D68624803692B40C361AB
:105650000B60604BDB7A13F0040F06D060490D68D5
:105660005C4843692B4003620B6062B6594B1B6870
:10567000D968B1F1384F0BD05A491960554B1B68A6
:105680004FF03841D9604FF078411961564919609F
:105690001546B24203DA2046FFF730FC0546ADB9A5
:1056A000524B1888033000EB0420012201A980B27C
:1056B00000F026FF9DF80430142B69D0002B67D032
:1056C000B3F11C0518BF4FF0FF3561E0B542A8BF2C
:1056D00035463F4B03EBC4035E88AFB2444BB3F88F
:1056E000008006EA0808434B33F81400404480B2B7
:1056F000414B1B78372B05D0404B1B8818FA85F29D
:105700009A4204DC3A46494600F0FAFE11E0C8EB42
:1057100003081FFA88F84246494600F0F1FEC8EB3C
:10572000070292B209EB0801324B33F8140000F083
:10573000E7FEF3199BB2264901EBC400438031F820
:105740003420D21B92B221F834208179394489B2B5
:10575000F92900D8C2B91E4A02EBC4020021917196
:105760001A128DF804208DF80530204B1888283047
:1057700000EB0420022201A980B200F097FB402137
:10578000204601F059FF03E0114B03EBC404A17163
:10579000104BDB7AC3B113F0010F03D00D4B9A69A4
:1057A000174B1A600B4BDB7A13F0020F03D0094B37
:1057B000DA69144B1A60074BDB7A13F0040F03D03D
:1057C000044B1A6A104B1A60284603B0BDE8F083F8
:1057D000389DFF1F3C87FF1F80E100E084E100E06F
:1057E00088E100E001401F0000001F805C9DFF1F5A
:1057F000689DFF1F6C9DFF1F5A9DFF1F589DFF1F37
:1058000000E100E004E100E008E100E00346314A85
:1058100032F8300000285BD110B52F4AD27A2AB373
:1058200072B62D4AD27A12F0010F06D02B490C68BD
:105830002948C268224082610A60274AD27A12F05F
:10584000020F06D026490C68234802692240C26133
:105850000A60214AD27A12F0040F06D021490C685E
:105860001D484269224002620A6062B61A4A126802
:10587000D168B1F1384F0BD01B491160164A12683C
:105880004FF03841D1604FF07841116117491160F4
:105890001846FFF733FB104BDB7AC3B113F0010F4F
:1058A00003D00D4B9A69124B1A600B4BDB7A13F045
:1058B000020F03D0084BDA690E4B1A60064BDB7AF5
:1058C00013F0040F03D0044B1A6A0B4B1A6010BD7F
:1058D000704700BF389DFF1F3C87FF1F80E100E03D
:1058E00084E100E088E100E001401F0000001F802B
:1058F00000E100E004E100E008E100E010B582B062
:10590000354BDB7A2BB372B6334BDB7A13F0010FD6
:1059100006D0324A14683049CB6823408B6113604B
:105920002D4BDB7A13F0020F06D02D4A14682A495A
:105930000B692340CB611360274BDB7A13F0040F14
:1059400006D0284A146824494B6923400B6213602F
:1059500062B6214B1B68DA68B2F1384F0BD0224A8D
:105960001A601D4B1B684FF03842DA604FF07842E6
:105970001A611E4A1A601E4B03EBC0035A881D4B66
:105980001B881A401C4B33F81030D01801220DF13F
:10599000070180B200F0B4FD0F4BDB7AC3B113F006
:1059A000010F03D00C4B9A69144B1A600A4BDB7A37
:1059B00013F0020F03D0084BDA69114B1A60064B43
:1059C000DB7A13F0040F03D0034B1A6A0D4B1A60F5
:1059D0009DF8070002B010BD3C87FF1F80E100E08A
:1059E00084E100E088E100E001401F0000001F802A
:1059F000389DFF1F689DFF1F6C9DFF1F00E100E0A9
:105A000004E100E008E100E0F8B505460E4617465F
:105A10001C46334BDB7A2BB372B6314BDB7A13F077
:105A2000010F06D02F4A10682D49CB6803408B61C7
:105A300013602B4BDB7A13F0020F06D02A4A106852
:105A400027490B690340CB611360254BDB7A13F0C8
:105A5000040F06D0254A106821494B6903400B62A8
:105A6000136062B61E4B1B68DA68B2F1384F0BD078
:105A70001F4A1A601A4B1B684FF03842DA604FF029
:105A800078421A611B4A1A602846FFF703FAA042BF
:105A900028BF204684B223463A4631462846FFF7BF
:105AA00097F90F4BDB7AC3B113F0010F03D00C4B06
:105AB0009A69114B1A600A4BDB7A13F0020F03D07C
:105AC000074BDA690D4B1A60054BDB7A13F0040FB4
:105AD00003D0034B1A6A0A4B1A602046F8BD00BF78
